:020000040800F2
:1000000000000220A1060108E5ED0008EBED000864
:10001000F1ED0008F7ED0008FDED0008000000001C
:1000200000000000000000000000000003EE0008D7
:1000300011EE0008000000001FEE00082DEE000881
:10004000F1060108F1060108F1060108F1060108B0
:10005000F1060108F1060108F1060108F1060108A0
:10006000F1060108F1060108F1060108F106010890
:10007000F1060108F1060108F1060108F106010880
:10008000F1060108F1060108F1060108F106010870
:10009000F1060108F1060108F1060108F106010860
:1000A000F106010839EE0008F1060108F106010821
:1000B000F1060108F1060108F1060108F106010840
:1000C000F1060108F1060108F1060108F106010830
:1000D000F1060108F1060108F1060108F106010820
:1000E0004DEE0008F1060108F1060108F1060108CD
:1000F0005DEE0008F1060108F1060108F1060108AD
:10010000F1060108F1060108F1060108F1060108EF
:10011000F1060108F1060108F1060108F1060108DF
:1001200071EE0008F106010885EE0008F1060108ED
:10013000F10601080000000000000000F1060108BF
:10014000F1060108F1060108F1060108F1060108AF
:10015000F1060108F1060108F1060108F10601089F
:10016000F1060108F1060108F1060108F10601088F
:10017000F1060108F106010800000000000000007F
:08018000F1060108F106010877
:1080000010B5054C237833B9044B13B10448AFF3D2
:1080100000800123237010BDF80100200000000043
:1080200058A8010808B5034B1BB103490348AFF337
:10803000008008BD00000000FC01002058A80108D5
:10804000034613F8012B002AFBD1181A0138704798
:1080500001F0FF01102A2BDB10F0070F08D010F8F9
:10806000013B013A8B422DD010F0070F42B3F6D1FD
:10807000F0B441EA012141EA014122F007047FF016
:1080800000070023F0E80256083C85EA010586EA6D
:10809000010685FA47F5A3FA87F586FA47F6A5FAA9
:1080A00087F68EB9EED1F0BC01F0FF0102F00702B5
:1080B00032B110F8013B013A83EA010313B1F8D160
:1080C0000020704701387047002D06BF3546033841
:1080D000073815F0010F07D1013015F4807F02BF7A
:1080E000013015F4C03F0130F0BC0138704700BFCB
:1080F00081F0004102E000BF83F0004330B54FEA59
:1081000041044FEA430594EA050F08BF90EA020FC5
:108110001FBF54EA000C55EA020C7FEA645C7FEA58
:10812000655C00F0E2804FEA5454D4EB5555B8BF7B
:108130006D420CDD2C4480EA020281EA030382EAEC
:10814000000083EA010180EA020281EA0303362D7E
:1081500088BF30BD11F0004F4FEA01314FF4801C51
:108160004CEA113102D0404261EB410113F0004F63
:108170004FEA03334CEA133302D0524263EB43031A
:1081800094EA050F00F0A780A4F10104D5F1200EB8
:108190000DDB02FA0EFC22FA05F2801841F1000113
:1081A00003FA0EF2801843FA05F359410EE0A5F1E7
:1081B00020050EF1200E012A03FA0EFC28BF4CF018
:1081C000020C43FA05F3C01851EBE37101F00045CE
:1081D00007D54FF0000EDCF1000C7EEB00006EEBDB
:1081E0000101B1F5801F1BD3B1F5001F0CD3490865
:1081F0005FEA30004FEA3C0C04F101044FEA4452BC
:1082000012F5800F80F09A80BCF1004F08BF5FEA42
:10821000500C50F1000041EB045141EA050130BD22
:108220005FEA4C0C404141EB010111F4801FA4F1C5
:108230000104E9D191F0000F04BF01460020B1FA1A
:1082400081F308BF2033A3F10B03B3F120020CDA52
:108250000C3208DD02F1140CC2F10C0201FA0CF030
:1082600021FA02F10CE002F11402D8BFC2F1200C95
:1082700001FA02F120FA0CFCDCBF41EA0C0190404B
:10828000E41AA2BF01EB0451294330BD6FEA040494
:108290001F3C1CDA0C340EDC04F11404C4F120027F
:1082A00020FA04F001FA02F340EA030021FA04F391
:1082B00045EA030130BDC4F10C04C4F1200220FAE8
:1082C00002F001FA04F340EA0300294630BD21FA26
:1082D00004F0294630BD94F0000F83F4801306BFEC
:1082E00081F480110134013D4EE77FEA645C18BFE0
:1082F0007FEA655C29D094EA050F08BF90EA020F77
:1083000005D054EA000C04BF1946104630BD91EA6E
:10831000030F1EBF0021002030BD5FEA545C05D171
:108320004000494128BF41F0004130BD14F58004B0
:108330003CBF01F5801130BD01F0004545F0FE4124
:1083400041F470014FF0000030BD7FEA645C1ABF59
:10835000194610467FEA655C1CBF0B46024650EA90
:10836000013406BF52EA033591EA030F41F40021BC
:1083700030BD00BF90F0000F04BF0021704730B542
:108380004FF4806404F132044FF000054FF0000117
:1083900050E700BF90F0000F04BF0021704730B5D8
:1083A0004FF4806404F1320410F0004548BF4042AD
:1083B0004FF000013EE700BF42004FEAE2014FEA02
:1083C00031014FEA02701FBF12F07F4393F07F4FDD
:1083D00081F06051704732F07F4208BF704793F0E0
:1083E0007F4F04BF41F40021704730B54FF46074F3
:1083F00001F0004521F000411CE700BF50EA0102F6
:1084000008BF704730B54FF000050AE050EA01029E
:1084100008BF704730B511F0004502D5404261EB0E
:1084200041014FF4806404F132045FEA915C3FF44F
:10843000D8AE4FF003025FEADC0C18BF03325FEAEC
:10844000DC0C18BF033202EBDC02C2F1200300FA9D
:1084500003FC20FA02F001FA03FE40EA0E0021FAC2
:1084600002F11444BDE600BF70B54FF0FF0C4CF4B0
:10847000E06C1CEA11541DBF1CEA135594EA0C0F62
:1084800095EA0C0F00F0DEF82C4481EA030621EA9D
:108490004C5123EA4C5350EA013518BF52EA0335D8
:1084A00041F4801143F4801338D0A0FB02CE4FF08A
:1084B0000005E1FB02E506F00042E0FB03E54FF0BA
:1084C0000006E1FB03569CF0000F18BF4EF0010EB2
:1084D000A4F1FF04B6F5007F64F5407404D25FEAAE
:1084E0004E0E6D4146EB060642EAC62141EA555161
:1084F0004FEAC52040EA5E504FEACE2EB4F1FD0CA3
:1085000088BFBCF5E06F1ED8BEF1004F08BF5FEA20
:10851000500E50F1000041EB045170BD06F00046D2
:1085200046EA010140EA020081EA0301B4EB5C047F
:10853000C2BFD4EB0C0541EA045170BD41F4801177
:108540004FF0000E013C00F3AB8014F1360FDEBF9C
:10855000002001F0004170BDC4F10004203C35DA78
:108560000C341BDC04F11404C4F1200500FA05F3FB
:1085700020FA04F001FA05F240EA020001F000429C
:1085800021F0004110EBD37021FA04F642EB060112
:108590005EEA430E08BF20EAD37070BDC4F10C043C
:1085A000C4F1200500FA04F320FA05F001FA04F200
:1085B00040EA020001F0004110EBD37041F10001EC
:1085C0005EEA430E08BF20EAD37070BDC4F12005F7
:1085D00000FA05F24EEA020E20FA04F301FA05F25F
:1085E00043EA020321FA04F001F0004121FA04F207
:1085F00020EA020000EBD3705EEA430E08BF20EAD7
:10860000D37070BD94F0000F0FD101F00046400010
:1086100041EB010111F4801F08BF013CF7D041EA92
:10862000060195F0000F18BF704703F00046520096
:1086300043EB030313F4801F08BF013DF7D043EA67
:108640000603704794EA0C0F0CEA135518BF95EA1D
:108650000C0F0CD050EA410618BF52EA4306D1D1A4
:1086600081EA030101F000414FF0000070BD50EAC3
:10867000410606BF1046194652EA430619D094EA4D
:108680000C0F02D150EA013613D195EA0C0F05D137
:1086900052EA03361CBF104619460AD181EA03018B
:1086A00001F0004141F0FE4141F470014FF0000043
:1086B00070BD41F0FE4141F4780170BD70B54FF0DE
:1086C000FF0C4CF4E06C1CEA11541DBF1CEA13555E
:1086D00094EA0C0F95EA0C0F00F0A7F8A4EB050440
:1086E00081EA030E52EA03354FEA013100F0888037
:1086F0004FEA03334FF0805545EA131343EA126300
:108700004FEA022245EA111545EA10654FEA0026B4
:108710000EF000419D4208BF964244F1FD0404F56D
:10872000407402D25B084FEA3202B61A65EB0305C9
:108730005B084FEA32024FF480104FF4002CB6EB86
:10874000020E75EB030E22BFB61A754640EA0C0006
:108750005B084FEA3202B6EB020E75EB030E22BF46
:10876000B61A754640EA5C005B084FEA3202B6EB87
:10877000020E75EB030E22BFB61A754640EA9C0046
:108780005B084FEA3202B6EB020E75EB030E22BF16
:10879000B61A754640EADC0055EA060E18D04FEAD4
:1087A000051545EA16754FEA06164FEAC30343EA74
:1087B00052734FEAC2025FEA1C1CC0D111F4801F41
:1087C0000BD141EA00014FF000004FF0004CB6E73A
:1087D00011F4801F04BF01430020B4F1FD0C88BFD9
:1087E000BCF5E06F3FF6AFAEB5EB030C04BFB6EBE4
:1087F000020C5FEA500C50F1000041EB045170BDD7
:108800000EF0004E4EEA113114EB5C04C2BFD4EB03
:108810000C0541EA045170BD41F480114FF0000E87
:10882000013C90E645EA060E8DE60CEA135594EA03
:108830000C0F08BF95EA0C0F3FF43BAF94EA0C0F06
:108840000AD150EA01347FF434AF95EA0C0F7FF47B
:1088500025AF104619462CE795EA0C0F06D152EACF
:1088600003353FF4FDAE1046194622E750EA4106B3
:1088700018BF52EA43067FF4C5AE50EA41047FF4C4
:108880000DAF52EA43057FF4EBAE12E74FF0FF3C29
:1088900006E000BF4FF0010C02E000BF4FF0010CFA
:1088A0004DF804CD4FEA410C7FEA6C5C4FEA430C73
:1088B00018BF7FEA6C5C1BD001B050EA410C0CBFC2
:1088C00052EA430C91EA030F02BF90EA020F002024
:1088D000704710F1000F91EA030F58BF994208BF8B
:1088E00090422CBFD8176FEAE37040F00100704748
:1088F0004FEA410C7FEA6C5C02D150EA013C07D19F
:108900004FEA430C7FEA6C5CD6D152EA033CD3D0E9
:108910005DF8040B704700BF8446104662468C46E3
:108920001946634600E000BF01B5FFF7B7FF002816
:1089300048BF10F1000F01BD4DF808EDFFF7F4FF3F
:108940000CBF012000205DF808FB00BF4DF808EDCA
:10895000FFF7EAFF34BF012000205DF808FB00BFED
:108960004DF808EDFFF7E0FF94BF012000205DF80F
:1089700008FB00BF4DF808EDFFF7CEFF94BF0120C4
:1089800000205DF808FB00BF4DF808EDFFF7C4FFBD
:1089900034BF012000205DF808FB00BF4FEA410C06
:1089A0007FEA6C5C02D150EA013C0AD14FEA430CE9
:1089B0007FEA6C5C02D152EA033C02D14FF0000026
:1089C00070474FF0010070474FEA410212F5001264
:1089D00015D211D56FF47873B3EB625212D94FEA06
:1089E000C12343F0004343EA505311F0004F23FAF0
:1089F00002F018BF404270474FF00000704750EA45
:108A0000013005D111F0004008BF6FF00040704701
:108A10004FF00000704700BF4A0011D212F500125B
:108A200011D20DD56FF47873B3EB62520ED44FEAC6
:108A3000C12343F0004343EA505323FA02F0704746
:108A40004FF00000704750EA013002D14FF0FF3084
:108A500070474FF0000070474FEA4102B2F1E04327
:108A600024BFB3F5001CDCF1FE5C0DD901F0004C15
:108A70004FEAC0024CEA5070B2F1004F40EB830065
:108A800008BF20F00100704711F0804F21D113F191
:108A90003872BCBF01F00040704741F480114FEACA
:108AA0005252C2F11802C2F1200C10FA0CF320FA53
:108AB00002F018BF40F001004FEAC1234FEAD32370
:108AC00003FA0CFC40EA0C0023FA02F34FEA4303DA
:108AD000CCE77FEA625307D150EA01331EBF4FF063
:108AE000FE4040F44000704701F0004040F0FE407E
:108AF00040F40000704700BF53B94AB9002908BFCD
:108B000000281CBF4FF0FF314FF0FF3000F072B96A
:108B1000ADF1080C6DE904CE00F006F8DDF804E0D4
:108B2000DDE9022304B070472DE9F047089E0446B2
:108B30008846002B4BD18A42154667D9B2FA82F299
:108B40004AB1C2F1200701FA02F320FA07F7954073
:108B500047EA030894404FEA154E230CB8FBFEF792
:108B60001FFA85FC0EFB178843EA084307FB0CF14C
:108B7000994209D9EB1807F1FF3080F01B81994227
:108B800040F21881023F2B445B1AA4B2B3FBFEF003
:108B90000EFB103344EA034400FB0CFCA44509D946
:108BA0002C1900F1FF3380F00781A44540F20481C5
:108BB00002382C4440EA0740A4EB0C0400271EB105
:108BC000D4400023C6E900433946BDE8F0878B4214
:108BD00009D9002E00F0EB800027C6E900013846D5
:108BE0003946BDE8F087B3FA83F7002F47D18B42AF
:108BF00002D3824200F2FA80841A61EB030301205F
:108C00009846002EE0D0C6E90048DDE702B9FFDE55
:108C1000B2FA82F2002A40F08F80491B4FEA154ECB
:108C20001FFA85F80127B1FBFEFC230C0EFB1C117B
:108C300043EA014308FB0CF1994207D9EB180CF108
:108C4000FF3002D2994200F2CD808446591AA3B275
:108C5000B1FBFEF00EFB101443EA044408FB00F8DD
:108C6000A04507D92C1900F1FF3302D2A04500F22C
:108C7000B6801846A4EB080440EA0C409FE7C7F111
:108C8000200CBB4022FA0CFE4EEA030E01FA07F458
:108C900020FA0CF521FA0CF34FEA1E482543B3FBEA
:108CA000F8F92C0C08FB19331FFA8EFA44EA034337
:108CB00009FB0AF49C4202FA07F200FA07F10BD909
:108CC0001EEB030309F1FF3080F087809C4240F2E5
:108CD0008480A9F1020973441B1BADB2B3FBF8F009
:108CE00008FB103345EA034400FB0AFAA24508D901
:108CF0001EEB040400F1FF336BD2A24569D90238A0
:108D0000744440EA0940A0FB0289A4EB0A044C45E4
:108D1000C2464B4654D351D0002E69D0B1EB0A0560
:108D200064EB030404FA0CFCFD40FC404CEA05052E
:108D3000C6E90054002747E7C2F1200320FA03F7F1
:108D4000954001FA02F021FA03F34FEA154E384339
:108D5000010CB3FBFEF71FFA85F80EFB173341EA4F
:108D6000034107FB08F38B4204FA02F407D96918A0
:108D700007F1FF3C2FD28B422DD9023F2944CB1A59
:108D800081B2B3FBFEF00EFB103341EA034100FB5E
:108D900008F38B4207D9691800F1FF3C17D28B42C8
:108DA00015D902382944C91A40EA07473BE7374634
:108DB000304609E70746E7E61846FBE64145ABD2F1
:108DC000B8EB020A69EB0E0201381346A4E76046CD
:108DD000E9E7184695E76746D1E781467CE7023820
:108DE0002C4447E7ACF1020C2B442FE7384608E748
:108DF0003746E9E6704700BF80B400AF0B4B002256
:108E00001A700A4B00225A70084B0022DA70074B86
:108E100000229A70054B04221A71044B01225A71E8
:108E200000BFBD465DF8047B704700BF0000002016
:108E300080B400AF9A4BDB78032B00F22B8101A2A8
:108E400052F823F0558E0008E58E0008758F000853
:108E500005900008924B1B781846914B5B78194699
:108E6000904A03010B4412F81330C3F38103DBB2C1
:108E7000012B11D18A4B1B781846894B5B78194618
:108E8000884A03010B4412F81330C3F38113DBB299
:108E9000012B01D10123FEE0814B1B781846804B4A
:108EA0005B7819467F4A03010B4412F81330C3F371
:108EB0008103DBB2012B01D10323ECE0784B1B785B
:108EC0001846774B5B781946764A03010B4412F833
:108ED0001330C3F38113DBB2012B01D10223DAE09B
:108EE0000623D8E06E4B1B7818466D4B5B7819460D
:108EF0006C4A03010B4412F81330C3F30103DBB2D5
:108F0000012B11D1664B1B781846654B5B781946CF
:108F1000644A03010B4412F81330C3F30113DBB2AC
:108F2000012B01D10123B6E05D4B1B7818465C4B49
:108F30005B7819465B4A03010B4412F81330C3F304
:108F40000103DBB2012B01D10223A4E0544B1B78B7
:108F50001846534B5B781946524A03010B4412F8EA
:108F60001330C3F30113DBB2012B01D1032392E0D1
:108F7000062390E04A4B1B781846494B5B7819460C
:108F8000484A03010B4412F81330C3F38103DBB2E8
:108F9000012B11D1424B1B781846414B5B78194687
:108FA000404A03010B4412F81330C3F38113DBB2C0
:108FB000012B01D101236EE0394B1B781846384B49
:108FC0005B781946374A03010B4412F81330C3F398
:108FD0008103DBB2012B01D102235CE0304B1B7813
:108FE00018462F4B5B7819462E4A03010B4412F8A2
:108FF0001330C3F38113DBB2012B01D103234AE009
:10900000062348E0264B1B781846254B5B7819460B
:10901000244A03010B4412F81330C3F30103DBB2FB
:10902000012B11D11E4B1B7818461D4B5B7819463E
:109030001C4A03010B4412F81330C3F30113DBB2D3
:10904000012B01D1012326E0154B1B781846144B48
:109050005B781946134A03010B4412F81330C3F32B
:109060000103DBB2012B01D1032314E00C4B1B786D
:1090700018460B4B5B7819460A4A03010B4412F859
:109080001330C3F30113DBB2012B01D1022302E041
:10909000062300E006231846BD465DF8047B7047B2
:1090A00000000020780B002080B400AF114B9B78AB
:1090B000022B12D0032B09D0012B00D014E00D4B52
:1090C000DB780133DAB20B4BDA700DE0094BDB7859
:1090D000013BDAB2074BDA7006E0064BDB7802336D
:1090E000DAB2044BDA7000BF00BFBD465DF8047B06
:1090F000704700BF0000002080B400AF034B002287
:109100005A7100BFBD465DF8047B70470000002027
:1091100080B400AF034B01225A7100BFBD465DF819
:10912000047B70470000002080B582B000AFFFF7DD
:109130007FFE78600021022007F00AF8002103205A
:1091400007F006F80021012007F002F800210020B6
:1091500006F0FEFF7C4B9B78002B3FD17A4B1B79AE
:10916000052B00F2EC8001A252F823F08591000853
:109170003F9300083F9300083F9300083F93000887
:109180008F9100080121002006F0E2FFD8E07B6803
:10919000062B1DD06D4BD3ED007AF5EE407AF1EE43
:1091A00010FA15D1684B5B79002B08D10121786842
:1091B00006F0CEFF0021002006F0CAFF0DE00021DE
:1091C000786806F0C5FF0121002006F0C1FF04E029
:1091D0000121002006F0BCFFB2E0B1E05A4B9B78C1
:1091E000032B40D1584B1B79022B08D1584B4FF021
:1091F00000021A60574B4FF000021A60A0E0524B79
:109200001B79012B1DD17B68062B15D04E4B5B794A
:10921000002B08D10121786806F09AFF0021002078
:1092200006F096FF8CE00021786806F091FF01219E
:10923000002006F08DFF83E00121002006F088FF6A
:109240007EE0414B1B79002B04D10121002006F068
:109250007FFF75E03C4B1B79032B71D1002100206F
:1092600006F076FF6CE0384B9B78012B40D1364BF3
:109270001B79022B08D1364B4FF000021A60354B98
:109280004FF000021A605BE02F4B1B79012B1DD1C0
:109290007B68062B15D02C4B5B79002B08D1012164
:1092A000786806F055FF0021002006F051FF47E0E6
:1092B0000021786806F04CFF0121002006F048FFED
:1092C0003EE00121002006F043FF39E01E4B1B79F0
:1092D000002B04D10121002006F03AFF30E01A4BA8
:1092E0001B79032B2CD10021002006F031FF27E051
:1092F000154B9B78022B23D1134B1B79012B15D1D6
:10930000114B5B79002B08D10121786806F020FF12
:109310000021002006F01CFF12E00021786806F012
:1093200017FF0121002006F013FF09E0064B1B790F
:10933000002B05D10121002006F00AFF00E000BF4C
:1093400000BF0837BD4680BD00000020BC060020DD
:10935000C00600203002002080B500AF174B042269
:109360001A71FFF7E1FE164B4FF000029A60154BA1
:109370004FF000021A60144B4FF000021A60134BBA
:109380004FF000021A60124BD3ED007A9FED117A74
:10939000F4EEC77AF1EE10FA02DD0F480DF0FEF898
:1093A0000B4BD3ED027AF5EE407AF1EE10FADAD1FA
:1093B000642007F011FA00BF80BD00BF000000204C
:1093C000B00600202C020020C00600203002002041
:1093D000F80600200000FA4370A801080000000011
:1093E00090B58DB000AF87ED010AC7ED000AB24B12
:1093F00003221A71FFF78CFEFFF796FEAF4B4FF07A
:1094000000021A60D7ED017AB3EE0E7A27EE877A62
:10941000DFEDAB6AC7EE267AC7ED0B7AD7ED017A9E
:10942000B3EE0E7A27EE877ADFEDA56AC7EE267ACD
:10943000C7ED0A7AD7ED017AB3EE0E7A27EE877A76
:10944000DFED9F6AC7EE267AC7ED097AD7ED007A7D
:109450009FED9C7A27EE877AD7ED007A67EE276A30
:10946000D7ED0B7A37EEA77AC6EE877AC7ED057A85
:109470004FF00003BB61D7ED007A9FED927A27EEA3
:10948000877AD7ED007A67EE276AD7ED097A37EE4B
:10949000A77AC6EE877AC7ED077AF86AFEF78CFFDF
:1094A00083A3D3E90023FEF7DFFF03460C461846EB
:1094B00021464FF00002844BFFF700F903460C46AB
:1094C00018462146FFF7C8FA0346BB60B86AFEF7A4
:1094D00073FF77A3D3E90023FEF7C6FF03460C46CC
:1094E000184621464FF00002774BFFF7E7F8034696
:1094F0000C4618462146FFF7AFFA0346FB60786A30
:10950000FEF75AFF6AA3D3E90023FEF7ADFF034637
:109510000C46184621464FF000026B4BFFF7CEF881
:1095200003460C4618462146FFF796FA03463B6170
:10953000D7ED007AF5EEC07AF1EE10FA57DD97ED2F
:10954000027A624BD3ED007A77EE277A5F4BC3ED58
:10955000007A02E07B695E4A13605C4B93ED007A0F
:109560005C4BD3ED007AB4EEE77AF1EE10FAF1DC61
:1095700097ED037A554BD3ED007A77EE277A534B6C
:10958000C3ED007A02E0BB69514A13604F4B93ED83
:10959000007A504BD3ED007AB4EEE77AF1EE10FA90
:1095A000F1DC97ED047A494BD3ED007A77EE277A18
:1095B000464BC3ED007A0EE0D7ED077AF1EE677AFD
:1095C000434BC3ED007A444BD3ED007AF5EEC07AFD
:1095D000F1EE10FA6AD93D4B93ED007A3D4BD3ED95
:1095E000007AB4EEE77AF1EE10FAE5DC77E0D7ED39
:1095F000007AF5EEC07AF1EE10FA70D5334B93EDA8
:10960000007AD7ED027A77EE677A304BC3ED007AB5
:1096100006E0D7ED057AF1EE677A2D4BC3ED007ABF
:109620002A4B93ED007A2B4BD3ED007AB4EEE77A18
:10963000F1EE10FAEDD4254B93ED007AD7ED037AD5
:1096400077EE677A214BC3ED007A02E0BB69204ACE
:1096500013601E4B93ED007A1E4BD3ED007AB4EEEF
:10966000E77AF1EE10FAF1D4184B93ED007AD7EDCA
:10967000047A77EE677A154BC3ED007A0AE0FB694E
:10968000134A1360144BD3ED007AF5EEC07AF1EE75
:1096900010FA23DA0D4B93ED007A0E4BD3ED007ADE
:1096A000B4EEE77AF1EE10FAE9D418E000BF16E064
:1096B000182D4454FB21094000000020C006002062
:1096C0000000B4426F12833D00806640DC0600203B
:1096D00030020020280200202402002000BF324B6C
:1096E0004FF000021A60FFF737FEFFF71DFDD7EDC0
:1096F000017A9FED2E7AC7EE876A16EE900AFEF782
:109700005BFE27A3D3E90023FEF7AEFE03460C461B
:1097100018462146FFF758F903463B62D7ED007A19
:10972000F5EEC07AF1EE10FA13D5214B1A683B6AB8
:10973000D90F0B445B105B4213441D4A13601C4B52
:109740005A683B6AD90F0B445B101344184A5360A4
:1097500019E0D7ED007AF5EEC07AF1EE10FA12DDDD
:10976000134B1A683B6AD90F0B445B101344104A21
:1097700013600F4B5A683B6AD90F0B445B105B4276
:1097800013440B4A53600A4B9B68094A9360FFF7E6
:109790008BFC00BF3437BD4690BD00BFAFF30080E7
:1097A000BA92F14490B3FC40300200200000B44370
:1097B0002007002080B400AF294BDB78032B47D86B
:1097C00001A252F823F000BFD9970008F7970008CC
:1097D0001598000833980008214B1B781846204B39
:1097E0005B7819461F4A03010B4412F81330C3F388
:1097F0000103DBB22EE01A4B1B781846184B5B783E
:109800001946184A03010B4412F81330C3F38103BD
:10981000DBB21FE0124B1B781846114B5B781946E0
:10982000104A03010B4412F81330C3F30113DBB2E7
:1098300010E00B4B1B781846094B5B781946094A18
:1098400003010B4412F81330C3F38113DBB201E0C0
:1098500040F2E7331846BD465DF8047B704700BF11
:1098600000000020780B0020B0B58AB000AFAA4BF2
:1098700002221A71FFF758FCA84B1B687B62A84BA9
:109880001B683B62A64B5B68FB61A54B9B68BB6199
:10989000A34B1B691846FEF78FFD9BA3D3E900235A
:1098A000FEF7E2FD03460C46184621464FF0000243
:1098B0009C4BFEF703FF03460C4618462146FFF774
:1098C000CBF803467B61964B5B691846FEF774FD47
:1098D0008DA3D3E90023FEF7C7FD03460C461846C7
:1098E00021464FF000028F4BFEF7E8FE03460C4680
:1098F00018462146FFF7B0F803463B61884B9B6949
:109900001846FEF759FD80A3D3E90023FEF7ACFD0E
:1099100003460C46184621464FF00002814BFEF7E5
:10992000CDFE03460C4618462146FFF795F8034640
:10993000FB607D4B1B68BB607C4B1A687B4B5B6894
:1099400013447B60FFF736FF0346012B33D10EE053
:10995000774B4FF000021A60764B4FF000021A600E
:10996000754B4FF000021A60744A7B6A9360744B27
:10997000D3ED007A9FED737AF4EEC77AF1EE10FA28
:10998000E6D46F4BD3ED037A9FED6F7AF4EEC77A8E
:10999000F1EE10FADCD43BE0654B4FF000021A60A8
:1099A000644B4FF000021A60634B4FF000021A60E4
:1099B000624A7B6A93607868FEF7ECFC04460D46C9
:1099C000D7ED087A77EEA77A17EE900AFEF7F4FC47
:1099D0004FA3D3E90023FEF771FE02460B46204653
:1099E0002946FEF78BFB03460C4625461C464F4B8B
:1099F0001A684E4B5B6813441846FEF7CBFC0246D0
:109A00000B4620462946FEF7BFFF0346002BC3D175
:109A1000454B1B68BB604D4B1B683B6005E0464AED
:109A2000BB691360454A7B6A936097ED007AD7ED76
:109A3000057A37EE277A454BD3ED007AB4EEE77A14
:109A4000F1EE10FAEBDC3C4B4FF000021A60394BA0
:109A50004FF000021A60344B1B68BB6006E0344BC9
:109A60001B68334A1360354A7B6A936097ED007A2E
:109A7000D7ED047A37EE277A344BD3ED007AB4EE83
:109A8000E77AF1EE10FAEADC274B1B68BB6016E0C0
:109A9000D7ED067AF1EE677A274BC3ED007A244BB7
:109AA000D3ED007AF5EEC07AF1EE10FA04D5204B32
:109AB0004FF000021A6010E0204A7B6A936097ED35
:109AC000007AD7ED037A37EE277A204BD3ED007A70
:109AD000B4EEE77AF1EE10FADADC174B4FF0000241
:109AE0001A60144B4FF000021A60114B4FF0000245
:109AF0001A60174B1B68174A13600C4B1A680B4B04
:109B00005B6813447B603CE0182D4454FB21094002
:109B10006626CA236892503F000000203C090020BE
:109B2000040700200080664024020020EC0600208C
:109B3000C00600203402002030020020B0060020C1
:109B40002C0700200000484300007A432802002030
:109B5000780D00207C0D0020334B4FF000021A607E
:109B6000324A7B6A9360324B1B68002B09D101F0AB
:109B7000EDFE01220321052002F05AF82C4B0122B0
:109B80001A607868FEF706FC04460D46D7ED077AA2
:109B900077EEA77A17EE900AFEF70EFC1EA3D3E924
:109BA0000023FEF78BFD02460B4620462946FEF7B2
:109BB000A5FA03460C4625461C461E4B1A681D4B4B
:109BC0005B6813441846FEF7E5FB02460B46204649
:109BD0002946FEF7D9FE0346002BBDD1164B1B6864
:109BE0001846FEF7E9FB0EA3D3E90023FEF786FA39
:109BF00003460C4618462146FEF72EFF02460E4B42
:109C00001A600C4B9B680D4A936000BF2837BD4615
:109C1000B0BD00BFAFF300806626CA236892503FF4
:109C2000182D4454FB21F93FC0060020B006002047
:109C30007C0D0020EC060020DC0600202007002020
:109C4000B0B58AB000AFA44B02221A71FFF76CFACC
:109C5000A24B1B687B62A24B1B683B62A04B5B68FC
:109C6000FB619F4BD3ED027AF1EE677AC7ED067A7E
:109C70009B4B1B691846FEF79FFB93A3D3E9002378
:109C8000FEF7F2FB03460C46184621464FF0000251
:109C9000944BFEF713FD03460C4618462146FEF78B
:109CA000DBFE03467B618E4B5B691846FEF784FB47
:109CB00085A3D3E90023FEF7D7FB03460C461846DD
:109CC00021464FF00002874BFEF7F8FC03460C4696
:109CD00018462146FEF7C0FE03463B61804B9B6958
:109CE0001846FEF769FB78A3D3E90023FEF7BCFB17
:109CF00003460C46184621464FF00002794BFEF70A
:109D0000DDFC03460C4618462146FEF7A5FE034639
:109D1000FB60754B1A68744B5B681344BB60FFF7BC
:109D200049FD0346012B2FD10EE0704B4FF000028E
:109D30001A606F4B4FF000021A606E4B4FF000023A
:109D40001A606D4A7B6A93606C4BD3ED007A9FED8D
:109D50006C7AF4EEC77AF1EE10FAE6D4674BD3EDE5
:109D6000037A9FED687AF4EEC77AF1EE10FADCD44C
:109D700037E05E4B4FF000021A605E4B4FF000027E
:109D80001A605D4A7B6A9360B868FEF703FB04467D
:109D90000D46D7ED087A77EEA77A17EE900AFEF710
:109DA0000BFB4BA3D3E90023FEF788FC02460B46CE
:109DB00020462946FEF7A2F903460C4625461C46D6
:109DC000494B1A68484B5B6813441846FEF7E2FAA1
:109DD00002460B4620462946FEF7D6FD0346002BD9
:109DE000C7D1494B1B687B6005E0424ABB691360E1
:109DF000414A7B6A936097ED017AD7ED057A37EE99
:109E0000677A414BD3ED007AB4EEE77AF1EE10FABF
:109E1000EBD4384B4FF000021A60354B4FF0000284
:109E20001A6006E0314B1B68304A1360324A7B6A85
:109E3000936097ED017AD7ED047A37EE677A324B6B
:109E4000D3ED007AB4EEE77AF1EE10FAEAD416E038
:109E5000D7ED067AF1EE677A264BC3ED007A234BF5
:109E6000D3ED007AF5EEC07AF1EE10FA04DD1F4B67
:109E70004FF000021A6010E01F4A7B6A936097ED72
:109E8000017AD7ED037A37EE677A1F4BD3ED007A6C
:109E9000B4EEE77AF1EE10FADAD4164B4FF0000286
:109EA0001A60134B4FF000021A60104B4FF0000283
:109EB0001A60164B1B68164A13600B4B1A680A4B44
:109EC0005B681344BB603AE0182D4454FB21094001
:109ED0006626CA236892503F000000203C090020FB
:109EE0000407002000806640EC060020C006002029
:109EF0003402002030020020B00600202C07002091
:109F00000000484300007A4328020020780D00201A
:109F10007C0D0020324B4FF000021A60314A7B6A00
:109F20009360314B1B68002B09D101F00FFD01221A
:109F30000321052001F07CFE2B4B01221A60B8683A
:109F4000FEF728FA04460D46D7ED077A77EEA77A92
:109F500017EE900AFEF730FA1DA3D3E90023FEF7AF
:109F6000ADFB02460B4620462946FEF7C7F80346DE
:109F70000C4625461C461D4B1A681C4B5B68134457
:109F80001846FEF707FA02460B4620462946FEF71A
:109F9000FBFC0346002BBDD1154B1B681846FEF792
:109FA0000BFA0DA3D3E90023FEF7A6F803460C46EF
:109FB00018462146FEF750FD02460D4B1A600B4B2A
:109FC0009B680C4A936000BF2837BD46B0BD00BFF8
:109FD0006626CA236892503F182D4454FB21F93F4E
:109FE000C0060020B00600207C0D0020EC060020FA
:109FF000DC06002020070020B0B584B000AF87ED5C
:10A00000010AC7ED000A564B00221A71FFF78CF8BF
:10A01000544B4FF000021A604FF00003FB60524BAC
:10A02000D3ED027A97ED007A77EE677AC7ED037A7F
:10A03000D7ED037A9FED4D7A27EE877AD7ED037A35
:10A0400067EE276AD7ED017A37EEA77AC6EE877AF0
:10A05000474BC3ED007AFFF75BF8D7ED017A77EE57
:10A06000A77A17EE900AFEF7A7F939A3D3E90023E0
:10A07000FEF724FB03460C4618462146FEF7A4FCD7
:10A080000346BB603B4B1B683B4A136035E03B4BD0
:10A090009B681846FEF77EF904460D46B868FEF741
:10A0A00079F92DA3D3E90023FEF7DEF902460B462A
:10A0B00020462946FEF722F803460C4625461C4654
:10A0C0002F4B9B681846FEF765F902460B46204663
:10A0D0002946FEF73BFC0346002B00D10DE0264B42
:10A0E0001B68002B09D101F031FC0122032105205E
:10A0F00001F09EFD204B01221A60204B9A68BB683C
:10A100001A441F4B9B689A42C1DC194B4FF0000266
:10A110001A601A4B9A68BB681344184A9360174B2D
:10A120001A68BB68D90F0B445B101344134A1360C1
:10A13000124B5A68BB68D90F0B445B1013440F4A8B
:10A14000536000BF1037BD46B0BD00BFAFF3008005
:10A150006626CA236892503F9A9999999999E93F3E
:10A1600000000020C0060020F80600206F12833A8D
:10A170002C020020780D00207C0D002020070020FC
:10A18000EC06002000000000B0B584B000AF87ED01
:10A19000010AC7ED000A604B01221A714FF000035B
:10A1A000FB605E4B93ED027AD7ED007A77EE677A2B
:10A1B000C7ED037AD7ED037A9FED597A27EE877AB8
:10A1C000D7ED037A67EE276AD7ED017A37EEA77AE3
:10A1D000C6EE877AF1EE677A524BC3ED007AFEF74E
:10A1E0008BFFFEF7A1FFD7ED017A77EEA77A17EE86
:10A1F000900AFEF7E1F844A3D3E90023FEF75EFAE4
:10A2000003460C4618462146FEF7DEFB0346BB60BC
:10A2100052E0454BD3ED027AF5EEC07AF1EE10FA3A
:10A2200010D8414B4FF000029A603E4B4FF00002B5
:10A230001A603E4B4FF000021A603D4B4FF0000297
:10A240001A6041E03B4B9B681846FEF7A3F80446B2
:10A250000D46B868FEF79EF82DA3D3E90023FEF75C
:10A2600003F902460B4620462946FDF747FF034601
:10A270000C4625461C46304B9B681846FEF78AF86C
:10A2800002460B4620462946FEF760FB0346002B9C
:10A2900000D111E0FEF73CFF0021022005F058FF3D
:10A2A0000021032005F054FF0021012005F050FF9C
:10A2B0000121002005F04CFF1E4B9A68BB681A4430
:10A2C0001D4B9B689A42A4DCFFF746F8194B9A682D
:10A2D000BB681344174A9360164B1A68BB68D90FC2
:10A2E0000B445B101344134A1360124B5A68BB684B
:10A2F000D90F0B445B1013440E4A536000BF103754
:10A30000BD46B0BDAFF300806626CA236892503FB9
:10A31000CDCCCCCCCCCCE43F00000020F806002013
:10A320006F12833A2C020020B0060020C0060020E5
:10A330003002002020070020EC0600200000000072
:10A3400090B585B000AF78607B685B001846FEF77B
:10A3500021F82BA3D3E90023FEF7B0F903460C46FE
:10A3600018462146FEF730FB0346FB60FB68002BD6
:10A3700015DD06E01C4B4FF000021A601B4B1C4A17
:10A380009A601C4B9A68FB681A441B4B9B689A4264
:10A39000F0DC184B9A68FB681344164A9360FB681C
:10A3A000002B15DA06E0104B4FF000021A600F4B3D
:10A3B000124A9A600F4B9A68FB681A440E4B9B68CE
:10A3C0009A42F0DB0B4B9A68FB681344094A93608E
:10A3D000064B4FF000029A60034B4FF000021A60E8
:10A3E00000BF1437BD4690BD2C020020B0060020EF
:10A3F00000008C4220070020EC0600200000C8C2AC
:10A400006626CA236892503F80B500AF044B0622EF
:10A410001A716FF03100FFF793FF00BF80BD00BFDE
:10A420000000002080B582B000AF0021022005F0BE
:10A430008FFE0021032005F08BFE0021012005F096
:10A4400087FE0021002005F083FEFEF7F1FC786016
:10A450000121786805F07CFE7A4BDB7803F003037A
:10A46000032B00F2D28001A252F823F07DA4000851
:10A47000E3A4000847A50008A9A50008714B1B78B4
:10A480001846704B5B7819466F4A03010B4412F86B
:10A490001330C3F30103DBB2012B00F0B880694B2A
:10A4A0001B781846674B5B781946674A03010B44D3
:10A4B00012F81330C3F30113DBB2012B40F0A78075
:10A4C000FFF7A2FF614A7B682C2101FB03F31344D1
:10A4D000283300221A605E4B4FF000021A605D4B79
:10A4E000A8E0584B1B781846564B5B781946564ADD
:10A4F00003010B4412F81330C3F38103DBB2012BC9
:10A5000000F087804F4B1B7818464E4B5B781946FE
:10A510004D4A03010B4412F81330C3F38113DBB22D
:10A52000012B76D1FFF770FF484A7B682C2101FB95
:10A5300003F31344283300221A60454B4FF0000206
:10A540001A60444B76E03F4B1B7818463D4B5B78D6
:10A5500019463D4A03010B4412F81330C3F30113AB
:10A56000DBB2012B57D0374B1B781846354B5B7845
:10A570001946354A03010B4412F81330C3F30103A3
:10A58000DBB2012B47D1FFF73FFF304A7B682C211C
:10A5900001FB03F31344283300221A602C4B4FF0C5
:10A5A00000021A602B4B45E0264B1B781846254BC2
:10A5B0005B781946244A03010B4412F81330C3F3A5
:10A5C0008113DBB2012B20D01E4B1B7818461D4B8C
:10A5D0005B7819461C4A03010B4412F81330C3F38D
:10A5E0008103DBB2012B10D1FFF70EFF174A7B6806
:10A5F0002C2101FB03F31344283300221A60144B6F
:10A600004FF000021A60134B14E000BF04E000BFDB
:10A6100002E000BF00E000BF0C4A7B682C2101FB78
:10A6200003F31344283300221A60094B4FF0000251
:10A630001A60094B07EE903AB0EE670A0837BD463C
:10A6400080BD00BF00000020780B00201803002010
:10A65000C0060020000076420000344200000000E6
:10A66000B0B586B000AF87ED030AC7ED020A87EDEB
:10A67000011AD7ED037A77EEA77A17EE900AFDF765
:10A680009BFE77A3D3E90023FEF718F803460C4698
:10A6900018462146FEF798F903467B61D7ED017A0B
:10A6A000F5EE407AF1EE10FA22D0FEF731FDFEF71A
:10A6B0003BFDD7ED037AB0EE007AC7EE876A97EDDF
:10A6C000027AD7ED017A77EE277AF0EE670AB0EEDC
:10A6D000660AFFF791FC00BF5B4B9A687B69D90F54
:10A6E0000B445B101A44594B9B689A42F4DC82E09D
:10A6F000574B05221A71FEF7FFFCFEF715FD554B6F
:10A700001B68554A13606EE04F4B9B681846FDF777
:10A7100041FE04460D467869FDF73CFE46A3D3E9A9
:10A720000023FDF7A1FE02460B4620462946FDF711
:10A73000E5FC03460C4625461C46444B9B681846E0
:10A74000FDF728FE02460B4620462946FEF7FEF896
:10A750000346002B11D0FEF7DBFC0021022005F0A0
:10A76000F7FC0021032005F0F3FC0021012005F097
:10A77000EFFC0121002005F0EBFC334B9B681846F1
:10A78000FDF708FE04460D467869FDF703FE2CA38D
:10A79000D3E90023FDF768FE02460B462046294612
:10A7A000FDF7ACFC03460C4625461C46274B9B6830
:10A7B0001846FDF7EFFD02460B4620462946FEF7F8
:10A7C000C5F80346002B00D10DE0234B1B68002B7E
:10A7D00009D101F0BBF801220321052001F028FA7C
:10A7E0001D4B01221A60184B9A687B691A44174B5B
:10A7F0009B689A4288DC194B4FF000021A60124B9A
:10A800009A687B691344104A93600F4B1A687B69FE
:10A81000D90F0B445B1013440B4A13600A4B5A6860
:10A820007B69D90F0B445B101344074A536000BF88
:10A830001837BD46B0BD00BF9A9999999999D93FEB
:10A840009A9999999999E93F20070020EC060020F0
:10A8500000000020780D00207C0D00202C0200203C
:10A860006626CA236892503F80B584B000AF034685
:10A87000FB71FB79532B27D0542B00D027E0DFED61
:10A88000160A9FED160AFFF77FFC04F0BBFEDFED12
:10A89000140A9FED140AFEF7A3FDFFF7C3FD87ED31
:10A8A000030A04F0A1FE642005F096FF01210020B8
:10A8B00005F04EFC0C4BD3ED007AF0EE670A97EDF5
:10A8C000030AFFF799FB02E0FEF7CEFF00BF00BFCF
:10A8D0001037BD4680BD00BF0000000000003442BC
:10A8E000DB0FC9400000B4423C09002080B584B0B1
:10A8F00000AF0346FB71FB79532B2AD0542B00D0B9
:10A900002AE0DFED170A9FED170AFFF73DFC04F080
:10A9100079FEDFED150A9FED150AFEF761FD04F0E3
:10A9200063FE642005F058FFFFF77CFD87ED030A06
:10A93000642005F051FF0121002005F009FC0C4BBB
:10A94000D3ED007AF0EE670A97ED030AFFF754FBA8
:10A9500002E0FFF775F900BF00BF1037BD4680BDAC
:10A960000000000000003442DB0FC9C00000B44208
:10A970003C09002080B582B000AFDFED120A9FEDE8
:10A98000120AFFF701FC04F03DFEDFED100A9FED17
:10A99000100AFEF725FD04F027FEFFF743FD87EDC3
:10A9A000010AC82005F018FF0A4BD3ED007AF0EE3B
:10A9B000670A97ED010AFFF71FFB00BF0837BD4686
:10A9C00080BD00BF0000000000003442DB0FC94022
:10A9D000000034433C09002080B582B000AF03463C
:10A9E000FB711B4B9B7803F00303032B2AD801A2B6
:10A9F00052F823F005AA00082BAA00083FAA000875
:10AA000035AA0008134B4FF000021A60124BD3ED29
:10AA1000007A104B93ED007AB0EE471AF0EE670A19
:10AA20009FED0E0AFFF71CFE0DE0FB791846FFF7BD
:10AA30001BFF08E0FB791846FFF758FF03E0FFF71C
:10AA400099FF00E000BF00BF0837BD4680BD00BFD2
:10AA500000000020BC0600203C0900200000B44299
:10AA600080B483B000AF78607B680B229A607B680B
:10AA700000221A607B680A225A6000BF0C37BD466C
:10AA80005DF8047B704784B0B0B483B000AF7860E9
:10AA900007F11C0080E80E007B685B6802337A686F
:10AAA000926893FBF2F102FB01F29A1A7B681B6831
:10AAB0009A4201D1002328E07B685B6801337A6801
:10AAC000926893FBF2F102FB01F29A1A796813463D
:10AAD0009B001344DB000B4408331C1D07F11C05CD
:10AAE0000FCD0FC40FCD0FC495E8030084E8030019
:10AAF0007B685B6801337A68926893FBF2F102FB32
:10AB000001F29A1A7B685A60012318460C37BD4639
:10AB1000B0BC04B07047B0B483B000AF78603960A7
:10AB20007B685B6801337A68926893FBF2F102FB01
:10AB300001F29A1A7B681B689A4205D17B681A68F1
:10AB40007B681A60002320E07B681A68386879689F
:10AB500013469B001344DB000B44083305461C1DC1
:10AB60000FCC0FC50FCC0FC594E8030085E8030098
:10AB70007B681B6801337A68926893FBF2F102FBF1
:10AB800001F29A1A7B681A60012318460C37BD46F9
:10AB9000B0BC704780B483B000AF78607B6801229E
:10ABA0001A707B684FF000029A607B684FF00002D9
:10ABB0009A617B684FF00002DA607B684FF0000218
:10ABC0005A6000BF0C37BD465DF8047B704700003B
:10ABD000B0B586B000AFB64B5B6AC3F5EA432F331E
:10ABE0001A46B44B1A60B24B47F22F525A62B24B1C
:10ABF0005B6AC3F5EA432F331A46AE4B5A60AE4B3D
:10AC000047F22F525A62AB4B1B6807EE903AF8EEB0
:10AC1000E77A9FEDAA7A67EE877AA94BC3ED007AAF
:10AC2000A44B5B6807EE903AF8EEE77A9FEDA37AC3
:10AC300067EE877AA24BC3ED017AA14B93ED007AC0
:10AC40009F4BD3ED017A77EE277AB6EE007A67EE66
:10AC5000877A9B4BC3ED027A9A4B1A68954B1B6817
:10AC60001344984A1360974B5A68924B5B6813449D
:10AC7000944A5360934B1A68924B5B681344914A11
:10AC800093603821372004F065FBF0EE407A8E4B5C
:10AC9000C3ED007A8C4B93ED007A8C4BD3ED007AA8
:10ACA00077EE677A9FED8A7A67EE877AC7ED057A45
:10ACB0007869FDF781FB78A3D3E90023FDF7D4FB86
:10ACC00003460C4625461C46824B1B681846FDF77A
:10ACD00073FB73A3D3E90023FDF7C6FB02460B46C3
:10ACE00020462946FDF70AFA03460C461846214637
:10ACF000FDF7B2FE034607EE903AF1EE677A764B27
:10AD0000C3ED007A734A7B691360734BD3ED007A0D
:10AD10009FED727A27EE877A714BD3ED007A77EE4A
:10AD2000277A6F4BC3ED007A00233B610023FB6061
:10AD30000023BB6000237B6000233B60694B9B7852
:10AD4000002B08D0674B1B79062B04D0654B1B7971
:10AD5000032B40F02481644B9B6A012B16D1634B7B
:10AD6000D3ED007A5E4B93ED007AF0EE470AB0EE39
:10AD7000670A002005F040FA38603B6807EE903A19
:10AD8000F8EEE77A5A4BC3ED007A08E1564B5B6D5B
:10AD9000012B2AD1574BD3ED026A564B93ED017A22
:10ADA000554BD3ED007A77EE277AF0EE670AB0EED6
:10ADB000660A012005F020FA38613B6907EE903AF7
:10ADC000F8EEE77A17EE900AFDF7F6FA36A3D3E924
:10ADD0000023FDF749FB03460C4618462146FDF7C4
:10ADE0003BFE0246424B1A60D9E03F4BD3F880301D
:10ADF000012B25D13F4BD3ED027A404B93ED027AE4
:10AE0000F0EE470AB0EE670A022005F0F5F9F860A7
:10AE1000FB6807EE903AF8EEE77A17EE900AFDF736
:10AE2000CBFA21A3D3E90023FDF71EFB03460C4612
:10AE300018462146FDF710FE02462D4B1A60AEE083
:10AE4000294BD3F8AC30012B5AD12C4BD3ED017ADE
:10AE5000284B93ED017AF0EE470AB0EE670A032023
:10AE600005F0CAF9B860BB6807EE903AF8EEE77AE9
:10AE700017EE900AFDF7A0FA0BA3D3E90023FDF724
:10AE8000F3FA03460C4618462146FDF7E5FD024657
:10AE9000174B1A6083E000BF7B14AE47E17A843F12
:10AEA000AE47E17A14AEEF3FFCA9F1D24D62503FBC
:10AEB000000400406C0B002000080040CD77813F6B
:10AEC000F8060020EC060020D4020020D00200206A
:10AED000787D8B3A18020020240200206F12833AFA
:10AEE000280200200000002018030020DC060020BB
:10AEF000C00600202C070020D406002054090020A2
:10AF0000634BD3F88831012B49D1624BD3ED036AEF
:10AF1000604BD3ED007A9FED607A77EE877AF0EEA2
:10AF2000670AB0EE660A082005F066F978607B686B
:10AF300007EE903AF8EEE77A17EE900AFDF73CFA42
:10AF40004FA3D3E90023FDF78FFA03460C461846BA
:10AF50002146FDF781FD0246504B1A604D4B93EDA3
:10AF6000037A4C4BD3ED007A77EE277ADFED4C0A6B
:10AF7000B0EE670A092005F03FF903461846FDF7D1
:10AF800009FA41A3D3E90023FDF76EFA03460C4604
:10AF900018462146FDF760FD0246424B9A60414B40
:10AFA00093ED027A404BD3ED007A77EE277A3D4B52
:10AFB000C3ED027A3D4B93ED007A3D4BD3ED007A21
:10AFC00077EE277A394BC3ED007A344B93ED007A54
:10AFD000364BD3ED007A77EE277A304BC3ED007A0B
:10AFE000304B93ED027A2D4BD3ED007ADFED316AD1
:10AFF00067EEA67AF6EE006A67EEA67A77EE677AD3
:10B00000284BC3ED017A254BD3ED007A9FED297AC9
:10B0100027EE877A234BD3ED017A77EE277A214BFF
:10B02000C3ED007A1F4BD3ED007A234B93ED007AEA
:10B03000F0EE470AB0EE670A042005F0DDF802469C
:10B040001E4B1A60174BD3ED017A1B4B93ED017A1F
:10B05000F0EE470AB0EE670A052005F0CDF802468B
:10B06000174B1A60154B1A68154B1B68194610468A
:10B0700004F0CAFB00BF1837BD46B0BDAFF3008077
:10B08000FCA9F1D24D62503F9A9999999999B93F8B
:10B09000180300202C07002000007A44C00600207E
:10B0A00000007A45B00600202C020020300200206B
:10B0B0003402002066661742F8060020400900208E
:10B0C0006809002000000000B0B582B000AF904BCE
:10B0D0005B6AC3F5EA432F331A468E4B1A608C4BDA
:10B0E00047F22F525A628C4B5B6AC3F5EA432F3307
:10B0F0001A46884B5A60884B47F22F525A62854B4A
:10B100001B6807EE903AF8EEE77A9FED847A67EED7
:10B11000877A834BC3ED007A7E4B5B6807EE903AEB
:10B12000F8EEE77A9FED7D7A67EE877A7C4BC3ED88
:10B13000017A7B4B93ED007A794BD3ED017A77EE70
:10B14000277AB6EE007A67EE877A754BC3ED027AFE
:10B15000744B1A686F4B1B681344724A1360714B2F
:10B160005A686C4B5B6813446E4A53606D4B1A68A7
:10B170006C4B5B6813446B4A93603821372004F0B2
:10B18000E9F8F0EE407A684BC3ED007A664B93ED38
:10B19000007A664BD3ED007A77EE677A9FED647A9A
:10B1A00067EE877AC7ED017A7868FDF705F954A351
:10B1B000D3E90023FDF758F903460C4625461C4603
:10B1C0005C4B1B681846FDF7F7F84FA3D3E9002343
:10B1D000FDF74AF902460B4620462946FCF78EFF4A
:10B1E00003460C4618462146FDF736FC034607EE9B
:10B1F000903AF1EE677A504BC3ED007A4D4A7B6886
:10B2000013604D4BD3ED007A9FED4C7A27EE877A91
:10B210004B4BD3ED007A77EE277A494BC3ED007A9A
:10B22000484B93ED007A484BD3ED007A77EE277ABE
:10B23000444BC3ED007A454B93ED027A444BD3ED7A
:10B24000007A77EE277A414BC3ED027A414B93EDBA
:10B25000007A3C4BD3ED007A77EE277A3D4BC3ED75
:10B26000007A3A4B93ED027A3A4BD3ED007ADFED58
:10B270003A6A67EEA67AF6EE006A67EEA67A77EE8D
:10B28000677A324BC3ED017A324BD3ED007A9FEDF2
:10B29000327A27EE877A2D4BD3ED017A77EE277A33
:10B2A0002A4BC3ED007A294BD3ED007A1C4B93ED6A
:10B2B000007AF0EE470AB0EE670A042004F09CFF23
:10B2C0000246264B1A60214BD3ED017A144B93EDC5
:10B2D000017AF0EE470AB0EE670A052004F08CFF11
:10B2E00002461F4B1A601D4B1A681D4B1B681946FE
:10B2F000104604F089FA00BF0837BD46B0BD00BF54
:10B300007B14AE47E17A843FAE47E17A14AEEF3F5B
:10B31000000400406C0B002000080040CD77813F06
:10B32000F8060020EC060020D4020020D002002005
:10B33000787D8B3A1C020020240200206F12833A91
:10B34000280200203002002034020020B006002035
:10B350002C020020C006002066661742400900202B
:10B360006809002000000000B0B584B000AF78602C
:10B370007B688D4A934240F0A4818C4B1B68062B5E
:10B3800004D0072B05D0012B06D09BE1FFF720FC52
:10B3900098E1FFF799FE95E1854B5B6AC3F5EA43B7
:10B3A0002F331A46834B1A60814B47F22F525A6251
:10B3B000814B5B6AC3F5EA432F331A467D4B5A60D3
:10B3C0007D4B47F22F525A627A4B1B6807EE903A38
:10B3D000F8EEE77A9FED797A67EE877A784BC3EDDE
:10B3E000007A744B5B6807EE903AF8EEE77A9FEDCF
:10B3F000737A67EE877A724BC3ED017A704B93EDE7
:10B40000007A6F4BD3ED017A77EE277AB6EE007AA9
:10B4100067EE877A6A4BC3ED027A6A4B93ED007A46
:10B42000674BD3ED007ADFED686A67EEA67A77EEB8
:10B43000277A644BC3ED007A624B93ED017A604B3F
:10B44000D3ED017ADFED606A67EEA67A77EE277AB0
:10B450005C4BC3ED017A5B4B93ED007A594BD3ED16
:10B46000017A77EE277A574BC3ED027A574B1A6869
:10B47000504B1B681344554A1360544B5A684D4B4C
:10B480005B681344514A5360504B1A684F4B5B68DA
:10B4900013444E4A93603821372003F05BFFF0EEEF
:10B4A000407A4B4BC3ED007A494B93ED007A494B00
:10B4B000D3ED007A77EE677A9FED477A67EE877A69
:10B4C000C7ED037AF868FCF777FF33A3D3E90023CD
:10B4D000FCF7CAFF03460C4625461C463F4B1B683B
:10B4E0001846FCF769FF2EA3D3E90023FCF7BCFF45
:10B4F00002460B4620462946FCF700FE03460C4652
:10B5000018462146FDF7A8FA034607EE903AF1EEF9
:10B51000677A334BC3ED007A304AFB681360304BD7
:10B52000D3ED007A9FED287A27EE877A2D4BD3ED65
:10B53000007A77EE277A2B4BC3ED007A2A4B93EDF6
:10B54000027A2A4BD3ED037A37EE277A1D4BD3EDDF
:10B55000027AB4EEE77AF1EE10FA94BF01230023E9
:10B56000DAB2224B1A70214B1B78002B48D01F49AE
:10B570001F48FFF7D0FA0346002B3BD01B4B00229D
:10B580001A70104B9B68184A9360194B1B68013B5B
:10B59000184604F045F833E07B14AE47E17A843F67
:10B5A000AE47E17A14AEEF3FC80F0020A40600209A
:10B5B000000400406C0B002000080040CD77813F64
:10B5C000F8060020480900206F12833AEC0600209C
:10B5D000D4020020D0020020787D8B3A2002002087
:10B5E0002402002028020020E0060020DC040020C5
:10B5F000040500204F48FFF7CDFA052004F010F8AD
:10B600004D4B93ED027A4B4BD3ED027A77EE277ACE
:10B61000494BC3ED027A474B93ED067A474BD3ED86
:10B62000007A77EE277A454BC3ED007A424B93EDD3
:10B63000027A424BD3ED007ADFED416A67EEA67ADB
:10B64000F6EE006A67EEA67A77EE677A3A4BC3EDBC
:10B65000017A3A4BD3ED007A9FED397A27EE877A5B
:10B66000354BD3ED017A77EE277A334BC3ED007A71
:10B67000314BD3ED007A334B93ED007AF0EE470A6D
:10B68000B0EE670A042004F0B7FD02462E4B1A60A4
:10B69000294BD3ED017A2B4B93ED017AF0EE470A5B
:10B6A000B0EE670A052004F0A7FD0246274B1A609A
:10B6B000254B1A68254B1B681946104604F0A4F860
:10B6C00000E000BF7B68224A93422FD1214B1B68C8
:10B6D00000221946142004F007F9F0EE407A1E4BC0
:10B6E000C3ED007A1B4B5B6801221946142004F05D
:10B6F000FBF8F0EE407A184BC3ED017A174B1B684C
:10B7000002221946142004F0EFF8F0EE407A124BB2
:10B71000C3ED027A114B5B6803221946142004F032
:10B72000E3F8F0EE407A0C4BC3ED037A00BF10371C
:10B73000BD46B0BDDC040020B0060020C0060020DD
:10B7400066661742F80600204009002068090020BC
:10B75000800D0020BC0200202C070020C802002021
:10B7600080B584B000AF2C4B1B68FB600023BB602E
:10B770004BE000237B6042E028497B681A01BB68EC
:10B78000134411F81330C3F30103DBB21946F86810
:10B7900003F0BCFCFB68181D20497B681A01BB68DC
:10B7A000134411F81330C3F38103DBB2194603F0DD
:10B7B000ADFCFB6803F1080018497B681A01BB68FF
:10B7C000134411F81330C3F30113DBB2194603F02D
:10B7D0009DFCFB6803F10C0010497B681A01BB68F3
:10B7E000134411F81330C3F38113DBB2194603F08D
:10B7F0008DFCFB681033FB607B6801337B607B68EA
:10B800000F2BB9DDBB680133BB60BB680F2BB0DD0C
:10B8100000BF1037BD4680BD14AB0108780B002077
:10B8200080B485B000AF0023FB603BE00023BB6029
:10B8300032E04549FB681A01BB681A4411F812301E
:10B84000022060F3010301F812303F49FB681A013E
:10B85000BB681A4411F81230022060F3830301F828
:10B8600012303949FB681A01BB681A4411F81230CA
:10B87000022060F3051301F812303349FB681A0106
:10B88000BB681A4411F81230022060F3871301F8E4
:10B890001230BB680133BB60BB680F2BC9DDFB688E
:10B8A0000133FB60FB680F2BC0DD00237B602AE0C7
:10B8B000254A7B685B01134403F11E0213780121C2
:10B8C00061F30103137020497B6803F1F00211F862
:10B8D0001230012060F3830301F812301A4A7B68AA
:10B8E0005B011A441378012161F3051313701649A3
:10B8F0007A6811F81230012060F3871301F81230D2
:10B900007B6801337B607B680F2BD1DD0E4A137897
:10B91000012161F3830313700B4A13786FF3010362
:10B920001370094A92F82030012161F3871382F8DD
:10B930002030054A93786FF30513937000BF1437D6
:10B94000BD465DF8047B7047780B002090B482B050
:10B9500000AF8B4B93ED007A894BD3ED037A37EE32
:10B96000277AF0EE006AC7EE267A9FED867AF4EE2B
:10B97000C77AF1EE10FACCBF01230023DAB2824B72
:10B980005B7A07F108010B4403F8042C7C4BD3EDE0
:10B99000017A9FED7E7AF4EEC77AF1EE10FACCBF11
:10B9A00001230023D9B2784B5B7A01335A4203F06A
:10B9B000030302F0030258BF53420A4607F108018D
:10B9C0000B4403F8042C704B5B7A02335A4203F0A9
:10B9D000030302F0030258BF534207F10802134465
:10B9E000002203F8042C664BD3ED027A9FED687AAF
:10B9F000F4EEC77AF1EE10FACCBF01230023D9B2DE
:10BA0000614B5B7A03335A4203F0030302F00302F3
:10BA100058BF53420A4607F108010B4403F8042CAF
:10BA20003979594B9B791C46574BDB791A460B46A3
:10BA300003F00303D8B2574923011A4411F8123016
:10BA400060F3010301F8123079794F4B9B791C4662
:10BA50004D4BDB791A460B4603F00303D8B24D4930
:10BA600023011A4411F8123060F3830301F81230F5
:10BA7000B979454B9B791C46434BDB791A460B46FB
:10BA800003F00303D8B2434923011A4411F81230DA
:10BA900060F3051301F81230F9793B4B9B791C4692
:10BAA000394BDB791A460B4603F00303D8B2394908
:10BAB00023011A4411F8123060F3871301F8123091
:10BAC000314BDB790E2B12D839792F4B9B791A46E3
:10BAD0002D4BDB79013301F00301C8B22D4912016E
:10BAE0001A4411F8123060F3051301F81230264B96
:10BAF0009B790E2B11D87979234B9B790133224AFC
:10BB0000D27901F00301C8B222491B011A4411F88D
:10BB1000123060F3871301F812301B4BDB79002BD6
:10BB200012D0B979184B9B791A46174BDB79013B38
:10BB300001F00301C8B2174912011A4411F812307A
:10BB400060F3010301F812300F4B9B79002B11D0E9
:10BB5000F9790D4B9B79013B0B4AD27901F0030136
:10BB6000C8B20C491B011A4411F8123060F3830368
:10BB700001F8123000BF0837BD4690BC704700BFC7
:10BB80002C07002000003442000000200000B442D6
:10BB90000000C842780B002080B485B000AF786008
:10BBA00039600023FB6013E00023BB600AE01F49FB
:10BBB000FB681A01BB681344FF2221F81320BB68FD
:10BBC0000133BB60BB680F2BF1DDFB680133FB6009
:10BBD000FB680F2BE8DD15497B681A013B681344AD
:10BBE000002221F813203B68013310497A681201C2
:10BBF0001344002221F813207B6801330B491A01FA
:10BC00003B681344002221F813207B685A1C3B68D0
:10BC10000133064912011344002221F8132000BF0A
:10BC20001437BD465DF8047B704700BF3C07002019
:10BC300080B588B000AFF860B9607A60B968F8681C
:10BC4000FFF7AAFF0023FB750023FB61D8E0002368
:10BC5000BB61CEE07049FB691A01BB69134431F83E
:10BC60001330FF2B00F0C180BB690E2B2CDC6B491D
:10BC7000FB691A01BB69134411F81330C3F30103C4
:10BC8000DBB21A467B681340002B1DD1BB69013320
:10BC90006149FA691201134431F81330FF2B13D1B3
:10BCA0005D49FB691A01BB69134431F81320BB6974
:10BCB0000133013290B25849FA6912011344024625
:10BCC00021F813200123FB75FB690E2B2CDC534953
:10BCD000FB691A01BB69134411F81330C3F38103E4
:10BCE000DBB21A467B681340002B1DD1FB69013380
:10BCF00049491A01BB69134431F81330FF2B13D1A2
:10BD00004549FB691A01BB69134431F81320FB69EB
:10BD10000133013290B240491A01BB691344024613
:10BD200021F813200123FB75BB69002B2CDD3B4957
:10BD3000FB691A01BB69134411F81330C3F30113F3
:10BD4000DBB21A467B681340002B1DD1BB69013B57
:10BD50003149FA691201134431F81330FF2B13D122
:10BD60002D49FB691A01BB69134431F81320BB69E3
:10BD7000013B013290B22849FA691201134402468C
:10BD800021F813200123FB75FB69002B2EDD2349CD
:10BD9000FB691A01BB69134411F81330C3F3811313
:10BDA000DBB21A467B681340002B1FD1FB69013BB5
:10BDB00019491A01BB69134431F81330FF2B15D10F
:10BDC0001549FB691A01BB69134431F81320FB695B
:10BDD000013B013290B210491A01BB69134402467B
:10BDE00021F813200123FB7500E000BFBB6901337C
:10BDF000BB61BB690F2B7FF72DAFFB690133FB6183
:10BE0000FB690F2B7FF723AFFB7D002B7FF41AAF6D
:10BE100000BF2037BD4680BD3C070020780B0020C6
:10BE2000B0B584B002AF0F237B6040E000233B60DD
:10BE300034E025493B681A017B68134411F813303C
:10BE4000C3F30103DBB218461F493B681A017B6844
:10BE5000134411F81330C3F38103DBB21C461A49B3
:10BE60003B681A017B68134411F81330C3F30113C4
:10BE7000DBB21D4614493B681A017B68134411F874
:10BE80001330C3F38113DBB200932B4622460146E5
:10BE90000E480AF00FFB3B6801333B603B680F2BF9
:10BEA000C7DD0B480AF07AFB7B68013B7B607B684F
:10BEB000002BBBDA06480AF071FB05480AF06EFB5E
:10BEC00000BF0837BD46B0BD780B00209CA8010814
:10BED00088A8010880B588B000AF3E4B1B68FB61A5
:10BEE0000023BB616FE000237B6166E03B1D002205
:10BEF0001A605A609A60DA603B1D1946F86903F0CF
:10BF00002DF9FB691A1D3B1D04331946104603F039
:10BF100025F9FB6903F108023B1D08331946104659
:10BF200003F01CF9FB6903F10C023B1D0C331946AD
:10BF3000104603F013F97B6803F00303D8B22649D7
:10BF40007B691A01BB691A4411F8123060F30103CE
:10BF500001F81230BB6803F00303D8B21E497B69B5
:10BF60001A01BB691A4411F8123060F3830301F817
:10BF70001230FB6803F00303D8B217497B691A013A
:10BF8000BB691A4411F8123060F3051301F812303E
:10BF90003B6903F00303D8B20F497B691A01BB69FF
:10BFA0001A4411F8123060F3871301F81230FB695C
:10BFB0001033FB617B6901337B617B690F2B95DD5E
:10BFC000BB690133BB61BB690F2B8CDD00BF203720
:10BFD000BD4680BD14AB0108780B002090B583B03E
:10BFE00000AF0021042004F0B3F80021052004F084
:10BFF000AFF80021022004F0ABF80021032004F088
:10C00000A7F80021012004F0A3F80021002004F08B
:10C010009FF803F0E1FD03F02BFA0346FB71FB7977
:10C02000194640480AF046FA03F022FA0346FB712B
:10C03000FB7919463B480AF03DFA642004F0CCFB3A
:10C040003821372003F086F9F0EE407A364BC3ED05
:10C05000007A354B1B681846FCF7AEF903460C46D0
:10C060001A46234631480AF025FA03F097FB03F0FD
:10C07000ABFA03F0B9FA02F0C9FF47F22F512C488E
:10C0800003F024FC47F22F512A4803F01FFC2A48F2
:10C0900007F089FA294807F086FA294B4FF0000289
:10C0A0009A60284B4FF000021A60274B4FF00002B5
:10C0B0001A60264B4FF000021A60254B00221A60CE
:10C0C000234B00225A60224B00229A6003F0FAF9B7
:10C0D000204B9B68204A93601E4B5B681E4A53604E
:10C0E0001D4B93ED027A1C4BD3ED017A77EE677A04
:10C0F0001A4BC3ED007A042004F040F8052004F048
:10C100003DF8002004F03AF8022004F037F803204C
:10C1100004F034F8012004F031F800BF0C37BD46BC
:10C1200090BD00BFACA80108D4020020C8A8010837
:10C130002404004024080040C80F0020800D002087
:10C14000B0060020C00600202C0200203002002093
:10C15000EC0600202C07002054090020D406002003
:10C1600080B582B000AF03F019FB03F02DFA03F0A5
:10C170003BFA02F04BFF03F07BF90346FB71FB79BE
:10C18000194638480AF096F90021042003F0E0FF30
:10C190000021052003F0DCFF0021022003F0D8FF7E
:10C1A0000021032003F0D4FF0021012003F0D0FF81
:10C1B0000021002003F0CCFF03F00EFD47F22F51C9
:10C1C000294803F083FB47F22F51284803F07EFBF8
:10C1D000274807F0E8F9274807F0E5F9264B4FF024
:10C1E00000029A60254B4FF000021A60244B4FF07A
:10C1F00000021A60234B4FF000021A60224B00220B
:10C200001A60214B00225A601F4B00229A6003F0F3
:10C2100059F91E4B9B681E4A93601C4B5B681C4A75
:10C2200053601B4B93ED027A194BD3ED017A77EEF5
:10C23000677A184BC3ED007A042003F09FFF0520B6
:10C2400003F09CFF002003F099FF022003F096FF0B
:10C25000032003F093FF012003F090FF00BF083795
:10C26000BD4680BDACA8010824040040240800405D
:10C27000C80F0020800D0020B0060020C00600205E
:10C280002C02002030020020EC0600202C070020A9
:10C2900054090020D406002080B582B000AFFFF71B
:10C2A0009DFEFCF7A9FDFFF7BBFA374B00225A6051
:10C2B000354B00221A60344B00229A600121042081
:10C2C00003F046FF0121052003F042FF2E4B996841
:10C2D0002D4B1A682C4B5B682C480AF0EBF80021B8
:10C2E000012003F035FF0021022003F031FF00217F
:10C2F000032003F02DFF0121002003F029FF244B30
:10C300004FF000021A60032003F08AF9214B062245
:10C310001A601F4B204A1A60204B00229A701C4B57
:10C32000D3ED007AF0EE670A9FED1D0AFDF764FE7B
:10C3300000237B6015E0194B00229A70144BD3ED5B
:10C34000007A184B93ED007AB0EE471AF0EE670AC8
:10C350009FED150AFEF784F9FDF786FA7B68013335
:10C360007B607B68002BE6DD0C4B00229A700F4B44
:10C370004FF000029A604FF47A7004F02DFA00BF7B
:10C380000837BD4680BD00BFEC060020D4A80108D8
:10C390003C090020A4060020000007430000002004
:10C3A00000007742BC0600200000B442B006002026
:10C3B00080B500AF03F010FC03F0CAFC00BF80BDE5
:10C3C0002DE9B04F86B006AF2C4B06221A60FFF75E
:10C3D00005FEFCF711FDFFF723FA294B00225A60F6
:10C3E000274B00221A60264B00229A60012104206C
:10C3F00003F0AEFE0121052003F0AAFE0121012079
:10C4000003F0A6FE0021022003F0A2FE002103207B
:10C4100003F09EFE1B4B4FF000021A60022003F057
:10C42000FFF8194B4FF000029A60184B1B68184632
:10C43000FBF7C2FF82468B46144BDB681846FBF7BE
:10C44000BBFF04460D46114B9B681846FBF7B4FF33
:10C45000804689460D4B5B681846FBF7ADFF0246E8
:10C460000B46CDE90423CDE90289CDE900455246CA
:10C470005B4607480AF01EF8D3E700BFA406002079
:10C48000EC0600203C090020B00600202C0700200C
:10C4900008A9010880B500AF1A4B06221A60FFF701
:10C4A0009DFDFCF7A9FCFFF7BBF9174B00225A6072
:10C4B000154B00221A60144B00229A6001210420BF
:10C4C00003F046FE0121052003F042FE0121002079
:10C4D00003F03EFE0021012003F03AFE002102207D
:10C4E00003F036FE0021032003F032FE074B4FF02D
:10C4F00000021A60052003F093F8054B4FF000028C
:10C500009A60FAE7A4060020EC0600203C0900200F
:10C51000B00600202DE9B04F8AB008AF3C4B07228F
:10C520001A60FFF75BFD3B480AF038F8FCF764FC43
:10C53000FFF776F938480AF031F8384B00225A6094
:10C54000364B00221A60354B00229A6001210420EC
:10C5500003F0FEFD0121052003F0FAFD002101207A
:10C5600003F0F6FD0021022003F0F2FD002103207C
:10C5700003F0EEFD2A4B4FF000021A60072003F093
:10C580004FF8284B4FF000029A60274B1B68184663
:10C59000FBF712FFC7E90001244B1B681846FBF7A5
:10C5A0000BFF04460D46214BDB681846FBF704FFE2
:10C5B000804689461D4B93ED007A1C4BD3ED037AE0
:10C5C00077EE277A17EE900AFBF7F6FE82468B4647
:10C5D000164B93ED007A154BD3ED037A77EE277A5D
:10C5E000B0EE007AC7EE876A16EE900AFBF7E4FE1B
:10C5F00002460B46CDE90623CDE904ABCDE902891D
:10C60000CDE90045D7E90023094809F053FFB8E711
:10C61000A406002038A901083CA90108EC06002066
:10C620003C090020B0060020D40200202C07002086
:10C6300040A9010880B584B002AF764B06221A608B
:10C64000642004F0C9F80123BB71BB1D1A46022106
:10C65000012003F097FF97F90630184603F01AFF00
:10C66000642004F0B9F801237B717B1D1A46042174
:10C67000012003F087FF97F90530184603F00AFF01
:10C6800003F05EFFFFF76CFDFCF7B6FBFFF7C8F8A1
:10C69000614B00225A60604B00221A605E4B002200
:10C6A0009A600121042003F053FD0121052003F0CD
:10C6B0004FFD594B9968584B1A68574B5B68574860
:10C6C00009F0F8FE0021012003F042FD00210220C4
:10C6D00003F03EFD0021032003F03AFD97F90630F8
:10C6E000012B05D14E4B4F4A1A605423FB7105E0D4
:10C6F00097F90630022B01D15323FB7197F90530CE
:10C70000013B032B64D801A252F823F01DC7000897
:10C7100049C7000875C70008A3C70008404B424A34
:10C720001A60424B424A1A60404B424A5A603F4BA1
:10C73000414A9A603D4B414A1A613C4B404A5A611A
:10C740003A4B394A9A6143E0354B3E4A1A60374BBF
:10C750003D4A1A60354B3C4A5A60344B3B4A9A601A
:10C76000324B364A1A61314B354A5A612F4B2E4AA9
:10C770009A612DE02A4B364A1A602C4B4FF08042CA
:10C780001A602A4B334A5A60284B334A9A60274B27
:10C790002A4A1A61254B2A4A5A61244B224A9A6135
:10C7A00016E01F4B2D4A1A60204B4FF080421A6052
:10C7B0001E4B2B4A5A601D4B2A4A9A601B4B1F4A3C
:10C7C0001A611A4B1E4A5A61184B174A9A6100BFE8
:10C7D000042002F025FFFFF77DFB234809F0DEFE71
:10C7E000FB790093042306220321052001F004F9BC
:10C7F000DFED1E0A9FED1E0AFDF7C6FC072003F0C1
:10C8000049FE42F2107003F0E7FF1A4809F0C6FE35
:10C81000F7E700BFA4060020EC060020D4A801081A
:10C820003C0900200000C8430000B4420407002077
:10C8300000001041000050414260653C0000F041A2
:10C8400000007042000007430000A04040A4DF3C0D
:10C8500000003443000060400AD7233D00009643A7
:10C8600000009841B81E053E58A9010800000000CC
:10C870000000344260A9010880B582B000AF8F4B40
:10C8800006221A60642003F0A7FF0123BB71BB1DC1
:10C890001A460221012003F075FE97F9063018466A
:10C8A00003F0F8FD642003F097FF01237B717B1DEB
:10C8B0001A460421012003F065FE97F90530184659
:10C8C00003F0E8FD03F03CFEFFF788FBFCF794FA69
:10C8D000FEF7A6FF7A4B00225A60794B00221A60BD
:10C8E000774B00229A600121042003F031FC0121E2
:10C8F000052003F02DFC0021012003F029FC00217C
:10C90000022003F025FC0021032003F021FC02207B
:10C9100002F086FE97F90630012B05D15423FB71F6
:10C92000684B694A1A6005E097F90630022B01D17D
:10C930005323FB7197F90530013B032B66D801A205
:10C9400052F823F055C9000881C90008AFC9000892
:10C95000DFC900085B4B5D4A1A605D4B5D4A1A6097
:10C960005B4B5D4A5A605A4B5C4A9A60584B5C4A32
:10C970001A61574B5B4A5A61554B544A9A6145E0DC
:10C98000504B594A1A60524B4FF080421A60504B3C
:10C99000564A5A604E4B564A9A604D4B504A1A615D
:10C9A0004B4B504A5A614A4B484A9A612EE0454BDC
:10C9B000504A1A60464B4FF080421A60444B4FF089
:10C9C00083425A60424B4C4A9A60414B444A1A6136
:10C9D0003F4B444A5A613E4B3C4A9A6116E0394B00
:10C9E000394A1A603A4B4FF080421A60384B434A3A
:10C9F0005A60374B424A9A60354B394A1A61344B78
:10CA0000384A5A61324B314A9A6100BF3D4B00228D
:10CA10001A603D4B00229A703B4B0022DA703A4B71
:10CA20001A78394B9A71384B5B780133DAB2364B4E
:10CA3000DA71354B00225A72344B01221A60214BB5
:10CA4000D3ED007AF0EE670A9FED310AFDF7D4FAD4
:10CA50002D4B9A792C4B1A702B4BDA792A4B5A7042
:10CA6000294B5A7A284BDA7008E0274BDB781846B6
:10CA700002F0D6FDFB79184600F06CF9224B1B78CA
:10CA8000042BF2D9204B1B78062BEED81E4B5B787B
:10CA9000022BEAD91C4B5B78042BE6D8DFED1D0A8C
:10CAA0009FED1D0AFDF770FB02F0D6FBFEF758FE66
:10CAB000072003F0EFFCFFF7B3F9FCE7A406002022
:10CAC000EC0600203C090020000096430000B44220
:10CAD00004070020000010410000A0414260653CB6
:10CAE0000000F04100007042000034430000844127
:10CAF000C520303D0000704377BE9F3D0000984147
:10CB0000B81E053E780D0020000000201402002011
:10CB100000007642000000000000344200000000E7
:10CB2000B0B598B008AF87ED030AC7ED020A87EDEC
:10CB3000011A97ED017AD7ED027A77EE677AC7EDA1
:10CB40000F7AD7ED0F7A9FED227A27EE877AD7ED0D
:10CB50000F7A67EE276AD7ED037A37EEA77AC6EE2B
:10CB6000877AC7ED077AD7ED037A77EEA77AC7ED14
:10CB7000087A4FF00003FB6200233B753B6A1846BE
:10CB8000FBF71AFC10A3D3E90023FBF76DFC034667
:10CB90000C4618462146FBF75FFF03463B636D4694
:10CBA00007F120040FCC0FC594E8070085E80700C3
:10CBB00007F114030ECB0748FDF765FF00BF4037B0
:10CBC000BD46B0BDAFF300809A9999999999E93F14
:10CBD0006F12833A04050020B0B598B008AF87ED16
:10CBE000030AC7ED020A87ED011A97ED027AD7ED25
:10CBF000017A77EE677AC7ED0F7AD7ED0F7A9FED5E
:10CC0000247A27EE877AD7ED0F7A67EE276AD7ED79
:10CC1000037A37EEA77AC6EE877AF1EE677AC7ED28
:10CC2000077AD7ED037A77EEA77AC7ED087A4FF047
:10CC30000003FB6200233B754FF000037B633B6AFC
:10CC40001846FBF7B9FB10A3D3E90023FBF70CFC54
:10CC500003460C4618462146FBF7FEFE0346BB631F
:10CC60006D4607F120040FCC0FC594E8070085E856
:10CC7000070007F114030ECB0648FDF704FF00BFC1
:10CC80004037BD46B0BD00BFCDCCCCCCCCCCE43F12
:10CC90006F12833A0405002080B500AF254B0122B6
:10CCA0001A6003F04DFC244B4FF000029A60234BB6
:10CCB0004FF000025A60214B4FF000021A601F4BE8
:10CCC0004FF000029A60FFF789F91D4B00225A606D
:10CCD0001B4B00221A601A4B00229A60012104208B
:10CCE00003F036FA0121052003F032FA0021012079
:10CCF00003F02EFA0021022003F02AFA002103207B
:10CD000003F026FA012002F08BFC0E48FDF7A8FE86
:10CD10009FED0D1ADFED0D0A9FED0D0AFFF700FFE5
:10CD20009FED0A1ADFED080A9FED090AFFF754FF8D
:10CD3000FEE700BFA4060020E0060020480900200E
:10CD4000EC060020040500200000B44200000000B2
:10CD50000000344290B583B000AF0346FB718D4BA9
:10CD6000DB78032B00F2458401A252F823F000BFC8
:10CD700081CD0008A1CF0008C1D10008E1D300088F
:10CD8000844B1B781846834B5B781946824A030113
:10CD90000B4412F81330C3F30103DBB2002B3CD178
:10CDA0007C4B1B781A467B4B5B7801337B49120125
:10CDB000134431F81320774B1B781C46754B5B7876
:10CDC000184676492301034431F813309A4224D29D
:10CDD000704B5B780E2B20D86E4B00229A706D4BF7
:10CDE0001A786C4B9A716B4B5B780133DAB2694BF2
:10CDF000DA71684B00225A72FB791846FDF7ECFD98
:10CE0000644B5A7A634BDA70624B9A79614B1A70B1
:10CE1000604BDA795F4B5A70BAE05E4B1B7818466C
:10CE20005C4B5B7819465C4A03010B4412F81330E3
:10CE3000C3F38113DBB2002B3CD1564B1B78013B73
:10CE4000544A52781146554A1B010B4432F81320BC
:10CE5000504B1B781C464F4B5B7818464F492301BB
:10CE6000034431F813309A4224D24A4B1B78002BEA
:10CE700020D0484B03229A70464B1B78013BDAB214
:10CE8000444B9A71434B5A78424BDA71414B03221F
:10CE90005A72FB791846FDF79FFD3E4B5A7A3D4B7F
:10CEA000DA703C4B9A793B4B1A703A4BDA79394B32
:10CEB0005A706DE0374B1B781846364B5B78194635
:10CEC000354A03010B4412F81330C3F38103DBB27C
:10CED000002B3CD12F4B1B7801332E4A5278114640
:10CEE0002E4A1B010B4432F813202A4B1B781C4698
:10CEF000284B5B78184629492301034431F8133045
:10CF00009A4224D2234B1B780E2B20D8214B01228E
:10CF10009A70204B1B780133DAB21E4B9A711D4B6D
:10CF20005A781C4BDA711B4B01225A72FB79184656
:10CF3000FDF752FD174B5A7A164BDA70154B9A795A
:10CF4000144B1A70134BDA79124B5A7020E0114BC4
:10CF500002229A700F4B1A780E4B9A710D4B5B7828
:10CF6000013BDAB20B4BDA710A4B02225A72FB799F
:10CF70001846FDF731FD074B5A7A064BDA70054B20
:10CF80009A79044B1A70034BDA79024B5A7031E3E9
:10CF900030E300BF00000020780B00203C07002099
:10CFA000844B1B781846834B5B781946824A0301F1
:10CFB0000B4412F81330C3F38103DBB2002B3CD1D6
:10CFC0007C4B1B7801337B4A527811467B4A1B010C
:10CFD0000B4432F81320774B1B781C46754B5B785B
:10CFE000184676492301034431F813309A4224D27B
:10CFF000704B1B780E2B20D86E4B00229A706D4B15
:10D000001B780133DAB26B4B9A716A4B5A78694BD1
:10D01000DA71684B01225A72FB791846FDF7DCFC85
:10D02000644B5A7A634BDA70624B9A79614B1A708F
:10D03000604BDA795F4B5A70BAE05E4B1B7818464A
:10D040005C4B5B7819465C4A03010B4412F81330C1
:10D05000C3F30103DBB2002B3CD1564B1B781A46BD
:10D06000544B5B78013355491201134431F81320B6
:10D07000504B1B781C464F4B5B7818464F49230199
:10D08000034431F813309A4224D24A4B5B780E2B7A
:10D0900020D8484B03229A70464B1A78454B9A7118
:10D0A000444B5B780133DAB2424BDA71414B0022D8
:10D0B0005A72FB791846FDF78FFC3E4B5A7A3D4B6E
:10D0C000DA703C4B9A793B4B1A703A4BDA79394B10
:10D0D0005A706DE0374B1B781846364B5B78194613
:10D0E000354A03010B4412F81330C3F30113DBB2CA
:10D0F000002B3CD12F4B1B781A462E4B5B78013B03
:10D100002E491201134431F813202A4B1B781C4678
:10D11000284B5B78184629492301034431F8133022
:10D120009A4224D2234B5B78002B20D0214B012242
:10D130009A70204B1A781F4B9A711E4B5B78013BFB
:10D14000DAB21C4BDA711B4B02225A72FB79184679
:10D15000FDF742FC174B5A7A164BDA70154B9A7949
:10D16000144B1A70134BDA79124B5A7020E0114BA2
:10D1700002229A700F4B1B78013BDAB20D4B9A7169
:10D180000C4B5A780B4BDA710A4B03225A72FB791B
:10D190001846FDF721FC074B5A7A064BDA70054B0F
:10D1A0009A79044B1A70034BDA79024B5A7021E2D8
:10D1B00020E200BF00000020780B00203C07002088
:10D1C000844B1B781846834B5B781946824A0301CF
:10D1D0000B4412F81330C3F30113DBB2002B3CD124
:10D1E0007C4B1B781A467B4B5B78013B7B491201D9
:10D1F000134431F81320774B1B781C46754B5B7832
:10D20000184676492301034431F813309A4224D258
:10D21000704B5B78002B20D06E4B00229A706D4BC8
:10D220001A786C4B9A716B4B5B78013BDAB2694BA5
:10D23000DA71684B02225A72FB791846FDF7CCFB73
:10D24000644B5A7A634BDA70624B9A79614B1A706D
:10D25000604BDA795F4B5A70BAE05E4B1B78184628
:10D260005C4B5B7819465C4A03010B4412F813309F
:10D27000C3F38103DBB2002B3CD1564B1B78013347
:10D28000544A52781146554A1B010B4432F8132078
:10D29000504B1B781C464F4B5B7818464F49230177
:10D2A000034431F813309A4224D24A4B1B780E2B98
:10D2B00020D8484B03229A70464B1B780133DAB2D0
:10D2C000444B9A71434B5A78424BDA71414B0122DD
:10D2D0005A72FB791846FDF77FFB3E4B5A7A3D4B5D
:10D2E000DA703C4B9A793B4B1A703A4BDA79394BEE
:10D2F0005A706DE0374B1B781846364B5B781946F1
:10D30000354A03010B4412F81330C3F38113DBB227
:10D31000002B3CD12F4B1B78013B2E4A52781146F3
:10D320002E4A1B010B4432F813202A4B1B781C4653
:10D33000284B5B78184629492301034431F8133000
:10D340009A4224D2234B1B78002B20D0214B012260
:10D350009A70204B1B78013BDAB21E4B9A711D4B21
:10D360005A781C4BDA711B4B03225A72FB79184610
:10D37000FDF732FB174B5A7A164BDA70154B9A7938
:10D38000144B1A70134BDA79124B5A7020E0114B80
:10D3900002229A700F4B1A780E4B9A710D4B5B78E4
:10D3A0000133DAB20B4BDA710A4B00225A72FB7965
:10D3B0001846FDF711FB074B5A7A064BDA70054BFE
:10D3C0009A79044B1A70034BDA79024B5A7011E1C7
:10D3D00010E100BF00000020780B00203C07002077
:10D3E000864B1B781846854B5B781946844A0301A7
:10D3F0000B4412F81330C3F38113DBB2002B3CD182
:10D400007E4B1B78013B7D4A527811467D4A1B01B9
:10D410000B4432F81320794B1B781C46774B5B7812
:10D42000184678492301034431F813309A4224D234
:10D43000724B1B78002B20D0704B00229A706F4BE0
:10D440001B78013BDAB26D4B9A716C4B5A786B4B7F
:10D45000DA716A4B03225A72FB791846FDF7BCFA5F
:10D46000664B5A7A654BDA70644B9A79634B1A7043
:10D47000624BDA79614B5A70BAE0604B1B78184600
:10D480005E4B5B7819465E4A03010B4412F8133079
:10D49000C3F30113DBB2002B3CD1584B1B781A4667
:10D4A000564B5B78013B57491201134431F8132066
:10D4B000524B1B781C46514B5B781846514923014F
:10D4C000034431F813309A4224D24C4B5B78002B42
:10D4D00020D04A4B03229A70484B1A78474B9A71D6
:10D4E000464B5B78013BDAB2444BDA71434B022284
:10D4F0005A72FB791846FDF76FFA404B5A7A3F4B48
:10D50000DA703E4B9A793D4B1A703C4BDA793B4BC3
:10D510005A706DE0394B1B781846384B5B781946CA
:10D52000374A03010B4412F81330C3F30103DBB293
:10D53000002B3CD1314B1B781A46304B5B780133C2
:10D5400030491201134431F813202C4B1B781C4630
:10D550002A4B5B7818462B492301034431F81330DA
:10D560009A4224D2254B5B780E2B20D8234B0122E4
:10D570009A70224B1A78214B9A71204B5B780133B9
:10D58000DAB21E4BDA711D4B00225A72FB79184633
:10D59000FDF722FA194B5A7A184BDA70174B9A7921
:10D5A000164B1A70154BDA79144B5A7020E0134B56
:10D5B00002229A70114B1B780133DAB20F4B9A7129
:10D5C0000E4B5A780D4BDA710C4B01225A72FB79D3
:10D5D0001846FDF701FA094B5A7A084BDA70074BE7
:10D5E0009A79064B1A70054BDA79044B5A7001E0B0
:10D5F00000E000BF00BF0C37BD4690BD000000201A
:10D60000780B00203C07002080B483B000AF786026
:10D6100039601C497B681A013B68134411F81330C8
:10D62000C3F30103DBB2022B23D016497B681A0136
:10D630003B68134411F81330C3F38103DBB2022BB0
:10D6400017D010497B681A013B68134411F8133056
:10D65000C3F30113DBB2022B0BD00A497B681A011A
:10D660003B68134411F81330C3F38113DBB2022B70
:10D6700001D1012300E0002318460C37BD465DF8B8
:10D68000047B7047780B002080B586B000AFF8604F
:10D69000B9601346FB7100237B61154BDB78FA7987
:10D6A0009A4202D102237B6112E0114BDB781A1DF2
:10D6B000FB79D31A5A4203F0030302F0030258BF66
:10D6C0005342022B02D100237B6101E001237B61E5
:10D6D000B968F868FFF798FF0346002B02D07B6912
:10D6E00004337B617B6918461837BD4680BD00BF97
:10D6F0000000002080B588B000AFF860B9607A60A3
:10D700007A68B968F868FEF793FAFF23FB61002393
:10D71000BB61A14B1B7818469F4B5B7819469F4A0B
:10D7200003010B4412F81330C3F30103DBB21A46B2
:10D730007B681340002B43D1974B1B781846964BC0
:10D740005B78013300221946FFF79EFF7861924B08
:10D750001B781A46904B5B780133914912011344B0
:10D7600031F813301A46FB69934211DD8A4B1B785E
:10D770001A46894B5B78013389491201134431F809
:10D780001330FB61844B00225A727B69BB6117E046
:10D79000814B1B781A46804B5B780133804912011C
:10D7A000134431F813301A46FB69934208D1BA6921
:10D7B0007B699A4204DA784B00225A727B69BB611A
:10D7C000754B1B781846744B5B781946734A0301F6
:10D7D0000B4412F81330C3F38103DBB21A467B68A3
:10D7E0001340002B42D16C4B1B78581C6A4B5B7862
:10D7F00001221946FFF748FF7861674B1B78013318
:10D80000654A52781146664A1B010B4432F81330C0
:10D810001A46FB69934211DD5F4B1B7801335E4A68
:10D82000527811465E4A1B010B4432F81330FB61FB
:10D83000594B01225A727B69BB6117E0564B1B782A
:10D840000133554A52781146554A1B010B4432F8B0
:10D8500013301A46FB69934208D1BA697B699A4230
:10D8600004DA4D4B01225A727B69BB614A4B1B782B
:10D870001846494B5B781946484A03010B4412F895
:10D880001330C3F30113DBB21A467B681340002B3D
:10D8900043D1414B1B7818463F4B5B78013B02223A
:10D8A0001946FFF7F1FE78613B4B1B781A463A4B5D
:10D8B0005B78013B3A491201134431F813301A46A0
:10D8C000FB69934211DD344B1B781A46324B5B786F
:10D8D000013B33491201134431F81330FB612E4BE5
:10D8E00002225A727B69BB6117E02B4B1B781A46E8
:10D8F000294B5B78013B2A491201134431F813305C
:10D900001A46FB69934208D1BA697B699A4204DAE4
:10D91000214B02225A727B69BB611F4B1B78184650
:10D920001D4B5B7819461D4A03010B4412F8133056
:10D93000C3F38113DBB21A467B681340002B45D139
:10D94000154B1B78581E144B5B7803221946FFF7C2
