:020000040800F2
:100000000000022075070108BD040108C3040108AF
:10001000C9040108CF040108D5040108000000004C
:10002000000000000000000000000000DB040108E8
:10003000E904010800000000F704010805050108B3
:10004000C5070108C5070108C5070108C50701085C
:1000500011050108C5070108C5070108C507010802
:10006000C5070108C5070108C5070108C50701083C
:10007000C5070108C5070108C5070108C50701082C
:10008000C5070108C50701081D050108C5070108C6
:10009000C5070108C5070108C5070108C50701080C
:1000A000C507010839050108C5070108C50701088A
:1000B0004D0501086105010875050108C50701081E
:1000C000C5070108C5070108C5070108C5070108DC
:1000D000C5070108C5070108C5070108C5070108CC
:1000E000C5070108C5070108C5070108C5070108BC
:1000F000890501089D050108B1050108C50701082A
:10010000C5070108C5070108C5050108C50701089D
:10011000C5070108C5070108C5070108C50701088B
:10012000D9050108C5070108ED050108C507010843
:10013000C50701080000000000000000C507010815
:10014000C5070108C5070108C5070108C50701085B
:10015000C5070108C5070108C5070108C50701084B
:10016000C5070108C5070108C5070108C50701083B
:10017000C5070108C50701080000000000000000D5
:08018000C5070108C5070108CD
:1080000010B5054C237833B9044B13B10448AFF3D2
:1080100000800123237010BD5002002000000000EA
:108020000884010808B5034B1BB103490348AFF3AB
:10803000008008BD000000005402002008840108F0
:10804000034613F8012B002AFBD1181A0138704798
:1080500001F0FF01102A2BDB10F0070F08D010F8F9
:10806000013B013A8B422DD010F0070F42B3F6D1FD
:10807000F0B441EA012141EA014122F007047FF016
:1080800000070023F0E80256083C85EA010586EA6D
:10809000010685FA47F5A3FA87F586FA47F6A5FAA9
:1080A00087F68EB9EED1F0BC01F0FF0102F00702B5
:1080B00032B110F8013B013A83EA010313B1F8D160
:1080C0000020704701387047002D06BF3546033841
:1080D000073815F0010F07D1013015F4807F02BF7A
:1080E000013015F4C03F0130F0BC0138704700BFCB
:1080F00081F0004102E000BF83F0004330B54FEA59
:1081000041044FEA430594EA050F08BF90EA020FC5
:108110001FBF54EA000C55EA020C7FEA645C7FEA58
:10812000655C00F0E2804FEA5454D4EB5555B8BF7B
:108130006D420CDD2C4480EA020281EA030382EAEC
:10814000000083EA010180EA020281EA0303362D7E
:1081500088BF30BD11F0004F4FEA01314FF4801C51
:108160004CEA113102D0404261EB410113F0004F63
:108170004FEA03334CEA133302D0524263EB43031A
:1081800094EA050F00F0A780A4F10104D5F1200EB8
:108190000DDB02FA0EFC22FA05F2801841F1000113
:1081A00003FA0EF2801843FA05F359410EE0A5F1E7
:1081B00020050EF1200E012A03FA0EFC28BF4CF018
:1081C000020C43FA05F3C01851EBE37101F00045CE
:1081D00007D54FF0000EDCF1000C7EEB00006EEBDB
:1081E0000101B1F5801F1BD3B1F5001F0CD3490865
:1081F0005FEA30004FEA3C0C04F101044FEA4452BC
:1082000012F5800F80F09A80BCF1004F08BF5FEA42
:10821000500C50F1000041EB045141EA050130BD22
:108220005FEA4C0C404141EB010111F4801FA4F1C5
:108230000104E9D191F0000F04BF01460020B1FA1A
:1082400081F308BF2033A3F10B03B3F120020CDA52
:108250000C3208DD02F1140CC2F10C0201FA0CF030
:1082600021FA02F10CE002F11402D8BFC2F1200C95
:1082700001FA02F120FA0CFCDCBF41EA0C0190404B
:10828000E41AA2BF01EB0451294330BD6FEA040494
:108290001F3C1CDA0C340EDC04F11404C4F120027F
:1082A00020FA04F001FA02F340EA030021FA04F391
:1082B00045EA030130BDC4F10C04C4F1200220FAE8
:1082C00002F001FA04F340EA0300294630BD21FA26
:1082D00004F0294630BD94F0000F83F4801306BFEC
:1082E00081F480110134013D4EE77FEA645C18BFE0
:1082F0007FEA655C29D094EA050F08BF90EA020F77
:1083000005D054EA000C04BF1946104630BD91EA6E
:10831000030F1EBF0021002030BD5FEA545C05D171
:108320004000494128BF41F0004130BD14F58004B0
:108330003CBF01F5801130BD01F0004545F0FE4124
:1083400041F470014FF0000030BD7FEA645C1ABF59
:10835000194610467FEA655C1CBF0B46024650EA90
:10836000013406BF52EA033591EA030F41F40021BC
:1083700030BD00BF90F0000F04BF0021704730B542
:108380004FF4806404F132044FF000054FF0000117
:1083900050E700BF90F0000F04BF0021704730B5D8
:1083A0004FF4806404F1320410F0004548BF4042AD
:1083B0004FF000013EE700BF42004FEAE2014FEA02
:1083C00031014FEA02701FBF12F07F4393F07F4FDD
:1083D00081F06051704732F07F4208BF704793F0E0
:1083E0007F4F04BF41F40021704730B54FF46074F3
:1083F00001F0004521F000411CE700BF50EA0102F6
:1084000008BF704730B54FF000050AE050EA01029E
:1084100008BF704730B511F0004502D5404261EB0E
:1084200041014FF4806404F132045FEA915C3FF44F
:10843000D8AE4FF003025FEADC0C18BF03325FEAEC
:10844000DC0C18BF033202EBDC02C2F1200300FA9D
:1084500003FC20FA02F001FA03FE40EA0E0021FAC2
:1084600002F11444BDE600BF70B54FF0FF0C4CF4B0
:10847000E06C1CEA11541DBF1CEA135594EA0C0F62
:1084800095EA0C0F00F0DEF82C4481EA030621EA9D
:108490004C5123EA4C5350EA013518BF52EA0335D8
:1084A00041F4801143F4801338D0A0FB02CE4FF08A
:1084B0000005E1FB02E506F00042E0FB03E54FF0BA
:1084C0000006E1FB03569CF0000F18BF4EF0010EB2
:1084D000A4F1FF04B6F5007F64F5407404D25FEAAE
:1084E0004E0E6D4146EB060642EAC62141EA555161
:1084F0004FEAC52040EA5E504FEACE2EB4F1FD0CA3
:1085000088BFBCF5E06F1ED8BEF1004F08BF5FEA20
:10851000500E50F1000041EB045170BD06F00046D2
:1085200046EA010140EA020081EA0301B4EB5C047F
:10853000C2BFD4EB0C0541EA045170BD41F4801177
:108540004FF0000E013C00F3AB8014F1360FDEBF9C
:10855000002001F0004170BDC4F10004203C35DA78
:108560000C341BDC04F11404C4F1200500FA05F3FB
:1085700020FA04F001FA05F240EA020001F000429C
:1085800021F0004110EBD37021FA04F642EB060112
:108590005EEA430E08BF20EAD37070BDC4F10C043C
:1085A000C4F1200500FA04F320FA05F001FA04F200
:1085B00040EA020001F0004110EBD37041F10001EC
:1085C0005EEA430E08BF20EAD37070BDC4F12005F7
:1085D00000FA05F24EEA020E20FA04F301FA05F25F
:1085E00043EA020321FA04F001F0004121FA04F207
:1085F00020EA020000EBD3705EEA430E08BF20EAD7
:10860000D37070BD94F0000F0FD101F00046400010
:1086100041EB010111F4801F08BF013CF7D041EA92
:10862000060195F0000F18BF704703F00046520096
:1086300043EB030313F4801F08BF013DF7D043EA67
:108640000603704794EA0C0F0CEA135518BF95EA1D
:108650000C0F0CD050EA410618BF52EA4306D1D1A4
:1086600081EA030101F000414FF0000070BD50EAC3
:10867000410606BF1046194652EA430619D094EA4D
:108680000C0F02D150EA013613D195EA0C0F05D137
:1086900052EA03361CBF104619460AD181EA03018B
:1086A00001F0004141F0FE4141F470014FF0000043
:1086B00070BD41F0FE4141F4780170BD70B54FF0DE
:1086C000FF0C4CF4E06C1CEA11541DBF1CEA13555E
:1086D00094EA0C0F95EA0C0F00F0A7F8A4EB050440
:1086E00081EA030E52EA03354FEA013100F0888037
:1086F0004FEA03334FF0805545EA131343EA126300
:108700004FEA022245EA111545EA10654FEA0026B4
:108710000EF000419D4208BF964244F1FD0404F56D
:10872000407402D25B084FEA3202B61A65EB0305C9
:108730005B084FEA32024FF480104FF4002CB6EB86
:10874000020E75EB030E22BFB61A754640EA0C0006
:108750005B084FEA3202B6EB020E75EB030E22BF46
:10876000B61A754640EA5C005B084FEA3202B6EB87
:10877000020E75EB030E22BFB61A754640EA9C0046
:108780005B084FEA3202B6EB020E75EB030E22BF16
:10879000B61A754640EADC0055EA060E18D04FEAD4
:1087A000051545EA16754FEA06164FEAC30343EA74
:1087B00052734FEAC2025FEA1C1CC0D111F4801F41
:1087C0000BD141EA00014FF000004FF0004CB6E73A
:1087D00011F4801F04BF01430020B4F1FD0C88BFD9
:1087E000BCF5E06F3FF6AFAEB5EB030C04BFB6EBE4
:1087F000020C5FEA500C50F1000041EB045170BDD7
:108800000EF0004E4EEA113114EB5C04C2BFD4EB03
:108810000C0541EA045170BD41F480114FF0000E87
:10882000013C90E645EA060E8DE60CEA135594EA03
:108830000C0F08BF95EA0C0F3FF43BAF94EA0C0F06
:108840000AD150EA01347FF434AF95EA0C0F7FF47B
:1088500025AF104619462CE795EA0C0F06D152EACF
:1088600003353FF4FDAE1046194622E750EA4106B3
:1088700018BF52EA43067FF4C5AE50EA41047FF4C4
:108880000DAF52EA43057FF4EBAE12E74FF0FF3C29
:1088900006E000BF4FF0010C02E000BF4FF0010CFA
:1088A0004DF804CD4FEA410C7FEA6C5C4FEA430C73
:1088B00018BF7FEA6C5C1BD001B050EA410C0CBFC2
:1088C00052EA430C91EA030F02BF90EA020F002024
:1088D000704710F1000F91EA030F58BF994208BF8B
:1088E00090422CBFD8176FEAE37040F00100704748
:1088F0004FEA410C7FEA6C5C02D150EA013C07D19F
:108900004FEA430C7FEA6C5CD6D152EA033CD3D0E9
:108910005DF8040B704700BF8446104662468C46E3
:108920001946634600E000BF01B5FFF7B7FF002816
:1089300048BF10F1000F01BD4DF808EDFFF7F4FF3F
:108940000CBF012000205DF808FB00BF4DF808EDCA
:10895000FFF7EAFF34BF012000205DF808FB00BFED
:108960004DF808EDFFF7E0FF94BF012000205DF80F
:1089700008FB00BF4DF808EDFFF7CEFF94BF0120C4
:1089800000205DF808FB00BF4DF808EDFFF7C4FFBD
:1089900034BF012000205DF808FB00BF4FEA410C06
:1089A0007FEA6C5C02D150EA013C0AD14FEA430CE9
:1089B0007FEA6C5C02D152EA033C02D14FF0000026
:1089C00070474FF0010070474FEA410212F5001264
:1089D00015D211D56FF47873B3EB625212D94FEA06
:1089E000C12343F0004343EA505311F0004F23FAF0
:1089F00002F018BF404270474FF00000704750EA45
:108A0000013005D111F0004008BF6FF00040704701
:108A10004FF00000704700BF4FEA4102B2F1E0435F
:108A200024BFB3F5001CDCF1FE5C0DD901F0004C55
:108A30004FEAC0024CEA5070B2F1004F40EB8300A5
:108A400008BF20F00100704711F0804F21D113F1D1
:108A50003872BCBF01F00040704741F480114FEA0A
:108A60005252C2F11802C2F1200C10FA0CF320FA93
:108A700002F018BF40F001004FEAC1234FEAD323B0
:108A800003FA0CFC40EA0C0023FA02F34FEA43031A
:108A9000CCE77FEA625307D150EA01331EBF4FF0A3
:108AA000FE4040F44000704701F0004040F0FE40BE
:108AB00040F40000704700BF53B94AB9002908BF0D
:108AC00000281CBF4FF0FF314FF0FF3000F072B9AB
:108AD000ADF1080C6DE904CE00F006F8DDF804E015
:108AE000DDE9022304B070472DE9F047089E0446F3
:108AF0008846002B4BD18A42154667D9B2FA82F2DA
:108B00004AB1C2F1200701FA02F320FA07F79540B3
:108B100047EA030894404FEA154E230CB8FBFEF7D2
:108B20001FFA85FC0EFB178843EA084307FB0CF18C
:108B3000994209D9EB1807F1FF3080F01B81994267
:108B400040F21881023F2B445B1AA4B2B3FBFEF043
:108B50000EFB103344EA034400FB0CFCA44509D986
:108B60002C1900F1FF3380F00781A44540F2048105
:108B700002382C4440EA0740A4EB0C0400271EB145
:108B8000D4400023C6E900433946BDE8F0878B4254
:108B900009D9002E00F0EB800027C6E90001384615
:108BA0003946BDE8F087B3FA83F7002F47D18B42EF
:108BB00002D3824200F2FA80841A61EB030301209F
:108BC0009846002EE0D0C6E90048DDE702B9FFDE96
:108BD000B2FA82F2002A40F08F80491B4FEA154E0C
:108BE0001FFA85F80127B1FBFEFC230C0EFB1C11BC
:108BF00043EA014308FB0CF1994207D9EB180CF149
:108C0000FF3002D2994200F2CD808446591AA3B2B5
:108C1000B1FBFEF00EFB101443EA044408FB00F81D
:108C2000A04507D92C1900F1FF3302D2A04500F26C
:108C3000B6801846A4EB080440EA0C409FE7C7F151
:108C4000200CBB4022FA0CFE4EEA030E01FA07F498
:108C500020FA0CF521FA0CF34FEA1E482543B3FB2A
:108C6000F8F92C0C08FB19331FFA8EFA44EA034377
:108C700009FB0AF49C4202FA07F200FA07F10BD949
:108C80001EEB030309F1FF3080F087809C4240F225
:108C90008480A9F1020973441B1BADB2B3FBF8F049
:108CA00008FB103345EA034400FB0AFAA24508D941
:108CB0001EEB040400F1FF336BD2A24569D90238E0
:108CC000744440EA0940A0FB0289A4EB0A044C4525
:108CD000C2464B4654D351D0002E69D0B1EB0A05A1
:108CE00064EB030404FA0CFCFD40FC404CEA05056F
:108CF000C6E90054002747E7C2F1200320FA03F732
:108D0000954001FA02F021FA03F34FEA154E384379
:108D1000010CB3FBFEF71FFA85F80EFB173341EA8F
:108D2000034107FB08F38B4204FA02F407D96918E0
:108D300007F1FF3C2FD28B422DD9023F2944CB1A99
:108D400081B2B3FBFEF00EFB103341EA034100FB9E
:108D500008F38B4207D9691800F1FF3C17D28B4208
:108D600015D902382944C91A40EA07473BE7374674
:108D7000304609E70746E7E61846FBE64145ABD231
:108D8000B8EB020A69EB0E0201381346A4E760460D
:108D9000E9E7184695E76746D1E781467CE7023860
:108DA0002C4447E7ACF1020C2B442FE7384608E788
:108DB0003746E9E6704700BF90B589B000AF87ED50
:108DC000050AC7ED040A87ED031AC7ED021A87EDFD
:108DD000012AC7ED002A4FF00003FB614FF00003AA
:108DE000BB614B4B1B78002B07D14A4B4FF0000265
:108DF0001A60494B4FF000021A60454B01221A706D
:108E0000D7ED057A9FED457A37EE877AD7ED047A6C
:108E100077EE677AC7ED077A97ED077AD7ED037A91
:108E200027EE277A3B4BD3ED007A77EE277A394B42
:108E3000C3ED007A384BD3ED007A97ED077A77EEE1
:108E4000676A97ED037AC6EE877AC7ED067A324AEB
:108E5000FB69136097ED027AD7ED077A27EE277A40
:108E60002C4BD3ED006AD7ED017A66EEA77A37EE88
:108E7000277AD7ED006AD7ED067A66EEA77A77EE05
:108E8000277A17EE900AFFF797FA03460C4644EC50
:108E9000103B0CF0B1FE54EC103B18462146FFF796
:108EA00093FD03461AB21E4B1A8097ED027AD7ED56
:108EB000077A27EE277A174BD3ED006AD7ED017AB0
:108EC00066EEA77A37EE277AD7ED006AD7ED067AF5
:108ED00066EEA77A77EE277A17EE900AFFF76CFA1C
:108EE00003460C4644EC103B0CF086FE54EC103B61
:108EF00018462146FFF768FD03461BB29BB25B4252
:108F00009BB21AB2074B1A8000BF2437BD4690BDF2
:108F10006C02002070020020740200200000204239
:108F20007E8301209083012090B589B000AF87ED4A
:108F3000050AC7ED040A87ED031AC7ED021A87ED8B
:108F4000012AC7ED002A4FF00003FB614FF0000338
:108F5000BB61514B1B78002B07D1504B4FF00002E7
:108F60001A604F4B4FF000021A604B4B01221A70EF
:108F700097ED057AD7ED047A77EE677A17EE900AC7
:108F8000FFF71AFA4FF03332464BFFF76DFA0346FC
:108F90000C4618462146FFF73FFD0346FB6197ED5F
:108FA000077AD7ED037A27EE277A3C4BD3ED007A88
:108FB00077EE277A394BC3ED007A394BD3ED007A3F
:108FC00097ED077A77EE676A97ED037AC6EE877AB0
:108FD000C7ED067A324AFB69136097ED027AD7ED46
:108FE000077A27EE277A2D4BD3ED006AD7ED017A69
:108FF00066EEA77A37EE277AD7ED006AD7ED067AC4
:1090000066EEA77A77EE277A17EE900AFFF7D4F983
:1090100003460C4644EC103B0CF0EEFD54EC103BC8
:1090200018462146FFF7D0FC03461BB29BB25B42B9
:109030009BB21AB21C4B1A8097ED027AD7ED077AD1
:1090400027EE277A154BD3ED006AD7ED017A66EE4D
:10905000A77A37EE277AD7ED006AD7ED067A66EE63
:10906000A77A77EE277A17EE900AFFF7A5F903465D
:109070000C4644EC103B0CF0BFFD54EC103B184682
:109080002146FFF7A1FC03461AB2084B1A8000BF25
:109090002437BD4690BD00BF6C020020780200203E
:1090A0007C0200203333F33F7A8301209C8301202C
:1090B00090B589B000AF87ED050AC7ED040A87EDCA
:1090C000031AC7ED021A87ED012AC7ED002A4FF0F7
:1090D0000003FB614FF00003BB61514B1B78002B79
:1090E00007D1504B4FF000021A604F4B4FF0000277
:1090F0001A604B4B01221A7097ED057AD7ED047A6E
:1091000077EE677A17EE900AFFF756F94FF0333291
:10911000464BFFF7A9F903460C4618462146FFF7D0
:109120007BFC0346FB6197ED077AD7ED037A27EEC8
:10913000277A3C4BD3ED007A77EE277A394BC3ED93
:10914000007A394BD3ED007A97ED077A77EE676AAC
:1091500097ED037AC6EE877AC7ED067A324AFB6945
:10916000136097ED027AD7ED077A27EE277A2D4B19
:10917000D3ED006AD7ED017A66EEA77A37EE277A4B
:10918000D7ED006AD7ED067A66EEA77A77EE277AF2
:1091900017EE900AFFF710F903460C4644EC103B1B
:1091A0000CF02AFD54EC103B18462146FFF70CFC4E
:1091B00003461AB21E4B1A8097ED027AD7ED077A52
:1091C00027EE277A174BD3ED006AD7ED017A66EECA
:1091D000A77A37EE277AD7ED006AD7ED067A66EEE2
:1091E000A77A77EE277A17EE900AFFF7E5F803469D
:1091F0000C4644EC103B0CF0FFFC54EC103B1846C2
:109200002146FFF7E1FB03461BB29BB25B429BB2D8
:109210001AB2084B1A8000BF2437BD4690BD00BF6C
:109220006C02002080020020840200203333F33FD0
:109230006C8301208483012090B589B000AF87ED55
:10924000050AC7ED040A87ED031AC7ED021A87ED78
:10925000012AC7ED002A4FF00003FB614FF0000325
:10926000BB61474B1B78002B07D1464B4FF00002E8
:109270001A60454B4FF000021A60414B01221A70F0
:1092800097ED057AD7ED047A77EE677AC7ED077A1E
:1092900097ED077AD7ED037A27EE277A394BD3ED8E
:1092A000007A77EE277A374BC3ED007A364BD3ED51
:1092B000007A97ED077A77EE676A97ED037AC6EE44
:1092C000877AC7ED067A304AFB69136097ED027A18
:1092D000D7ED077A27EE277A2A4BD3ED006AD7ED30
:1092E000017A66EEA77A37EE277AD7ED006AD7EDD6
:1092F000067A66EEA77A77EE277A17EE900AFFF7DE
:109300005BF803460C4644EC103B0CF075FC54EC47
:10931000103B18462146FFF757FB03461AB21B4B7A
:109320001A8097ED027AD7ED077A27EE277A154B48
:10933000D3ED006AD7ED017A66EEA77A37EE277A89
:10934000D7ED006AD7ED067A66EEA77A77EE277A30
:1093500017EE900AFFF730F803460C4644EC103B3A
:109360000CF04AFC54EC103B18462146FFF72CFB4E
:1093700003461AB2064B1A8000BF2437BD4690BD83
:109380006C020020880200208C02002080830120D3
:109390007883012090B589B000AF87ED050AC7ED4D
:1093A000040A87ED031AC7ED021A87ED012AC7EDFB
:1093B000002A4FF00003FB614FF00003BB61324B0A
:1093C0001B78002B07D1314B4FF000021A60304B55
:1093D0004FF000021A602C4B01221A7097ED057AAB
:1093E000D7ED047A77EE677AC7ED077A97ED077ABB
:1093F000D7ED037A27EE277A244BD3ED007A77EE68
:10940000277A224BC3ED007A214BD3ED007A97EDFA
:10941000077A77EE676A97ED037AC6EE877AC7ED2B
:10942000067A1B4AFB69136097ED027AD7ED077A3B
:1094300027EE277A154BD3ED006AD7ED017A66EE59
:10944000A77A37EE277AD7ED006AD7ED067A66EE6F
:10945000A77A77EE277A17EE900AFEF7ADFF03465C
:109460000C4644EC103B0CF0C7FB54EC103B184688
:109470002146FFF7A9FA03461AB2064B1A8000BF2D
:109480002437BD4690BD00BF6C0200209002002032
:10949000940200207083012090B589B000AF87ED61
:1094A000050AC7ED040A87ED031AC7ED021A87ED16
:1094B000012AC7ED002A4FF00003FB614FF00003C3
:1094C000BB61324B1B78002B07D1314B4FF00002B0
:1094D0001A60304B4FF000021A602C4B01221A70B8
:1094E00097ED057AD7ED047A77EE677AC7ED077ABC
:1094F00097ED077AD7ED037A27EE277A244BD3ED41
:10950000007A77EE277A224BC3ED007A214BD3ED18
:10951000007A97ED077A77EE676A97ED037AC6EEE1
:10952000877AC7ED067A1B4AFB69136097ED027ACA
:10953000D7ED077A27EE277A154BD3ED006AD7EDE2
:10954000017A66EEA77A37EE277AD7ED006AD7ED73
:10955000067A66EEA77A77EE277A17EE900AFEF77C
:109560002BFF03460C4644EC103B0CF045FB54EC3F
:10957000103B18462146FFF727FA03461AB2064B5E
:109580001A8000BF2437BD4690BD00BF6C0200208A
:10959000980200209C0200209283012090B587B0A1
:1095A00000AF87ED030AC7ED020A87ED011AC7ED88
:1095B000001A4FF000037B614FF000033B614A4B00
:1095C0001B78002B07D1494B4FF000021A60484B23
:1095D0004FF000021A60444B01221A70454B93ED84
:1095E000007A454BD3ED007A77EE677AC7ED057ABE
:1095F00097ED057AD7ED037A27EE277A3B4BD3ED2B
:10960000007A77EE277A394BC3ED007A384BD3EDE9
:10961000007A97ED057A77EE676A97ED037AC6EEE2
:10962000877AC7ED047A324A7B69136097ED027A34
:10963000D7ED057A27EE277A2C4BD3ED006AD7EDCC
:10964000017A66EEA77A37EE277AD7ED006AD7ED72
:10965000047A66EEA77A77EE277A17EE900AFEF77D
:10966000ABFE03460C4644EC103B0CF0C5FA54EC40
:10967000103B18462146FFF7A7F903461AB21F4BC5
:109680001A8097ED027AD7ED057A27EE277A174BE5
:10969000D3ED006AD7ED017A66EEA77A37EE277A26
:1096A000D7ED006AD7ED047A66EEA77A77EE277ACF
:1096B00017EE900AFEF780FE03460C4644EC103B82
:1096C0000CF09AFA54EC103B18462146FFF77CF94F
:1096D00003461BB29BB25B429BB21AB2084B1A8084
:1096E00000BF1C37BD4690BD6C020020A0020020C8
:1096F000A40200208C830120988301207C83012018
:109700006E83012080B400AF054B064A5A60044BBB
:10971000054A5A6000BFBD465DF8047B704700BF34
:10972000003C024023016745AB89EFCD80B400AF18
:10973000054B1B69044A43F00043136100BFBD465B
:109740005DF8047B704700BF003C024080B400AF6E
:1097500000BF054BDB6803F48033002BF9D100BF59
:10976000BD465DF8047B7047003C024080B500AF09
:10977000FFF7C8FFFFF7EAFF0B4B1B690A4A43F0EC
:1097800002031361084B1B69074A43F0400313614E
:10979000054B1B69044A43F480331361FFF7D6FF7E
:1097A000FFF7C4FF00BF80BD003C024080B582B01F
:1097B00000AF786087ED000AFFF7A4FFFFF7C6FF50
:1097C0000E4B1B690D4A43F4007313610B4B1B696D
:1097D0000A4A43F0010313617B683A681A60FFF795
:1097E000B5FF064B1B69054A23F001031361FFF720
:1097F0009DFF00BF0837BD4680BD00BF003C024052
:1098000080B584B000AFF860B9607A60FB687A68B0
:109810001946B8680CF064FA00BF1037BD4680BD29
:1098200080B584B000AF0346FB71FB7963F07F0322
:10983000DBB2FB73002204210D4809F00DF807F19B
:109840000F01642301220B4809F0E6FC07F10E0129
:1098500064230122074809F013FE01220421044871
:1098600008F0FAFFBB7B18461037BD4680BD00BF2D
:10987000000C02401C85012080B584B000AF034677
:109880000A46FB711346BB71FB7903F07F03DBB221
:10989000FB73002204210C4808F0DEFF07F10F01E2
:1098A00064230122094809F0B7FCB91D6423012291
:1098B000064809F0B1FC01220421034808F0CCFF5E
:1098C00000BF1037BD4680BD000C02401C85012042
:1098D00080B582B000AF0020FFF7A2FF0346BB7146
:1098E000BB79E02B19D10123FB7101210620FFF781
:1098F000C3FF10210320FFF7BFFF20217F20FFF7C8
:10990000BBFF17210120FFF7B7FF06211420FFF747
:10991000B3FF00217F20FFF7AFFFFB791846083720
:10992000BD4680BD98B500AF3320FFF779FF0346F1
:109930001B021CB23420FFF773FF03461BB2234304
:109940001AB2114B1A803520FFF76AFF03461B023B
:109950001CB23620FFF764FF03461BB223431AB242
:109960000A4B1A803720FFF75BFF03461B021CB22D
:109970003820FFF755FF03461BB223431AB2044BAE
:109980001A8000BF98BD00BFA6830120A4830120D8
:109990009E83012098B500AF2D20FFF741FF0346BD
:1099A0001B021CB22E20FFF73BFF03461BB22343D2
:1099B0001AB2114B1A802F20FFF732FF03461B0209
:1099C0001CB23020FFF72CFF03461BB223431AB210
:1099D0000A4B1A803120FFF723FF03461B021CB2FB
:1099E0003220FFF71DFF03461BB223431AB2044B7C
:1099F0001A8000BF98BD00BFA2830120A883012068
:109A0000A083012080B582B000AF7860391D4FF689
:109A1000FF73012203480BF08FFC7B681846083760
:109A2000BD4680BDC885012080B400AF2D4B00220B
:109A30001A802C4BB3F900202B4B1A802A4BB3F918
:109A400000202A4B1A80294BB3F90020284B1A809A
:109A5000274BB3F90020274B1A80264BB3F900207F
:109A6000254B1A80244BB3F90020244B1A80234B3A
:109A7000B3F90020224B1A80214BB3F90020214B6F
:109A80001A80214B00221A801F4BB3F900201F4B74
:109A90001A801E4BB3F900201D4B1A801C4BB3F9E2
:109AA00000201C4B1A801B4BB3F900201A4B1A8064
:109AB000194BB3F90020194B1A80184BB3F9002049
:109AC000174B1A80164BB3F90020164B1A80154B12
:109AD000B3F90020144B1A8000BFBD465DF8047B2B
:109AE000704700BF928301206E8301208283012092
:109AF000888301206C8301207A83012090830120D8
:109B000078830120E08F0120708301207C83012075
:109B1000868301208A830120848301209C83012085
:109B20007E830120808301208C84012098B500AFC2
:109B3000194B93F90430002B03F00103B8BF5B42CB
:109B40005BB2012B25D0154BD3E900014FF0000289
:109B5000134BFEF7D3FA03460C46104AC2E9003411
:109B60000E4BD3E900014FF000020E4BFEF7E4FE6E
:109B70000346002B00D10CE00B4BD3E900014FF062
:109B80000002074BFEF7BAFA03460C46064AC2E942
:109B9000003400BF98BD00BF68000020D8420120FB
:109BA0000000F03F00408F40D0420120B0B400AF31
:109BB0003C4B00221A606CE03B4B00221A605FE0D5
:109BC000384B1A68384B1868384C1346DB0013447E
:109BD000191814F81130022565F3871304F81130B1
:109BE000304B1968304B1C68304D1346DB00134472
:109BF000034415F81330C3F38113DDB22B480B4631
:109C0000DB000B441A1910F8123065F3051300F845
:109C10001230244B1A68244B1868244D0B46DB0085
:109C20000B44234415F81330C3F30113DDB21F4C6A
:109C30001346DB001344191814F8113065F383033D
:109C400004F81130174B1C68174B1D681749134651
:109C5000DB001344034411F81330C3F38103D8B27B
:109C600012492346DB0023445A1911F8123060F3DD
:109C7000010301F812300C4B1B6801330A4A1360D0
:109C8000094B1B68082B9BDD064B1B680133054AFB
:109C90001360044B1B68082B8EDD00BFBD46B0BCB3
:109CA000704700BF088301200C830120FC8E012037
:109CB00090B400AF4F4B08221A6065E04E4B002273
:109CC0001A6058E04C4B1A684A4B19684B481346C7
:109CD000DB0013440B4410F81330C3F30103DAB272
:109CE000474B1B681146474AD154434B1A68414BB6
:109CF000196842481346DB0013440B4410F8133034
:109D0000C3F38103DAB23E4B1B68013311463D4A6F
:109D1000D154394B1A68374B196838481346DB0061
:109D200013440B4410F81330C3F30113DAB2344B6D
:109D30001B6802331146334AD1542F4B1A682D4BFE
:109D400019682E481346DB0013440B4410F81330F7
:109D5000C3F38113DAB22A4B1B6803331146294A35
:109D6000D154274B1B680433254A1360224B1B68D0
:109D70000133214A1360204B1B68082BA2DD1D4BC9
:109D80001B68013B1B4A13601A4B1B68002B95DABA
:109D9000184B08221A6025E0174B00221A6018E0C1
:109DA000154B1A68134B1868154B1968164C134657
:109DB000DB001344234403441A78124B5A54104BCB
:109DC0001B6801330E4A13600B4B1B6801330A4AB0
:109DD0001360094B1B68082BE2DD064B1B68013B37
:109DE000044A1360034B1B68002BD5DA00BFBD4645
:109DF00090BC70471083012014830120FC8E012049
:109E00001883012008430120548A012080B500AF47
:109E1000484B00221A6053E0474B00221A6043E08F
:109E2000464B1B68464AD35C194646480CF0C8FBB3
:109E3000424B1B68591C444B83FB0123DA10CB17A0
:109E4000D21A1346DB0013449B00CA1A002A0ED014
:109E50003A4B1B680133032B09DD384B1B68013378
:109E600003F00303002B02D138480CF0A9FB334B5D
:109E70001B68591C344B83FB0123DA10CB17D21A11
:109E80001346DB0013449B00CA1A002A02D1304853
:109E90000CF00AFC294B1B680133284A1360264B3F
:109EA0001B680133244A1360234B1B68232BB7DD47
:109EB00027480CF0F9FB1F4B1B6801331D4A136048
:109EC0001C4B1B68082BA7DD21480CF0EDFB20483C
:109ED0000CF0EAFB174B00221A6024E0164B00221C
:109EE0001A6011E0154B1B68154AD35C19461948D6
:109EF0000CF066FB114B1B680133104A13600E4BCC
:109F00001B6801330C4A13600B4B1B68082BE9DDFF
:109F10000F480CF0C9FB0E480CF0C6FB054B1B6844
:109F20000133044A1360034B1B68082BD6DD00BFC6
:109F300080BD00BF1C8301202083012024830120D9
:109F40000843012020840108398EE3382484010865
:109F5000288401082C84010880B588B000AF08F07F
:109F600047F80023BB6001233B610223BB6101234F
:109F70007B613A1D07F108031146184608F098F96D
:109F80000346FB7708F056F8FB7F002B05D17B6872
:109F9000B3F1FF3F01D1012300E0002303F00103EF
:109FA000DBB218462037BD4680BD000080B500AF4B
:109FB000054A064B104619464FF480431A460BF0EB
:109FC0008FFE014B184680BD084301200040000869
:109FD00090B585B000AFFFF7BFFF034683F00103E4
:109FE000DBB2002B01D000232FE01A4B7B6007F07F
:109FF000FFFF4FF480533B600023BB6017E0BB685A
:10A000009B00154A9918BB689B007A6813441B682B
:10A010004FF000041A462346022007F0E1FE0346F3
:10A02000FB73FB7B002B07D1BB680133BB60BA68B5
:10A030003B689A42E3D300E000BF07F0FBFFFB7BE5
:10A04000002B0CBF01230023DBB218461437BD469A
:10A0500090BD00BF084301200040000880B500AF5C
:10A060000021044809F078FE002102480AF045FF6B
:10A0700000BF80BDB883012080B500AF0021044837
:10A0800009F0EEFE002102480AF08CFF00BF80BDFF
:10A09000B883012080B500AF03220A490A4806F0C0
:10A0A000ABFD0346002B01D005F07CFE02220749E0
:10A0B000074806F0A1FD0346002B01D005F072FE13
:10A0C00000BF80BDF04201207C850120F8420120C4
:10A0D0003C84012080B500AF084806F07FFE0346AF
:10A0E000002B01D005F05EFE054806F077FE034622
:10A0F000002B01D005F056FE00BF80BD7C850120FD
:10A100003C84012080B500AF3C2104480AF0A0F84F
:10A110003C2103480AF09CF800BF80BDD884012090
:10A12000FC83012080B500AF0C21094809F068FFCD
:10A130000346002B01D005F035FE0421054809F047
:10A140005FFF0346002B01D005F02CFE00BF80BD51
:10A15000A08F01209484012080B500AF0C21094814
:10A1600009F08CFF0346002B01D005F01BFE0421F3
:10A17000054809F083FF0346002B01D005F012FECD
:10A1800000BF80BDA08F01209484012080B500AF66
:10A19000FFF764FFFFF77EFFFFF79AFBFFF7C2FFB1
:10A1A00000BF80BD2DE9B04384B000AF87ED030A46
:10A1B000C7ED020A87ED011A97ED017AD7ED037A10
:10A1C00067EE277A17EE900AFEF7F6F804460D467A
:10A1D0007868FEF7F1F802460B464FF0000011498F
:10A1E000FDF78AFF02460B4690469946B868FEF78F
:10A1F000E3F802460B4640464946FEF735F902466B
:10A200000B4620462946FDF779FF03460C4644ECF1
:10A21000173BB0EE470AF0EE670A1037BD46BDE8BF
:10A22000B08300BF0000F03FB0B582B000AF4FF088
:10A2300000034FF00004C7E90034FFF773FBFFF79A
:10A24000A9FB494B1B881BB21846FEF7A3F8474BE6
:10A25000D3E900341A462346FDF74EFF03460C4669
:10A26000184621463AA3D3E90023FEF727FA03460E
:10A270000C461846214638A3D3E90023FEF7F4F82C
:10A2800003460C46184621464FF00002384BFEF7B5
:10A2900015FA03460C46C7E90034D7E90001FEF77A
:10A2A000BBFB0546334BD3E9003418462146FEF785
:10A2B000B3FB03469FED301A00EE903A00EE105AC1
:10A2C000FFF770FFB0EE407AF0EE607A2B4B83ED33
:10A2D000007B2A4BD3E9000121A3D3E90023FEF739
:10A2E000C3F803460C4618462146254BD3E90034F3
:10A2F0001A462346FDF702FF03460C46204AC2E9F0
:10A3000000341E4BD3E900341A4AC2E900341C4B16
:10A31000D3E900014FF00002154BFEF7A5F8034604
:10A320000C46184621460CA3D3E90023FEF7C6F9D4
:10A3300003460C46134AC2E90034D7E9003444EC22
:10A34000173BB0EE470AF0EE670A0837BD46B0BDCE
:10A350006666666666663040182D4454FB210940E7
:10A36000FCA9F1D24D62503F9E830120C8420120DA
:10A3700000806640288301200AD7233C30830120D7
:10A38000B8420120B0420120B0B590B000AF87EDD7
:10A390000A0B87ED081B87ED062B87ED043B87ED45
:10A3A000024B87ED005B4FF000034FF00004C7E95C
:10A3B0000E344FF000034FF00004C7E90C34714B2A
:10A3C0009B7903F00103DBB2002B0FD06E4BD3ED72
:10A3D000007AF5EE407AF1EE10FA15D16B4BD3ED21
:10A3E000007AF5EE407AF1EE10FA0DD1684A4FF09E
:10A3F00000034FF00004C2E90034664A4FF0000346
:10A400004FF00004C2E900345E4A937943F001033F
:10A410009371D7E90823D7E90A01FDF76DFE0346DA
:10A420000C46C7E90E34D7E90623D7E90E01FEF73B
:10A430001BF803460C4618462146554BD3E9003419
:10A440001A462346FDF75AFE03460C46504AC2E917
:10A450000034504BD3E900341A462346D7E90E01A5
:10A46000FDF74AFE03460C4618462146D7E9062367
:10A47000FEF724F903460C46C7E90C34454AD7E9F0
:10A480000E34C2E90034D7E90E23D7E90401FDF701
:10A49000EBFF03460C4625461C463D4BD3E9000125
:10A4A000D7E90223FDF7E0FF02460B462046294686
:10A4B000FDF724FE03460C4625461C46D7E90C232F
:10A4C000D7E90001FDF7D0FF02460B46204629469A
:10A4D000FDF714FE03460C4644EC173BB0EE470A6A
:10A4E000F0EE670A0BF088FB54EC103B184621464F
:10A4F000FEF76AFA03461BB29BB25B429BB21AB2EA
:10A50000254B1A80D7E90E23D7E90401FDF7ACFFEC
:10A5100003460C4625461C461D4BD3E90001D7E9EE
:10A520000223FDF7A1FF02460B4620462946FDF710
:10A53000E5FD03460C4625461C46D7E90C23D7E922
:10A540000001FDF791FF02460B4620462946FDF724
:10A55000D5FD03460C4644EC173BB0EE470AF0EE3F
:10A56000670A0BF049FB54EC103B18462146FEF7F6
:10A570002BFA03461AB2094B1A8000BF4037BD467A
:10A58000B0BD00BF68000020A8420120AC420120FD
:10A5900038830120408301208283012086830120AB
:10A5A000F0B589B000AF6B461E464FF47A7006F0E6
:10A5B0007DF94FF4FA63FB81B7F90E000346013BC6
:10A5C000BB60034619464FF000024FF000034FF006
:10A5D0000004940144EA91648B01034619464FF04C
:10A5E00000024FF000034FF00004940144EA91642C
:10A5F0008B010346DB0007330733DB08DB00ADEBE1
:10A60000030D6B460733DB08DB007B600023FB8315
:10A6100023E0204B1B881BB2FD8B1846FDF7BAFECA
:10A6200003460C467968EA000A44C2E90034FB8B11
:10A630007A68DB001344D3E900341A462346D7E98D
:10A640000401FDF75BFD03460C46C7E90434022014
:10A6500006F02CF9FB8B0133FB83FA8BB7F90E3034
:10A660009A42D6DBB7F90E301846FDF793FE034643
:10A670000C461A462346D7E90401FEF71FF80346A5
:10A680000C46054AC2E90034B54600BF2437BD4632
:10A69000F0BD00BF9E830120C842012080B500AFFD
:10A6A0005A4B93F90030072B00F2AC8001A252F80C
:10A6B00023F000BFD5A60008FBA6000821A70008CC
:10A6C00047A700086DA7000893A70008B9A70008CE
:10A6D000DFA7000800224FF400714D4808F0BCF8D5
:10A6E00000224FF480714A4808F0B6F800224FF477
:10A6F0000071484808F0B0F885E001224FF400717D
:10A70000434808F0A9F800224FF48071404808F04F
:10A71000A3F800224FF400713E4808F09DF872E063
:10A7200000224FF400713A4808F096F801224FF4E5
:10A730008071374808F090F800224FF400713548D6
:10A7400008F08AF85FE001224FF40071304808F009
:10A7500083F801224FF480712D4808F07DF8002223
:10A760004FF400712B4808F077F84CE000224FF4CA
:10A770000071274808F070F800224FF480712448D7
:10A7800008F06AF801224FF40071224808F064F8DA
:10A7900039E001224FF400711D4808F05DF80022F5
:10A7A0004FF480711A4808F057F801224FF40071F5
:10A7B000184808F051F826E000224FF400711448C0
:10A7C00008F04AF801224FF48071114808F044F86B
:10A7D00001224FF400710F4808F03EF813E0012207
:10A7E0004FF400710A4808F037F801224FF48071E5
:10A7F000074808F031F801224FF40071054808F0CD
:10A800002BF800E000BF00BF80BD00BF6800002043
:10A81000000802400004024080B582B000AF034649
:10A820000A46FB801346BB80B7F90630002B05DDD6
:10A83000012204211A4808F00FF80CE0B7F906309D
:10A84000002B08DA00220421154808F005F8FB88DF
:10A850005B429BB2FB80B7F90430002B05DD002280
:10A8600001210F4807F0F8FF0CE0B7F90430002B86
:10A8700008DA012201210A4807F0EEFFBB885B429B
:10A880009BB2BB80074B1B68B7F906201A64064BC6
:10A890001B68B7F904209A6300BF0837BD4680BD26
:10A8A00000000240A08F01209484012080B400AFFA
:10A8B000804B1B881AB2804B1A807E4B5B881AB281
:10A8C0007E4B1A807E4B1B881AB27E4B1A807C4BC3
:10A8D0005B881AB27C4B1A807C4BB3F900301A4665
:10A8E000754BB3F90030D31A002BB8BF5B421AB2D4
:10A8F000774B1A80774BB3F900301A466F4BB3F998
:10A900000030D31A002BB8BF5B421AB2724B1A80C8
:10A91000724BB3F900301A466A4BB3F90030D31AC0
:10A92000002BB8BF5B421AB26D4B1A806D4BB3F966
:10A9300000301A46644BB3F90030D31A002BB8BF6D
:10A940005B421AB2684B1A805B4BB3F900205F4B35
:10A950001A805A4BB3F900205E4B1A80594BB3F959
:10A9600000205E4B1A80584BB3F900205D4B1A80D3
:10A97000504B9B8807EE903AF8EE677A5B4BC3ED3D
:10A98000007A5B4BB3F900309AB2514BB3F9003007
:10A990009BB213449BB21AB2554B1A80554BB3F974
:10A9A00000309AB24C4BB3F900309BB213449BB2C7
:10A9B0001AB2504B1A80504BB3F900309AB2484B40
:10A9C000B3F900309BB213449BB21AB24A4B1A80BF
:10A9D0004A4BB3F900309AB2434BB3F900309BB203
:10A9E00013449BB21AB2454B1A80454B1B68013386
:10A9F000434A1360424B1B680A2B56D13C4BB3F9B8
:10AA0000003007EE903AF8EEE76A3D4B1B6807EE20
:10AA1000903AB8EEE77AC6EE877A3A4BC3ED007A01
:10AA2000344BB3F9003007EE903AF8EEE76A344B56
:10AA30001B6807EE903AB8EEE77AC6EE877A324B9B
:10AA4000C3ED007A2C4BB3F9003007EE903AF8EEE4
:10AA5000E76A2B4B1B6807EE903AB8EEE77AC6EE32
:10AA6000877A2A4BC3ED007A244BB3F9003007EE06
:10AA7000903AF8EEE76A224B1B6807EE903AB8EE80
:10AA8000E77AC6EE877A224BC3ED007A184B002294
:10AA90001A80184B00221A80174B00221A80174B7D
:10AAA00000221A80164B00221A6000BFBD465DF8D6
:10AAB000047B7047F0420120848401201C000020A8
:10AAC000F8420120FE420120E28F0120888401200B
:10AAD0008684012002430120044301200043012019
:10AAE00006430120B0830120D48401204890012036
:10AAF0008E840120C48501207485012018850120E1
:10AB00004883012044900120F88E0120B483012065
:10AB10009084012080B487B000AF87ED010AC7EDB3
:10AB2000000A0F4B7B614FF08E433B61D7ED056A06
:10AB3000D7ED047A86EEA77AD7ED017A67EE276A19
:10AB400097ED007AC6EE877AC7ED037AFB6807EEC9
:10AB5000903AB0EE670A1C37BD465DF8047B70473B
:10AB6000026F814280B400AF064B47F22F525A6207
:10AB7000054B47F22F525A6200BFBD465DF8047B79
:10AB8000704700BF000400400008004080B483B05C
:10AB900000AF0346FB80B7F90630002B02D100233B
:10ABA000FB8030E0B7F90630012B2CD11A4B5A68E4
:10ABB000194B1B681344184A5360184B5A68174BBB
:10ABC0001B681344154A5360134B5A68134B5B6858
:10ABD000134407EE903AB8EEE77AF0EE006AC7EE5B
:10ABE000267AFDEEE77A17EE902A0D4B5A600A4B53
:10ABF0001A680A4B1B681A440A4B1B681344094A1B
:10AC000013600123FB80B7F9063018460C37BD46A8
:10AC10005DF8047B704700BF440000205000002016
:10AC20005C000020E842012090B585B000AF87EDC0
:10AC3000000B0F4BD3E90034C7E9023400BFD7E95A
:10AC40000023D7E90201FDF759FA03460C461846DE
:10AC50002146074BD3E900341A462346FDF794FEFC
:10AC60000346002BEBD100BF1437BD4690BD00BF9B
:10AC7000E04201200000000080B500AF224B00221E
:10AC80001A70FEF7D1FE214B00225A60204B0022A1
:10AC90005A60204B00225A601F4B0122DA7005E0F7
:10ACA0001D4B04225A711C4B01225A70174B5A68D3
:10ACB000174B5B681344002B0FDB144B5A68144B83
:10ACC0005B6813441846FDF765FB0DA3D3E9002329
:10ACD000FDF73CFE0346002BE2D10F4B00225A70D9
:10ACE0000E4B0F4A1A60094B00225A60084B002293
:10ACF0005A60084B00225A6000BF80BDAFF300804D
:10AD0000787FED637488EE406C02002044000020E0
:10AD1000500000205C00002068000020A8420120B4
:10AD2000000096430000000080B500AF4A4B0022AF
:10AD30001A70FEF779FE494B03225A71484B0022E4
:10AD40005A60484B00225A60474B00225A60434BDE
:10AD50000122DA704DE0414B02225A70404B5A6892
:10AD6000404B5B6813441846FDF714FB36A3D3E948
:10AD70000023FDF709FE0346002B37D03B4BD3EDF4
:10AD8000007A9FED3B7AF4EEC77AF1EE10FA0DDD12
:10AD9000384BD3ED007A9FED387AF4EEC77AF1EEB6
:10ADA00010FA03DD2D4B00225A7122E0314BD3ED16
:10ADB000007A9FED317AF4EEC77AF1EE10FA03DDF6
:10ADC000264B01225A7114E0284BD3ED007A9FEDF7
:10ADD000287AF4EEC77AF1EE10FA03DD1F4B022257
:10ADE0005A7106E01D4B04225A7102E01B4B0422EB
:10ADF0005A711B4B5A681B4B5B681344002B0FDBCB
:10AE0000174B5A68174B5B6813441846FDF7C2FA94
:10AE10000FA3D3E90023FDF799FD0346002B9AD138
:10AE20000E4B00225A70154B154A1A600C4B00222B
:10AE30005A600C4B00225A600B4B00225A6000BF34
:10AE400080BD00BFAFF30080E1EB98F21CB9D840A1
:10AE5000B13A23A73340E6406C020020680000208E
:10AE600044000020500000205C000020F88E0120EB
:10AE70000000C842B483012000000C43A842012016
:10AE8000000096430000000080B500AF4C4B032249
:10AE90005A7155E04A4B03225A704A4B59684A4B43
:10AEA0005B681A4649480BF08BFB464B5A68464B89
:10AEB0005B6813441846FDF76DFA3DA3D3E9002300
:10AEC000FDF744FD0346002B37D0414BD3ED007A0C
:10AED0009FED407AF4EEC77AF1EE10FA0DDD3E4BAD
:10AEE000D3ED007A9FED3D7AF4EEC77AF1EE10FAD9
:10AEF00003DD334B00225A7122E0374BD3ED007A49
:10AF00009FED367AF4EEC77AF1EE10FA03DD2C4BA2
:10AF100001225A7114E02E4BD3ED007A9FED2D7A69
:10AF2000F4EEC77AF1EE10FA03DD254B02225A71D6
:10AF300006E0234B04225A7102E0214B04225A718D
:10AF4000204B5A68204B5B6813441846FDF722FAE1
:10AF500019A3D3E90023FDF7F9FC0346002B12D017
:10AF60001F4B93ED007A1F4BD3ED007A37EE277A13
:10AF7000F0EE006AC7EE267A9FED1B7AF4EEC77AF0
:10AF8000F1EE10FA86D40E4B00225A700C4B0522BB
:10AF90005A71164B4FF000021A60094B0022DA700A
:10AFA000134B00221A70FEF73FFD00BF80BD00BFAB
:10AFB000414E8489EFAADD40B13A23A73340E640F1
:10AFC000680000204400002050000020BC840108DC
:10AFD000F88E01200000C842B483012000000C4319
:10AFE00044900120908401200080ED44A84201207B
:10AFF0006C02002000000000B0B500AF7EE0544BB2
:10B000005A68544B5B6813441846FDF7C3F904466D
:10B010000D46514BD3ED007A77EEA77A17EE900AE2
:10B02000FDF7CAF946A3D3E90023FDF71DFA02464E
:10B030000B4620462946FDF789FC0346002B22D10A
:10B04000454BD3ED007A77EEA77A17EE900AFDF71D
:10B05000B3F93DA3D3E90023FDF74EF803460C46B0
:10B0600025461C463A4B5A683A4B5B6813441846CF
:10B07000FDF790F902460B4620462946FDF766FC8F
:10B080000346002B37D0354BD3ED007A9FED347A51
:10B09000F4EEC77AF1EE10FA0DDD324BD3ED007A03
:10B0A0009FED317AF4EEC77AF1EE10FA03DD2F4B03
:10B0B00000225A711EE02B4BD3ED007A9FED2A7AC5
:10B0C000F4EEC77AF1EE10FA03DD284B01225A7133
:10B0D00014E0224BD3ED007A9FED217AF4EEC77A8B
:10B0E000F1EE10FA03DD214B02225A7106E01F4BEC
:10B0F00004225A7102E01D4B04225A71144B5A6803
:10B10000144B5B68134407EE903AB8EEE77A124BA3
:10B11000D3ED007A77EEA77AB4EEE77AF1EE10FA83
:10B120003FF56DAF0A4B00225A600A4B00225A606D
:10B130000F4B00225A6000BFB0BD00BFAFF30080CC
:10B14000CDCCCCCCCCCCDC3F424E8489EFAADD40C8
:10B15000440000205000002000000020F88E012054
:10B160000000C842B483012000000C4368000020A6
:10B170005C000020000000002DE9B0432DED028BA3
:10B1800084B000AF034687ED000BFB73FEF7CAFFE8
:10B1900097F90F30002B37DA27E0474B93ED008B00
:10B1A000464B1B681846FDF707F904460D46434B0E
:10B1B0005B681846FDF700F9804689463F4B9B685F
:10B1C0001846FDF7F9F802460B4643EC152B49ECFF
:10B1D000148B45EC134B9FED362BB0EE481AF0EE76
:10B1E000681A97ED000BFFF7CFF897F90F30184664
:10B1F000FDF7D0F8324BD3E900341A462346FDF769
:10B20000A5FB0346002BC8D197F90F30002B37DD83
:10B2100027E0294B93ED008B284B1B681846FDF760
:10B22000CBF804460D46254B5B681846FDF7C4F87D
:10B2300080468946214B9B681846FDF7BDF80246BB
:10B240000B4643EC152B49EC148B45EC134B9FED4F
:10B25000182BB0EE481AF0EE681A97ED000BFFF7C6
:10B2600093F897F90F301846FDF794F8144BD3E98B
:10B2700000341A462346FDF787FB0346002BC8D14E
:10B28000104B0022DA70104A4FF000034FF0000418
:10B29000C2E900340A4A4FF000034FF00004C2E94B
:10B2A000003400BF1037BD46BDEC028BBDE8B08353
:10B2B000FCA9F1D24D62503FC0420120380000206D
:10B2C000B042012068000020B842012080B582B061
:10B2D00000AF0023FB7145E0284B4FF000021A60DD
:10B2E000274B00221A70FEF79FFB264B00225A6064
:10B2F000254B00225A60254B00225A60244B012224
:10B30000DA7005E0224B03225A71224B224A1A605E
:10B310001C4B5A681C4B5B68D31A07EE903AB8EE88
:10B32000E77A1E4BD3ED007A77EEA77AB4EEE77A90
:10B33000F1EE10FAE6D9164B0022DA70154B4FF0F9
:10B3400000021A600D4B4FF000021A600D4B0022F4
:10B350005A600D4B00225A600C4B00225A60FB7958
:10B360000133FB71FB79002BB6D0054B00221A701C
:10B37000FEF75AFB00BF0837BD4680BDA84201203A
:10B380006C02002044000020500000205C000020DF
:10B3900068000020AC4201200000A0C00400002092
:10B3A00080B582B000AF0023FB7145E0284B4FF021
:10B3B00000021A60274B00221A70FEF735FB264B5D
:10B3C00000225A60254B00225A60254B00225A6009
:10B3D000244B0122DA7005E0224B03225A71224BE2
:10B3E000224A1A601D4B5A681B4B5B68D31A07EE42
:10B3F000903AB8EEE77A1E4BD3ED007A77EEA77A53
:10B40000B4EEE77AF1EE10FAE6D9164B0022DA70C4
:10B41000154B4FF000021A600D4B4FF000021A60FE
:10B420000D4B00225A600D4B00225A600C4B00223B
:10B430005A60FB790133FB71FB79002BB6D0054BC9
:10B4400000221A70FEF7F0FA00BF0837BD4680BD33
:10B45000A84201206C02002044000020500000207F
:10B460005C00002068000020AC4201200000A040E9
:10B47000040000200000000098B500AF504B0622E9
:10B480005A7102E04E4B06225A704E4B5A684E4B90
:10B490005B6813441846FCF77DFF3FA3D3E9002304
:10B4A000FDF754FA0346002BECD1454B00225A70AD
:10B4B00021E0464B464A1A60464B474A1A60454BC4
:10B4C0001B681846FCF778FF35A3D3E90023FCF787
:10B4D000CBFF03460C461846214633A3D3E900238D
:10B4E000FDF7ECF803460C4618462146FDF794FAA2
:10B4F00002463A4B1A60334B5A68334B5B6813442D
:10B500001846FCF747FF24A3D3E90023FDF732FADE
:10B510000346002B0FD02B4B5A682B4B5B68134410
:10B520001846FCF737FF22A3D3E90023FDF70EFAF4
:10B530000346002BBDD102E0214B07225A70214B5C
:10B540005A68214B5B6813441846FCF723FF1AA383
:10B55000D3E90023FDF7FAF90346002BECD1184B91
:10B5600000225A70164B04225A71164B00225A6060
:10B57000154B00225A601A4B00225A60154B4FF0AF
:10B5800000021A60154B4FF000021A600F4B154A6B
:10B590001A6000BF98BD00BF39484F2382F0B74002
:10B5A000CDCCCCCCCCCC4B409A99999999195F4091
:10B5B0000D08A05F82F5EF408AF80452C979F14086
:10B5C000680000204400002050000020A842012014
:10B5D0000000344394830120CDCC78437483012050
:10B5E0005C0000200000964398B500AF504B062247
:10B5F0005A7102E04E4B04225A704E4B5A684E4B21
:10B600005B6813441846FCF7C5FE3FA3D3E900234B
:10B61000FDF79CF90346002BECD1454B00225A70F4
:10B6200021E0464B464A1A60464B474A1A60454B52
:10B630001B681846FCF7C0FE35A3D3E90023FCF7CE
:10B6400013FF03460C461846214633A3D3E90023D3
:10B65000FDF734F803460C4618462146FDF7DCF9A1
:10B6600002463A4B1A60334B5A68334B5B681344BB
:10B670001846FCF78FFE24A3D3E90023FDF77AF9DF
:10B680000346002B0FD02B4B5A682B4B5B6813449F
:10B690001846FCF77FFE22A3D3E90023FDF756F9F5
:10B6A0000346002BBDD102E0214B05225A70214BED
:10B6B0005A68214B5B6813441846FCF76BFE1AA3CB
:10B6C000D3E90023FDF742F90346002BECD1184BD8
:10B6D00000225A70164B04225A71164B00225A60EF
:10B6E000154B00225A601A4B00225A60174B4FF03C
:10B6F00000021A60134B4FF000021A600F4B154AFC
:10B700001A6000BF98BD00BF39484F2382F0B74090
:10B71000CDCCCCCCCCCC4B409A99999999195F401F
:10B720000D08A05F82F5EF408AF80452C979F14014
:10B73000680000204400002050000020A8420120A2
:10B740000000344374830120CDCC784394830120DE
:10B750005C0000200000964380B500AF70E0544BC1
:10B760005A68544B5B6813441846FCF713FE4AA30F
:10B77000D3E90023FDF7EAF80346002B05D04E4B32
:10B7800004225A714D4B4E4A1A60494B5A68494B34
:10B790005B6813441846FCF7FDFD3FA3D3E9002383
:10B7A000FDF7E8F80346002B22D0414B5A68414B85
:10B7B0005B6813441846FCF7EDFD39A3D3E9002379
:10B7C000FDF7C4F80346002B12D03B4B06225A71FA
:10B7D0003A4B3B4A1A603B4B3B4A1A60394BD3ED1C
:10B7E000007A9FED3A7A67EE877A394BC3ED007A9B
:10B7F0002F4B5A682F4B5B6813441846FCF7CAFD61
:10B8000027A3D3E90023FDF7B5F80346002B00D1A9
:10B8100016E0274B5A68274B5B6813441846FCF721
:10B82000B9FD21A3D3E90023FDF790F80346002BCF
:10B8300000D105E0204B04225A71204B204A1A60A7
:10B840001B4B5A681B4B5B6813441846FCF7A2FD60
:10B8500015A3D3E90023FDF779F80346002B7FF405
:10B860007EAF154B04225A71114B00225A60114BC6
:10B8700000225A60174B00225A60124B4FF0000210
:10B880001A60134B4FF000021A600C4B124A1A60F8
:10B8900000BF80BDAFF3008092BC1C47F97DDB4048
:10B8A000D6FF77B2F21AEB40102F03ABF76CF440DF
:10B8B000440000205000002068000020A842012021
:10B8C00000003443948301200000B44300000000D2
:10B8D000748301205C0000200000964300000000FB
:10B8E00080B500AF70E0544B5A68544B5B6813440A
:10B8F0001846FCF74FFD4AA3D3E90023FDF726F8CD
:10B900000346002B05D04E4B04225A714D4B4E4A34
:10B910001A60494B5A68494B5B6813441846FCF758
:10B9200039FD3FA3D3E90023FDF724F80346002B9C
:10B9300022D0414B5A68414B5B6813441846FCF7D0
:10B9400029FD39A3D3E90023FDF700F80346002BB6
:10B9500012D03B4B06225A713A4B3B4A1A603B4B82
:10B960003B4A1A60394BD3ED007A9FED3A7A67EE85
:10B97000877A394BC3ED007A2F4B5A682F4B5B689F
:10B9800013441846FCF706FD27A3D3E90023FCF770
:10B99000F1FF0346002B00D116E0274B5A68274BD6
:10B9A0005B6813441846FCF7F5FC21A3D3E9002398
:10B9B000FCF7CCFF0346002B00D105E0204B04220E
:10B9C0005A71204B204A1A601B4B5A681B4B5B680C
:10B9D00013441846FCF7DEFC15A3D3E90023FCF75B
:10B9E000B5FF0346002B7FF47EAF154B04225A713E
:10B9F000114B00225A60114B00225A60174B002253
:10BA00005A60154B4FF000021A60104B4FF00002C5
:10BA10001A600C4B124A1A6000BF80BDAFF3008061
:10BA200092BC1C47F97DDB40D6FF77B2F21AEB409F
:10BA3000102F03ABF76CF4404400002050000020AE
:10BA400068000020A84201200000344374830120D4
:10BA50000000B44300000000948301205C0000203B
:10BA60000000964380B582B000AF0023FB7154E024
:10BA7000304B4FF000021A602F4B00221A70FDF776
:10BA8000D3FF2E4B00225A602D4B00225A602D4BC3
:10BA900000225A602C4B0122DA7005E02A4B032267
:10BAA0005A712A4B2A4A1A60244B5B6807EE903A77
:10BAB000B8EEE77A274BD3ED007A77EEA77AB4EEAB
:10BAC000E77AF1EE10FAE9D91D4B5B6807EE903A80
:10BAD000B8EEE77A1F4BD3ED007AF1EE677A77EE96
:10BAE000A77AB4EEE77AF1EE10FAD7DA164B002215
:10BAF000DA70104B4FF000021A60144B4FF0000246
:10BB00001A600E4B00225A600D4B00225A600D4BFA
:10BB100000225A60FB790133FB71FB79002BA7D01F
:10BB2000054B00221A70FDF77FFF00BF0837BD46A6
:10BB300080BD00BFA84201206C020020440000200C
:10BB4000500000205C00002068000020AC42012072
:10BB50000000C0C00400002080B582B000AF2A4BB6
:10BB600000221A70FDF760FF284B00225A60284B14
:10BB700000225A60274B00225A60274B0122DA70BC
:10BB800005E0264B264A1A60234B04225A711F4BAC
:10BB90005A681F4B5B6813441846FCF7FBFB18A35D
:10BBA000D3E90023FCF7F0FE0346002BE9D11B4B41
:10BBB0004FF000021A60184B05225A71164B0022F2
:10BBC000DA70124B00225A60114B00225A60114B5E
:10BBD00000225A600C4B00221A70FDF725FF00234B
:10BBE0007B6002E07B6801337B607B680D4A934297
:10BBF000F8DD00BF0837BD4680BD00BFAFF3008051
:10BC0000EFEB7F105482D5C06C020020440000206E
:10BC1000500000205C00002068000020A8420120A5
:10BC20000000B4C2BFD4010080B500AF1E4B5B7AE8
:10BC3000032B2DD801A252F823F000BF4DBC000801
:10BC40006BBC000871BC000877BC0008FFF71CF94A
:10BC50009FED110BFEF7E8FFFFF738FB9FED0E0B92
:10BC6000FEF7E2FFFFF760F812E0FFF705FC0FE0D8
:10BC7000FFF772FD0CE0FFF707F99FED090B6FF07E
:10BC80005900FFF779FAFDF723FEFFF74DF800BFE3
:10BC900000BF80BDAFF30080333333333333D33F42
:10BCA00000000000000014C0680000200000000038
:10BCB00080B500AF1E4B5B7A032B2CD801A252F843
:10BCC00023F000BFD5BC0008F3BC0008F9BC000895
:10BCD000FFBC0008FFF7D8F89FED110BFEF7A4FF9B
:10BCE000FFF75EFB9FED0E0BFEF79EFFFFF71CF8C4
:10BCF00011E0FFF779FC0EE0FFF7F2FD0BE0FFF734
:10BD0000C3F89FED090B5A20FFF736FAFDF7E0FD67
:10BD1000FFF70AF800BF00BF80BD00BFAFF300808F
:10BD2000333333333333D33F00000000000014407B
:10BD30006800002080B500AF4FF480515B4806F0EA
:10BD400073FD0346012B40F0A38059480AF0ACFC78
:10BD5000FEF702FA574807F09EFF574807F09BFF8F
:10BD6000FEF78AF9FEF7B6F94FF4C87004F09EFDAD
:10BD7000524B93F90430DBB20133DBB25AB24F4B72
:10BD80001A714E4B93F90430052B40F081804B4BD8
:10BD900003221A717CE04A4B5B6A1A46494B1A60CF
:10BDA000484B1B68194648480AF00AFC454B1B687B
:10BDB00049F22E5293421EDD404B93F90030DBB224
:10BDC0000133DBB25AB23D4B1A703C4B93F9003051
:10BDD000072B02DD394B00221A70FEF75FFCFEF7DD
:10BDE000C1FE364B93F90020344B9A704FF4FA7031
:10BDF00004F05CFD4CE0334B1B6845F22F5293423C
:10BE00001EDC2E4B93F90030DBB2013BDBB25AB2A1
:10BE10002A4B1A70294B93F90030002B02DA274B7A
:10BE200007221A70FEF73AFCFEF79CFE234B93F9AB
:10BE30000020224B9A704FF4FA7004F037FD27E08F
:10BE40004FF48051194806F0EFFC0346012B1FD137
:10BE50001E480AF029FC4FF4FA7004F027FDFEF7A3
:10BE600095F9174B47F22F525A62194B47F22F524E
:10BE70005A62114807F0EBFE0E4807F0E8FE0F4B40
:10BE800093F90430DBB20133DBB25AB20B4B1A71B7
:10BE90000A4B93F90430002B03F00103B8BF5B4257
:10BEA0005BB2012B3FF477AF00BF80BD00040240BE
:10BEB000C8840108D08A0120B883012068000020CE
:10BEC0000004004044000020D484010828840108B4
:10BED0000008004090B484B000AF0023FB60002352
:10BEE000BB6000237B6000233B600023FB6015E008
:10BEF0000023BB600CE0AA49FA681346DB00134438
:10BF0000CA18BB68134450221A70BB680133BB6067
:10BF1000BB68082BEFDDFB680133FB60FB68082B77
:10BF2000E6DD0723FB6015E00723BB600CE09C49BE
:10BF3000FA681346DB001344CA18BB681344002296
:10BF40001A70BB680133BB60BB68072BEFDDFB6871
:10BF50000133FB60FB68072BE6DD00237B600023D9
:10BF6000FB600CE10023BB6002E18D49FA681346D7
:10BF7000DB001344CA18BB6813441B781A463B689D
:10BF8000934240F0F2808749FA681346DB0013447D
:10BF9000BA68134411F81330C3F30103DBB2012B69
:10BFA0002DD0BB68591C7E48FA681346DB00134449
:10BFB00003440B4419787A48FA681346DB001344AB
:10BFC000C218BB6813441B78994218D9BB68072B69
:10BFD00015DC7349FA681346DB001344CA18BB68C2
:10BFE00013441B78BA68511C0133DCB26C48FA6800
:10BFF0001346DB00134403440B4422461A7069497C
:10C00000FA681346DB001344BA68134411F813307E
:10C01000C3F38103DBB2012B2DD0FB685A1C6049AE
:10C020001346DB001344CA18BB68134419785C48F4
:10C03000FA681346DB001344C218BB6813441B782C
:10C04000994218D9FB68072B15DC5549FA68134645
:10C05000DB001344CA18BB6813441B78FA6801322A
:10C060000133D8B24E491346DB001344CA18BB68EB
:10C07000134402461A704B49FA681346DB00134416
:10C08000BA68134411F81330C3F30113DBB2012B68
:10C090002DD0BB68591E4248FA681346DB00134492
:10C0A00003440B4419783E48FA681346DB001344F6
:10C0B000C218BB6813441B78994218D9BB68002B7F
:10C0C00015DD3749FA681346DB001344CA18BB680C
:10C0D00013441B78BA68511E0133DCB23048FA6849
:10C0E0001346DB00134403440B4422461A702D49C7
:10C0F000FA681346DB001344BA68134411F813308E
:10C10000C3F38113DBB2012B2DD0FB685A1E2449E7
:10C110001346DB001344CA18BB681344197820483F
:10C12000FA681346DB001344C218BB6813441B783B
:10C13000994218D9FB68002B15DD1949FA68134696
:10C14000DB001344CA18BB6813441B78FA68013A31
:10C150000133D8B212491346DB001344CA18BB6836
:10C16000134402461A7001237B60BB680133BB6035
:10C17000BB68082B7FF7F9AEFB680133FB60FB68F7
:10C18000082B7FF7EFAE3B6801333B607B68002BE9
:10C190007FF4E3AE00BF1037BD4690BC704700BFD0
:10C1A000548A0120FC8E012080B500AF4FF47A70D4
:10C1B00004F07CFBFEF7B8FDFEF71EFFFEF71CFF48
:10C1C000FEF762FEFDF7C8FF0A4807F064FD0A4863
:10C1D00007F061FD094B1B68194609480AF0F0F9A0
:10C1E000084B1B68194608480AF0EAF907480AF0A4
:10C1F0005BFAEFE7D08A0120B8830120EC420120EE
:10C20000DC840108E8420120008501082884010837
:10C2100090B482B000AF964B93ED007A954BD3ED7E
:10C22000007A37EE277AF0EE006AC7EE267AB3EE90
:10C230000E7AF4EEC77AF1EE10FACCBF0123002398
:10C24000DAB28D4B1B7807F108010B4403F8042C7C
:10C250008A4BD3ED007A9FED8A7AF4EEC77AF1EE3D
:10C2600010FACCBF01230023D9B2834B1B780133D2
:10C270005A4203F0030302F0030258BF53420A4636
:10C2800007F108010B4403F8042C7B4B1B780233A5
:10C290005A4203F0030302F0030258BF534207F16E
:10C2A00008021344002203F8042C764BD3ED007AE5
:10C2B0009FED757AF4EEC77AF1EE10FACCBF012348
:10C2C0000023D9B26C4B1B7803335A4203F00303AB
:10C2D00002F0030258BF53420A4607F108010B441B
:10C2E00003F8042C3979694B1B781A46684B1B7884
:10C2F0001C460B4603F00303D8B266491346DB0025
:10C3000013441A1911F8123060F3010301F81230C6
:10C3100079795E4B1B781A465D4B1B781C460B46A1
:10C3200003F00303D8B25B491346DB0013441A1928
:10C3300011F8123060F3830301F81230B979534BCE
:10C340001B781A46524B1B781C460B4603F003031E
:10C35000D8B250491346DB0013441A1911F81230B1
:10C3600060F3051301F81230F979484B1B781A462F
:10C37000474B1B781C460B4603F00303D8B24549D4
:10C380001346DB0013441A1911F8123060F38713B7
:10C3900001F812303E4B1B78072B15D839793B4BEF
:10C3A0001B781C463A4B1B785A1C0B4603F00303C0
:10C3B000D8B238492346DB0023441A4411F812301E
:10C3C00060F3051301F81230304B1B78072B15D89A
:10C3D00079792E4B1B785A1C2D4B1B781C460B462B
:10C3E00003F00303D8B22B491346DB0013441A1998
:10C3F00011F8123060F3871301F81230244B1B78C8
:10C40000002B15D0B979214B1B781C46204B1B788B
:10C410005A1E0B4603F00303D8B21E492346DB0025
:10C4200023441A4411F8123060F3010301F812306A
:10C43000164B1B78002B15D0F979144B1B785A1E1C
:10C44000134B1B781C460B4603F00303D8B211496B
:10C450001346DB0013441A1911F8123060F38303FA
:10C4600001F8123000BF0837BD4690BC704700BFCE
:10C4700044900120908401208A840120F88E0120BC
:10C480000000C842B483012000000C43FC4201209C
:10C49000FD420120FC8E012080B5BEB000AFFFF749
:10C4A000B7FEFFF717FDCC4B1B78032B00F2F78686
:10C4B00001A252F823F000BFC9C400087DC80008DB
:10C4C00027CC000863CF0008FEF72EFCFEF7DCFC4B
:10C4D000C24B1B780133DAB2C04B1A70FFF798FEDB
:10C4E0000023C7F8F03004E0D7F8F0300133C7F884
:10C4F000F030D7F8F000FBF74DFFB5A3D3E90023E8
:10C50000FCF724FA0346002BEED1B54B1B78072B22
:10C5100003D1522387F8F73006E0B14B1B78072B85
:10C5200002D14C2387F8F73097F8F730522B40F0C0
:10C53000C980FEF7CBFEA84B01221A700023C7F872
:10C54000EC3004E0D7F8EC300133C7F8EC30D7F822
:10C55000EC00FBF71FFF9EA3D3E90023FCF7F6F9DD
:10C560000346002BEED1FEF7DFFBFEF78DFC9C4B64
:10C570001B780133DAB29A4B1A70FFF749FE002399
:10C58000C7F8E83004E0D7F8E8300133C7F8E830FE
:10C59000D7F8E800FBF7FEFE8DA3D3E90023FCF7F4
:10C5A000D5F90346002BEED1FEF790FE8A4B02220E
:10C5B0001A700023C7F8E43004E0D7F8E430013300
:10C5C000C7F8E430D7F8E400FBF7E4FE80A3D3E932
:10C5D0000023FCF7BBF90346002BEED1FEF7A4FBCA
:10C5E000FEF752FC7D4B1B78013BDAB27B4B1A7095
:10C5F000FFF70EFE0023C7F8E03004E0D7F8E03084
:10C600000133C7F8E030D7F8E000FBF7C3FE70A3B2
:10C61000D3E90023FCF79AF90346002BEED1FEF78D
:10C6200055FE6D4B03221A700023C7F8DC3004E07E
:10C63000D7F8DC300133C7F8DC30D7F8DC00FBF783
:10C64000A9FE63A3D3E90023FCF780F90346002B7E
:10C65000EED1FEF769FBFEF717FC604B1B78013B40
:10C66000DAB25E4B1A700023C7F8D83004E0D7F86E
:10C67000D8300133C7F8D830D7F8D800FBF78AFE96
:10C6800053A3D3E90023FCF761F90346002BEED155
:10C69000FEF786FE504B02221A700023C7F8D430F2
:10C6A00004E0D7F8D4300133C7F8D430D7F8D40039
:10C6B000FBF770FE46A3D3E90023FCF747F90346D6
:10C6C000002BEED197F8F7304C2B40F0EA85FEF7BF
:10C6D00067FE414B03221A700023C7F8D03004E0F4
:10C6E000D7F8D0300133C7F8D030D7F8D000FBF7F7
:10C6F00051FE37A3D3E90023FCF728F90346002BAA
:10C70000EED1FEF711FBFEF7BFFB354B1B78013B6B
:10C71000DAB2334B1A70FFF77BFD0023C7F8CC3039
:10C7200004E0D7F8CC300133C7F8CC30D7F8CC00D0
:10C73000FBF730FE26A3D3E90023FCF707F90346F5
:10C74000002BEED1FEF72CFE234B02221A700023A1
:10C75000C7F8C83004E0D7F8C8300133C7F8C8308C
:10C76000D7F8C800FBF716FE19A3D3E90023FCF79E
:10C77000EDF80346002BEED1FEF7D6FAFEF784FB68
:10C78000164B1B78013BDAB2144B1A70FFF740FDD1
:10C790000023C7F8C43004E0D7F8C4300133C7F829
:10C7A000C430D7F8C400FBF7F5FD09A3D3E9002393
:10C7B000FCF7CCF80346002BEED1FEF7F1FD064B5B
:10C7C00001221A700023C7F8C03010E0AFF30080D8
:10C7D00000000000004CCD408A840120FD42012071
:10C7E000FC420120D7F8C0300133C7F8C030D7F879
:10C7F000C000FBF7CFFDD6A3D3E90023FCF7A6F8D2
:10C800000346002BEED1FEF78FFAFEF73DFBD24B2D
:10C810001B780133DAB2D04B1A700023C7F8BC3052
:10C8200004E0D7F8BC300133C7F8BC30D7F8BC00FF
:10C83000FBF7B0FDC6A3D3E90023FCF787F8034656
:10C84000002BEED1FEF742FDC44B00221A700023EC
:10C85000C7F8B83004E0D7F8B8300133C7F8B830BB
:10C86000D7F8B800FBF796FDB9A3D3E90023FCF78E
:10C870006DF80346002BEED100F013BDFEF754FA1D
:10C88000FEF702FBB44B1B780133DAB2B24B1A70DD
:10C89000FFF7BEFC0023C7F8B43004E0D7F8B4308B
:10C8A0000133C7F8B430D7F8B400FBF773FDA8A381
:10C8B000D3E90023FCF74AF80346002BEED1A84B3E
:10C8C0001B78072B03D14C2387F8F73006E0A44BE5
:10C8D0001B78072B02D1522387F8F73097F8F730EF
:10C8E000522B40F0C980FEF7F1FC9C4B02221A70DB
:10C8F0000023C7F8B03004E0D7F8B0300133C7F8F0
:10C90000B030D7F8B000FBF745FD91A3D3E9002381
:10C91000FCF71CF80346002BEED1FEF705FAFEF7F4
:10C92000B3FA8F4B1B78013BDAB28D4B1A70FFF7CD
:10C930006FFC0023C7F8AC3004E0D7F8AC3001330B
:10C94000C7F8AC30D7F8AC00FBF724FD80A3D3E9DF
:10C950000023FBF7FBFF0346002BEED1FEF7B6FCEE
:10C960007E4B03221A700023C7F8A83004E0D7F8E2
:10C97000A8300133C7F8A830D7F8A800FBF70AFDA4
:10C9800073A3D3E90023FBF7E1FF0346002BEED1AD
:10C99000FEF7CAF9FEF778FA6F4B1B78013BDAB263
:10C9A0006D4B1A70FFF734FC0023C7F8A43004E085
:10C9B000D7F8A4300133C7F8A430D7F8A400FBF7A8
:10C9C000E9FC63A3D3E90023FBF7C0FF0346002B78
:10C9D000EED1FEF77BFC614B00221A700023C7F8F2
:10C9E000A03004E0D7F8A0300133C7F8A030D7F862
:10C9F000A000FBF7CFFC56A3D3E90023FBF7A6FF6B
:10CA00000346002BEED1FEF78FF9FEF73DFA544BAB
:10CA10001B780133DAB2524B1A700023C7F89C30EE
:10CA200004E0D7F89C300133C7F89C30D7F89C005D
:10CA3000FBF7B0FC46A3D3E90023FBF787FF0346CF
:10CA4000002BEED1FEF7ACFC444B03221A700023FE
:10CA5000C7F8983004E0D7F898300133C7F8983019
:10CA6000D7F89800FBF796FC39A3D3E90023FBF72E
:10CA70006DFF0346002BEED197F8F7304C2B40F0BA
:10CA80001284FEF78DFC354B00221A700023C7F884
:10CA9000943004E0D7F894300133C7F89430D7F8D5
:10CAA0009400FBF777FC2AA3D3E90023FBF74EFFA2
:10CAB0000346002BEED1FEF737F9FEF7E5F9284BD8
:10CAC0001B780133DAB2264B1A70FFF7A1FB002363
:10CAD000C7F8903004E0D7F890300133C7F89030B1
:10CAE000D7F89000FBF756FC19A3D3E90023FBF716
:10CAF0002DFF0346002BEED1FEF752FC174B03220D
:10CB00001A700023C7F88C3004E0D7F88C3001335A
:10CB1000C7F88C30D7F88C00FBF73CFC0CA3D3E9AA
:10CB20000023FBF713FF0346002BEED1FEF7FCF8C2
:10CB3000FEF7AAF9084B1B78013BDAB2064B1A70D4
:10CB4000FFF766FB0023C7F8883010E0AFF30080E2
:10CB500000000000004CCD40FC4201208A840120EE
:10CB6000FD420120D7F888300133C7F88830D7F864
:10CB70008800FBF70FFCBCA3D3E90023FBF7E6FE1C
:10CB80000346002BEED1FEF70BFCB94B02221A70C4
:10CB90000023C7F8843004E0D7F884300133C7F8A5
:10CBA0008430D7F88400FBF7F5FBAFA3D3E900236B
:10CBB000FBF7CCFE0346002BEED1FEF7B5F8FEF7EF
:10CBC00063F9AC4B1B78013BDAB2AA4B1A70002315
:10CBD000C7F8803004E0D7F880300133C7F88030E0
:10CBE000D7F88000FBF7D6FB9FA3D3E90023FBF720
:10CBF000ADFE0346002BEED1FEF768FB9C4B0322F3
:10CC00001A700023FB6702E0FB6F0133FB67F86FCC
:10CC1000FBF7C0FB94A3D3E90023FBF797FE034681
:10CC2000002BF1D13FE3FEF77FF8FEF72DF9914B92
:10CC30001B78013BDAB28F4B1A70FFF7E9FA002339
:10CC4000BB6702E0BB6F0133BB67B86FFBF7A2FBAA
:10CC500085A3D3E90023FBF779FE0346002BF1D12E
:10CC6000854B1B78072B03D14C2387F8F73006E060
:10CC7000814B1B78072B02D1522387F8F73097F8A6
:10CC8000F730522B40F0AD80FEF720FB784B0322AB
:10CC90001A7000237B6702E07B6F01337B67786F3C
:10CCA000FBF778FB70A3D3E90023FBF74FFE0346A5
:10CCB000002BF1D1FEF738F8FEF7E6F86E4B1B7843
:10CCC000013BDAB26C4B1A70FFF7A2FA00233B6704
:10CCD00002E03B6F01333B67386FFBF75BFB62A3FE
:10CCE000D3E90023FBF732FE0346002BF1D1FEF718
:10CCF000EDFA5F4B00221A700023FB6602E0FB6E28
:10CD00000133FB66F86EFBF745FB57A3D3E900231D
:10CD1000FBF71CFE0346002BF1D1FEF705F8FEF7EA
:10CD2000B3F8544B1B780133DAB2524B1A70FFF749
:10CD30006FFA0023BB6602E0BB6E0133BB66B86EC0
:10CD4000FBF728FB48A3D3E90023FBF7FFFD0346CD
:10CD5000002BF1D1FEF7BAFA454B01221A700023DD
:10CD60007B6602E07B6E01337B66786EFBF712FB1D
:10CD70003DA3D3E90023FBF7E9FD0346002BF1D1E6
:10CD8000FDF7D2FFFEF780F83B4B1B780133DAB298
:10CD9000394B1A7000233B6602E03B6E01333B6661
:10CDA000386EFBF7F7FA30A3D3E90023FBF7CEFD8B
:10CDB0000346002BF1D1FEF7F3FA2D4B00221A7037
:10CDC0000023FB6502E0FB6D0133FB65F86DFBF7AB
:10CDD000E1FA25A3D3E90023FBF7B8FD0346002BB6
:10CDE000F1D197F8F7304C2B40F05F82FEF7D8FA7C
:10CDF0001F4B01221A700023BB6502E0BB6D01339B
:10CE0000BB65B86DFBF7C6FA17A3D3E90023FBF7A0
:10CE10009DFD0346002BF1D1FDF786FFFEF734F8A8
:10CE2000154B1B780133DAB2134B1A70FFF7F0F988
:10CE300000237B6502E07B6D01337B65786DFBF73A
:10CE4000A9FA09A3D3E90023FBF780FD0346002BD1
:10CE5000F1D1FEF7A5FA064B00221A7000233B65BC
:10CE60000FE000BFAFF3008000000000004CCD4099
:10CE70008A840120FD420120FC4201203B6D0133E8
:10CE80003B65386DFBF786FABBA3D3E90023FBF7BC
:10CE90005DFD0346002BF1D1FDF746FFFDF7F4FFE2
:10CEA000B74B1B780133DAB2B54B1A70FFF7B0F904
:10CEB0000023FB6402E0FB6C0133FB64F86CFBF7BE
:10CEC00069FAADA3D3E90023FBF740FD0346002B2D
:10CED000F1D1FEF765FAAB4B03221A700023BB6455
:10CEE00002E0BB6C0133BB64B86CFBF753FAA2A33E
:10CEF000D3E90023FBF72AFD0346002BF1D1FDF710
:10CF000013FFFDF7C1FFA04B1B78013BDAB29E4B2C
:10CF10001A7000237B6402E07B6C01337B64786CC5
:10CF2000FBF738FA94A3D3E90023FBF70FFD034680
:10CF3000002BF1D1FEF7CAF9924B00221A700023A0
:10CF40003B6402E03B6C01333B64386CFBF722FA34
:10CF500089A3D3E90023FBF7F9FC0346002BF1D1A9
:10CF6000A3E1FDF7E1FEFDF78FFF874B1B78013B47
:10CF7000DAB2854B1A70FFF74BF90023FB6302E02E
:10CF8000FB6B0133FB63F86BFBF704FA7AA3D3E97D
:10CF90000023FBF7DBFC0346002BF1D1784B1B7819
:10CFA000072B03D1522387F8F73006E0744B1B7828
:10CFB000072B02D14C2387F8F73097F8F730522B24
:10CFC00040F0AD80FEF782F96E4B00221A7000230C
:10CFD000BB6302E0BB6B0133BB63B86BFBF7DAF9F1
:10CFE00065A3D3E90023FBF7B1FC0346002BF1D185
:10CFF000FDF79AFEFDF748FF614B1B780133DAB26B
:10D000005F4B1A70FFF704F900237B6302E07B6B30
:10D0100001337B63786BFBF7BDF957A3D3E900239A
:10D02000FBF794FC0346002BF1D1FEF74FF9554B6B
:10D0300001221A7000233B6302E03B6B01333B6328
:10D04000386BFBF7A7F94CA3D3E90023FBF77EFC71
:10D050000346002BF1D1FDF767FEFDF715FF4A4BA4
:10D060001B780133DAB2484B1A70FFF7D1F800236E
:10D07000FB6202E0FB6A0133FB62F86AFBF78AF9A4
:10D080003DA3D3E90023FBF761FC0346002BF1D15C
:10D09000FEF71CF93B4B02221A700023BB6202E030
:10D0A000BB6A0133BB62B86AFBF774F932A3D3E9F8
:10D0B0000023FBF74BFC0346002BF1D1FDF734FEB8
:10D0C000FDF7E2FE2E4B1B78013BDAB22C4B1A70B7
:10D0D00000237B6202E07B6A01337B62786AFBF7A4
:10D0E00059F925A3D3E90023FBF730FC0346002BB5
:10D0F000F1D1FEF755F9234B01221A7000233B6250
:10D1000002E03B6A01333B62386AFBF743F91AA33A
:10D11000D3E90023FBF71AFC0346002BF1D197F863
:10D12000F7304C2B40F0C380FEF73AF9154B022242
:10D130001A700023FB6102E0FB690133FB61F869AF
:10D14000FBF728F90CA3D3E90023FBF7FFFB034609
:10D15000002BF1D1FDF7E8FDFDF796FE084B1B789B
:10D16000013BDAB2064B1A70FFF752F80023BB619D
:10D170000FE000BFAFF3008000000000004CCD4086
:10D18000FD4201208A840120FC420120BB69013359
:10D19000BB61B869FBF7FEF849A3D3E90023FBF7AD
:10D1A000D5FB0346002BF1D1FEF7FAF8464B0122DE
:10D1B0001A7000237B6102E07B6901337B6178692F
:10D1C000FBF7E8F83EA3D3E90023FBF7BFFB0346D8
:10D1D000002BF1D1FDF7A8FDFDF756FE3B4B1B7868
:10D1E0000133DAB2394B1A70FFF712F800233B61B2
:10D1F00002E03B6901333B613869FBF7CBF830A3B0
:10D20000D3E90023FBF7A2FB0346002BF1D1FEF785
:10D21000C7F82D4B00221A700023FB6002E0FB6868
:10D220000133FB60F868FBF7B5F825A3D3E90023C9
:10D23000FBF78CFB0346002BF1D1FDF775FDFDF7E5
:10D2400023FE234B1B780133DAB2214B1A700023E3
:10D25000BB6002E0BB680133BB60B868FBF79AF8BB
:10D2600017A3D3E90023FBF771FB0346002BF1D191
:10D27000FEF72CF8144B01221A7000237B6002E0A9
:10D280007B6801337B607868FBF784F80CA3D3E9F3
:10D290000023FBF75BFB0346002BF1D107E000BF47
:10D2A00006E000BF04E000BF02E000BF00E000BFF6
:10D2B000FEF710FE00BFF837BD4680BDAFF300801B
:10D2C00000000000004CCD408A840120FC42012077
:10D2D000FD4201200000000098B500AF9A4B0022EB
:10D2E0005A729A4B1B78032B00F2AC8301A252F8BE
:10D2F00023F000BF05D30008C5D40008A5D6000858
:10D3000085D80008924B1B781946924B1B7818461B
:10D31000914A0B46DB000B44034412F81330C3F36D
:10D320000103DBB2002B2BD1894B1B781846894BAC
:10D330001B785A1C89490346DB0003440B44134401
:10D340001A78834B1B781846824B1B781C468349FE
:10D350000346DB0003440B4423441B789A420FD25C
:10D360007C4B1B78072B0BD8FDF746FE774B002232
:10D370001A70784B1B780133DAB2764B1A70A0E042
:10D38000734B1B781946734B1B781846724A0B4631
:10D39000DB000B44034412F81330C3F38113DBB2F8
:10D3A000002B2BD16A4B1B785A1E6A4B1B781846F0
:10D3B0006A491346DB0013440B4403441A78644B58
:10D3C0001B781846634B1B781C4664490346DB00F8
:10D3D00003440B4423441B789A420FD25C4B1B78C6
:10D3E000002B0BD0FEF764FC584B03221A70584BED
:10D3F0001B78013BDAB2564B1A7062E0544B1B7833
:10D400001946544B1B781846534A0B46DB000B4415
:10D41000034412F81330C3F38103DBB2002B2BD18A
:10D420004B4B1B785A1C4B4B1B7818464B491346E9
:10D43000DB0013440B4403441A78454B1B78184611
:10D44000444B1B781C4645490346DB0003440B4410
:10D4500023441B789A420FD23D4B1B78072B0BD8E5
:10D46000FEF7E2FB394B01221A70394B1B7801336E
:10D47000DAB2374B1A7024E0FDF706FD9FED300B52
:10D48000FDF7D2FB304B93F90230012B01D1FCF7B1
:10D4900063FEFEF7E7FA9FED2A0BFDF7C5FBFEF7EB
:10D4A0005BFB9FED270BFDF7BFFBFDF7E5FB274B74
:10D4B00002221A70274B1B78013BDAB2254B1A70F7
:10D4C000C1E2C0E2224B1B781946224B1B7818465A
:10D4D000214A0B46DB000B44034412F81330C3F31C
:10D4E0008103DBB2002B3BD1194B1B785A1C194B23
:10D4F0001B78184619491346DB0013440B440344B8
:10D500001A78134B1B781846124B1B781C4613498C
:10D510000346DB0003440B4423441B789A421FD28A
:10D520000B4B1B78072B1BD8FDF766FD074B012221
:10D530001A70074B1B780133DAB2054B1A70B0E052
:10D54000333333333333D33F680000208A840120E0
:10D55000FC420120FD420120FC8E0120548A012062
:10D56000AF4B1B781946AF4B1B781846AE4A0B469B
:10D57000DB000B44034412F81330C3F30103DBB2A6
:10D58000002B2BD1A64B1B781846A64B1B785A1C98
:10D59000A6490346DB0003440B4413441A78A04B0E
:10D5A0001B7818469F4B1B781C46A0490346DB009E
:10D5B00003440B4423441B789A420FD2994B1B78A7
:10D5C000072B0BD8FEF774FB994B00221A70954B72
:10D5D0001B780133DAB2934B1A7062E0904B1B78E0
:10D5E0001946904B1B7818468F4A0B46DB000B44BC
:10D5F000034412F81330C3F30113DBB2002B2BD119
:10D60000874B1B781846874B1B785A1E8749034661
:10D61000DB0003440B4413441A78814B1B781846F3
:10D62000804B1B781C4681490346DB0003440B44B6
:10D6300023441B789A420FD27A4B1B78002B0BD0D5
:10D64000FEF7F2FA7A4B02221A70764B1B78013BF6
:10D65000DAB2744B1A7024E0FDF716FC9FED6E0BE6
:10D66000FDF7E2FA734B93F90230012B01D1FCF77D
:10D6700073FDFEF7F7F99FED680BFDF7D5FAFEF79E
:10D680006BFA9FED650BFDF7CFFAFDF7F5FA684BE6
:10D6900003221A70624B1B78013BDAB2604B1A709E
:10D6A000D1E1D0E15E4B1B7819465E4B1B781846E2
:10D6B0005D4A0B46DB000B44034412F81330C3F3FE
:10D6C0000113DBB2002B2BD1554B1B781846554B61
:10D6D0001B785A1E55490346DB0003440B44134490
:10D6E0001A784F4B1B7818464E4B1B781C464F49F7
:10D6F0000346DB0003440B4423441B789A420FD2B9
:10D70000484B1B78002B0BD0FDF776FC484B0222D0
:10D710001A70444B1B78013BDAB2424B1A70B0E0EE
:10D720003F4B1B7819463F4B1B7818463E4A0B4629
:10D73000DB000B44034412F81330C3F38103DBB264
:10D74000002B2BD1364B1B785A1C364B1B781846B6
:10D7500036491346DB0013440B4403441A78304B1C
:10D760001B7818462F4B1B781C4630490346DB00BC
:10D7700003440B4423441B789A420FD2284B1B7856
:10D78000072B0BD8FEF794FA294B01221A70244B71
:10D790001B780133DAB2224B1A7072E0204B1B78EF
:10D7A0001946204B1B7818461F4A0B46DB000B44DA
:10D7B000034412F81330C3F38113DBB2002B3BD1C7
:10D7C000174B1B785A1E174B1B78184617491346E0
:10D7D000DB0013440B4403441A78114B1B781846A2
:10D7E000104B1B781C4611490346DB0003440B44D5
:10D7F00023441B789A421FD2094B1B78002B1BD065
:10D80000FEF712FA0A4B03221A70054B1B78013BF4
:10D81000DAB2034B1A7034E0333333333333D33F4C
:10D82000FC420120FD420120FC8E0120548A01208F
:10D830008A84012068000020FDF726FB9FED840B01
:10D84000FDF7F2F9844B93F90230012B01D1FCF77B
:10D8500083FCFEF707F99FED7E0BFDF7E5F9FEF778
:10D860007BF99FED7B0BFDF7DFF9FDF705FA7B4BAD
:10D8700000221A707A4B1B780133DAB2784B1A7097
:10D88000E1E0E0E0774B1B781946754B1B781846B2
:10D89000754A0B46DB000B44034412F81330C3F304
:10D8A0008113DBB2002B2BD16E4B1B785A1E6C4BB5
:10D8B0001B7818466D491346DB0013440B440344A0
:10D8C0001A78684B1B781846654B1B781C466749CD
:10D8D0000346DB0003440B4423441B789A420FD2D7
:10D8E000604B1B78002B0BD0FDF786FB5B4B0322B4
:10D8F0001A705C4B1B78013BDAB25A4B1A70A0E0ED
:10D90000584B1B781946564B1B781846564A0B46FF
:10D91000DB000B44034412F81330C3F30113DBB2F2
:10D92000002B2BD14F4B1B7818464D4B1B785A1EA2
:10D930004E490346DB0003440B4413441A78494B19
:10D940001B781846464B1B781C4648490346DB00AB
