:020000040800F2
:100000000000022051060108990301089F0301081E
:10001000A5030108AB030108B103010800000000BB
:10002000000000000000000000000000B70301080D
:10003000C503010800000000D3030108E103010823
:10004000A1060108A1060108A1060108A1060108F0
:10005000ED030108A1060108A1060108A106010897
:10006000A1060108A1060108A1060108A1060108D0
:10007000A1060108A1060108A1060108A1060108C0
:10008000A1060108A1060108F9030108A10601085B
:10009000A1060108A1060108A1060108A1060108A0
:1000A000A106010815040108A1060108A10601081E
:1000B000290401083D04010851040108A1060108B2
:1000C000A1060108A1060108A1060108A106010870
:1000D000A1060108A1060108A1060108A106010860
:1000E000A1060108A1060108A1060108A106010850
:1000F00065040108790401088D040108A1060108BE
:10010000A1060108A1060108A1040108A106010831
:10011000A1060108A1060108A1060108A10601081F
:10012000B5040108A1060108C9040108A1060108D7
:10013000A10601080000000000000000A10601085F
:10014000A1060108A1060108A1060108A1060108EF
:10015000A1060108A1060108A1060108A1060108DF
:10016000A1060108A1060108A1060108A1060108CF
:10017000A1060108A106010800000000000000001F
:08018000A1060108A106010817
:1080000010B5054C237833B9044B13B10448AFF3D2
:1080100000800123237010BD5002002000000000EA
:10802000E882010808B5034B1BB103490348AFF3CD
:10803000008008BD0000000054020020E882010812
:10804000034613F8012B002AFBD1181A0138704798
:1080500001F0FF01102A2BDB10F0070F08D010F8F9
:10806000013B013A8B422DD010F0070F42B3F6D1FD
:10807000F0B441EA012141EA014122F007047FF016
:1080800000070023F0E80256083C85EA010586EA6D
:10809000010685FA47F5A3FA87F586FA47F6A5FAA9
:1080A00087F68EB9EED1F0BC01F0FF0102F00702B5
:1080B00032B110F8013B013A83EA010313B1F8D160
:1080C0000020704701387047002D06BF3546033841
:1080D000073815F0010F07D1013015F4807F02BF7A
:1080E000013015F4C03F0130F0BC0138704700BFCB
:1080F00081F0004102E000BF83F0004330B54FEA59
:1081000041044FEA430594EA050F08BF90EA020FC5
:108110001FBF54EA000C55EA020C7FEA645C7FEA58
:10812000655C00F0E2804FEA5454D4EB5555B8BF7B
:108130006D420CDD2C4480EA020281EA030382EAEC
:10814000000083EA010180EA020281EA0303362D7E
:1081500088BF30BD11F0004F4FEA01314FF4801C51
:108160004CEA113102D0404261EB410113F0004F63
:108170004FEA03334CEA133302D0524263EB43031A
:1081800094EA050F00F0A780A4F10104D5F1200EB8
:108190000DDB02FA0EFC22FA05F2801841F1000113
:1081A00003FA0EF2801843FA05F359410EE0A5F1E7
:1081B00020050EF1200E012A03FA0EFC28BF4CF018
:1081C000020C43FA05F3C01851EBE37101F00045CE
:1081D00007D54FF0000EDCF1000C7EEB00006EEBDB
:1081E0000101B1F5801F1BD3B1F5001F0CD3490865
:1081F0005FEA30004FEA3C0C04F101044FEA4452BC
:1082000012F5800F80F09A80BCF1004F08BF5FEA42
:10821000500C50F1000041EB045141EA050130BD22
:108220005FEA4C0C404141EB010111F4801FA4F1C5
:108230000104E9D191F0000F04BF01460020B1FA1A
:1082400081F308BF2033A3F10B03B3F120020CDA52
:108250000C3208DD02F1140CC2F10C0201FA0CF030
:1082600021FA02F10CE002F11402D8BFC2F1200C95
:1082700001FA02F120FA0CFCDCBF41EA0C0190404B
:10828000E41AA2BF01EB0451294330BD6FEA040494
:108290001F3C1CDA0C340EDC04F11404C4F120027F
:1082A00020FA04F001FA02F340EA030021FA04F391
:1082B00045EA030130BDC4F10C04C4F1200220FAE8
:1082C00002F001FA04F340EA0300294630BD21FA26
:1082D00004F0294630BD94F0000F83F4801306BFEC
:1082E00081F480110134013D4EE77FEA645C18BFE0
:1082F0007FEA655C29D094EA050F08BF90EA020F77
:1083000005D054EA000C04BF1946104630BD91EA6E
:10831000030F1EBF0021002030BD5FEA545C05D171
:108320004000494128BF41F0004130BD14F58004B0
:108330003CBF01F5801130BD01F0004545F0FE4124
:1083400041F470014FF0000030BD7FEA645C1ABF59
:10835000194610467FEA655C1CBF0B46024650EA90
:10836000013406BF52EA033591EA030F41F40021BC
:1083700030BD00BF90F0000F04BF0021704730B542
:108380004FF4806404F132044FF000054FF0000117
:1083900050E700BF90F0000F04BF0021704730B5D8
:1083A0004FF4806404F1320410F0004548BF4042AD
:1083B0004FF000013EE700BF42004FEAE2014FEA02
:1083C00031014FEA02701FBF12F07F4393F07F4FDD
:1083D00081F06051704732F07F4208BF704793F0E0
:1083E0007F4F04BF41F40021704730B54FF46074F3
:1083F00001F0004521F000411CE700BF50EA0102F6
:1084000008BF704730B54FF000050AE050EA01029E
:1084100008BF704730B511F0004502D5404261EB0E
:1084200041014FF4806404F132045FEA915C3FF44F
:10843000D8AE4FF003025FEADC0C18BF03325FEAEC
:10844000DC0C18BF033202EBDC02C2F1200300FA9D
:1084500003FC20FA02F001FA03FE40EA0E0021FAC2
:1084600002F11444BDE600BF70B54FF0FF0C4CF4B0
:10847000E06C1CEA11541DBF1CEA135594EA0C0F62
:1084800095EA0C0F00F0DEF82C4481EA030621EA9D
:108490004C5123EA4C5350EA013518BF52EA0335D8
:1084A00041F4801143F4801338D0A0FB02CE4FF08A
:1084B0000005E1FB02E506F00042E0FB03E54FF0BA
:1084C0000006E1FB03569CF0000F18BF4EF0010EB2
:1084D000A4F1FF04B6F5007F64F5407404D25FEAAE
:1084E0004E0E6D4146EB060642EAC62141EA555161
:1084F0004FEAC52040EA5E504FEACE2EB4F1FD0CA3
:1085000088BFBCF5E06F1ED8BEF1004F08BF5FEA20
:10851000500E50F1000041EB045170BD06F00046D2
:1085200046EA010140EA020081EA0301B4EB5C047F
:10853000C2BFD4EB0C0541EA045170BD41F4801177
:108540004FF0000E013C00F3AB8014F1360FDEBF9C
:10855000002001F0004170BDC4F10004203C35DA78
:108560000C341BDC04F11404C4F1200500FA05F3FB
:1085700020FA04F001FA05F240EA020001F000429C
:1085800021F0004110EBD37021FA04F642EB060112
:108590005EEA430E08BF20EAD37070BDC4F10C043C
:1085A000C4F1200500FA04F320FA05F001FA04F200
:1085B00040EA020001F0004110EBD37041F10001EC
:1085C0005EEA430E08BF20EAD37070BDC4F12005F7
:1085D00000FA05F24EEA020E20FA04F301FA05F25F
:1085E00043EA020321FA04F001F0004121FA04F207
:1085F00020EA020000EBD3705EEA430E08BF20EAD7
:10860000D37070BD94F0000F0FD101F00046400010
:1086100041EB010111F4801F08BF013CF7D041EA92
:10862000060195F0000F18BF704703F00046520096
:1086300043EB030313F4801F08BF013DF7D043EA67
:108640000603704794EA0C0F0CEA135518BF95EA1D
:108650000C0F0CD050EA410618BF52EA4306D1D1A4
:1086600081EA030101F000414FF0000070BD50EAC3
:10867000410606BF1046194652EA430619D094EA4D
:108680000C0F02D150EA013613D195EA0C0F05D137
:1086900052EA03361CBF104619460AD181EA03018B
:1086A00001F0004141F0FE4141F470014FF0000043
:1086B00070BD41F0FE4141F4780170BD70B54FF0DE
:1086C000FF0C4CF4E06C1CEA11541DBF1CEA13555E
:1086D00094EA0C0F95EA0C0F00F0A7F8A4EB050440
:1086E00081EA030E52EA03354FEA013100F0888037
:1086F0004FEA03334FF0805545EA131343EA126300
:108700004FEA022245EA111545EA10654FEA0026B4
:108710000EF000419D4208BF964244F1FD0404F56D
:10872000407402D25B084FEA3202B61A65EB0305C9
:108730005B084FEA32024FF480104FF4002CB6EB86
:10874000020E75EB030E22BFB61A754640EA0C0006
:108750005B084FEA3202B6EB020E75EB030E22BF46
:10876000B61A754640EA5C005B084FEA3202B6EB87
:10877000020E75EB030E22BFB61A754640EA9C0046
:108780005B084FEA3202B6EB020E75EB030E22BF16
:10879000B61A754640EADC0055EA060E18D04FEAD4
:1087A000051545EA16754FEA06164FEAC30343EA74
:1087B00052734FEAC2025FEA1C1CC0D111F4801F41
:1087C0000BD141EA00014FF000004FF0004CB6E73A
:1087D00011F4801F04BF01430020B4F1FD0C88BFD9
:1087E000BCF5E06F3FF6AFAEB5EB030C04BFB6EBE4
:1087F000020C5FEA500C50F1000041EB045170BDD7
:108800000EF0004E4EEA113114EB5C04C2BFD4EB03
:108810000C0541EA045170BD41F480114FF0000E87
:10882000013C90E645EA060E8DE60CEA135594EA03
:108830000C0F08BF95EA0C0F3FF43BAF94EA0C0F06
:108840000AD150EA01347FF434AF95EA0C0F7FF47B
:1088500025AF104619462CE795EA0C0F06D152EACF
:1088600003353FF4FDAE1046194622E750EA4106B3
:1088700018BF52EA43067FF4C5AE50EA41047FF4C4
:108880000DAF52EA43057FF4EBAE12E74FF0FF3C29
:1088900006E000BF4FF0010C02E000BF4FF0010CFA
:1088A0004DF804CD4FEA410C7FEA6C5C4FEA430C73
:1088B00018BF7FEA6C5C1BD001B050EA410C0CBFC2
:1088C00052EA430C91EA030F02BF90EA020F002024
:1088D000704710F1000F91EA030F58BF994208BF8B
:1088E00090422CBFD8176FEAE37040F00100704748
:1088F0004FEA410C7FEA6C5C02D150EA013C07D19F
:108900004FEA430C7FEA6C5CD6D152EA033CD3D0E9
:108910005DF8040B704700BF8446104662468C46E3
:108920001946634600E000BF01B5FFF7B7FF002816
:1089300048BF10F1000F01BD4DF808EDFFF7F4FF3F
:108940000CBF012000205DF808FB00BF4DF808EDCA
:10895000FFF7EAFF34BF012000205DF808FB00BFED
:108960004DF808EDFFF7E0FF94BF012000205DF80F
:1089700008FB00BF4DF808EDFFF7CEFF94BF0120C4
:1089800000205DF808FB00BF4DF808EDFFF7C4FFBD
:1089900034BF012000205DF808FB00BF4FEA410C06
:1089A0007FEA6C5C02D150EA013C0AD14FEA430CE9
:1089B0007FEA6C5C02D152EA033C02D14FF0000026
:1089C00070474FF0010070474FEA410212F5001264
:1089D00015D211D56FF47873B3EB625212D94FEA06
:1089E000C12343F0004343EA505311F0004F23FAF0
:1089F00002F018BF404270474FF00000704750EA45
:108A0000013005D111F0004008BF6FF00040704701
:108A10004FF00000704700BF4FEA4102B2F1E0435F
:108A200024BFB3F5001CDCF1FE5C0DD901F0004C55
:108A30004FEAC0024CEA5070B2F1004F40EB8300A5
:108A400008BF20F00100704711F0804F21D113F1D1
:108A50003872BCBF01F00040704741F480114FEA0A
:108A60005252C2F11802C2F1200C10FA0CF320FA93
:108A700002F018BF40F001004FEAC1234FEAD323B0
:108A800003FA0CFC40EA0C0023FA02F34FEA43031A
:108A9000CCE77FEA625307D150EA01331EBF4FF0A3
:108AA000FE4040F44000704701F0004040F0FE40BE
:108AB00040F40000704700BF53B94AB9002908BF0D
:108AC00000281CBF4FF0FF314FF0FF3000F072B9AB
:108AD000ADF1080C6DE904CE00F006F8DDF804E015
:108AE000DDE9022304B070472DE9F047089E0446F3
:108AF0008846002B4BD18A42154667D9B2FA82F2DA
:108B00004AB1C2F1200701FA02F320FA07F79540B3
:108B100047EA030894404FEA154E230CB8FBFEF7D2
:108B20001FFA85FC0EFB178843EA084307FB0CF18C
:108B3000994209D9EB1807F1FF3080F01B81994267
:108B400040F21881023F2B445B1AA4B2B3FBFEF043
:108B50000EFB103344EA034400FB0CFCA44509D986
:108B60002C1900F1FF3380F00781A44540F2048105
:108B700002382C4440EA0740A4EB0C0400271EB145
:108B8000D4400023C6E900433946BDE8F0878B4254
:108B900009D9002E00F0EB800027C6E90001384615
:108BA0003946BDE8F087B3FA83F7002F47D18B42EF
:108BB00002D3824200F2FA80841A61EB030301209F
:108BC0009846002EE0D0C6E90048DDE702B9FFDE96
:108BD000B2FA82F2002A40F08F80491B4FEA154E0C
:108BE0001FFA85F80127B1FBFEFC230C0EFB1C11BC
:108BF00043EA014308FB0CF1994207D9EB180CF149
:108C0000FF3002D2994200F2CD808446591AA3B2B5
:108C1000B1FBFEF00EFB101443EA044408FB00F81D
:108C2000A04507D92C1900F1FF3302D2A04500F26C
:108C3000B6801846A4EB080440EA0C409FE7C7F151
:108C4000200CBB4022FA0CFE4EEA030E01FA07F498
:108C500020FA0CF521FA0CF34FEA1E482543B3FB2A
:108C6000F8F92C0C08FB19331FFA8EFA44EA034377
:108C700009FB0AF49C4202FA07F200FA07F10BD949
:108C80001EEB030309F1FF3080F087809C4240F225
:108C90008480A9F1020973441B1BADB2B3FBF8F049
:108CA00008FB103345EA034400FB0AFAA24508D941
:108CB0001EEB040400F1FF336BD2A24569D90238E0
:108CC000744440EA0940A0FB0289A4EB0A044C4525
:108CD000C2464B4654D351D0002E69D0B1EB0A05A1
:108CE00064EB030404FA0CFCFD40FC404CEA05056F
:108CF000C6E90054002747E7C2F1200320FA03F732
:108D0000954001FA02F021FA03F34FEA154E384379
:108D1000010CB3FBFEF71FFA85F80EFB173341EA8F
:108D2000034107FB08F38B4204FA02F407D96918E0
:108D300007F1FF3C2FD28B422DD9023F2944CB1A99
:108D400081B2B3FBFEF00EFB103341EA034100FB9E
:108D500008F38B4207D9691800F1FF3C17D28B4208
:108D600015D902382944C91A40EA07473BE7374674
:108D7000304609E70746E7E61846FBE64145ABD231
:108D8000B8EB020A69EB0E0201381346A4E760460D
:108D9000E9E7184695E76746D1E781467CE7023860
:108DA0002C4447E7ACF1020C2B442FE7384608E788
:108DB0003746E9E6704700BF90B589B000AF87ED50
:108DC000050AC7ED040A87ED031AC7ED021A87EDFD
:108DD000012AC7ED002A4FF00003FB614FF00003AA
:108DE000BB614C4B1B78002B07D14B4B4FF0000263
:108DF0001A604A4B4FF000021A60464B01221A706B
:108E0000474B93ED007AD7ED057A37EE277AD7ED09
:108E1000047A77EE677AC7ED077A97ED077AD7ED90
:108E2000037A27EE277A3C4BD3ED007A77EE277A48
:108E3000394BC3ED007A394BD3ED007A97ED077AC1
:108E400077EE676A97ED037AC6EE877AC7ED067A02
:108E5000324AFB69136097ED027AD7ED077A27EE65
:108E6000277A2D4BD3ED006AD7ED017A66EEA77A0B
:108E700037EE277AD7ED006AD7ED067A66EEA77A45
:108E800077EE277A17EE900AFFF796FA03460C461C
:108E900044EC103B0CF01EFE54EC103B18462146EF
:108EA000FFF792FD03461AB21E4B1A8097ED027A25
:108EB000D7ED077A27EE277A174BD3ED006AD7ED67
:108EC000017A66EEA77A37EE277AD7ED006AD7EDFA
:108ED000067A66EEA77A77EE277A17EE900AFFF702
:108EE0006BFA03460C4644EC103B0CF0F3FD54ECDB
:108EF000103B18462146FFF767FD03461BB29BB2A5
:108F00005B429BB21AB2084B1A8000BF2437BD46A1
:108F100090BD00BF6C02002070020020740200208F
:108F2000808301207E8301209483012090B589B045
:108F300000AF87ED050AC7ED040A87ED031AC7EDF8
:108F4000021A87ED012AC7ED002A4FF00003FB61EA
:108F50004FF00003BB61494B1B78002B07D1484BF6
:108F60004FF000021A60474B4FF000021A60434B6B
:108F700001221A7097ED057AD7ED047A77EE677AB9
:108F8000C7ED077A97ED077AD7ED037A27EE277AB0
:108F90003B4BD3ED007A77EE277A394BC3ED007A5D
:108FA000384BD3ED007A97ED077A77EE676A97ED45
:108FB000037AC6EE877AC7ED067A324AFB691360F8
:108FC00097ED027AD7ED077A27EE277A2C4BD3ED6F
:108FD000006AD7ED017A66EEA77A37EE277AD7EDE9
:108FE000006AD7ED067A66EEA77A77EE277A17EE53
:108FF000900AFFF7E1F903460C4644EC103B0CF0F5
:1090000069FD54EC103B18462146FFF7DDFC034692
:109010001BB29BB25B429BB21AB21B4B1A8097EDFC
:10902000027AD7ED077A27EE277A154BD3ED006A3F
:10903000D7ED017A66EEA77A37EE277AD7ED006A88
:10904000D7ED067A66EEA77A77EE277A17EE900AC2
:10905000FFF7B2F903460C4644EC103B0CF03AFD26
:1090600054EC103B18462146FFF7AEFC03461AB2FB
:10907000064B1A8000BF2437BD4690BD6C0200200D
:10908000780200207C0200207A830120A083012046
:1090900090B589B000AF87ED050AC7ED040A87EDEA
:1090A000031AC7ED021A87ED012AC7ED002A4FF017
:1090B0000003FB614FF00003BB61494B1B78002BA1
:1090C00007D1484B4FF000021A60474B4FF00002A7
:1090D0001A60434B01221A7097ED057AD7ED047A96
:1090E00077EE677AC7ED077A97ED077AD7ED037ABF
:1090F00027EE277A3B4BD3ED007A77EE277A394B70
:10910000C3ED007A384BD3ED007A97ED077A77EE0E
:10911000676A97ED037AC6EE877AC7ED067A324A18
:10912000FB69136097ED027AD7ED077A27EE277A6D
:109130002C4BD3ED006AD7ED017A66EEA77A37EEB5
:10914000277AD7ED006AD7ED067A66EEA77A77EE32
:10915000277A17EE900AFFF72FF903460C4644ECE6
:10916000103B0CF0B7FC54EC103B18462146FFF7BF
:109170002BFC03461AB21D4B1A8097ED027AD7EDED
:10918000077A27EE277A174BD3ED006AD7ED017ADD
:1091900066EEA77A37EE277AD7ED006AD7ED067A22
:1091A00066EEA77A77EE277A17EE900AFFF704F9B2
:1091B00003460C4644EC103B0CF08CFC54EC103B8A
:1091C00018462146FFF700FC03461BB29BB25B42E8
:1091D0009BB21AB2064B1A8000BF2437BD4690BD21
:1091E0006C02002080020020840200206C83012099
:1091F0008883012090B589B000AF87ED050AC7EDDF
:10920000040A87ED031AC7ED021A87ED012AC7ED9C
:10921000002A4FF00003FB614FF00003BB61474B96
:109220001B78002B07D1464B4FF000021A60454BCC
:109230004FF000021A60414B01221A7097ED057A37
:10924000D7ED047A77EE677AC7ED077A97ED077A5C
:10925000D7ED037A27EE277A394BD3ED007A77EEF4
:10926000277A374BC3ED007A364BD3ED007A97ED72
:10927000077A77EE676A97ED037AC6EE877AC7EDCD
:10928000067A304AFB69136097ED027AD7ED077AC8
:1092900027EE277A2A4BD3ED006AD7ED017A66EEE6
:1092A000A77A37EE277AD7ED006AD7ED067A66EE11
:1092B000A77A77EE277A17EE900AFFF77DF8034634
:1092C0000C4644EC103B0CF005FC54EC103B1846EB
:1092D0002146FFF779FB03461AB21B4B1A8097ED24
:1092E000027AD7ED077A27EE277A154BD3ED006A7D
:1092F000D7ED017A66EEA77A37EE277AD7ED006AC6
:10930000D7ED067A66EEA77A77EE277A17EE900AFF
:10931000FFF752F803460C4644EC103B0CF0DAFB26
:1093200054EC103B18462146FFF74EFB03461AB299
:10933000064B1A8000BF2437BD4690BD6C0200204A
:10934000880200208C020020848301207883012081
:1093500090B589B000AF87ED050AC7ED040A87ED27
:10936000031AC7ED021A87ED012AC7ED002A4FF054
:109370000003FB614FF00003BB61324B1B78002BF5
:1093800007D1314B4FF000021A60304B4FF0000212
:109390001A602C4B01221A7097ED057AD7ED047AEA
:1093A00077EE677AC7ED077A97ED077AD7ED037AFC
:1093B00027EE277A244BD3ED007A77EE277A224BDB
:1093C000C3ED007A214BD3ED007A97ED077A77EE63
:1093D000676A97ED037AC6EE877AC7ED067A1B4A6D
:1093E000FB69136097ED027AD7ED077A27EE277AAB
:1093F000154BD3ED006AD7ED017A66EEA77A37EE0A
:10940000277AD7ED006AD7ED067A66EEA77A77EE6F
:10941000277A17EE900AFEF7CFFF03460C4644EC7E
:10942000103B0CF057FB54EC103B18462146FFF75D
:10943000CBFA03461AB2064B1A8000BF2437BD464A
:1094400090BD00BF6C02002090020020940200201A
:109450007083012090B589B000AF87ED050AC7ED94
:10946000040A87ED031AC7ED021A87ED012AC7ED3A
:10947000002A4FF00003FB614FF00003BB61324B49
:109480001B78002B07D1314B4FF000021A60304B94
:109490004FF000021A602C4B01221A7097ED057AEA
:1094A000D7ED047A77EE677AC7ED077A97ED077AFA
:1094B000D7ED037A27EE277A244BD3ED007A77EEA7
:1094C000277A224BC3ED007A214BD3ED007A97ED3A
:1094D000077A77EE676A97ED037AC6EE877AC7ED6B
:1094E000067A1B4AFB69136097ED027AD7ED077A7B
:1094F00027EE277A154BD3ED006AD7ED017A66EE99
:10950000A77A37EE277AD7ED006AD7ED067A66EEAE
:10951000A77A77EE277A17EE900AFEF74DFF0346FB
:109520000C4644EC103B0CF0D5FA54EC103B1846BA
:109530002146FFF749FA03461AB2064B1A8000BFCC
:109540002437BD4690BD00BF6C0200209802002069
:109550009C0200209683012090B587B000AF87ED74
:10956000030AC7ED020A87ED011AC7ED001A4FF092
:1095700000037B614FF000033B614A4B1B78002BDB
:1095800007D1494B4FF000021A60484B4FF00002E0
:109590001A60444B01221A70454B93ED007A454BFB
:1095A000D3ED007A77EE677AC7ED057A97ED057A05
:1095B000D7ED037A27EE277A3B4BD3ED007A77EE8F
:1095C000277A394BC3ED007A384BD3ED007A97ED0B
:1095D000057A77EE676A97ED037AC6EE877AC7ED6C
:1095E000047A324A7B69136097ED027AD7ED057AE7
:1095F00027EE277A2C4BD3ED006AD7ED017A66EE81
:10960000A77A37EE277AD7ED006AD7ED047A66EEAF
:10961000A77A77EE277A17EE900AFEF7CDFE03467B
:109620000C4644EC103B0CF055FA54EC103B184639
:109630002146FFF7C9F903461AB21F4B1A8097ED6E
:10964000027AD7ED057A27EE277A174BD3ED006A19
:10965000D7ED017A66EEA77A37EE277AD7ED006A62
:10966000D7ED047A66EEA77A77EE277A17EE900A9E
:10967000FEF7A2FE03460C4644EC103B0CF02AFA1F
:1096800054EC103B18462146FFF79EF903461BB2E7
:109690009BB25B429BB21AB2084B1A8000BF1C37C8
:1096A000BD4690BD6C020020A0020020A402002054
:1096B000908301209C8301207C8301206E83012004
:1096C00080B400AF054B064A5A60044B054A5A6005
:1096D00000BFBD465DF8047B704700BF003C024000
:1096E00023016745AB89EFCD80B400AF054B1B6903
:1096F000044A43F00043136100BFBD465DF8047B9C
:10970000704700BF003C024080B400AF00BF054B73
:10971000DB6803F48033002BF9D100BFBD465DF850
:10972000047B7047003C024080B500AFFFF7C8FFE4
:10973000FFF7EAFF0B4B1B690A4A43F00203136170
:10974000084B1B69074A43F040031361054B1B6933
:10975000044A43F480331361FFF7D6FFFFF7C4FFD9
:1097600000BF80BD003C024080B582B000AF786091
:1097700087ED000AFFF7A4FFFFF7C6FF0E4B1B693A
:109780000D4A43F4007313610B4B1B690A4A43F003
:10979000010313617B683A681A60FFF7B5FF064B57
:1097A0001B69054A23F001031361FFF79DFF00BF0A
:1097B0000837BD4680BD00BF003C024080B584B084
:1097C00000AFF860B9607A60FB687A681946B868DB
:1097D0000CF0F4F900BF1037BD4680BD80B584B0F1
:1097E00000AF0346FB71FB7963F07F03DBB2FB73D1
:1097F000002204210D4808F09DFF07F10F016423AA
:1098000001220B4809F076FC07F10E0164230122C6
:10981000074809F0A3FD01220421044808F08AFF4B
:10982000BB7B18461037BD4680BD00BF000C024010
:109830001C85012080B584B000AF03460A46FB7149
:109840001346BB71FB7903F07F03DBB2FB7300228D
:1098500004210C4808F06EFF07F10F016423012278
:10986000094809F047FCB91D64230122064809F0A4
:1098700041FC01220421034808F05CFF00BF1037BF
:10988000BD4680BD000C02401C85012080B582B021
:1098900000AF0020FFF7A2FF0346BB71BB79E02BAE
:1098A00019D10123FB7101210620FFF7C3FF10210D
:1098B0000320FFF7BFFF20217F20FFF7BBFF172109
:1098C0000120FFF7B7FF06211420FFF7B3FF0021A7
:1098D0007F20FFF7AFFFFB7918460837BD4680BDF4
:1098E00098B500AF3320FFF779FF03461B021CB287
:1098F0003420FFF773FF03461BB223431AB2114B08
:109900001A803520FFF76AFF03461B021CB236207F
:10991000FFF764FF03461BB223431AB20A4B1A80B7
:109920003720FFF75BFF03461B021CB23820FFF70E
:1099300055FF03461BB223431AB2044B1A8000BFE3
:1099400098BD00BFAA830120A8830120A283012023
:1099500098B500AF2D20FFF741FF03461B021CB254
:109960002E20FFF73BFF03461BB223431AB2114BD5
:109970001A802F20FFF732FF03461B021CB2302053
:10998000FFF72CFF03461BB223431AB20A4B1A807F
:109990003120FFF723FF03461B021CB23220FFF7E2
:1099A0001DFF03461BB223431AB2044B1A8000BFAB
:1099B00098BD00BFA6830120AC830120A4830120B1
:1099C00080B582B000AF7860391D4FF6FF73012279
:1099D00003480BF01FFC7B6818460837BD4680BD66
:1099E000C885012080B400AF2D4B00221A802C4B7B
:1099F000B3F900202B4B1A802A4BB3F900202A4BD5
:109A00001A80294BB3F90020284B1A80274BB3F951
:109A10000020274B1A80264BB3F90020254B1A80D3
:109A2000244BB3F90020244B1A80234BB3F90020B8
:109A3000224B1A80214BB3F90020214B1A80214B75
:109A400000221A801F4BB3F900201F4B1A801E4BB7
:109A5000B3F900201D4B1A801C4BB3F900201C4B9E
:109A60001A801B4BB3F900201A4B1A80194BB3F91B
:109A70000020194B1A80184BB3F90020174B1A809D
:109A8000164BB3F90020164B1A80154BB3F9002082
:109A9000144B1A8000BFBD465DF8047B704700BFC1
:109AA000968301206E830120868301208C83012010
:109AB0006C8301207A830120948301207883012024
:109AC000E08F0120708301207C8301208A830120A4
:109AD0008E83012088830120A08301207E830120C2
:109AE000848301208C84012098B500AF194B93F931
:109AF0000430002B03F00103B8BF5B425BB2012BC3
:109B000025D0154BD3E900014FF00002134BFEF7AF
:109B1000F5FA03460C46104AC2E900340E4BD3E96D
:109B200000014FF000020E4BFEF706FF0346002B2C
:109B300000D10CE00B4BD3E900014FF00002074BC2
:109B4000FEF7DCFA03460C46064AC2E9003400BFC1
:109B500098BD00BF68000020D84201200000F03FFF
:109B600000408F40D0420120B0B400AF3C4B0022F7
:109B70001A606CE03B4B00221A605FE0384B1A68B9
:109B8000384B1868384C1346DB001344191814F886
:109B90001130022565F3871304F81130304B196832
:109BA000304B1C68304D1346DB001344034415F85A
:109BB0001330C3F38113DDB22B480B46DB000B449B
:109BC0001A1910F8123065F3051300F81230244BFF
:109BD0001A68244B1868244D0B46DB000B442344C1
:109BE00015F81330C3F30113DDB21F4C1346DB002D
:109BF0001344191814F8113065F3830304F8113075
:109C0000174B1C68174B1D6817491346DB0013449C
:109C1000034411F81330C3F38103D8B21249234629
:109C2000DB0023445A1911F8123060F3010301F8E4
:109C300012300C4B1B6801330A4A1360094B1B6836
:109C4000082B9BDD064B1B680133054A1360044B50
:109C50001B68082B8EDD00BFBD46B0BC704700BF3F
:109C60001083012014830120FC8E012090B400AFEA
:109C70004F4B08221A6065E04E4B00221A6058E0F4
:109C80004C4B1A684A4B19684B481346DB00134487
:109C90000B4410F81330C3F30103DAB2474B1B68CF
:109CA0001146474AD154434B1A68414B1968424800
:109CB0001346DB0013440B4410F81330C3F3810345
:109CC000DAB23E4B1B68013311463D4AD154394B41
:109CD0001A68374B196838481346DB0013440B44A5
:109CE00010F81330C3F30113DAB2344B1B6802339C
:109CF0001146334AD1542F4B1A682D4B19682E4800
:109D00001346DB0013440B4410F81330C3F38113E4
:109D1000DAB22A4B1B6803331146294AD154274B28
:109D20001B680433254A1360224B1B680133214A08
:109D30001360204B1B68082BA2DD1D4B1B68013BE9
:109D40001B4A13601A4B1B68002B95DA184B08222C
:109D50001A6025E0174B00221A6018E0154B1A68AC
:109D6000134B1868154B1968164C1346DB00134447
:109D7000234403441A78124B5A54104B1B68013386
:109D80000E4A13600B4B1B6801330A4A1360094BE0
:109D90001B68082BE2DD064B1B68013B044A13607D
:109DA000034B1B68002BD5DA00BFBD4690BC704743
:109DB000188301201C830120FC8E012020830120B8
:109DC00010430120548A012080B588B000AF08F00C
:109DD0007DF80023BB6001233B610223BB610123AB
:109DE0007B613A1D07F108031146184608F0CEF9C9
:109DF0000346FB7708F08CF8FB7F002B05D17B68CE
:109E0000B3F1FF3F01D1012300E0002303F0010380
:109E1000DBB218462037BD4680BD000080B500AFDC
:109E2000054A064B104619464FF480431A460BF07C
:109E3000C5FE014B184680BD1043012000400008BC
:109E400090B585B000AFFFF7BFFF034683F0010375
:109E5000DBB2002B01D000232FE01A4B7B6008F00F
:109E600035F84FF480533B600023BB6017E0BB68BC
:109E70009B00154A9918BB689B007A6813441B68BD
:109E80004FF000041A462346022007F017FF03464E
:109E9000FB73FB7B002B07D1BB680133BB60BA6847
:109EA0003B689A42E3D300E000BF08F031F8FB7B47
:109EB000002B0CBF01230023DBB218461437BD462C
:109EC00090BD00BF104301200040000880B500AFE6
:109ED0000021044809F0AEFE002102480AF07BFF91
:109EE00000BF80BDB883012080B500AF00210448C9
:109EF00009F024FF002102480AF0C2FF00BF80BD24
:109F0000B883012080B500AF03220A490A4806F051
:109F1000E1FD0346002B01D005F0B2FE0222074905
:109F2000074806F0D7FD0346002B01D005F0A8FE38
:109F300000BF80BDF84201207C8501200043012044
:109F40003C84012080B500AF084806F0B5FE03460A
:109F5000002B01D005F094FE054806F0ADFE034647
:109F6000002B01D005F08CFE00BF80BD7C85012058
:109F70003C84012080B500AF3C2104480AF0D6F8AB
:109F80003C2103480AF0D2F800BF80BDD8840120EC
:109F9000FC83012080B500AF0C21094809F09EFF29
:109FA0000346002B01D005F06BFE0421054809F0A3
:109FB00095FF0346002B01D005F062FE00BF80BD77
:109FC000A08F01209484012080B500AF0C210948A6
:109FD00009F0C2FF0346002B01D005F051FE042119
:109FE000054809F0B9FF0346002B01D005F048FEF3
:109FF00000BF80BDA08F01209484012080B500AFF8
:10A00000FFF764FFFFF77EFFFFF740FCFFF7C2FF9B
:10A0100000BF80BD2DE9B04384B000AF87ED030AD7
:10A02000C7ED020A87ED011A97ED017AD7ED037AA1
:10A0300067EE277A17EE900AFEF7BEF904460D4642
:10A040007868FEF7B9F902460B464FF00000114957
:10A05000FEF752F802460B4690469946B868FEF75E
:10A06000ABF902460B4640464946FEF7FDF902466B
:10A070000B4620462946FEF741F803460C4644ECC1
:10A08000173BB0EE470AF0EE670A1037BD46BDE851
:10A09000B08300BF0000F03FB0B584B000AF4FF018
:10A0A00000034FF00004C7E902344FF000034FF003
:10A0B0000004C7E90034FFF713FCFFF749FC464BE7
:10A0C0001B881BB21846FEF765F9444BD3E90034F0
:10A0D0001A462346FEF710F803460C46184621465A
:10A0E00037A3D3E90023FEF7E9FA03460C461846E6
:10A0F000214635A3D3E90023FEF7B6F903460C4603
:10A10000184621464FF00002354BFEF7D7FA0346BA
:10A110000C46C7E90034D7E90001FEF77DFC05468F
:10A12000304BD3E9003418462146FEF775FC034650
:10A130009FED2D1A00EE903A00EE105AFFF76AFFDD
:10A1400087ED020B22A3D3E90023D7E90201FEF732
:10A150008BF903460C4618462146244BD3E90034BC
:10A160001A462346FDF7CAFF03460C461F4AC2E9BA
:10A1700000341C4AD7E90234C2E900341B4BD3E94E
:10A1800000014FF00002164BFEF76EF903460C4635
:10A19000184621460CA3D3E90023FEF78FFA0346A5
:10A1A0000C46134AC2E90034D7E9023444EC173BA9
:10A1B000B0EE470AF0EE670A1037BD46B0BD00BFEB
:10A1C0006666666666663040182D4454FB21094079
:10A1D000FCA9F1D24D62503FA2830120C842012068
:10A1E00000806640288301200AD7233CB842012022
:10A1F000B0420120B0B590B000AF87ED0A0B87EDFB
:10A20000081B87ED062B87ED043B87ED024B87ED9E
:10A21000005B4FF000034FF00004C7E90E344FF02D
:10A2200000034FF00004C7E90C34714B9B7903F035
:10A230000103DBB2002B0FD06E4BD3ED007AF5EEAD
:10A24000407AF1EE10FA15D16B4BD3ED007AF5EEB2
:10A25000407AF1EE10FA0DD1684A4FF000034FF04A
:10A260000004C2E90034664A4FF000034FF00004D6
:10A27000C2E900345E4A937943F001039371D7E950
:10A280000823D7E90A01FDF737FF03460C46C7E963
:10A290000E34D7E90623D7E90E01FEF7E5F80346A9
:10A2A0000C4618462146554BD3E900341A4623463E
:10A2B000FDF724FF03460C46504AC2E90034504BD8
:10A2C000D3E900341A462346D7E90E01FDF714FFFF
:10A2D00003460C4618462146D7E90623FEF7EEF959
:10A2E00003460C46C7E90C34454AD7E90E34C2E9A7
:10A2F0000034D7E90E23D7E90401FEF7B5F8034689
:10A300000C4625461C463D4BD3E90001D7E9022304
:10A31000FEF7AAF802460B4620462946FDF7EEFE58
:10A3200003460C4625461C46D7E90C23D7E9000115
:10A33000FEF79AF802460B4620462946FDF7DEFE58
:10A3400003460C4644EC173BB0EE470AF0EE670AB2
:10A350000BF0C0FB54EC103B18462146FEF734FBD3
:10A3600003461BB29BB25B429BB21AB2254B1A80CA
:10A37000D7E90E23D7E90401FEF776F803460C4629
:10A3800025461C461D4BD3E90001D7E90223FEF701
:10A390006BF802460B4620462946FDF7AFFE034602
:10A3A0000C4625461C46D7E90C23D7E90001FEF7E9
:10A3B0005BF802460B4620462946FDF79FFE034602
:10A3C0000C4644EC173BB0EE470AF0EE670A0BF080
:10A3D00081FB54EC103B18462146FEF7F5FA034684
:10A3E0001AB2094B1A8000BF4037BD46B0BD00BF4E
:10A3F00068000020A8420120AC42012030830120E7
:10A4000038830120868301208A830120F0B589B03A
:10A4100000AF6B461E464FF47A7006F0B5F94FF464
:10A42000FA63FB81B7F90E000346013BBB600346AC
:10A4300019464FF000024FF000034FF00004940162
:10A4400044EA91648B01034619464FF000024FF035
:10A4500000034FF00004940144EA91648B01034629
:10A46000DB0007330733DB08DB00ADEB030D6B4686
:10A470000733DB08DB007B600023FB8323E0204BFA
:10A480001B881BB2FD8B1846FDF784FF03460C4664
:10A490007968EA000A44C2E90034FB8B7A68DB0081
:10A4A0001344D3E900341A462346D7E90401FDF7E3
:10A4B00025FE03460C46C7E90434022006F064F981
:10A4C000FB8B0133FB83FA8BB7F90E309A42D6DB54
:10A4D000B7F90E301846FDF75DFF03460C461A46E5
:10A4E0002346D7E90401FEF7E9F803460C46054A7E
:10A4F000C2E90034B54600BF2437BD46F0BD00BFF9
:10A50000A2830120C842012080B500AF5A4B93F9C5
:10A510000030072B00F2AC8001A252F823F000BFFC
:10A5200041A5000867A500088DA50008B3A500088F
:10A53000D9A50008FFA5000825A600084BA600081D
:10A5400000224FF400714D4808F0F4F800224FF457
:10A5500080714A4808F0EEF800224FF40071484834
:10A5600008F0E8F885E001224FF40071434808F054
:10A57000E1F800224FF48071404808F0DBF8002237
:10A580004FF400713E4808F0D5F872E000224FF415
:10A5900000713A4808F0CEF801224FF48071374834
:10A5A00008F0C8F800224FF40071354808F0C2F8EE
:10A5B0005FE001224FF40071304808F0BBF801223F
:10A5C0004FF480712D4808F0B5F800224FF4007167
:10A5D0002B4808F0AFF84CE000224FF400712748F8
:10A5E00008F0A8F800224FF48071244808F0A2F87F
:10A5F00001224FF40071224808F09CF839E0012252
:10A600004FF400711D4808F095F800224FF4807156
:10A610001A4808F08FF801224FF40071184808F02A
:10A6200089F826E000224FF40071144808F082F8FF
:10A6300001224FF48071114808F07CF801224FF498
:10A6400000710F4808F076F813E001224FF4007112
:10A650000A4808F06FF801224FF48071074808F0AB
:10A6600069F801224FF40071054808F063F800E032
:10A6700000BF00BF80BD00BF68000020000802408E
:10A680000004024080B582B000AF03460A46FB805A
:10A690001346BB80B7F90630002B05DD01220421EB
:10A6A0001A4808F047F80CE0B7F90630002B08DA32
:10A6B00000220421154808F03DF8FB885B429BB25C
:10A6C000FB80B7F90430002B05DD002201210F4883
:10A6D00008F030F80CE0B7F90430002B08DA01225A
:10A6E00001210A4808F026F8BB885B429BB2BB8078
:10A6F000074B1B68B7F906201A64064B1B68B7F9AD
:10A7000004209A6300BF0837BD4680BD00000240A8
:10A71000A08F01209484012080B400AF804B1B885F
:10A720001AB2804B1A807E4B5B881AB27E4B1A801D
:10A730007E4B1B881AB27E4B1A807C4B5B881AB208
:10A740007C4B1A807C4BB3F900301A46754BB3F939
:10A750000030D31A002BB8BF5B421AB2774B1A8075
:10A76000774BB3F900301A466F4BB3F90030D31A68
:10A77000002BB8BF5B421AB2724B1A80724BB3F90E
:10A7800000301A466A4BB3F90030D31A002BB8BF19
:10A790005B421AB26D4B1A806D4BB3F900301A460A
:10A7A000644BB3F90030D31A002BB8BF5B421AB226
:10A7B000684B1A805B4BB3F900205F4B1A805A4BF1
:10A7C000B3F900205E4B1A80594BB3F900205E4B61
:10A7D0001A80584BB3F900205D4B1A80504B9B8870
:10A7E00007EE903AF8EE677A5B4BC3ED007A5B4B6D
:10A7F000B3F900309AB2514BB3F900309BB2134415
:10A800009BB21AB2554B1A80554BB3F900309AB22D
:10A810004C4BB3F900309BB213449BB21AB2504B6D
:10A820001A80504BB3F900309AB2484BB3F900305C
:10A830009BB213449BB21AB24A4B1A804A4BB3F9EB
:10A8400000309AB2434BB3F900309BB213449BB231
:10A850001AB2454B1A80454B1B680133434A1360BB
:10A86000424B1B680A2B56D13C4BB3F9003007EE24
:10A87000903AF8EEE76A3D4B1B6807EE903AB8EE67
:10A88000E77AC6EE877A3A4BC3ED007A344BB3F9D8
:10A89000003007EE903AF8EEE76A344B1B6807EE9B
:10A8A000903AB8EEE77AC6EE877A324BC3ED007A7B
:10A8B0002C4BB3F9003007EE903AF8EEE76A2B4BD9
:10A8C0001B6807EE903AB8EEE77AC6EE877A2A4B15
:10A8D000C3ED007A244BB3F9003007EE903AF8EE5E
:10A8E000E76A224B1B6807EE903AB8EEE77AC6EEAD
:10A8F000877A224BC3ED007A184B00221A80184B3E
:10A9000000221A80174B00221A80174B00221A804F
:10A91000164B00221A6000BFBD465DF8047B7047ED
:10A92000F8420120848401201C0000200043012003
:10A9300006430120E28F01208884012086840120C3
:10A940000A4301200C430120084301200E4301204B
:10A95000B0830120D4840120489001208E840120FE
:10A96000C4850120748501201885012040830120C1
:10A9700044900120F88E0120B483012090840120AE
:10A9800080B487B000AF87ED010AC7ED000A0F4B16
:10A990007B614FF08E433B61D7ED056AD7ED047ABA
:10A9A00086EEA77AD7ED017A67EE276A97ED007AEF
:10A9B000C6EE877AC7ED037AFB6807EE903AB0EEF1
:10A9C000670A1C37BD465DF8047B7047026F814201
:10A9D00080B400AF064B47F22F525A62054B47F244
:10A9E0002F525A6200BFBD465DF8047B704700BF1E
:10A9F000000400400008004080B483B000AF03466C
:10AA0000FB80B7F90630002B02D10023FB8030E039
:10AA1000B7F90630012B2CD11A4B5A68194B1B6819
:10AA20001344184A5360184B5A68174B1B68134459
:10AA3000154A5360134B5A68134B5B68134407EE77
:10AA4000903AB8EEE77AF0EE006AC7EE267AFDEEAD
:10AA5000E77A17EE902A0D4B5A600A4B1A680A4B98
:10AA60001B681A440A4B1B681344094A13600123EC
:10AA7000FB80B7F9063018460C37BD465DF8047BFD
:10AA8000704700BF44000020500000205C00002000
:10AA9000E842012090B585B000AF87ED000B0F4B69
:10AAA000D3E90034C7E9023400BFD7E90023D7E96E
:10AAB0000201FDF723FB03460C4618462146074BCF
:10AAC000D3E900341A462346FDF75EFF0346002B08
:10AAD000EBD100BF1437BD4690BD00BFE04201205E
:10AAE00080B500AF224B00221A70FEF77BFF214B8E
:10AAF00000225A60204B00225A60204B00225A60EC
:10AB00001F4B0122DA7005E01D4B04225A711C4BC9
:10AB100001225A70174B5A68174B5B681344002B7D
:10AB20000FDB144B5A68144B5B6813441846FDF74F
:10AB300031FC0DA3D3E90023FDF708FF0346002BEA
:10AB4000E2D10F4B00225A700E4B0F4A1A60094B8C
:10AB500000225A60084B00225A60084B00225A60BB
:10AB600000BF80BDAFF30080787FED637488EE4056
:10AB70006C02002044000020500000205C000020F7
:10AB800068000020A8420120000096430000000059
:10AB900080B500AF4A4B00221A70FEF723FF494BE5
:10ABA00004225A71484B00225A60484B00225A60D6
:10ABB000474B00225A60434B0122DA704DE0414B73
:10ABC00002225A70404B5A68404B5B681344184647
:10ABD000FDF7E0FB36A3D3E90023FDF7D5FE0346DE
:10ABE000002B37D03B4BD3ED007A9FED3B7AF4EE50
:10ABF000C77AF1EE10FA0DDD384BD3ED007A9FEDF8
:10AC0000387AF4EEC77AF1EE10FA03DD2D4B00220C
:10AC10005A7122E0314BD3ED007A9FED317AF4EE98
:10AC2000C77AF1EE10FA03DD264B01225A7114E0C7
:10AC3000284BD3ED007A9FED287AF4EEC77AF1EE37
:10AC400010FA03DD1F4B02225A7106E01D4B04224D
:10AC50005A7102E01B4B04225A711B4B5A681B4B62
:10AC60005B681344002B0FDB174B5A68174B5B686C
:10AC700013441846FDF78EFB0FA3D3E90023FDF71D
:10AC800065FE0346002B9AD10E4B00225A70154BDD
:10AC9000154A1A600C4B00225A600C4B00225A6075
:10ACA0000B4B00225A6000BF80BD00BFAFF3008095
:10ACB000E1EB98F21CB9D840B13A23A73340E64003
:10ACC0006C0200206800002044000020500000209A
:10ACD0005C000020F88E01200000C842B4830120EF
:10ACE00000000C43A8420120000096430000000031
:10ACF00080B500AF484B04225A714DE0464B032209
:10AD00005A70464B5A68464B5B6813441846FDF729
:10AD100041FB3DA3D3E90023FDF718FE0346002BBA
:10AD200037D0404BD3ED007A9FED3F7AF4EEC77AEF
:10AD3000F1EE10FA0DDD3D4BD3ED007A9FED3C7A3C
:10AD4000F4EEC77AF1EE10FA03DD334B00225A71AC
:10AD500022E0364BD3ED007A9FED357AF4EEC77AD8
:10AD6000F1EE10FA03DD2C4B01225A7114E02D4B49
:10AD7000D3ED007A9FED2C7AF4EEC77AF1EE10FA5B
:10AD800003DD254B02225A7106E0234B04225A713F
:10AD900002E0214B04225A71204B5A68204B5B6819
:10ADA00013441846FDF7F6FA19A3D3E90023FDF77B
:10ADB000CDFD0346002B12D01E4B93ED007A1E4BA7
:10ADC000D3ED007A37EE277AF0EE006AC7EE267AE6
:10ADD0009FED1A7AF4EEC77AF1EE10FA8ED40E4B8C
:10ADE00000225A700C4B05225A71154B4FF000028D
:10ADF0001A60094B0022DA70124B00221A70FEF71B
:10AE0000F1FD00BF80BD00BF414E8489EFAADD4047
:10AE1000B13A23A73340E6406800002044000020F8
:10AE200050000020F88E01200000C842B4830120A9
:10AE300000000C4344900120908401200040E7442E
:10AE4000A84201206C020020B0B500AF7EE0544B58
:10AE50005A68544B5B6813441846FDF79BFA044646
:10AE60000D46514BD3ED007A77EEA77A17EE900A94
:10AE7000FDF7A2FA46A3D3E90023FDF7F5FA02464F
:10AE80000B4620462946FDF761FD0346002B22D1E3
:10AE9000454BD3ED007A77EEA77A17EE900AFDF7CF
:10AEA0008BFA3DA3D3E90023FDF726F903460C46B0
:10AEB00025461C463A4B5A683A4B5B681344184681
:10AEC000FDF768FA02460B4620462946FDF73EFD8F
:10AED0000346002B37D0354BD3ED007A9FED347A03
:10AEE000F4EEC77AF1EE10FA0DDD324BD3ED007AB5
:10AEF0009FED317AF4EEC77AF1EE10FA03DD2F4BB5
:10AF000000225A711EE02B4BD3ED007A9FED2A7A76
:10AF1000F4EEC77AF1EE10FA03DD284B01225A71E4
:10AF200014E0224BD3ED007A9FED217AF4EEC77A3C
:10AF3000F1EE10FA03DD214B02225A7106E01F4B9D
:10AF400004225A7102E01D4B04225A71144B5A68B4
:10AF5000144B5B68134407EE903AB8EEE77A124B55
:10AF6000D3ED007A77EEA77AB4EEE77AF1EE10FA35
:10AF70003FF56DAF0A4B00225A600A4B00225A601F
:10AF80000F4B00225A6000BFB0BD00BFAFF300807E
:10AF9000CDCCCCCCCCCCDC3F424E8489EFAADD407A
:10AFA000440000205000002000000020F88E012006
:10AFB0000000C842B483012000000C436800002058
:10AFC0005C000020000000002DE9B0432DED028B55
:10AFD00084B000AF034687ED000BFB73FEF7DAFF8A
:10AFE00097F90F30002B37DA27E0474B93ED008BB2
:10AFF000464B1B681846FDF7DFF904460D46434BE8
:10B000005B681846FDF7D8F9804689463F4B9B6838
:10B010001846FDF7D1F902460B4643EC152B49ECD7
:10B02000148B45EC134B9FED362BB0EE481AF0EE27
:10B03000681A97ED000BFFF7DDF897F90F30184607
:10B04000FDF7A8F9324BD3E900341A462346FDF741
:10B050007DFC0346002BC8D197F90F30002B37DD5C
:10B0600027E0294B93ED008B284B1B681846FDF712
:10B07000A3F904460D46254B5B681846FDF79CF97D
:10B0800080468946214B9B681846FDF795F9024694
:10B090000B4643EC152B49EC148B45EC134B9FED01
:10B0A000182BB0EE481AF0EE681A97ED000BFFF778
:10B0B000A1F897F90F301846FDF76CF9144BD3E956
:10B0C00000341A462346FDF75FFC0346002BC8D127
:10B0D000104B0022DA70104A4FF000034FF00004CA
:10B0E000C2E900340A4A4FF000034FF00004C2E9FD
:10B0F000003400BF1037BD46BDEC028BBDE8B08305
:10B10000FCA9F1D24D62503FC0420120380000201E
:10B11000B042012068000020B842012080B582B012
:10B1200000AF00233B600023FB7145E0284B4FF04C
:10B1300000021A60274B00221A70FEF753FC264BC0
:10B1400000225A60254B00225A60254B00225A608B
:10B15000244B0122DA7005E0224B03225A71224B64
:10B16000224A1A601C4B5A681C4B5B68D31A07EEC4
:10B17000903AB8EEE77A1E4BD3ED007A77EEA77AD5
:10B18000B4EEE77AF1EE10FAE6D9164B0022DA7047
:10B19000154B4FF000021A600D4B4FF000021A6081
:10B1A0000D4B00225A600D4B00225A600C4B0022BE
:10B1B0005A60FB790133FB71FB79002BB6D0054B4C
:10B1C00000221A70FEF70EFC00BF0837BD4680BD96
:10B1D000A84201206C020020440000205000002002
:10B1E0005C00002068000020AC4201200000A0C0EC
:10B1F0000400002080B582B000AF0023FB7145E061
:10B20000284B4FF000021A60274B00221A70FEF7FD
:10B21000E9FB264B00225A60254B00225A60254B41
:10B2200000225A60244B0122DA7005E0224B0322EF
:10B230005A71224B224A1A601D4B5A681B4B5B689D
:10B24000D31A07EE903AB8EEE77A1E4BD3ED007AA8
:10B2500077EEA77AB4EEE77AF1EE10FAE6D9164B5C
:10B260000022DA70154B4FF000021A600D4B4FF0C0
:10B2700000021A600D4B00225A600D4B00225A60EA
:10B280000C4B00225A60FB790133FB71FB79002BD8
:10B29000B6D0054B00221A70FEF7A4FB00BF08379A
:10B2A000BD4680BDA84201206C0200204400002061
:10B2B000500000205C00002068000020AC4201200B
:10B2C0000000A0400400002098B500AF504B0622BB
:10B2D0005A7102E04E4B06225A704E4B5A684E4B42
:10B2E0005B6813441846FDF755F83FA3D3E90023E4
:10B2F000FDF72CFB0346002BECD1454B00225A7086
:10B3000021E0464B464A1A60464B474A1A60454B75
:10B310001B681846FDF750F835A3D3E90023FDF765
:10B32000A3F803460C461846214633A3D3E900236D
:10B33000FDF7C4F903460C4618462146FDF76CFBA1
:10B3400002463A4B1A60334B5A68334B5B681344DE
:10B350001846FDF71FF824A3D3E90023FDF70AFBE5
:10B360000346002B0FD02B4B5A682B4B5B681344C2
:10B370001846FDF70FF822A3D3E90023FDF7E6FAFC
:10B380000346002BBDD102E0214B07225A70214B0E
:10B390005A68214B5B6813441846FCF7FBFF1AA35D
:10B3A000D3E90023FDF7D2FA0346002BECD1184B6A
:10B3B00000225A70164B04225A71164B00225A6012
:10B3C000154B00225A601A4B00225A60154B4FF061
:10B3D00000021A60154B4FF000021A600F4B154A1D
:10B3E0001A6000BF98BD00BF39484F2382F0B740B4
:10B3F000CDCCCCCCCCCC4B409A99999999195F4043
:10B400000D08A05F82F5EF408AF80452C979F14037
:10B41000680000204400002050000020A8420120C5
:10B420000000344398830120CDCC784374830120FD
:10B430005C0000200000964398B500AF504B0622F8
:10B440005A7102E04E4B04225A704E4B5A684E4BD2
:10B450005B6813441846FCF79DFF3FA3D3E9002324
:10B46000FDF774FA0346002BECD1454B00225A70CD
:10B4700021E0464B464A1A60464B474A1A60454B04
:10B480001B681846FCF798FF35A3D3E90023FCF7A7
:10B49000EBFF03460C461846214633A3D3E90023AD
:10B4A000FDF70CF903460C4618462146FDF7B4FAA1
:10B4B00002463A4B1A60334B5A68334B5B6813446D
:10B4C0001846FCF767FF24A3D3E90023FDF752FADF
:10B4D0000346002B0FD02B4B5A682B4B5B68134451
:10B4E0001846FCF757FF22A3D3E90023FDF72EFAF5
:10B4F0000346002BBDD102E0214B05225A70214B9F
:10B500005A68214B5B6813441846FCF743FF1AA3A3
:10B51000D3E90023FDF71AFA0346002BECD1184BB0
:10B5200000225A70164B04225A71164B00225A60A0
:10B53000154B00225A601A4B00225A60174B4FF0ED
:10B5400000021A60134B4FF000021A600F4B154AAD
:10B550001A6000BF98BD00BF39484F2382F0B74042
:10B56000CDCCCCCCCCCC4B409A99999999195F40D1
:10B570000D08A05F82F5EF408AF80452C979F140C6
:10B58000680000204400002050000020A842012054
:10B590000000344374830120CDCC7843988301208C
:10B5A0005C0000200000964380B500AF70E0544B73
:10B5B0005A68544B5B6813441846FCF7EBFE4AA3E9
:10B5C000D3E90023FDF7C2F90346002B05D04E4B0B
:10B5D00004225A714D4B4E4A1A60494B5A68494BE6
:10B5E0005B6813441846FCF7D5FE3FA3D3E900235C
:10B5F000FDF7C0F90346002B22D0414B5A68414B5E
:10B600005B6813441846FCF7C5FE39A3D3E9002351
:10B61000FDF79CF90346002B12D03B4B06225A71D2
:10B620003A4B3B4A1A603B4B3B4A1A60394BD3EDCD
:10B63000007A9FED3A7A67EE877A394BC3ED007A4C
:10B640002F4B5A682F4B5B6813441846FCF7A2FE39
:10B6500027A3D3E90023FDF78DF90346002B00D182
:10B6600016E0274B5A68274B5B6813441846FCF7D3
:10B6700091FE21A3D3E90023FDF768F90346002BCF
:10B6800000D105E0204B04225A71204B204A1A6059
:10B690001B4B5A681B4B5B6813441846FCF77AFE39
:10B6A00015A3D3E90023FDF751F90346002B7FF4DE
:10B6B0007EAF154B04225A71114B00225A60114B78
:10B6C00000225A60174B00225A60124B4FF00002C2
:10B6D0001A60134B4FF000021A600C4B124A1A60AA
:10B6E00000BF80BDAFF3008092BC1C47F97DDB40FA
:10B6F000D6FF77B2F21AEB40102F03ABF76CF44091
:10B70000440000205000002068000020A8420120D2
:10B7100000003443988301200000B443000000007F
:10B72000748301205C0000200000964300000000AC
:10B7300080B500AF70E0544B5A68544B5B681344BB
:10B740001846FCF727FE4AA3D3E90023FDF7FEF8CD
:10B750000346002B05D04E4B04225A714D4B4E4AE6
:10B760001A60494B5A68494B5B6813441846FCF70A
:10B7700011FE3FA3D3E90023FDF7FCF80346002B9D
:10B7800022D0414B5A68414B5B6813441846FCF782
:10B7900001FE39A3D3E90023FDF7D8F80346002BB7
:10B7A00012D03B4B06225A713A4B3B4A1A603B4B34
:10B7B0003B4A1A60394BD3ED007A9FED3A7A67EE37
:10B7C000877A394BC3ED007A2F4B5A682F4B5B6851
:10B7D00013441846FCF7DEFD27A3D3E90023FDF749
:10B7E000C9F80346002B00D116E0274B5A68274BB7
:10B7F0005B6813441846FCF7CDFD21A3D3E9002371
:10B80000FDF7A4F80346002B00D105E0204B0422ED
:10B810005A71204B204A1A601B4B5A681B4B5B68BD
:10B8200013441846FCF7B6FD15A3D3E90023FDF732
:10B830008DF80346002B7FF47EAF154B04225A711E
:10B84000114B00225A60114B00225A60174B002204
:10B850005A60154B4FF000021A60104B4FF0000277
:10B860001A600C4B124A1A6000BF80BDAFF3008013
:10B8700092BC1C47F97DDB40D6FF77B2F21AEB4051
:10B88000102F03ABF76CF440440000205000002060
:10B8900068000020A8420120000034437483012086
:10B8A0000000B44300000000988301205C000020E9
:10B8B0000000964380B582B000AF0023FB7154E0D6
:10B8C000304B4FF000021A602F4B00221A70FEF727
:10B8D00089F82E4B00225A602D4B00225A602D4BC6
:10B8E00000225A602C4B0122DA7005E02A4B032219
:10B8F0005A712A4B2A4A1A60244B5B6807EE903A29
:10B90000B8EEE77A274BD3ED007A77EEA77AB4EE5C
:10B91000E77AF1EE10FAE9D91D4B5B6807EE903A31
:10B92000B8EEE77A1F4BD3ED007AF1EE677A77EE47
:10B93000A77AB4EEE77AF1EE10FAD7DA164B0022C6
:10B94000DA70104B4FF000021A60144B4FF00002F7
:10B950001A600E4B00225A600D4B00225A600D4BAC
:10B9600000225A60FB790133FB71FB79002BA7D0D1
:10B97000054B00221A70FEF735F800BF0837BD46A8
:10B9800080BD00BFA84201206C02002044000020BE
:10B99000500000205C00002068000020AC42012024
:10B9A0000000C0C00400002080B582B000AF2A4B68
:10B9B00000221A70FEF716F8284B00225A60284B16
:10B9C00000225A60274B00225A60274B0122DA706E
:10B9D00005E0264B264A1A60234B04225A711F4B5E
:10B9E0005A681F4B5B6813441846FCF7D3FC18A336
:10B9F000D3E90023FCF7C8FF0346002BE9D11B4B1A
:10BA00004FF000021A60184B05225A71164B0022A3
:10BA1000DA70124B00225A60114B00225A60114B0F
:10BA200000225A600C4B00221A70FDF7DBFF002346
:10BA30007B6002E07B6801337B607B680D4A934248
:10BA4000F8DD00BF0837BD4680BD00BFAFF3008002
:10BA5000EFEB7F105482D5C06C0200204400002020
:10BA6000500000205C00002068000020A842012057
:10BA70000000B4C2BFD4010080B500AF2C4B5B7A8C
:10BA8000032B48D801A252F823F000BF9DBA00084A
:10BA9000F1BA0008F7BA0008FDBA0008FFF728F964
:10BAA000244B93ED007A244BD3ED007A37EE277ABE
:10BAB000F0EE006AC7EE267A204BC3ED007A204BE9
:10BAC0005A68204B5B68134407EE903AF8EEE77A29
:10BAD0001D4BC3ED007A9FED120BFEF7DBFFFFF766
:10BAE0001DFB9FED0F0BFEF7D5FFFFF751F812E09E
:10BAF000FFF7EAFB0FE0FFF757FD0CE0FFF7F8F860
:10BB00009FED090B6FF05900FFF75EFAFDF7BEFEDF
:10BB1000FFF73EF800BF00BF80BD00BFAFF300805D
:10BB2000333333333333D33F00000000000014C0FD
:10BB3000680000204490012090840120448301206B
:10BB40004400002050000020488301200000000035
:10BB500080B500AF1E4B5B7A032B2CD801A252F8A4
:10BB600023F000BF75BB000893BB000899BB000819
:10BB70009FBB0008FFF7BCF89FED110BFEF78AFF93
:10BB8000FFF738FB9FED0E0BFEF784FFFFF700F881
:10BB900011E0FFF751FC0EE0FFF7CAFD0BE0FFF7E5
:10BBA000A7F89FED090B5A20FFF70EFAFDF76EFE7E
:10BBB000FEF7EEFF00BF00BF80BD00BFAFF3008007
:10BBC000333333333333D33F0000000000001440DD
:10BBD0006800002080B500AF4FF480515B4806F04C
:10BBE00091FD0346012B40F0A38059480AF0CAFC9E
:10BBF000FEF7EAF9574807F0BCFF574807F0B9FFCE
:10BC0000FEF772F9FEF79EF94FF4C87004F0BCFD20
:10BC1000524B93F90430DBB20133DBB25AB24F4BD3
:10BC20001A714E4B93F90430052B40F081804B4B39
:10BC300003221A717CE04A4B5B6A1A46494B1A6030
:10BC4000484B1B68194648480AF028FC454B1B68BE
:10BC500049F22E5293421EDD404B93F90030DBB285
:10BC60000133DBB25AB23D4B1A703C4B93F90030B2
:10BC7000072B02DD394B00221A70FEF745FCFEF758
:10BC8000A7FE364B93F90020344B9A704FF4FA70AC
:10BC900004F07AFD4CE0334B1B6845F22F5293427F
:10BCA0001EDC2E4B93F90030DBB2013BDBB25AB203
:10BCB0002A4B1A70294B93F90030002B02DA274BDC
:10BCC00007221A70FEF720FCFEF782FE234B93F941
:10BCD0000020224B9A704FF4FA7004F055FD27E0D3
:10BCE0004FF48051194806F00DFD0346012B1FD17A
:10BCF0001E480AF047FC4FF4FA7004F045FDFEF7C9
:10BD00007DF9174B47F22F525A62194B47F22F52C7
:10BD10005A62114807F009FF0E4807F006FF0F4B63
:10BD200093F90430DBB20133DBB25AB20B4B1A7118
:10BD30000A4B93F90430002B03F00103B8BF5B42B8
:10BD40005BB2012B3FF477AF00BF80BD000402401F
:10BD50009C830108D08A0120B8830120680000205C
:10BD60000004004044000020A88301080883010863
:10BD70000008004090B484B000AF0023FB600023B3
:10BD8000BB6000237B6000233B600023FB6015E069
:10BD90000023BB600CE0AA49FA681346DB00134499
:10BDA000CA18BB68134450221A70BB680133BB60C9
:10BDB000BB68082BEFDDFB680133FB60FB68082BD9
:10BDC000E6DD0723FB6015E00723BB600CE09C4920
:10BDD000FA681346DB001344CA18BB6813440022F8
:10BDE0001A70BB680133BB60BB68072BEFDDFB68D3
:10BDF0000133FB60FB68072BE6DD00237B6000233B
:10BE0000FB600CE10023BB6002E18D49FA68134638
:10BE1000DB001344CA18BB6813441B781A463B68FE
:10BE2000934240F0F2808749FA681346DB001344DE
:10BE3000BA68134411F81330C3F30103DBB2012BCA
:10BE40002DD0BB68591C7E48FA681346DB001344AA
:10BE500003440B4419787A48FA681346DB0013440C
:10BE6000C218BB6813441B78994218D9BB68072BCA
:10BE700015DC7349FA681346DB001344CA18BB6823
:10BE800013441B78BA68511C0133DCB26C48FA6861
:10BE90001346DB00134403440B4422461A706949DD
:10BEA000FA681346DB001344BA68134411F81330E0
:10BEB000C3F38103DBB2012B2DD0FB685A1C604910
:10BEC0001346DB001344CA18BB68134419785C4856
:10BED000FA681346DB001344C218BB6813441B788E
:10BEE000994218D9FB68072B15DC5549FA681346A7
:10BEF000DB001344CA18BB6813441B78FA6801328C
:10BF00000133D8B24E491346DB001344CA18BB684C
:10BF1000134402461A704B49FA681346DB00134477
:10BF2000BA68134411F81330C3F30113DBB2012BC9
:10BF30002DD0BB68591E4248FA681346DB001344F3
:10BF400003440B4419783E48FA681346DB00134457
:10BF5000C218BB6813441B78994218D9BB68002BE0
:10BF600015DD3749FA681346DB001344CA18BB686D
:10BF700013441B78BA68511E0133DCB23048FA68AA
:10BF80001346DB00134403440B4422461A702D4928
:10BF9000FA681346DB001344BA68134411F81330EF
:10BFA000C3F38113DBB2012B2DD0FB685A1E244949
:10BFB0001346DB001344CA18BB68134419782048A1
:10BFC000FA681346DB001344C218BB6813441B789D
:10BFD000994218D9FB68002B15DD1949FA681346F8
:10BFE000DB001344CA18BB6813441B78FA68013A93
:10BFF0000133D8B212491346DB001344CA18BB6898
:10C00000134402461A7001237B60BB680133BB6096
:10C01000BB68082B7FF7F9AEFB680133FB60FB6858
:10C02000082B7FF7EFAE3B6801333B607B68002B4A
:10C030007FF4E3AE00BF1037BD4690BC704700BF31
:10C04000548A0120FC8E012090B482B000AF964B40
:10C0500093ED007A954BD3ED007A37EE277AF0EE28
:10C06000006AC7EE267AB3EE0E7AF4EEC77AF1EEE6
:10C0700010FACCBF01230023DAB28D4B1B7807F1F5
:10C0800008010B4403F8042C8A4BD3ED007A9FED92
:10C090008A7AF4EEC77AF1EE10FACCBF01230023BE
:10C0A000D9B2834B1B7801335A4203F0030302F0E9
:10C0B000030258BF53420A4607F108010B4403F834
:10C0C000042C7B4B1B7802335A4203F0030302F02B
:10C0D000030258BF534207F108021344002203F839
:10C0E000042C764BD3ED007A9FED757AF4EEC77A87
:10C0F000F1EE10FACCBF01230023D9B26C4B1B78B0
:10C1000003335A4203F0030302F0030258BF5342C1
:10C110000A4607F108010B4403F8042C3979694BEE
:10C120001B781A46684B1B781C460B4603F003032A
:10C13000D8B266491346DB0013441A1911F81230BD
:10C1400060F3010301F8123079795E4B1B781A46CF
:10C150005D4B1B781C460B4603F00303D8B25B49CA
:10C160001346DB0013441A1911F8123060F38303ED
:10C1700001F81230B979534B1B781A46524B1B7891
:10C180001C460B4603F00303D8B250491346DB00AC
:10C1900013441A1911F8123060F3051301F8123024
:10C1A000F979484B1B781A46474B1B781C460B46BF
:10C1B00003F00303D8B245491346DB0013441A19B0
:10C1C00011F8123060F3871301F812303E4B1B78E0
:10C1D000072B15D839793B4B1B781C463A4B1B78FB
:10C1E0005A1C0B4603F00303D8B238492346DB0040
:10C1F00023441A4411F8123060F3051301F8123089
:10C20000304B1B78072B15D879792E4B1B785A1C8D
:10C210002D4B1B781C460B4603F00303D8B22B4969
:10C220001346DB0013441A1911F8123060F3871318
:10C2300001F81230244B1B78002B15D0B979214B13
:10C240001B781C46204B1B785A1E0B4603F0030339
:10C25000D8B21E492346DB0023441A4411F8123099
:10C2600060F3010301F81230164B1B78002B15D038
:10C27000F979144B1B785A1E134B1B781C460B463E
:10C2800003F00303D8B211491346DB0013441A1913
:10C2900011F8123060F3830301F8123000BF083741
:10C2A000BD4690BC704700BF44900120908401209F
:10C2B0008A840120F88E01200000C842B483012046
:10C2C00000000C430443012005430120FC8E0120A3
:10C2D00080B5BEB000AFFFF7B7FEFFF74BFDCC4B0C
:10C2E0001B78032B00F2F78601A252F823F000BF5F
:10C2F00001C30008B5C600085FCA00089BCD00084E
:10C30000FEF746FCFEF7F4FCC24B1B780133DAB2B1
:10C31000C04B1A70FFF798FE0023C7F8F03004E016
:10C32000D7F8F0300133C7F8F030D7F8F000FCF759
:10C3300031F8B5A3D3E90023FCF708FB0346002B33
:10C34000EED1B54B1B78072B03D1522387F8F7307A
:10C3500006E0B14B1B78072B02D14C2387F8F7304E
:10C3600097F8F730522B40F0C980FEF7D7FEA84B64
:10C3700001221A700023C7F8EC3004E0D7F8EC3043
:10C380000133C7F8EC30D7F8EC00FCF703F89EA3B4
:10C39000D3E90023FCF7DAFA0346002BEED1FEF7CF
:10C3A000F7FBFEF7A5FC9C4B1B780133DAB29A4BE6
:10C3B0001A70FFF749FE0023C7F8E83004E0D7F809
:10C3C000E8300133C7F8E830D7F8E800FBF7E2FFC0
:10C3D0008DA3D3E90023FCF7B9FA0346002BEED175
:10C3E000FEF79CFE8A4B02221A700023C7F8E43045
:10C3F00004E0D7F8E4300133C7F8E430D7F8E400BC
:10C40000FBF7C8FF80A3D3E90023FCF79FFA03469C
:10C41000002BEED1FEF7BCFBFEF76AFC7D4B1B78D0
:10C42000013BDAB27B4B1A70FFF70EFE0023C7F810
:10C43000E03004E0D7F8E0300133C7F8E030D7F857
:10C44000E000FBF7A7FF70A3D3E90023FCF77EFA17
:10C450000346002BEED1FEF761FE6D4B03221A70EE
:10C460000023C7F8DC3004E0D7F8DC300133C7F82C
:10C47000DC30D7F8DC00FBF78DFF63A3D3E90023A2
:10C48000FCF764FA0346002BEED1FEF781FBFEF7C2
:10C490002FFC604B1B78013BDAB25E4B1A70002315
:10C4A000C7F8D83004E0D7F8D8300133C7F8D8300F
:10C4B000D7F8D800FBF76EFF53A3D3E90023FCF7AE
:10C4C00045FA0346002BEED1FEF794FE504B0222B4
:10C4D0001A700023C7F8D43004E0D7F8D430013301
:10C4E000C7F8D430D7F8D400FBF754FF46A3D3E9FC
:10C4F0000023FCF72BFA0346002BEED197F8F73018
:10C500004C2B40F0EA85FEF775FE414B03221A7072
:10C510000023C7F8D03004E0D7F8D0300133C7F893
:10C52000D030D7F8D000FBF735FF37A3D3E900238D
:10C53000FCF70CFA0346002BEED1FEF729FBFEF7C1
:10C54000D7FB354B1B78013BDAB2334B1A70FFF740
:10C550007BFD0023C7F8CC3004E0D7F8CC300133A2
:10C56000C7F8CC30D7F8CC00FBF714FF26A3D3E9EB
:10C570000023FCF7EBF90346002BEED1FEF73AFE61
:10C58000234B02221A700023C7F8C83004E0D7F802
:10C59000C8300133C7F8C830D7F8C800FBF7FAFE37
:10C5A00019A3D3E90023FCF7D1F90346002BEED100
:10C5B000FEF7EEFAFEF79CFB164B1B78013BDAB256
:10C5C000144B1A70FFF740FD0023C7F8C43004E095
:10C5D000D7F8C4300133C7F8C430D7F8C400FBF72C
:10C5E000D9FE09A3D3E90023FCF7B0F90346002BD9
:10C5F000EED1FEF7FFFD064B01221A700023C7F8AB
:10C60000C03010E0AFF3008000000000004CCD40CF
:10C610008A8401200543012004430120D7F8C0305B
:10C620000133C7F8C030D7F8C000FBF7B3FED6A37C
:10C63000D3E90023FCF78AF90346002BEED1FEF77D
:10C64000A7FAFEF755FBD24B1B780133DAB2D04B79
:10C650001A700023C7F8BC3004E0D7F8BC300133AF
:10C66000C7F8BC30D7F8BC00FBF794FEC6A3D3E9EB
:10C670000023FCF76BF90346002BEED1FEF74EFDCD
:10C68000C44B00221A700023C7F8B83004E0D7F872
:10C69000B8300133C7F8B830D7F8B800FBF77AFEE6
:10C6A000B9A3D3E90023FCF751F90346002BEED1DF
:10C6B00000F013BDFEF76CFAFEF71AFBB44B1B78C3
:10C6C0000133DAB2B24B1A70FFF7BEFC0023C7F891
:10C6D000B43004E0D7F8B4300133C7F8B430D7F839
:10C6E000B400FBF757FEA8A3D3E90023FCF72EF90B
:10C6F0000346002BEED1A84B1B78072B03D14C230C
:10C7000087F8F73006E0A44B1B78072B02D15223A1
:10C7100087F8F73097F8F730522B40F0C980FEF7D2
:10C72000FDFC9C4B02221A700023C7F8B03004E0D5
:10C73000D7F8B0300133C7F8B030D7F8B000FBF706
:10C7400029FE91A3D3E90023FCF700F90346002B4F
:10C75000EED1FEF71DFAFEF7CBFA8F4B1B78013BAB
:10C76000DAB28D4B1A70FFF76FFC0023C7F8AC30BC
:10C7700004E0D7F8AC300133C7F8AC30D7F8AC00E0
:10C78000FBF708FE80A3D3E90023FCF7DFF803469C
:10C79000002BEED1FEF7C2FC7E4B03221A70002361
:10C7A000C7F8A83004E0D7F8A8300133C7F8A8309C
:10C7B000D7F8A800FBF7EEFD73A3D3E90023FCF73D
:10C7C000C5F80346002BEED1FEF7E2F9FEF790FA2A
:10C7D0006F4B1B78013BDAB26D4B1A70FFF734FCDC
:10C7E0000023C7F8A43004E0D7F8A4300133C7F819
:10C7F000A430D7F8A400FBF7CDFD63A3D3E9002351
:10C80000FCF7A4F80346002BEED1FEF787FC614B42
:10C8100000221A700023C7F8A03004E0D7F8A03037
:10C820000133C7F8A030D7F8A000FBF7B3FD56A33B
:10C83000D3E90023FCF78AF80346002BEED1FEF77C
:10C84000A7F9FEF755FA544B1B780133DAB2524B75
:10C850001A700023C7F89C3004E0D7F89C300133ED
:10C86000C7F89C30D7F89C00FBF794FD46A3D3E9AA
:10C870000023FCF76BF80346002BEED1FEF7BAFC61
:10C88000444B03221A700023C7F8983004E0D7F80D
:10C8900098300133C7F89830D7F89800FBF77AFD45
:10C8A00039A3D3E90023FCF751F80346002BEED15E
:10C8B00097F8F7304C2B40F01284FEF79BFC354B79
:10C8C00000221A700023C7F8943004E0D7F894309F
:10C8D0000133C7F89430D7F89400FBF75BFD2AA327
:10C8E000D3E90023FCF732F80346002BEED1FEF724
:10C8F0004FF9FEF7FDF9284B1B780133DAB2264BCE
:10C900001A70FFF7A1FB0023C7F8903004E0D7F8B6
:10C9100090300133C7F89030D7F89000FBF73AFD1C
:10C9200019A3D3E90023FCF711F80346002BEED13D
:10C93000FEF760FC174B03221A700023C7F88C30F7
:10C9400004E0D7F88C300133C7F88C30D7F88C006E
:10C95000FBF720FD0CA3D3E90023FBF7F7FF034609
:10C96000002BEED1FEF714F9FEF7C2F9084B1B7845
:10C97000013BDAB2064B1A70FFF766FB0023C7F8DB
:10C98000883010E0AFF3008000000000004CCD4084
:10C99000044301208A84012005430120D7F8883010
:10C9A0000133C7F88830D7F88800FBF7F3FCBCA345
:10C9B000D3E90023FBF7CAFF0346002BEED1FEF7B5
:10C9C00019FCB94B02221A700023C7F8843004E026
:10C9D000D7F884300133C7F88430D7F88400FBF7E8
:10C9E000D9FCAFA3D3E90023FBF7B0FF0346002B2C
:10C9F000EED1FEF7CDF8FEF77BF9AC4B1B78013B8F
:10CA0000DAB2AA4B1A700023C7F8803004E0D7F8D6
:10CA100080300133C7F88030D7F88000FBF7BAFCCC
:10CA20009FA3D3E90023FBF791FF0346002BEED130
:10CA3000FEF774FB9C4B03221A700023FB6702E095
:10CA4000FB6F0133FB67F86FFBF7A4FC94A3D3E9FA
:10CA50000023FBF77BFF0346002BF1D13FE3FEF7FA
:10CA600097F8FEF745F9914B1B78013BDAB28F4BF3
:10CA70001A70FFF7E9FA0023BB6702E0BB6F0133CE
:10CA8000BB67B86FFBF786FC85A3D3E90023FBF7F0
:10CA90005DFF0346002BF1D1854B1B78072B03D19B
:10CAA0004C2387F8F73006E0814B1B78072B02D127
:10CAB000522387F8F73097F8F730522B40F0AD80CB
:10CAC000FEF72CFB784B03221A7000237B6702E0F1
:10CAD0007B6F01337B67786FFBF75CFC70A3D3E956
:10CAE0000023FBF733FF0346002BF1D1FEF750F88C
:10CAF000FEF7FEF86E4B1B78013BDAB26C4B1A70F6
:10CB0000FFF7A2FA00233B6702E03B6F01333B676C
:10CB1000386FFBF73FFC62A3D3E90023FBF716FF56
:10CB20000346002BF1D1FEF7F9FA5F4B00221A7091
:10CB30000023FB6602E0FB6E0133FB66F86EFBF739
:10CB400029FC57A3D3E90023FBF700FF0346002B82
:10CB5000F1D1FEF71DF8FEF7CBF8544B1B780133EB
:10CB6000DAB2524B1A70FFF76FFA0023BB6602E08D
:10CB7000BB6E0133BB66B86EFBF70CFC48A3D3E970
:10CB80000023FBF7E3FE0346002BF1D1FEF7C6FAC4
:10CB9000454B01221A7000237B6602E07B6E013355
:10CBA0007B66786EFBF7F6FB3DA3D3E90023FBF72A
:10CBB000CDFE0346002BF1D1FDF7EAFFFEF798F812
:10CBC0003B4B1B780133DAB2394B1A7000233B66BA
:10CBD00002E03B6E01333B66386EFBF7DBFB30A3B4
:10CBE000D3E90023FBF7B2FE0346002BF1D1FEF799
:10CBF00001FB2D4B00221A700023FB6502E0FB6D48
:10CC00000133FB65F86DFBF7C5FB25A3D3E90023D2
:10CC1000FBF79CFE0346002BF1D197F8F7304C2B25
:10CC200040F05F82FEF7E6FA1F4B01221A700023E4
:10CC3000BB6502E0BB6D0133BB65B86DFBF7AAFBBA
:10CC400017A3D3E90023FBF781FE0346002BF1D1A4
:10CC5000FDF79EFFFEF74CF8154B1B780133DAB257
:10CC6000134B1A70FFF7F0F900237B6502E07B6D30
:10CC700001337B65786DFBF78DFB09A3D3E90023B6
:10CC8000FBF764FE0346002BF1D1FEF7B3FA064B27
:10CC900000221A7000233B650FE000BFAFF3008055
:10CCA00000000000004CCD408A8401200543012093
:10CCB000044301203B6D01333B65386DFBF76AFB94
:10CCC000BBA3D3E90023FBF741FE0346002BF1D1C0
:10CCD000FDF75EFFFEF70CF8B74B1B780133DAB2B5
:10CCE000B54B1A70FFF7B0F90023FB6402E0FB6C50
:10CCF0000133FB64F86CFBF74DFBADA3D3E90023D4
:10CD0000FBF724FE0346002BF1D1FEF773FAAB4B81
:10CD100003221A700023BB6402E0BB6C0133BB64C6
:10CD2000B86CFBF737FBA2A3D3E90023FBF70EFE99
:10CD30000346002BF1D1FDF72BFFFDF7D9FFA04BE8
:10CD40001B78013BDAB29E4B1A7000237B6402E031
:10CD50007B6C01337B64786CFBF71CFB94A3D3E9F9
:10CD60000023FBF7F3FD0346002BF1D1FEF7D6F9C4
:10CD7000924B00221A7000233B6402E03B6C0133AB
:10CD80003B64386CFBF706FB89A3D3E90023FBF770
:10CD9000DDFD0346002BF1D1A3E1FDF7F9FEFDF720
:10CDA000A7FF874B1B78013BDAB2854B1A70FFF760
:10CDB0004BF90023FB6302E0FB6B0133FB63F86B71
:10CDC000FBF7E8FA7AA3D3E90023FBF7BFFD03469C
:10CDD000002BF1D1784B1B78072B03D1522387F816
:10CDE000F73006E0744B1B78072B02D14C2387F8F1
:10CDF000F73097F8F730522B40F0AD80FEF78EF900
:10CE00006E4B00221A700023BB6302E0BB6B013340
:10CE1000BB63B86BFBF7BEFA65A3D3E90023FBF74E
:10CE200095FD0346002BF1D1FDF7B2FEFDF760FF43
:10CE3000614B1B780133DAB25F4B1A70FFF704F9CC
:10CE400000237B6302E07B6B01337B63786BFBF732
:10CE5000A1FA57A3D3E90023FBF778FD0346002B83
:10CE6000F1D1FEF75BF9554B01221A7000233B63A9
:10CE700002E03B6B01333B63386BFBF78BFA4CA34F
:10CE8000D3E90023FBF762FD0346002BF1D1FDF748
:10CE90007FFEFDF72DFF4A4B1B780133DAB2484B7A
:10CEA0001A70FFF7D1F80023FB6202E0FB6A01333E
:10CEB000FB62F86AFBF76EFA3DA3D3E90023FBF7A8
:10CEC00045FD0346002BF1D1FEF728F93B4B02222A
:10CED0001A700023BB6202E0BB6A0133BB62B86A0E
:10CEE000FBF758FA32A3D3E90023FBF72FFD0346E3
:10CEF000002BF1D1FDF74CFEFDF7FAFE2E4B1B780F
:10CF0000013BDAB22C4B1A7000237B6202E07B6A91
:10CF100001337B62786AFBF73DFA25A3D3E900234E
:10CF2000FBF714FD0346002BF1D1FEF763F9234B09
:10CF300001221A7000233B6202E03B6A01333B622C
:10CF4000386AFBF727FA1AA3D3E90023FBF7FEFCA4
:10CF50000346002BF1D197F8F7304C2B40F0C380FB
:10CF6000FEF748F9154B02221A700023FB6102E01C
:10CF7000FB690133FB61F869FBF70CFA0CA3D3E9F9
:10CF80000023FBF7E3FC0346002BF1D1FDF700FE85
:10CF9000FDF7AEFE084B1B78013BDAB2064B1A7068
:10CFA000FFF752F80023BB610FE000BFAFF3008032
:10CFB00000000000004CCD40054301208A84012080
:10CFC00004430120BB690133BB61B869FBF7E2F997
:10CFD00049A3D3E90023FBF7B9FC0346002BF1D1A9
:10CFE000FEF708F9464B01221A7000237B6102E02C
:10CFF0007B6901337B617869FBF7CCF93EA3D3E908
:10D000000023FBF7A3FC0346002BF1D1FDF7C0FD85
:10D01000FDF76EFE3B4B1B780133DAB2394B1A70C9
:10D02000FFF712F800233B6102E03B6901333B61EB
:10D030003869FBF7AFF930A3D3E90023FBF786FC8F
:10D040000346002BF1D1FEF7D5F82D4B00221A70C4
:10D050000023FB6002E0FB680133FB60F868FBF72C
:10D0600099F925A3D3E90023FBF770FC0346002BB5
:10D07000F1D1FDF78DFDFDF73BFE234B1B7801330E
:10D08000DAB2214B1A700023BB6002E0BB680133A7
:10D09000BB60B868FBF77EF917A3D3E90023FBF761
:10D0A00055FC0346002BF1D1FEF738F8144B012252
:10D0B0001A7000237B6002E07B6801337B60786834
:10D0C000FBF768F90CA3D3E90023FBF73FFC034609
:10D0D000002BF1D107E000BF06E000BF04E000BF75
:10D0E00002E000BF00E000BFFEF744FE00BFF837DB
:10D0F000BD4680BDAFF3008000000000004CCD4075
:10D100008A8401200443012005430120000000001F
:10D1100098B500AF9A4B00225A729A4B1B78032B9A
:10D1200000F2AC8301A252F823F000BF3DD1000809
:10D13000FDD20008DDD40008BDD60008924B1B7854
:10D140001946924B1B781846914A0B46DB000B445C
:10D15000034412F81330C3F30103DBB2002B2BD1CD
:10D16000894B1B781846894B1B785A1C8949034602
:10D17000DB0003440B4413441A78834B1B78184696
:10D18000824B1B781C4683490346DB0003440B4457
:10D1900023441B789A420FD27C4B1B78072B0BD869
:10D1A000FDF752FE774B00221A70784B1B78013343
:10D1B000DAB2764B1A70A0E0734B1B781946734BAA
:10D1C0001B781846724A0B46DB000B44034412F8E6
:10D1D0001330C3F38113DBB2002B2BD16A4B1B78C6
:10D1E0005A1E6A4B1B7818466A491346DB001344E3
:10D1F0000B4403441A78644B1B781846634B1B7826
:10D200001C4664490346DB0003440B4423441B785B
:10D210009A420FD25C4B1B78002B0BD0FEF798FC88
:10D22000584B03221A70584B1B78013BDAB2564B0D
:10D230001A7062E0544B1B781946544B1B78184601
:10D24000534A0B46DB000B44034412F81330C3F37C
:10D250008103DBB2002B2BD14B4B1B785A1C4B4B61
:10D260001B7818464B491346DB0013440B44034418
:10D270001A78454B1B781846444B1B781C46454989
:10D280000346DB0003440B4423441B789A420FD22D
:10D290003D4B1B78072B0BD8FEF7EEFB394B0122D9
:10D2A0001A70394B1B780133DAB2374B1A7024E00D
:10D2B000FDF71EFD9FED300BFDF7ECFB304B93F9B6
:10D2C0000230012B01D1FCF77FFEFEF7F3FA9FED50
:10D2D0002A0BFDF7DFFBFEF767FB9FED270BFDF742
:10D2E000D9FBFDF7FDFB274B02221A70274B1B7859
:10D2F000013BDAB2254B1A70C1E2C0E2224B1B7827
:10D300001946224B1B781846214A0B46DB000B447A
:10D31000034412F81330C3F38103DBB2002B3BD17B
:10D32000194B1B785A1C194B1B7818461949134680
:10D33000DB0013440B4403441A78134B1B78184644
:10D34000124B1B781C4613490346DB0003440B4475
:10D3500023441B789A421FD20B4B1B78072B1BD8F8
:10D36000FDF772FD074B01221A70074B1B78013342
:10D37000DAB2054B1A70B0E0333333333333D33F73
:10D38000680000208A840120044301200543012015
:10D39000FC8E0120548A0120AF4B1B781946AF4BFD
:10D3A0001B781846AE4A0B46DB000B44034412F8C8
:10D3B0001330C3F30103DBB2002B2BD1A64B1B7838
:10D3C0001846A64B1B785A1CA6490346DB000344AB
:10D3D0000B4413441A78A04B1B7818469F4B1B78BC
:10D3E0001C46A0490346DB0003440B4423441B783E
:10D3F0009A420FD2994B1B78072B0BD8FEF7A8FB4C
:10D40000994B00221A70954B1B780133DAB2934B7B
:10D410001A7062E0904B1B781946904B1B781846A7
:10D420008F4A0B46DB000B44034412F81330C3F35E
:10D430000113DBB2002B2BD1874B1B781846874B8F
:10D440001B785A1E87490346DB0003440B441344F0
:10D450001A78814B1B781846804B1B781C468149F3
:10D460000346DB0003440B4423441B789A420FD24B
:10D470007A4B1B78002B0BD0FEF7FEFA7A4B022278
:10D480001A70764B1B78013BDAB2744B1A7024E0A9
:10D49000FDF72EFC9FED6E0BFDF7FCFA734B93F935
:10D4A0000230012B01D1FCF78FFDFEF703FA9FED4F
:10D4B000680BFDF7EFFAFEF777FA9FED650BFDF7C6
:10D4C000E9FAFDF70DFB684B03221A70624B1B78DB
:10D4D000013BDAB2604B1A70D1E1D0E15E4B1B78B0
:10D4E00019465E4B1B7818465D4A0B46DB000B4421
:10D4F000034412F81330C3F30113DBB2002B2BD11A
:10D50000554B1B781846554B1B785A1E55490346F8
:10D51000DB0003440B4413441A784F4B1B78184626
:10D520004E4B1B781C464F490346DB0003440B441B
:10D5300023441B789A420FD2484B1B78002B0BD008
:10D54000FDF782FC484B02221A70444B1B78013BCA
:10D55000DAB2424B1A70B0E03F4B1B7819463F4B92
:10D560001B7818463E4A0B46DB000B44034412F876
:10D570001330C3F38103DBB2002B2BD1364B1B7866
:10D580005A1C364B1B78184636491346DB001344A9
:10D590000B4403441A78304B1B7818462F4B1B78EA
:10D5A0001C4630490346DB0003440B4423441B78EC
:10D5B0009A420FD2284B1B78072B0BD8FEF7C8FADC
:10D5C000294B01221A70244B1B780133DAB2224B0B
:10D5D0001A7072E0204B1B781946204B1B781846B6
:10D5E0001F4A0B46DB000B44034412F81330C3F30D
:10D5F0008113DBB2002B3BD1174B1B785A1E174B04
:10D600001B78184617491346DB0013440B440344A8
:10D610001A78114B1B781846104B1B781C46114981
:10D620000346DB0003440B4423441B789A421FD279
:10D63000094B1B78002B1BD0FEF71EFA0A4B032266
:10D640001A70054B1B78013BDAB2034B1A7034E0B9
:10D65000333333333333D33F0443012005430120B5
:10D66000FC8E0120548A01208A8401206800002059
:10D67000FDF73EFB9FED840BFDF70CFA844B93F90D
:10D680000230012B01D1FCF79FFCFEF713F99FED4F
:10D690007E0BFDF7FFF9FEF787F99FED7B0BFDF79A
:10D6A000F9F9FDF71DFA7B4B00221A707A4B1B78B3
:10D6B0000133DAB2784B1A70E1E0E0E0774B1B7887
:10D6C0001946754B1B781846754A0B46DB000B4410
:10D6D000034412F81330C3F38113DBB2002B2BD1B8
:10D6E0006E4B1B785A1E6C4B1B7818466D491346BF
:10D6F000DB0013440B4403441A78684B1B7818462C
:10D70000654B1B781C4667490346DB0003440B440A
:10D7100023441B789A420FD2604B1B78002B0BD00E
:10D72000FDF792FB5B4B03221A705C4B1B78013BAD
:10D73000DAB25A4B1A70A0E0584B1B781946564B78
:10D740001B781846564A0B46DB000B44034412F87C
:10D750001330C3F30113DBB2002B2BD14F4B1B78DB
:10D7600018464D4B1B785A1E4E490346DB000344B6
:10D770000B4413441A78494B1B781846464B1B78C8
:10D780001C4648490346DB0003440B4423441B78F2
:10D790009A420FD2404B1B78002B0BD0FEF7D8F9E2
:10D7A0003C4B02221A703C4B1B78013BDAB23A4BDD
:10D7B0001A7062E0394B1B781946374B1B781846B4
:10D7C000374A0B46DB000B44034412F81330C3F313
:10D7D0000103DBB2002B2BD1304B1B7818462E4BAC
:10D7E0001B785A1C2F490346DB0003440B441344A7
:10D7F0001A782A4B1B781846274B1B781C46294958
:10D800000346DB0003440B4423441B789A420FD2A7
:10D81000214B1B78072B0BD8FEF72EF91D4B00224E
:10D820001A701D4B1B780133DAB21B4B1A7024E0BF
:10D83000FDF75EFA9FED140BFDF72CF9144B93F9ED
:10D840000230012B01D1FCF7BFFBFEF733F89FED4F
:10D850000E0BFDF71FF9FEF7A7F89FED0B0BFDF779
:10D8600019F9FDF73DF90B4B01221A700B4B1B7890
:10D870000133DAB2094B1A7001E000E000BF00BFCB
:10D8800098BD00BFAFF30080333333333333D33F1E
:10D89000680000208A840120054301200443012000
:10D8A000FC8E0120548A012080B500AFFCF75CF9A2
:10D8B000334B00221A70324B1A78324B1A70324BAB
:10D8C00000221A70FEF7C0FB2E4B1B781A462C4B19
:10D8D0001B7818462D491346DB0013441A1811F81B
:10D8E0001230012060F3051301F81230FEF742FAFE
:10D8F000FDF7F6F8234B00221A70214B1B780133F9
:10D90000DAB21F4B1A7005E0FEF79EFBFEF732FA03
:10D91000FFF7FEFB1B4B1B78062BF5D9194B1B7829
:10D92000072BF1D8164B1B78062BEDD9144B1B781F
:10D93000072BE9D8FDF7DCF9154B07221A70FCF725
:10D94000E3FD4FF47A7002F01FFF114B00221A70B2
