:020000040800F2
:1000000000000220550501089D020108A302010815
:10001000A9020108AF020108B502010800000000B2
:10002000000000000000000000000000BB0201080A
:10003000C902010800000000D7020108E50201081A
:10004000A5050108A5050108A5050108A5050108E4
:10005000F1020108A5050108A5050108A50501088B
:10006000A5050108A5050108A5050108A5050108C4
:10007000A5050108A5050108A5050108A5050108B4
:10008000A5050108A5050108FD020108A50501084F
:10009000A5050108A5050108A5050108A505010894
:1000A000A505010819030108A5050108A505010812
:1000B0002D0301084103010855030108A5050108A6
:1000C000A5050108A5050108A5050108A505010864
:1000D000A5050108A5050108A5050108A505010854
:1000E000A5050108A5050108A5050108A505010844
:1000F000690301087D03010891030108A5050108B2
:10010000A5050108A5050108A5030108A505010825
:10011000A5050108A5050108A5050108A505010813
:10012000B9030108A5050108CD030108A5050108CB
:10013000A50501080000000000000000A505010859
:10014000A5050108A5050108A5050108A5050108E3
:10015000A5050108A5050108A5050108A5050108D3
:10016000A5050108A5050108A5050108A5050108C3
:10017000A5050108A5050108000000000000000019
:08018000A5050108A505010811
:1080000010B5054C237833B9044B13B10448AFF3D2
:1080100000800123237010BD5002002000000000EA
:10802000E881010808B5034B1BB103490348AFF3CE
:10803000008008BD0000000054020020E881010813
:10804000034613F8012B002AFBD1181A0138704798
:1080500001F0FF01102A2BDB10F0070F08D010F8F9
:10806000013B013A8B422DD010F0070F42B3F6D1FD
:10807000F0B441EA012141EA014122F007047FF016
:1080800000070023F0E80256083C85EA010586EA6D
:10809000010685FA47F5A3FA87F586FA47F6A5FAA9
:1080A00087F68EB9EED1F0BC01F0FF0102F00702B5
:1080B00032B110F8013B013A83EA010313B1F8D160
:1080C0000020704701387047002D06BF3546033841
:1080D000073815F0010F07D1013015F4807F02BF7A
:1080E000013015F4C03F0130F0BC0138704700BFCB
:1080F00081F0004102E000BF83F0004330B54FEA59
:1081000041044FEA430594EA050F08BF90EA020FC5
:108110001FBF54EA000C55EA020C7FEA645C7FEA58
:10812000655C00F0E2804FEA5454D4EB5555B8BF7B
:108130006D420CDD2C4480EA020281EA030382EAEC
:10814000000083EA010180EA020281EA0303362D7E
:1081500088BF30BD11F0004F4FEA01314FF4801C51
:108160004CEA113102D0404261EB410113F0004F63
:108170004FEA03334CEA133302D0524263EB43031A
:1081800094EA050F00F0A780A4F10104D5F1200EB8
:108190000DDB02FA0EFC22FA05F2801841F1000113
:1081A00003FA0EF2801843FA05F359410EE0A5F1E7
:1081B00020050EF1200E012A03FA0EFC28BF4CF018
:1081C000020C43FA05F3C01851EBE37101F00045CE
:1081D00007D54FF0000EDCF1000C7EEB00006EEBDB
:1081E0000101B1F5801F1BD3B1F5001F0CD3490865
:1081F0005FEA30004FEA3C0C04F101044FEA4452BC
:1082000012F5800F80F09A80BCF1004F08BF5FEA42
:10821000500C50F1000041EB045141EA050130BD22
:108220005FEA4C0C404141EB010111F4801FA4F1C5
:108230000104E9D191F0000F04BF01460020B1FA1A
:1082400081F308BF2033A3F10B03B3F120020CDA52
:108250000C3208DD02F1140CC2F10C0201FA0CF030
:1082600021FA02F10CE002F11402D8BFC2F1200C95
:1082700001FA02F120FA0CFCDCBF41EA0C0190404B
:10828000E41AA2BF01EB0451294330BD6FEA040494
:108290001F3C1CDA0C340EDC04F11404C4F120027F
:1082A00020FA04F001FA02F340EA030021FA04F391
:1082B00045EA030130BDC4F10C04C4F1200220FAE8
:1082C00002F001FA04F340EA0300294630BD21FA26
:1082D00004F0294630BD94F0000F83F4801306BFEC
:1082E00081F480110134013D4EE77FEA645C18BFE0
:1082F0007FEA655C29D094EA050F08BF90EA020F77
:1083000005D054EA000C04BF1946104630BD91EA6E
:10831000030F1EBF0021002030BD5FEA545C05D171
:108320004000494128BF41F0004130BD14F58004B0
:108330003CBF01F5801130BD01F0004545F0FE4124
:1083400041F470014FF0000030BD7FEA645C1ABF59
:10835000194610467FEA655C1CBF0B46024650EA90
:10836000013406BF52EA033591EA030F41F40021BC
:1083700030BD00BF90F0000F04BF0021704730B542
:108380004FF4806404F132044FF000054FF0000117
:1083900050E700BF90F0000F04BF0021704730B5D8
:1083A0004FF4806404F1320410F0004548BF4042AD
:1083B0004FF000013EE700BF42004FEAE2014FEA02
:1083C00031014FEA02701FBF12F07F4393F07F4FDD
:1083D00081F06051704732F07F4208BF704793F0E0
:1083E0007F4F04BF41F40021704730B54FF46074F3
:1083F00001F0004521F000411CE700BF50EA0102F6
:1084000008BF704730B54FF000050AE050EA01029E
:1084100008BF704730B511F0004502D5404261EB0E
:1084200041014FF4806404F132045FEA915C3FF44F
:10843000D8AE4FF003025FEADC0C18BF03325FEAEC
:10844000DC0C18BF033202EBDC02C2F1200300FA9D
:1084500003FC20FA02F001FA03FE40EA0E0021FAC2
:1084600002F11444BDE600BF70B54FF0FF0C4CF4B0
:10847000E06C1CEA11541DBF1CEA135594EA0C0F62
:1084800095EA0C0F00F0DEF82C4481EA030621EA9D
:108490004C5123EA4C5350EA013518BF52EA0335D8
:1084A00041F4801143F4801338D0A0FB02CE4FF08A
:1084B0000005E1FB02E506F00042E0FB03E54FF0BA
:1084C0000006E1FB03569CF0000F18BF4EF0010EB2
:1084D000A4F1FF04B6F5007F64F5407404D25FEAAE
:1084E0004E0E6D4146EB060642EAC62141EA555161
:1084F0004FEAC52040EA5E504FEACE2EB4F1FD0CA3
:1085000088BFBCF5E06F1ED8BEF1004F08BF5FEA20
:10851000500E50F1000041EB045170BD06F00046D2
:1085200046EA010140EA020081EA0301B4EB5C047F
:10853000C2BFD4EB0C0541EA045170BD41F4801177
:108540004FF0000E013C00F3AB8014F1360FDEBF9C
:10855000002001F0004170BDC4F10004203C35DA78
:108560000C341BDC04F11404C4F1200500FA05F3FB
:1085700020FA04F001FA05F240EA020001F000429C
:1085800021F0004110EBD37021FA04F642EB060112
:108590005EEA430E08BF20EAD37070BDC4F10C043C
:1085A000C4F1200500FA04F320FA05F001FA04F200
:1085B00040EA020001F0004110EBD37041F10001EC
:1085C0005EEA430E08BF20EAD37070BDC4F12005F7
:1085D00000FA05F24EEA020E20FA04F301FA05F25F
:1085E00043EA020321FA04F001F0004121FA04F207
:1085F00020EA020000EBD3705EEA430E08BF20EAD7
:10860000D37070BD94F0000F0FD101F00046400010
:1086100041EB010111F4801F08BF013CF7D041EA92
:10862000060195F0000F18BF704703F00046520096
:1086300043EB030313F4801F08BF013DF7D043EA67
:108640000603704794EA0C0F0CEA135518BF95EA1D
:108650000C0F0CD050EA410618BF52EA4306D1D1A4
:1086600081EA030101F000414FF0000070BD50EAC3
:10867000410606BF1046194652EA430619D094EA4D
:108680000C0F02D150EA013613D195EA0C0F05D137
:1086900052EA03361CBF104619460AD181EA03018B
:1086A00001F0004141F0FE4141F470014FF0000043
:1086B00070BD41F0FE4141F4780170BD70B54FF0DE
:1086C000FF0C4CF4E06C1CEA11541DBF1CEA13555E
:1086D00094EA0C0F95EA0C0F00F0A7F8A4EB050440
:1086E00081EA030E52EA03354FEA013100F0888037
:1086F0004FEA03334FF0805545EA131343EA126300
:108700004FEA022245EA111545EA10654FEA0026B4
:108710000EF000419D4208BF964244F1FD0404F56D
:10872000407402D25B084FEA3202B61A65EB0305C9
:108730005B084FEA32024FF480104FF4002CB6EB86
:10874000020E75EB030E22BFB61A754640EA0C0006
:108750005B084FEA3202B6EB020E75EB030E22BF46
:10876000B61A754640EA5C005B084FEA3202B6EB87
:10877000020E75EB030E22BFB61A754640EA9C0046
:108780005B084FEA3202B6EB020E75EB030E22BF16
:10879000B61A754640EADC0055EA060E18D04FEAD4
:1087A000051545EA16754FEA06164FEAC30343EA74
:1087B00052734FEAC2025FEA1C1CC0D111F4801F41
:1087C0000BD141EA00014FF000004FF0004CB6E73A
:1087D00011F4801F04BF01430020B4F1FD0C88BFD9
:1087E000BCF5E06F3FF6AFAEB5EB030C04BFB6EBE4
:1087F000020C5FEA500C50F1000041EB045170BDD7
:108800000EF0004E4EEA113114EB5C04C2BFD4EB03
:108810000C0541EA045170BD41F480114FF0000E87
:10882000013C90E645EA060E8DE60CEA135594EA03
:108830000C0F08BF95EA0C0F3FF43BAF94EA0C0F06
:108840000AD150EA01347FF434AF95EA0C0F7FF47B
:1088500025AF104619462CE795EA0C0F06D152EACF
:1088600003353FF4FDAE1046194622E750EA4106B3
:1088700018BF52EA43067FF4C5AE50EA41047FF4C4
:108880000DAF52EA43057FF4EBAE12E74FF0FF3C29
:1088900006E000BF4FF0010C02E000BF4FF0010CFA
:1088A0004DF804CD4FEA410C7FEA6C5C4FEA430C73
:1088B00018BF7FEA6C5C1BD001B050EA410C0CBFC2
:1088C00052EA430C91EA030F02BF90EA020F002024
:1088D000704710F1000F91EA030F58BF994208BF8B
:1088E00090422CBFD8176FEAE37040F00100704748
:1088F0004FEA410C7FEA6C5C02D150EA013C07D19F
:108900004FEA430C7FEA6C5CD6D152EA033CD3D0E9
:108910005DF8040B704700BF8446104662468C46E3
:108920001946634600E000BF01B5FFF7B7FF002816
:1089300048BF10F1000F01BD4DF808EDFFF7F4FF3F
:108940000CBF012000205DF808FB00BF4DF808EDCA
:10895000FFF7EAFF34BF012000205DF808FB00BFED
:108960004DF808EDFFF7E0FF94BF012000205DF80F
:1089700008FB00BF4DF808EDFFF7CEFF94BF0120C4
:1089800000205DF808FB00BF4DF808EDFFF7C4FFBD
:1089900034BF012000205DF808FB00BF4FEA410C06
:1089A0007FEA6C5C02D150EA013C0AD14FEA430CE9
:1089B0007FEA6C5C02D152EA033C02D14FF0000026
:1089C00070474FF0010070474FEA410212F5001264
:1089D00015D211D56FF47873B3EB625212D94FEA06
:1089E000C12343F0004343EA505311F0004F23FAF0
:1089F00002F018BF404270474FF00000704750EA45
:108A0000013005D111F0004008BF6FF00040704701
:108A10004FF00000704700BF4FEA4102B2F1E0435F
:108A200024BFB3F5001CDCF1FE5C0DD901F0004C55
:108A30004FEAC0024CEA5070B2F1004F40EB8300A5
:108A400008BF20F00100704711F0804F21D113F1D1
:108A50003872BCBF01F00040704741F480114FEA0A
:108A60005252C2F11802C2F1200C10FA0CF320FA93
:108A700002F018BF40F001004FEAC1234FEAD323B0
:108A800003FA0CFC40EA0C0023FA02F34FEA43031A
:108A9000CCE77FEA625307D150EA01331EBF4FF0A3
:108AA000FE4040F44000704701F0004040F0FE40BE
:108AB00040F40000704700BF53B94AB9002908BF0D
:108AC00000281CBF4FF0FF314FF0FF3000F072B9AB
:108AD000ADF1080C6DE904CE00F006F8DDF804E015
:108AE000DDE9022304B070472DE9F047089E0446F3
:108AF0008846002B4BD18A42154667D9B2FA82F2DA
:108B00004AB1C2F1200701FA02F320FA07F79540B3
:108B100047EA030894404FEA154E230CB8FBFEF7D2
:108B20001FFA85FC0EFB178843EA084307FB0CF18C
:108B3000994209D9EB1807F1FF3080F01B81994267
:108B400040F21881023F2B445B1AA4B2B3FBFEF043
:108B50000EFB103344EA034400FB0CFCA44509D986
:108B60002C1900F1FF3380F00781A44540F2048105
:108B700002382C4440EA0740A4EB0C0400271EB145
:108B8000D4400023C6E900433946BDE8F0878B4254
:108B900009D9002E00F0EB800027C6E90001384615
:108BA0003946BDE8F087B3FA83F7002F47D18B42EF
:108BB00002D3824200F2FA80841A61EB030301209F
:108BC0009846002EE0D0C6E90048DDE702B9FFDE96
:108BD000B2FA82F2002A40F08F80491B4FEA154E0C
:108BE0001FFA85F80127B1FBFEFC230C0EFB1C11BC
:108BF00043EA014308FB0CF1994207D9EB180CF149
:108C0000FF3002D2994200F2CD808446591AA3B2B5
:108C1000B1FBFEF00EFB101443EA044408FB00F81D
:108C2000A04507D92C1900F1FF3302D2A04500F26C
:108C3000B6801846A4EB080440EA0C409FE7C7F151
:108C4000200CBB4022FA0CFE4EEA030E01FA07F498
:108C500020FA0CF521FA0CF34FEA1E482543B3FB2A
:108C6000F8F92C0C08FB19331FFA8EFA44EA034377
:108C700009FB0AF49C4202FA07F200FA07F10BD949
:108C80001EEB030309F1FF3080F087809C4240F225
:108C90008480A9F1020973441B1BADB2B3FBF8F049
:108CA00008FB103345EA034400FB0AFAA24508D941
:108CB0001EEB040400F1FF336BD2A24569D90238E0
:108CC000744440EA0940A0FB0289A4EB0A044C4525
:108CD000C2464B4654D351D0002E69D0B1EB0A05A1
:108CE00064EB030404FA0CFCFD40FC404CEA05056F
:108CF000C6E90054002747E7C2F1200320FA03F732
:108D0000954001FA02F021FA03F34FEA154E384379
:108D1000010CB3FBFEF71FFA85F80EFB173341EA8F
:108D2000034107FB08F38B4204FA02F407D96918E0
:108D300007F1FF3C2FD28B422DD9023F2944CB1A99
:108D400081B2B3FBFEF00EFB103341EA034100FB9E
:108D500008F38B4207D9691800F1FF3C17D28B4208
:108D600015D902382944C91A40EA07473BE7374674
:108D7000304609E70746E7E61846FBE64145ABD231
:108D8000B8EB020A69EB0E0201381346A4E760460D
:108D9000E9E7184695E76746D1E781467CE7023860
:108DA0002C4447E7ACF1020C2B442FE7384608E788
:108DB0003746E9E6704700BF90B589B000AF87ED50
:108DC000050AC7ED040A87ED031AC7ED021A87EDFD
:108DD000012AC7ED002A4FF00003FB614FF00003AA
:108DE000BB614B4B1B78002B07D14A4B4FF0000265
:108DF0001A60494B4FF000021A60454B01221A706D
:108E0000D7ED057A9FED457A37EE877AD7ED047A6C
:108E100077EE677AC7ED077A97ED077AD7ED037A91
:108E200027EE277A3B4BD3ED007A77EE277A394B42
:108E3000C3ED007A384BD3ED007A97ED077A77EEE1
:108E4000676A97ED037AC6EE877AC7ED067A324AEB
:108E5000FB69136097ED027AD7ED077A27EE277A40
:108E60002C4BD3ED006AD7ED017A66EEA77A37EE88
:108E7000277AD7ED006AD7ED067A66EEA77A77EE05
:108E8000277A17EE900AFFF797FA03460C4644EC50
:108E9000103B0CF0A1FD54EC103B18462146FFF7A7
:108EA00093FD03461AB21E4B1A8097ED027AD7ED56
:108EB000077A27EE277A174BD3ED006AD7ED017AB0
:108EC00066EEA77A37EE277AD7ED006AD7ED067AF5
:108ED00066EEA77A77EE277A17EE900AFFF76CFA1C
:108EE00003460C4644EC103B0CF076FD54EC103B72
:108EF00018462146FFF768FD03461BB29BB25B4252
:108F00009BB21AB2074B1A8000BF2437BD4690BDF2
:108F10006C02002070020020740200200000204239
:108F20007E8301209083012090B589B000AF87ED4A
:108F3000050AC7ED040A87ED031AC7ED021A87ED8B
:108F4000012AC7ED002A4FF00003FB614FF0000338
:108F5000BB61514B1B78002B07D1504B4FF00002E7
:108F60001A604F4B4FF000021A604B4B01221A70EF
:108F700097ED057AD7ED047A77EE677A17EE900AC7
:108F8000FFF71AFA4FF03332464BFFF76DFA0346FC
:108F90000C4618462146FFF73FFD0346FB6197ED5F
:108FA000077AD7ED037A27EE277A3C4BD3ED007A88
:108FB00077EE277A394BC3ED007A394BD3ED007A3F
:108FC00097ED077A77EE676A97ED037AC6EE877AB0
:108FD000C7ED067A324AFB69136097ED027AD7ED46
:108FE000077A27EE277A2D4BD3ED006AD7ED017A69
:108FF00066EEA77A37EE277AD7ED006AD7ED067AC4
:1090000066EEA77A77EE277A17EE900AFFF7D4F983
:1090100003460C4644EC103B0CF0DEFC54EC103BD9
:1090200018462146FFF7D0FC03461BB29BB25B42B9
:109030009BB21AB21C4B1A8097ED027AD7ED077AD1
:1090400027EE277A154BD3ED006AD7ED017A66EE4D
:10905000A77A37EE277AD7ED006AD7ED067A66EE63
:10906000A77A77EE277A17EE900AFFF7A5F903465D
:109070000C4644EC103B0CF0AFFC54EC103B184693
:109080002146FFF7A1FC03461AB2084B1A8000BF25
:109090002437BD4690BD00BF6C020020780200203E
:1090A0007C0200203333F33F7A8301209C8301202C
:1090B00090B589B000AF87ED050AC7ED040A87EDCA
:1090C000031AC7ED021A87ED012AC7ED002A4FF0F7
:1090D0000003FB614FF00003BB61514B1B78002B79
:1090E00007D1504B4FF000021A604F4B4FF0000277
:1090F0001A604B4B01221A7097ED057AD7ED047A6E
:1091000077EE677A17EE900AFFF756F94FF0333291
:10911000464BFFF7A9F903460C4618462146FFF7D0
:109120007BFC0346FB6197ED077AD7ED037A27EEC8
:10913000277A3C4BD3ED007A77EE277A394BC3ED93
:10914000007A394BD3ED007A97ED077A77EE676AAC
:1091500097ED037AC6EE877AC7ED067A324AFB6945
:10916000136097ED027AD7ED077A27EE277A2D4B19
:10917000D3ED006AD7ED017A66EEA77A37EE277A4B
:10918000D7ED006AD7ED067A66EEA77A77EE277AF2
:1091900017EE900AFFF710F903460C4644EC103B1B
:1091A0000CF01AFC54EC103B18462146FFF70CFC5F
:1091B00003461AB21E4B1A8097ED027AD7ED077A52
:1091C00027EE277A174BD3ED006AD7ED017A66EECA
:1091D000A77A37EE277AD7ED006AD7ED067A66EEE2
:1091E000A77A77EE277A17EE900AFFF7E5F803469D
:1091F0000C4644EC103B0CF0EFFB54EC103B1846D3
:109200002146FFF7E1FB03461BB29BB25B429BB2D8
:109210001AB2084B1A8000BF2437BD4690BD00BF6C
:109220006C02002080020020840200203333F33FD0
:109230006C8301208483012090B589B000AF87ED55
:10924000050AC7ED040A87ED031AC7ED021A87ED78
:10925000012AC7ED002A4FF00003FB614FF0000325
:10926000BB61474B1B78002B07D1464B4FF00002E8
:109270001A60454B4FF000021A60414B01221A70F0
:1092800097ED057AD7ED047A77EE677AC7ED077A1E
:1092900097ED077AD7ED037A27EE277A394BD3ED8E
:1092A000007A77EE277A374BC3ED007A364BD3ED51
:1092B000007A97ED077A77EE676A97ED037AC6EE44
:1092C000877AC7ED067A304AFB69136097ED027A18
:1092D000D7ED077A27EE277A2A4BD3ED006AD7ED30
:1092E000017A66EEA77A37EE277AD7ED006AD7EDD6
:1092F000067A66EEA77A77EE277A17EE900AFFF7DE
:109300005BF803460C4644EC103B0CF065FB54EC58
:10931000103B18462146FFF757FB03461AB21B4B7A
:109320001A8097ED027AD7ED077A27EE277A154B48
:10933000D3ED006AD7ED017A66EEA77A37EE277A89
:10934000D7ED006AD7ED067A66EEA77A77EE277A30
:1093500017EE900AFFF730F803460C4644EC103B3A
:109360000CF03AFB54EC103B18462146FFF72CFB5F
:1093700003461AB2064B1A8000BF2437BD4690BD83
:109380006C020020880200208C02002080830120D3
:109390007883012090B589B000AF87ED050AC7ED4D
:1093A000040A87ED031AC7ED021A87ED012AC7EDFB
:1093B000002A4FF00003FB614FF00003BB61324B0A
:1093C0001B78002B07D1314B4FF000021A60304B55
:1093D0004FF000021A602C4B01221A7097ED057AAB
:1093E000D7ED047A77EE677AC7ED077A97ED077ABB
:1093F000D7ED037A27EE277A244BD3ED007A77EE68
:10940000277A224BC3ED007A214BD3ED007A97EDFA
:10941000077A77EE676A97ED037AC6EE877AC7ED2B
:10942000067A1B4AFB69136097ED027AD7ED077A3B
:1094300027EE277A154BD3ED006AD7ED017A66EE59
:10944000A77A37EE277AD7ED006AD7ED067A66EE6F
:10945000A77A77EE277A17EE900AFEF7ADFF03465C
:109460000C4644EC103B0CF0B7FA54EC103B184699
:109470002146FFF7A9FA03461AB2064B1A8000BF2D
:109480002437BD4690BD00BF6C0200209002002032
:10949000940200207083012090B589B000AF87ED61
:1094A000050AC7ED040A87ED031AC7ED021A87ED16
:1094B000012AC7ED002A4FF00003FB614FF00003C3
:1094C000BB61324B1B78002B07D1314B4FF00002B0
:1094D0001A60304B4FF000021A602C4B01221A70B8
:1094E00097ED057AD7ED047A77EE677AC7ED077ABC
:1094F00097ED077AD7ED037A27EE277A244BD3ED41
:10950000007A77EE277A224BC3ED007A214BD3ED18
:10951000007A97ED077A77EE676A97ED037AC6EEE1
:10952000877AC7ED067A1B4AFB69136097ED027ACA
:10953000D7ED077A27EE277A154BD3ED006AD7EDE2
:10954000017A66EEA77A37EE277AD7ED006AD7ED73
:10955000067A66EEA77A77EE277A17EE900AFEF77C
:109560002BFF03460C4644EC103B0CF035FA54EC50
:10957000103B18462146FFF727FA03461AB2064B5E
:109580001A8000BF2437BD4690BD00BF6C0200208A
:10959000980200209C0200209283012090B587B0A1
:1095A00000AF87ED030AC7ED020A87ED011AC7ED88
:1095B000001A4FF000037B614FF000033B614A4B00
:1095C0001B78002B07D1494B4FF000021A60484B23
:1095D0004FF000021A60444B01221A70454B93ED84
:1095E000007A454BD3ED007A77EE677AC7ED057ABE
:1095F00097ED057AD7ED037A27EE277A3B4BD3ED2B
:10960000007A77EE277A394BC3ED007A384BD3EDE9
:10961000007A97ED057A77EE676A97ED037AC6EEE2
:10962000877AC7ED047A324A7B69136097ED027A34
:10963000D7ED057A27EE277A2C4BD3ED006AD7EDCC
:10964000017A66EEA77A37EE277AD7ED006AD7ED72
:10965000047A66EEA77A77EE277A17EE900AFEF77D
:10966000ABFE03460C4644EC103B0CF0B5F954EC51
:10967000103B18462146FFF7A7F903461AB21F4BC5
:109680001A8097ED027AD7ED057A27EE277A174BE5
:10969000D3ED006AD7ED017A66EEA77A37EE277A26
:1096A000D7ED006AD7ED047A66EEA77A77EE277ACF
:1096B00017EE900AFEF780FE03460C4644EC103B82
:1096C0000CF08AF954EC103B18462146FFF77CF960
:1096D00003461BB29BB25B429BB21AB2084B1A8084
:1096E00000BF1C37BD4690BD6C020020A0020020C8
:1096F000A40200208C830120988301207C83012018
:109700006E83012080B400AF054B064A5A60044BBB
:10971000054A5A6000BFBD465DF8047B704700BF34
:10972000003C024023016745AB89EFCD80B400AF18
:10973000054B1B69044A43F00043136100BFBD465B
:109740005DF8047B704700BF003C024080B400AF6E
:1097500000BF054BDB6803F48033002BF9D100BF59
:10976000BD465DF8047B7047003C024080B500AF09
:10977000FFF7C8FFFFF7EAFF0B4B1B690A4A43F0EC
:1097800002031361084B1B69074A43F0400313614E
:10979000054B1B69044A43F480331361FFF7D6FF7E
:1097A000FFF7C4FF00BF80BD003C024080B582B01F
:1097B00000AF786087ED000AFFF7A4FFFFF7C6FF50
:1097C0000E4B1B690D4A43F4007313610B4B1B696D
:1097D0000A4A43F0010313617B683A681A60FFF795
:1097E000B5FF064B1B69054A23F001031361FFF720
:1097F0009DFF00BF0837BD4680BD00BF003C024052
:1098000080B584B000AFF860B9607A60FB687A68B0
:109810001946B8680CF054F900BF1037BD4680BD3A
:1098200080B584B000AF0346FB71FB7963F07F0322
:10983000DBB2FB73002204210D4808F0FDFE07F1A6
:109840000F01642301220B4809F0D6FB07F10E013A
:1098500064230122074809F003FD01220421044882
:1098600008F0EAFEBB7B18461037BD4680BD00BF3E
:10987000000C02401C85012080B584B000AF034677
:109880000A46FB711346BB71FB7903F07F03DBB221
:10989000FB73002204210C4808F0CEFE07F10F01F3
:1098A00064230122094809F0A7FBB91D64230122A2
:1098B000064809F0A1FB01220421034808F0BCFE80
:1098C00000BF1037BD4680BD000C02401C85012042
:1098D00080B582B000AF0020FFF7A2FF0346BB7146
:1098E000BB79E02B19D10123FB7101210620FFF781
:1098F000C3FF10210320FFF7BFFF20217F20FFF7C8
:10990000BBFF17210120FFF7B7FF06211420FFF747
:10991000B3FF00217F20FFF7AFFFFB791846083720
:10992000BD4680BD98B500AF3320FFF779FF0346F1
:109930001B021CB23420FFF773FF03461BB2234304
:109940001AB2114B1A803520FFF76AFF03461B023B
:109950001CB23620FFF764FF03461BB223431AB242
:109960000A4B1A803720FFF75BFF03461B021CB22D
:109970003820FFF755FF03461BB223431AB2044BAE
:109980001A8000BF98BD00BFA6830120A4830120D8
:109990009E83012098B500AF2D20FFF741FF0346BD
:1099A0001B021CB22E20FFF73BFF03461BB22343D2
:1099B0001AB2114B1A802F20FFF732FF03461B0209
:1099C0001CB23020FFF72CFF03461BB223431AB210
:1099D0000A4B1A803120FFF723FF03461B021CB2FB
:1099E0003220FFF71DFF03461BB223431AB2044B7C
:1099F0001A8000BF98BD00BFA2830120A883012068
:109A0000A083012080B582B000AF7860391D4FF689
:109A1000FF73012203480BF07FFB7B681846083771
:109A2000BD4680BDC885012080B400AF2D4B00220B
:109A30001A802C4BB3F900202B4B1A802A4BB3F918
:109A400000202A4B1A80294BB3F90020284B1A809A
:109A5000274BB3F90020274B1A80264BB3F900207F
:109A6000254B1A80244BB3F90020244B1A80234B3A
:109A7000B3F90020224B1A80214BB3F90020214B6F
:109A80001A80214B00221A801F4BB3F900201F4B74
:109A90001A801E4BB3F900201D4B1A801C4BB3F9E2
:109AA00000201C4B1A801B4BB3F900201A4B1A8064
:109AB000194BB3F90020194B1A80184BB3F9002049
:109AC000174B1A80164BB3F90020164B1A80154B12
:109AD000B3F90020144B1A8000BFBD465DF8047B2B
:109AE000704700BF928301206E8301208283012092
:109AF000888301206C8301207A83012090830120D8
:109B000078830120EC910120708301207C83012067
:109B1000868301208A830120848301209C83012085
:109B20007E830120808301208C84012098B500AFC2
:109B3000194B93F90430002B03F00103B8BF5B42CB
:109B40005BB2012B25D0154BD3E900014FF0000289
:109B5000134BFEF7D3FA03460C46104AC2E9003411
:109B60000E4BD3E900014FF000020E4BFEF7E4FE6E
:109B70000346002B00D10CE00B4BD3E900014FF062
:109B80000002074BFEF7BAFA03460C46064AC2E942
:109B9000003400BF98BD00BF68000020D8420120FB
:109BA0000000F03F00408F40D0420120B0B400AF31
:109BB000354B00221A605EE0344B00221A6051E0FF
:109BC000314B1968314B1A68314C0B01981814F855
:109BD0001030022565F3871304F810302A4B1C68F7
:109BE0002A4B18682A4D0B01134415F81330C3F3A0
:109BF0008113DDB2264923011A1811F8123065F3DA
:109C0000051301F81230204B1968204B1A68204DBB
:109C10002301034415F81330C3F30113DDB21C4CC8
:109C20000B01981814F8103065F3830304F8103012
:109C3000154B1C68154B1B68154809010A4410F8A0
:109C40001220C2F38102D0B2114922011A4411F844
:109C5000123060F3010301F812300C4B1B68013322
:109C60000A4A1360094B1B680F2BA9DD064B1B68C2
:109C70000133054A1360044B1B680F2B9CDD00BFAA
:109C8000BD46B0BC704700BF088301200C83012093
:109C9000AC8F012080B400AF4B4B0F221A605DE007
:109CA0004A4B00221A6050E0484B1A68464B1B682A
:109CB00047491201134411F81330C3F30103DAB218
:109CC000444B1B681146444AD154404B1A683E4BE2
:109CD0001B683F491201134411F81330C3F3810389
:109CE000DAB23C4B1B68013311463B4AD154374B27
:109CF0001A68354B1B6836491201134411F81330AA
:109D0000C3F30113DAB2334B1B6802331146324AF4
:109D1000D1542E4B1A682C4B1B682D491201134449
:109D200011F81330C3F38113DAB22A4B1B680333E3
:109D30001146294AD154274B1B680433254A136026
:109D4000224B1B680133214A1360204B1B680F2BE9
:109D5000AADD1D4B1B68013B1B4A13601A4B1B6895
:109D6000002B9DDA184B0F221A6023E0174B0022BC
:109D70001A6016E0154B1968134B1A68154B1B68CF
:109D80001648090101440A441178134AD154114B71
:109D90001B6801330F4A13600C4B1B6801330B4ADD
:109DA00013600A4B1B680F2BE4DD074B1B68013B5C
:109DB000054A1360044B1B68002BD7DA00BFBD4671
:109DC0005DF8047B704700BF1083012014830120DD
:109DD000AC8F01201883012008430120548A012000
:109DE00080B500AF3F4B00221A6041E03E4B00229D
:109DF0001A6031E03D4B1B683D4AD35C19463D4833
:109E00000CF0CEFA394B1B68013303F03F03002BF3
:109E10000ED0364B1B680133032B09DD334B1B6817
:109E2000013303F00303002B02D133480CF0B8FADE
:109E30002E4B1B68013303F03F03002B02D12F4848
:109E40000CF022FB294B1B680133284A1360264B78
:109E50001B680133244A1360234B1B683F2BC9DD69
:109E600026480CF011FB1F4B1B6801331D4A136081
:109E70001C4B1B680F2BB9DD20480CF005FB1F485D
:109E80000CF002FB174B00221A6024E0164B002254
:109E90001A6011E0154B1B68154AD35C1946184827
:109EA0000CF07EFA114B1B680133104A13600E4B05
:109EB0001B6801330C4A13600B4B1B680F2BE9DD49
:109EC0000E480CF0E1FA0D480CF0DEFA054B1B6869
:109ED0000133044A1360034B1B680F2BD6DD00BF10
:109EE00080BD00BF1C83012020830120248301202A
:109EF0000843012000820108048201080882010849
:109F00000C82010880B588B000AF07F061FF002324
:109F1000BB6001233B610223BB6101237B613A1DCE
:109F200007F108031146184608F0B2F80346FB771C
:109F300007F070FFFB7F002B05D17B68B3F1FF3F7B
:109F400001D1012300E0002303F00103DBB2184636
:109F50002037BD4680BD000080B500AF054A064BE6
:109F6000104619464FF480431A460BF0A9FD014BE9
:109F7000184680BD084301200040000890B585B018
:109F800000AFFFF7BFFF034683F00103DBB2002BF6
:109F900001D000232FE01A4B7B6007F019FF4FF42C
:109FA00080533B600023BB6017E0BB689B00154AF1
:109FB0009918BB689B007A6813441B684FF0000433
:109FC0001A462346022007F0FBFD0346FB73FB7B8A
:109FD000002B07D1BB680133BB60BA683B689A426B
:109FE000E3D300E000BF07F015FFFB7B002B0CBFA5
:109FF00001230023DBB218461437BD4690BD00BFD5
:10A00000084301200040000880B500AF002104484B
:10A0100009F092FD002102480AF05FFE00BF80BDFA
:10A02000B883012080B500AF0021044809F008FE84
:10A03000002102480AF0A6FE00BF80BDB8830120BF
:10A0400080B500AF03220A490A4806F0C5FC034662
:10A05000002B01D005F096FD02220749074806F0C3
:10A06000BBFC0346002B01D005F08CFD00BF80BD7A
:10A07000F04201207C850120F84201203C8401202F
:10A0800080B500AF084806F099FD0346002B01D0CB
:10A0900005F078FD054806F091FD0346002B01D040
:10A0A00005F070FD00BF80BD7C8501203C8401204F
:10A0B00080B500AF3C21044809F0BAFF3C210348B9
:10A0C00009F0B6FF00BF80BDD8840120FC830120C9
:10A0D00080B500AF0C21094809F082FE0346002B31
:10A0E00001D005F04FFD0421054809F079FE034633
:10A0F000002B01D005F046FD00BF80BDAC910120D2
:10A100009484012080B500AF0C21094809F0A6FE17
:10A110000346002B01D005F035FD0421054809F068
:10A120009DFE0346002B01D005F02CFD00BF80BD35
:10A13000AC9101209484012080B500AFFFF764FF4B
:10A14000FFF77EFFFFF7C4FBFFF7C2FF00BF80BD34
:10A150002DE9B04384B000AF87ED030AC7ED020AD2
:10A1600087ED011A97ED017AD7ED037A67EE277A2A
:10A1700017EE900AFEF720F904460D467868FEF7C0
:10A180001BF902460B464FF000001149FDF7B4FFE2
:10A1900002460B4690469946B868FEF70DF902460E
:10A1A0000B4640464946FEF75FF902460B462046FD
:10A1B0002946FDF7A3FF03460C4644EC173BB0EEDF
:10A1C000470AF0EE670A1037BD46BDE8B08300BF0E
:10A1D0000000F03F00000000B0B582B000AF4FF0CB
:10A1E00000034FF00004C7E90034FFF79BFBFFF7C3
:10A1F000D1FB494B1B881BB21846FEF7CBF8474BE7
:10A20000D3E900341A462346FDF776FF03460C4691
:10A21000184621463AA3D3E90023FEF74FFA034636
:10A220000C461846214638A3D3E90023FEF71CF953
:10A2300003460C46184621464FF00002384BFEF705
:10A240003DFA03460C46C7E90034D7E90001FEF7A2
:10A25000E3FB0546334BD3E9003418462146FEF7AD
:10A26000DBFB03469FED301A00EE903A00EE105AE9
:10A27000FFF76EFFB0EE407AF0EE607A2B4B83ED85
:10A28000007B2A4BD3E9000121A3D3E90023FEF789
:10A29000EBF803460C4618462146254BD3E900341B
:10A2A0001A462346FDF72AFF03460C46204AC2E918
:10A2B00000341E4BD3E900341A4AC2E900341C4B67
:10A2C000D3E900014FF00002154BFEF7CDF803462D
:10A2D0000C46184621460CA3D3E90023FEF7EEF9FD
:10A2E00003460C46134AC2E90034D7E9003444EC73
:10A2F000173BB0EE470AF0EE670A0837BD46B0BD1F
:10A300006666666666663040182D4454FB21094037
:10A31000FCA9F1D24D62503F9E830120C84201202A
:10A3200000806640288301200AD7233C3083012027
:10A33000B8420120B0420120B0B590B000AF87ED27
:10A340000A0B87ED081B87ED062B87ED043B87ED95
:10A35000024B87ED005B4FF000034FF00004C7E9AC
:10A360000E344FF000034FF00004C7E90C34714B7A
:10A370009B7903F00103DBB2002B0FD06E4BD3EDC2
:10A38000007AF5EE407AF1EE10FA15D16B4BD3ED71
:10A39000007AF5EE407AF1EE10FA0DD1684A4FF0EE
:10A3A00000034FF00004C2E90034664A4FF0000396
:10A3B0004FF00004C2E900345E4A937943F0010390
:10A3C0009371D7E90823D7E90A01FDF795FE034603
:10A3D0000C46C7E90E34D7E90623D7E90E01FEF78C
:10A3E00043F803460C4618462146554BD3E9003442
:10A3F0001A462346FDF782FE03460C46504AC2E940
:10A400000034504BD3E900341A462346D7E90E01F5
:10A41000FDF772FE03460C4618462146D7E906238F
:10A42000FEF74CF903460C46C7E90C34454AD7E918
:10A430000E34C2E90034D7E90E23D7E90401FEF750
:10A4400013F803460C4625461C463D4BD3E9000154
:10A45000D7E90223FEF708F802460B4620462946B4
:10A46000FDF74CFE03460C4625461C46D7E90C2357
:10A47000D7E90001FDF7F8FF02460B4620462946C2
:10A48000FDF73CFE03460C4644EC173BB0EE470A92
:10A49000F0EE670A0BF0A0FA54EC103B1846214688
:10A4A000FEF792FA03461BB29BB25B429BB21AB212
:10A4B000254B1A80D7E90E23D7E90401FDF7D4FF15
:10A4C00003460C4625461C461D4BD3E90001D7E93F
:10A4D0000223FDF7C9FF02460B4620462946FDF739
:10A4E0000DFE03460C4625461C46D7E90C23D7E94A
:10A4F0000001FDF7B9FF02460B4620462946FDF74D
:10A50000FDFD03460C4644EC173BB0EE470AF0EE67
:10A51000670A0BF061FA54EC103B18462146FEF72F
:10A5200053FA03461AB2094B1A8000BF4037BD46A2
:10A53000B0BD00BF68000020A8420120AC4201204D
:10A5400038830120408301208283012086830120FB
:10A55000F0B589B000AF6B461E464FF47A7006F036
:10A5600095F84FF4FA63FB81B7F90E000346013BFF
:10A57000BB60034619464FF000024FF000034FF056
:10A580000004940144EA91648B01034619464FF09C
:10A5900000024FF000034FF00004940144EA91647C
:10A5A0008B010346DB0007330733DB08DB00ADEB31
:10A5B000030D6B460733DB08DB007B600023FB8366
:10A5C00023E0204B1B881BB2FD8B1846FDF7E2FEF3
:10A5D00003460C467968EA000A44C2E90034FB8B62
:10A5E0007A68DB001344D3E900341A462346D7E9DE
:10A5F0000401FDF783FD03460C46C7E9043402203D
:10A6000006F044F8FB8B0133FB83FA8BB7F90E306D
:10A610009A42D6DBB7F90E301846FDF7BBFE03466B
:10A620000C461A462346D7E90401FEF747F80346CD
:10A630000C46054AC2E90034B54600BF2437BD4682
:10A64000F0BD00BF9E830120C842012080B500AF4D
:10A650005A4B93F90030072B00F2AC8001A252F85C
:10A6600023F000BF85A60008ABA60008D1A600080D
:10A67000F7A600081DA7000843A7000869A700085F
:10A680008FA7000800224FF400714D4807F0D4FF57
:10A6900000224FF480714A4807F0CEFF00224FF4A9
:10A6A0000071484807F0C8FF85E001224FF40071AF
:10A6B000434807F0C1FF00224FF48071404807F083
:10A6C000BBFF00224FF400713E4807F0B5FF72E077
:10A6D00000224FF400713A4807F0AEFF01224FF418
:10A6E0008071374807F0A8FF00224FF40071354809
:10A6F00007F0A2FF5FE001224FF40071304807F03D
:10A700009BFF01224FF480712D4807F095FF002236
:10A710004FF400712B4807F08FFF4CE000224FF4FC
:10A720000071274807F088FF00224FF48071244809
:10A7300007F082FF01224FF40071224807F07CFFEE
:10A7400039E001224FF400711D4807F075FF002227
:10A750004FF480711A4807F06FFF01224FF4007127
:10A76000184807F069FF26E000224FF400711448F2
:10A7700007F062FF01224FF48071114807F05CFF7F
:10A7800001224FF400710F4807F056FF13E0012239
:10A790004FF400710A4807F04FFF01224FF4807117
:10A7A000074807F049FF01224FF40071054807F000
:10A7B00043FF00E000BF00BF80BD00BF6800002075
:10A7C000000802400004024080B582B000AF03469A
:10A7D0000A46FB801346BB80B7F90630002B05DD27
:10A7E000012204211A4807F027FF0CE0B7F90630D0
:10A7F000002B08DA00220421154807F01DFFFB8812
:10A800005B429BB2FB80B7F90430002B05DD0022D0
:10A8100001210F4807F010FF0CE0B7F90430002BBE
:10A8200008DA012201210A4807F006FFBB885B42D3
:10A830009BB2BB80074B1B68B7F906201A64064B16
:10A840001B68B7F904209A6300BF0837BD4680BD76
:10A8500000000240AC9101209484012080B400AF3C
:10A86000804B1B881AB2804B1A807E4B5B881AB2D1
:10A870007E4B1A807E4B1B881AB27E4B1A807C4B13
:10A880005B881AB27C4B1A807C4BB3F900301A46B5
:10A89000754BB3F90030D31A002BB8BF5B421AB224
:10A8A000774B1A80774BB3F900301A466F4BB3F9E8
:10A8B0000030D31A002BB8BF5B421AB2724B1A8019
:10A8C000724BB3F900301A466A4BB3F90030D31A11
:10A8D000002BB8BF5B421AB26D4B1A806D4BB3F9B7
:10A8E00000301A46644BB3F90030D31A002BB8BFBE
:10A8F0005B421AB2684B1A805B4BB3F900205F4B86
:10A900001A805A4BB3F900205E4B1A80594BB3F9A9
:10A9100000205E4B1A80584BB3F900205D4B1A8023
:10A92000504B9B8807EE903AF8EE677A5B4BC3ED8D
:10A93000007A5B4BB3F900309AB2514BB3F9003057
:10A940009BB213449BB21AB2554B1A80554BB3F9C4
:10A9500000309AB24C4BB3F900309BB213449BB217
:10A960001AB2504B1A80504BB3F900309AB2484B90
:10A97000B3F900309BB213449BB21AB24A4B1A800F
:10A980004A4BB3F900309AB2434BB3F900309BB253
:10A9900013449BB21AB2454B1A80454B1B680133D6
:10A9A000434A1360424B1B680A2B56D13C4BB3F908
:10A9B000003007EE903AF8EEE76A3D4B1B6807EE71
:10A9C000903AB8EEE77AC6EE877A3A4BC3ED007A52
:10A9D000344BB3F9003007EE903AF8EEE76A344BA7
:10A9E0001B6807EE903AB8EEE77AC6EE877A324BEC
:10A9F000C3ED007A2C4BB3F9003007EE903AF8EE35
:10AA0000E76A2B4B1B6807EE903AB8EEE77AC6EE82
:10AA1000877A2A4BC3ED007A244BB3F9003007EE56
:10AA2000903AF8EEE76A224B1B6807EE903AB8EED0
:10AA3000E77AC6EE877A224BC3ED007A184B0022E4
:10AA40001A80184B00221A80174B00221A80174BCD
:10AA500000221A80164B00221A6000BFBD465DF826
:10AA6000047B7047F0420120848401201C000020F8
:10AA7000F8420120FE420120EE910120888401204D
:10AA80008684012002430120044301200043012069
:10AA900006430120B0830120D48401205492012078
:10AAA0008E840120C4850120748501201885012031
:10AAB0004883012050920120A88F0120B4830120F7
:10AAC0009084012080B487B000AF87ED010AC7ED04
:10AAD000000A0F4B7B614FF08E433B61D7ED056A57
:10AAE000D7ED047A86EEA77AD7ED017A67EE276A6A
:10AAF00097ED007AC6EE877AC7ED037AFB6807EE1A
:10AB0000903AB0EE670A1C37BD465DF8047B70478B
:10AB1000026F814280B400AF064B47F22F525A6257
:10AB2000054B47F22F525A6200BFBD465DF8047BC9
:10AB3000704700BF000400400008004080B483B0AC
:10AB400000AF0346FB80B7F90630002B02D100238B
:10AB5000FB8030E0B7F90630012B2CD11A4B5A6834
:10AB6000194B1B681344184A5360184B5A68174B0B
:10AB70001B681344154A5360134B5A68134B5B68A8
:10AB8000134407EE903AB8EEE77AF0EE006AC7EEAB
:10AB9000267AFDEEE77A17EE902A0D4B5A600A4BA3
:10ABA0001A680A4B1B681A440A4B1B681344094A6B
:10ABB00013600123FB80B7F9063018460C37BD46F9
:10ABC0005DF8047B704700BF440000205000002067
:10ABD0005C000020E842012090B585B000AF87ED11
:10ABE000000B0F4BD3E90034C7E9023400BFD7E9AB
:10ABF0000023D7E90201FDF781FA03460C46184607
:10AC00002146074BD3E900341A462346FDF7BCFE24
:10AC10000346002BEBD100BF1437BD4690BD00BFEB
:10AC2000E04201200000000080B500AF224B00226E
:10AC30001A70FEF7F9FE214B00225A60204B0022C9
:10AC40005A60204B00225A601F4B0122DA7005E047
:10AC50001D4B04225A711C4B01225A70174B5A6823
:10AC6000174B5B681344002B0FDB144B5A68144BD3
:10AC70005B6813441846FDF78DFB0DA3D3E9002351
:10AC8000FDF764FE0346002BE2D10F4B00225A7001
:10AC90000E4B0F4A1A60094B00225A60084B0022E3
:10ACA0005A60084B00225A6000BF80BDAFF300809D
:10ACB000787FED637488EE406C0200204400002031
:10ACC000500000205C00002068000020A842012005
:10ACD000000096430000000080B500AF4A4B002200
:10ACE0001A70FEF7A1FE494B03225A71484B00220D
:10ACF0005A60484B00225A60474B00225A60434B2F
:10AD00000122DA704DE0414B02225A70404B5A68E2
:10AD1000404B5B6813441846FDF73CFB36A3D3E970
:10AD20000023FDF731FE0346002B37D03B4BD3ED1C
:10AD3000007A9FED3B7AF4EEC77AF1EE10FA0DDD62
:10AD4000384BD3ED007A9FED387AF4EEC77AF1EE06
:10AD500010FA03DD2D4B00225A7122E0314BD3ED66
:10AD6000007A9FED317AF4EEC77AF1EE10FA03DD46
:10AD7000264B01225A7114E0284BD3ED007A9FED47
:10AD8000287AF4EEC77AF1EE10FA03DD1F4B0222A7
:10AD90005A7106E01D4B04225A7102E01B4B04223B
:10ADA0005A711B4B5A681B4B5B681344002B0FDB1B
:10ADB000174B5A68174B5B6813441846FDF7EAFABD
:10ADC0000FA3D3E90023FDF7C1FD0346002B9AD161
:10ADD0000E4B00225A70154B154A1A600C4B00227C
:10ADE0005A600C4B00225A600B4B00225A6000BF85
:10ADF00080BD00BFAFF30080E1EB98F21CB9D840F2
:10AE0000B13A23A73340E6406C02002068000020DE
:10AE100044000020500000205C000020A88F01208A
:10AE20000000C842B483012000000C43A842012066
:10AE3000000096430000000080B500AF4C4B032299
:10AE40005A7155E04A4B03225A704A4B59684A4B93
:10AE50005B681A4649480BF0A3FA464B5A68464BC2
:10AE60005B6813441846FDF795FA3DA3D3E9002328
:10AE7000FDF76CFD0346002B37D0414BD3ED007A34
:10AE80009FED407AF4EEC77AF1EE10FA0DDD3E4BFD
:10AE9000D3ED007A9FED3D7AF4EEC77AF1EE10FA29
:10AEA00003DD334B00225A7122E0374BD3ED007A99
:10AEB0009FED367AF4EEC77AF1EE10FA03DD2C4BF3
:10AEC00001225A7114E02E4BD3ED007A9FED2D7ABA
:10AED000F4EEC77AF1EE10FA03DD254B02225A7127
:10AEE00006E0234B04225A7102E0214B04225A71DE
:10AEF000204B5A68204B5B6813441846FDF74AFA0A
:10AF000019A3D3E90023FDF721FD0346002B12D03E
:10AF10001F4B93ED007A1F4BD3ED007A37EE277A63
:10AF2000F0EE006AC7EE267A9FED1B7AF4EEC77A40
:10AF3000F1EE10FA86D40E4B00225A700C4B05220B
:10AF40005A71164B4FF000021A60094B0022DA705A
:10AF5000134B00221A70FEF767FD00BF80BD00BFD3
:10AF6000414E8489EFAADD40B13A23A73340E64041
:10AF70006800002044000020500000209C8201084E
:10AF8000A88F01200000C842B483012000000C43B8
:10AF900050920120908401200080ED44A8420120BD
:10AFA0006C02002000000000B0B500AF7EE0544B02
:10AFB0005A68544B5B6813441846FDF7EBF9044696
:10AFC0000D46514BD3ED007A77EEA77A17EE900A33
:10AFD000FDF7F2F946A3D3E90023FDF745FA02464F
:10AFE0000B4620462946FDF7B1FC0346002B22D133
:10AFF000454BD3ED007A77EEA77A17EE900AFDF76E
:10B00000DBF93DA3D3E90023FDF776F803460C46B0
:10B0100025461C463A4B5A683A4B5B68134418461F
:10B02000FDF7B8F902460B4620462946FDF78EFC8F
:10B030000346002B37D0354BD3ED007A9FED347AA1
:10B04000F4EEC77AF1EE10FA0DDD324BD3ED007A53
:10B050009FED317AF4EEC77AF1EE10FA03DD2F4B53
:10B0600000225A711EE02B4BD3ED007A9FED2A7A15
:10B07000F4EEC77AF1EE10FA03DD284B01225A7183
:10B0800014E0224BD3ED007A9FED217AF4EEC77ADB
:10B09000F1EE10FA03DD214B02225A7106E01F4B3C
:10B0A00004225A7102E01D4B04225A71144B5A6853
:10B0B000144B5B68134407EE903AB8EEE77A124BF4
:10B0C000D3ED007A77EEA77AB4EEE77AF1EE10FAD4
:10B0D0003FF56DAF0A4B00225A600A4B00225A60BE
:10B0E0000F4B00225A6000BFB0BD00BFAFF300801D
:10B0F000CDCCCCCCCCCCDC3F424E8489EFAADD4019
:10B10000440000205000002000000020A88F0120F3
:10B110000000C842B483012000000C4368000020F6
:10B120005C000020000000002DE9B0432DED028BF3
:10B1300084B000AF034687ED000BFB73FEF7C8FF3A
:10B1400097F90F30002B37DA27E0474B93ED008B50
:10B15000464B1B681846FDF72FF904460D46434B36
:10B160005B681846FDF728F9804689463F4B9B6887
:10B170001846FDF721F902460B4643EC152B49EC26
:10B18000148B45EC134B9FED362BB0EE481AF0EEC6
:10B19000681A97ED000BFFF7CFF897F90F301846B4
:10B1A000FDF7F8F8324BD3E900341A462346FDF791
:10B1B000CDFB0346002BC8D197F90F30002B37DDAC
:10B1C00027E0294B93ED008B284B1B681846FDF7B1
:10B1D000F3F804460D46254B5B681846FDF7ECF87E
:10B1E00080468946214B9B681846FDF7E5F80246E4
:10B1F0000B4643EC152B49EC148B45EC134B9FEDA0
:10B20000182BB0EE481AF0EE681A97ED000BFFF716
:10B2100093F897F90F301846FDF7BCF8144BD3E9B3
:10B2200000341A462346FDF7AFFB0346002BC8D176
:10B23000104B0022DA70104A4FF000034FF0000468
:10B24000C2E900340A4A4FF000034FF00004C2E99B
:10B25000003400BF1037BD46BDEC028BBDE8B083A3
:10B26000FCA9F1D24D62503FC042012038000020BD
:10B27000B042012068000020B842012080B582B0B1
:10B2800000AF0023FB7145E0284B4FF000021A602D
:10B29000274B00221A70FEF7C7FB264B00225A608C
:10B2A000254B00225A60254B00225A60244B012274
:10B2B000DA7005E0224B03225A71224B224A1A60AF
:10B2C0001C4B5A681C4B5B68D31A07EE903AB8EED9
:10B2D000E77A1E4BD3ED007A77EEA77AB4EEE77AE1
:10B2E000F1EE10FAE6D9164B0022DA70154B4FF04A
:10B2F00000021A600D4B4FF000021A600D4B002245
:10B300005A600D4B00225A600C4B00225A60FB79A8
:10B310000133FB71FB79002BB6D0054B00221A706C
:10B32000FEF782FB00BF0837BD4680BDA842012062
:10B330006C02002044000020500000205C0000202F
:10B3400068000020AC4201200000A0C004000020E2
:10B3500080B582B000AF0023FB7145E0284B4FF071
:10B3600000021A60274B00221A70FEF75DFB264B85
:10B3700000225A60254B00225A60254B00225A6059
:10B38000244B0122DA7005E0224B03225A71224B32
:10B39000224A1A601D4B5A681B4B5B68D31A07EE92
:10B3A000903AB8EEE77A1E4BD3ED007A77EEA77AA3
:10B3B000B4EEE77AF1EE10FAE6D9164B0022DA7015
:10B3C000154B4FF000021A600D4B4FF000021A604F
:10B3D0000D4B00225A600D4B00225A600C4B00228C
:10B3E0005A60FB790133FB71FB79002BB6D0054B1A
:10B3F00000221A70FEF718FB00BF0837BD4680BD5B
:10B40000A84201206C0200204400002050000020CF
:10B410005C00002068000020AC4201200000A04039
:10B42000040000200000000098B500AF504B062239
:10B430005A7102E04E4B06225A704E4B5A684E4BE0
:10B440005B6813441846FCF7A5FF3FA3D3E900232C
:10B45000FDF77CFA0346002BECD1454B00225A70D5
:10B4600021E0464B464A1A60464B474A1A60454B14
:10B470001B681846FCF7A0FF35A3D3E90023FCF7AF
:10B48000F3FF03460C461846214633A3D3E90023B5
:10B49000FDF714F903460C4618462146FDF7BCFAA1
:10B4A00002463A4B1A60334B5A68334B5B6813447D
:10B4B0001846FCF76FFF24A3D3E90023FDF75AFADF
:10B4C0000346002B0FD02B4B5A682B4B5B68134461
:10B4D0001846FCF75FFF22A3D3E90023FDF736FAF5
:10B4E0000346002BBDD102E0214B07225A70214BAD
:10B4F0005A68214B5B6813441846FCF74BFF1AA3AC
:10B50000D3E90023FDF722FA0346002BECD1184BB8
:10B5100000225A70164B04225A71164B00225A60B0
:10B52000154B00225A601A4B00225A60154B4FF0FF
:10B5300000021A60154B4FF000021A600F4B154ABB
:10B540001A6000BF98BD00BF39484F2382F0B74052
:10B55000CDCCCCCCCCCC4B409A99999999195F40E1
:10B560000D08A05F82F5EF408AF80452C979F140D6
:10B57000680000204400002050000020A842012064
:10B580000000344394830120CDCC784374830120A0
:10B590005C0000200000964398B500AF504B062297
:10B5A0005A7102E04E4B04225A704E4B5A684E4B71
:10B5B0005B6813441846FCF7EDFE3FA3D3E9002374
:10B5C000FDF7C4F90346002BECD1454B00225A701D
:10B5D00021E0464B464A1A60464B474A1A60454BA3
:10B5E0001B681846FCF7E8FE35A3D3E90023FCF7F7
:10B5F0003BFF03460C461846214633A3D3E90023FC
:10B60000FDF75CF803460C4618462146FDF704FAA0
:10B6100002463A4B1A60334B5A68334B5B6813440B
:10B620001846FCF7B7FE24A3D3E90023FDF7A2F9DF
:10B630000346002B0FD02B4B5A682B4B5B681344EF
:10B640001846FCF7A7FE22A3D3E90023FDF77EF9F5
:10B650000346002BBDD102E0214B05225A70214B3D
:10B660005A68214B5B6813441846FCF793FE1AA3F3
:10B67000D3E90023FDF76AF90346002BECD1184B00
:10B6800000225A70164B04225A71164B00225A603F
:10B69000154B00225A601A4B00225A60174B4FF08C
:10B6A00000021A60134B4FF000021A600F4B154A4C
:10B6B0001A6000BF98BD00BF39484F2382F0B740E1
:10B6C000CDCCCCCCCCCC4B409A99999999195F4070
:10B6D0000D08A05F82F5EF408AF80452C979F14065
:10B6E000680000204400002050000020A8420120F3
:10B6F0000000344374830120CDCC7843948301202F
:10B700005C0000200000964380B500AF70E0544B11
:10B710005A68544B5B6813441846FCF73BFE4AA337
:10B72000D3E90023FDF712F90346002B05D04E4B59
:10B7300004225A714D4B4E4A1A60494B5A68494B84
:10B740005B6813441846FCF725FE3FA3D3E90023AA
:10B75000FDF710F90346002B22D0414B5A68414BAC
:10B760005B6813441846FCF715FE39A3D3E90023A0
:10B77000FDF7ECF80346002B12D03B4B06225A7122
:10B780003A4B3B4A1A603B4B3B4A1A60394BD3ED6C
:10B79000007A9FED3A7A67EE877A394BC3ED007AEB
:10B7A0002F4B5A682F4B5B6813441846FCF7F2FD89
:10B7B00027A3D3E90023FDF7DDF80346002B00D1D2
:10B7C00016E0274B5A68274B5B6813441846FCF772
:10B7D000E1FD21A3D3E90023FDF7B8F80346002BD0
:10B7E00000D105E0204B04225A71204B204A1A60F8
:10B7F0001B4B5A681B4B5B6813441846FCF7CAFD89
:10B8000015A3D3E90023FDF7A1F80346002B7FF42D
:10B810007EAF154B04225A71114B00225A60114B16
:10B8200000225A60174B00225A60124B4FF0000260
:10B830001A60134B4FF000021A600C4B124A1A6048
:10B8400000BF80BDAFF3008092BC1C47F97DDB4098
:10B85000D6FF77B2F21AEB40102F03ABF76CF4402F
:10B86000440000205000002068000020A842012071
:10B8700000003443948301200000B4430000000022
:10B88000748301205C00002000009643000000004B
:10B8900080B500AF70E0544B5A68544B5B6813445A
:10B8A0001846FCF777FD4AA3D3E90023FDF74EF8CD
:10B8B0000346002B05D04E4B04225A714D4B4E4A85
:10B8C0001A60494B5A68494B5B6813441846FCF7A9
:10B8D00061FD3FA3D3E90023FDF74CF80346002B9D
:10B8E00022D0414B5A68414B5B6813441846FCF721
:10B8F00051FD39A3D3E90023FDF728F80346002BB7
:10B9000012D03B4B06225A713A4B3B4A1A603B4BD2
:10B910003B4A1A60394BD3ED007A9FED3A7A67EED5
:10B92000877A394BC3ED007A2F4B5A682F4B5B68EF
:10B9300013441846FCF72EFD27A3D3E90023FDF797
:10B9400019F80346002B00D116E0274B5A68274B05
:10B950005B6813441846FCF71DFD21A3D3E90023BF
:10B96000FCF7F4FF0346002B00D105E0204B042236
:10B970005A71204B204A1A601B4B5A681B4B5B685C
:10B9800013441846FCF706FD15A3D3E90023FCF782
:10B99000DDFF0346002B7FF47EAF154B04225A7166
:10B9A000114B00225A60114B00225A60174B0022A3
:10B9B0005A60154B4FF000021A60104B4FF0000216
:10B9C0001A600C4B124A1A6000BF80BDAFF30080B2
:10B9D00092BC1C47F97DDB40D6FF77B2F21AEB40F0
:10B9E000102F03ABF76CF4404400002050000020FF
:10B9F00068000020A8420120000034437483012025
:10BA00000000B44300000000948301205C0000208B
:10BA10000000964380B582B000AF0023FB7154E074
:10BA2000304B4FF000021A602F4B00221A70FDF7C6
:10BA3000FBFF2E4B00225A602D4B00225A602D4BEB
:10BA400000225A602C4B0122DA7005E02A4B0322B7
:10BA50005A712A4B2A4A1A60244B5B6807EE903AC7
:10BA6000B8EEE77A274BD3ED007A77EEA77AB4EEFB
:10BA7000E77AF1EE10FAE9D91D4B5B6807EE903AD0
:10BA8000B8EEE77A1F4BD3ED007AF1EE677A77EEE6
:10BA9000A77AB4EEE77AF1EE10FAD7DA164B002265
:10BAA000DA70104B4FF000021A60144B4FF0000296
:10BAB0001A600E4B00225A600D4B00225A600D4B4B
:10BAC00000225A60FB790133FB71FB79002BA7D070
:10BAD000054B00221A70FDF7A7FF00BF0837BD46CF
:10BAE00080BD00BFA84201206C020020440000205D
:10BAF000500000205C00002068000020AC420120C3
:10BB00000000C0C00400002080B582B000AF2A4B06
:10BB100000221A70FDF788FF284B00225A60284B3C
:10BB200000225A60274B00225A60274B0122DA700C
:10BB300005E0264B264A1A60234B04225A711F4BFC
:10BB40005A681F4B5B6813441846FCF723FC18A384
:10BB5000D3E90023FCF718FF0346002BE9D11B4B68
:10BB60004FF000021A60184B05225A71164B002242
:10BB7000DA70124B00225A60114B00225A60114BAE
:10BB800000225A600C4B00221A70FDF74DFF002373
:10BB90007B6002E07B6801337B607B680D4A9342E7
:10BBA000F8DD00BF0837BD4680BD00BFAFF30080A1
:10BBB000EFEB7F105482D5C06C02002044000020BF
:10BBC000500000205C00002068000020A8420120F6
:10BBD0000000B4C2BFD4010080B500AF1E4B5B7A39
:10BBE000032B2DD801A252F823F000BFFDBB0008A3
:10BBF0001BBC000821BC000827BC0008FFF71CF98B
:10BC00009FED110BFEF7E8FFFFF738FB9FED0E0BE2
:10BC1000FEF7E2FFFFF760F812E0FFF705FC0FE028
:10BC2000FFF772FD0CE0FFF707F99FED090B6FF0CE
:10BC30005900FFF779FAFDF74BFEFFF74DF800BF0B
:10BC400000BF80BDAFF30080333333333333D33F92
:10BC500000000000000014C0680000200000000088
:10BC600080B500AF1E4B5B7A032B2CD801A252F893
:10BC700023F000BF85BC0008A3BC0008A9BC0008D5
:10BC8000AFBC0008FFF7D8F89FED110BFEF7A4FF3B
:10BC9000FFF75EFB9FED0E0BFEF79EFFFFF71CF814
:10BCA00011E0FFF779FC0EE0FFF7F2FD0BE0FFF784
:10BCB000C3F89FED090B5A20FFF736FAFDF708FE8F
:10BCC000FFF70AF800BF00BF80BD00BFAFF30080E0
:10BCD000333333333333D33F0000000000001440CC
:10BCE0006800002080B500AF4FF480515B4806F03B
:10BCF0008BFC0346012B40F0A38059480AF0C4FB9B
:10BD0000FEF700FA574807F0B6FE574807F0B3FEB3
:10BD1000FEF788F9FEF7B4F94FF4C87004F0B6FCEA
:10BD2000524B93F90430DBB20133DBB25AB24F4BC2
:10BD30001A714E4B93F90430052B40F081804B4B28
:10BD400003221A717CE04A4B5B6A1A46494B1A601F
:10BD5000484B1B68194648480AF022FB454B1B68B4
:10BD600049F22E5293421EDD404B93F90030DBB274
:10BD70000133DBB25AB23D4B1A703C4B93F90030A1
:10BD8000072B02DD394B00221A70FEF75FFCFEF72D
:10BD9000C1FE364B93F90020344B9A704FF4FA7081
:10BDA00004F074FC4CE0334B1B6845F22F52934275
:10BDB0001EDC2E4B93F90030DBB2013BDBB25AB2F2
:10BDC0002A4B1A70294B93F90030002B02DA274BCB
:10BDD00007221A70FEF73AFCFEF79CFE234B93F9FC
:10BDE0000020224B9A704FF4FA7004F04FFC27E0C9
:10BDF0004FF48051194806F007FC0346012B1FD170
:10BE00001E480AF041FB4FF4FA7004F03FFCFEF7C5
:10BE100093F9174B47F22F525A62194B47F22F52A0
:10BE20005A62114807F003FE0E4807F000FE0F4B60
:10BE300093F90430DBB20133DBB25AB20B4B1A7107
:10BE40000A4B93F90430002B03F00103B8BF5B42A7
:10BE50005BB2012B3FF477AF00BF80BD000402400E
:10BE6000A8820108808B0120B8830120680000208F
:10BE70000004004044000020B48201080882010848
:10BE80000008004080B485B000AF0023FB600023B1
:10BE9000BB6000237B6000233B600023FB6013E05A
:10BEA0000023BB600AE0934AFB681B011A44BB688D
:10BEB0001344FF221A70BB680133BB60BB680F2BB1
:10BEC000F1DDFB680133FB60FB680F2BE8DD062327
:10BED000FB6013E00423BB600AE0864AFB681B0199
:10BEE0001A44BB68134400221A70BB680133BB605C
:10BEF000BB68052BF1DDFB680133FB60FB68072B9A
:10BF0000E8DD00237B600023FB60E2E00023BB60F0
:10BF1000D8E0784AFB681B011A44BB6813441B78BD
:10BF20001A463B68934240F0CA807349FB681A0185
:10BF3000BB68134411F81330C3F30103DBB2012BC8
:10BF400025D0BB6801336B49FA6812010A441344D7
:10BF50001A786849FB681B011944BB680B441B78BD
:10BF60009A4214D9BB680E2B11DC624AFB681B0194
:10BF70001A44BB6813441A78BB6801330132D0B24B
:10BF80005C49FA6812010A44134402461A705A497D
:10BF9000FB681A01BB68134411F81330C3F3810323
:10BFA000DBB2012B25D0FB680133524A1B011A4436
:10BFB000BB6813441A784F49FB681B011944BB68DE
:10BFC0000B441B789A4214D9FB680E2B11DC494AAA
:10BFD000FB681B011A44BB6813441A78FB680133E1
:10BFE0000132D1B2434A1B011A44BB6813440A46CA
:10BFF0001A704149FB681A01BB68134411F81330E9
:10C00000C3F30113DBB2012B25D0BB68013B3949D7
:10C01000FA6812010A4413441A783649FB681B0176
:10C020001944BB680B441B789A4214D9BB68002B97
:10C0300011DD304AFB681B011A44BB6813441A78AF
:10C04000BB68013B0132D0B22A49FA6812010A44A6
:10C05000134402461A702849FB681A01BB6813444E
:10C0600011F81330C3F38113DBB2012B25D0FB6829
:10C07000013B204A1B011A44BB6813441A781D492E
:10C08000FB681B011944BB680B441B789A4214D906
:10C09000FB68002B11DD174AFB681B011A44BB68C3
:10C0A00013441A78FB68013B0132D1B2114A1B01DB
:10C0B0001A44BB6813440A461A7001237B60BB68AC
:10C0C0000133BB60BB680F2B7FF723AFFB680133E5
:10C0D000FB60FB680F2B7FF719AF3B6801333B60B8
:10C0E0007B68002B7FF40DAF00BF1437BD465DF8B1
:10C0F000047B7047548A0120AC8F012080B500AFCB
:10C100004FF47A7004F0C2FAFEF7E6FDFEF74CFF3A
:10C11000FEF74AFFFEF790FEFDF7F4FF0A4807F02E
:10C12000AAFC0A4807F0A7FC094B1B6819460948F6
:10C130000AF036F9084B1B68194608480AF030F92E
:10C1400007480AF0A1F9EFE7808B0120B8830120AE
:10C15000EC420120BC820108E8420120E082010893
:10C160000882010890B482B000AF8B4B93ED007A47
:10C170008A4BD3ED007A37EE277AF0EE006AC7EEED
:10C18000267AB3EE0E7AF4EEC77AF1EE10FACCBF4F
:10C1900001230023DAB2824B1B7807F108010B441C
:10C1A00003F8042C7F4BD3ED007A9FED7F7AF4EEF9
:10C1B000C77AF1EE10FACCBF01230023D9B2784B35
:10C1C0001B7801335A4203F0030302F0030258BF05
:10C1D00053420A4607F108010B4403F8042C704B44
:10C1E0001B7802335A4203F0030302F0030258BFE4
:10C1F000534207F108021344002203F8042C6B4B4E
:10C20000D3ED007A9FED6A7AF4EEC77AF1EE10FA78
:10C21000CCBF01230023D9B2614B1B7803335A42B0
:10C2200003F0030302F0030258BF53420A4607F12A
:10C2300008010B4403F8042C39795E4B1B781C462B
:10C240005D4B1B781A460B4603F00303D8B25B49DB
:10C2500023011A4411F8123060F3010301F812307F
:10C260007979544B1B781C46534B1B781A460B4666
:10C2700003F00303D8B2514923011A4411F81230D4
:10C2800060F3830301F81230B9794A4B1B781C46DE
:10C29000494B1B781A460B4603F00303D8B24749B3
:10C2A00023011A4411F8123060F3051301F812301B
:10C2B000F979404B1B781C463F4B1B781A460B46BE
:10C2C00003F00303D8B23D4923011A4411F8123098
:10C2D00060F3871301F81230374B1B780E2B12D8FE
:10C2E0003979344B1B781A46334B1B78013301F0F4
:10C2F0000301C8B2314912011A4411F8123060F337
:10C30000051301F812302B4B1B780E2B11D87979BD
:10C31000284B1B780133284A127801F00301C8B278
:10C3200026491B011A4411F8123060F3871301F8F3
:10C330001230214B1B78002B12D0B9791D4B1B7882
:10C340001A461D4B1B78013B01F00301C8B21B4983
:10C3500012011A4411F8123060F3010301F812308F
:10C36000144B1B78002B11D0F979124B1B78013B31
:10C37000114A127801F00301C8B210491B011A4496
:10C3800011F8123060F3830301F8123000BF083750
:10C39000BD4690BC704700BF5092012090840120A0
:10C3A0008A840120A88F01200000C842B4830120A4
:10C3B00000000C43FC420120FD420120AC8F012013
:10C3C00080B5BEB000AFFFF7CDFEFFF75BFDCC4BF5
:10C3D0001B78032B00F2F78601A252F823F000BF6E
:10C3E000F1C30008A5C700084FCB00088BCE00089A
:10C3F000FEF772FCFEF720FDC24B1B780133DAB268
:10C40000C04B1A70FFF7AEFE0023C7F8F03004E00F
:10C41000D7F8F0300133C7F8F030D7F8F000FBF769
:10C42000B9FFB5A3D3E90023FCF790FA0346002B2C
:10C43000EED1B54B1B78062B03D1522387F8F7308A
:10C4400006E0B14B1B78072B02D14C2387F8F7305D
:10C4500097F8F730522B40F0C980FEF70FFFA84B3A
:10C4600001221A700023C7F8EC3004E0D7F8EC3052
:10C470000133C7F8EC30D7F8EC00FBF78BFF9EA335
:10C48000D3E90023FCF762FA0346002BEED1FEF756
:10C4900023FCFEF7D1FC9C4B1B780133DAB29A4B9C
:10C4A0001A70FFF75FFE0023C7F8E83004E0D7F802
:10C4B000E8300133C7F8E830D7F8E800FBF76AFF47
:10C4C0008DA3D3E90023FCF741FA0346002BEED1FC
:10C4D000FEF7D4FE8A4B02221A700023C7F8E4301C
:10C4E00004E0D7F8E4300133C7F8E430D7F8E400CB
:10C4F000FBF750FF80A3D3E90023FCF727FA03469C
:10C50000002BEED1FEF7E8FBFEF796FC7D4B1B7887
:10C51000013BDAB27B4B1A70FFF724FE0023C7F809
:10C52000E03004E0D7F8E0300133C7F8E030D7F866
:10C53000E000FBF72FFF70A3D3E90023FCF706FA16
:10C540000346002BEED1FEF799FE6D4B03221A70C5
:10C550000023C7F8DC3004E0D7F8DC300133C7F83B
:10C56000DC30D7F8DC00FBF715FF63A3D3E9002329
:10C57000FCF7ECF90346002BEED1FEF7ADFBFEF71E
:10C580005BFC604B1B78013BDAB25E4B1A700023F8
:10C59000C7F8D83004E0D7F8D8300133C7F8D8301E
:10C5A000D7F8D800FBF7F6FE53A3D3E90023FCF736
:10C5B000CDF90346002BEED1FEF7CAFE504B022206
:10C5C0001A700023C7F8D43004E0D7F8D430013310
:10C5D000C7F8D430D7F8D400FBF7DCFE46A3D3E984
:10C5E0000023FCF7B3F90346002BEED197F8F730A0
:10C5F0004C2B40F0EA85FEF7ABFE414B03221A704C
:10C600000023C7F8D03004E0D7F8D0300133C7F8A2
:10C61000D030D7F8D000FBF7BDFE37A3D3E9002315
:10C62000FCF794F90346002BEED1FEF755FBFEF71D
:10C6300003FC354B1B78013BDAB2334B1A70FFF722
:10C6400091FD0023C7F8CC3004E0D7F8CC3001339B
:10C65000C7F8CC30D7F8CC00FBF79CFE26A3D3E973
:10C660000023FCF773F90346002BEED1FEF770FEB2
:10C67000234B02221A700023C7F8C83004E0D7F811
:10C68000C8300133C7F8C830D7F8C800FBF782FEBE
:10C6900019A3D3E90023FCF759F90346002BEED187
:10C6A000FEF71AFBFEF7C8FB164B1B78013BDAB20C
:10C6B000144B1A70FFF756FD0023C7F8C43004E08E
:10C6C000D7F8C4300133C7F8C430D7F8C400FBF73B
:10C6D00061FE09A3D3E90023FCF738F90346002BD8
:10C6E000EED1FEF735FE064B01221A700023C7F883
:10C6F000C03010E0AFF3008000000000004CCD40DF
:10C700008A840120FD420120FC420120D7F8C0307C
:10C710000133C7F8C030D7F8C000FBF73BFED6A303
:10C72000D3E90023FCF712F90346002BEED1FEF704
:10C73000D3FAFEF781FBD24B1B780133DAB2D04B30
:10C740001A700023C7F8BC3004E0D7F8BC300133BE
:10C75000C7F8BC30D7F8BC00FBF71CFEC6A3D3E972
:10C760000023FCF7F3F80346002BEED1FEF786FD1D
:10C77000C44B00221A700023C7F8B83004E0D7F881
:10C78000B8300133C7F8B830D7F8B800FBF702FE6D
:10C79000B9A3D3E90023FCF7D9F80346002BEED167
:10C7A00000F013BDFEF798FAFEF746FBB44B1B787A
:10C7B0000133DAB2B24B1A70FFF7D4FC0023C7F88A
:10C7C000B43004E0D7F8B4300133C7F8B430D7F848
:10C7D000B400FBF7DFFDA8A3D3E90023FCF7B6F80C
:10C7E0000346002BEED1A84B1B78042B03D14C231E
:10C7F00087F8F73006E0A44B1B78052B02D15223B3
:10C8000087F8F73097F8F730522B40F0C980FEF7E1
:10C8100035FD9C4B02221A700023C7F8B03004E0AB
:10C82000D7F8B0300133C7F8B030D7F8B000FBF715
:10C83000B1FD91A3D3E90023FCF788F80346002B50
:10C84000EED1FEF749FAFEF7F7FA8F4B1B78013B62
:10C85000DAB28D4B1A70FFF785FC0023C7F8AC30B5
:10C8600004E0D7F8AC300133C7F8AC30D7F8AC00EF
:10C87000FBF790FD80A3D3E90023FCF767F803469C
:10C88000002BEED1FEF7FAFC7E4B03221A70002338
:10C89000C7F8A83004E0D7F8A8300133C7F8A830AB
:10C8A000D7F8A800FBF776FD73A3D3E90023FCF7C4
:10C8B0004DF80346002BEED1FEF70EFAFEF7BCFA58
:10C8C0006F4B1B78013BDAB26D4B1A70FFF74AFCD5
:10C8D0000023C7F8A43004E0D7F8A4300133C7F828
:10C8E000A430D7F8A400FBF755FD63A3D3E90023D8
:10C8F000FCF72CF80346002BEED1FEF7BFFC614B92
:10C9000000221A700023C7F8A03004E0D7F8A03046
:10C910000133C7F8A030D7F8A000FBF73BFD56A3C2
:10C92000D3E90023FCF712F80346002BEED1FEF703
:10C93000D3F9FEF781FA544B1B780133DAB2524B2C
:10C940001A700023C7F89C3004E0D7F89C300133FC
:10C95000C7F89C30D7F89C00FBF71CFD46A3D3E931
:10C960000023FBF7F3FF0346002BEED1FEF7F0FCAC
:10C97000444B03221A700023C7F8983004E0D7F81C
:10C9800098300133C7F89830D7F89800FBF702FDCC
:10C9900039A3D3E90023FBF7D9FF0346002BEED1DF
:10C9A00097F8F7304C2B40F01284FEF7D1FC354B52
:10C9B00000221A700023C7F8943004E0D7F89430AE
:10C9C0000133C7F89430D7F89400FBF7E3FC2AA3AF
:10C9D000D3E90023FBF7BAFF0346002BEED1FEF7A5
:10C9E0007BF9FEF729FA284B1B780133DAB2264B84
:10C9F0001A70FFF7B7FB0023C7F8903004E0D7F8B0
:10CA000090300133C7F89030D7F89000FBF7C2FCA4
:10CA100019A3D3E90023FBF799FF0346002BEED1BE
:10CA2000FEF796FC174B03221A700023C7F88C30D0
:10CA300004E0D7F88C300133C7F88C30D7F88C007D
:10CA4000FBF7A8FC0CA3D3E90023FBF77FFF034609
:10CA5000002BEED1FEF740F9FEF7EEF9084B1B78FC
:10CA6000013BDAB2064B1A70FFF77CFB0023C7F8D4
:10CA7000883010E0AFF3008000000000004CCD4093
:10CA8000FC4201208A840120FD420120D7F8883031
:10CA90000133C7F88830D7F88800FBF77BFCBCA3CC
:10CAA000D3E90023FBF752FF0346002BEED1FEF73C
:10CAB0004FFCB94B02221A700023C7F8843004E0FF
:10CAC000D7F884300133C7F88430D7F88400FBF7F7
:10CAD00061FCAFA3D3E90023FBF738FF0346002B2B
:10CAE000EED1FEF7F9F8FEF7A7F9AC4B1B78013B46
:10CAF000DAB2AA4B1A700023C7F8803004E0D7F8E6
:10CB000080300133C7F88030D7F88000FBF742FC53
:10CB10009FA3D3E90023FBF719FF0346002BEED1B7
:10CB2000FEF7ACFB9C4B03221A700023FB6702E06C
:10CB3000FB6F0133FB67F86FFBF72CFC94A3D3E981
:10CB40000023FBF703FF0346002BF1D13FE3FEF781
:10CB5000C3F8FEF771F9914B1B78013BDAB28F4BAA
:10CB60001A70FFF7FFFA0023BB6702E0BB6F0133C7
:10CB7000BB67B86FFBF70EFC85A3D3E90023FBF777
:10CB8000E5FE0346002BF1D1854B1B78062B03D124
:10CB90004C2387F8F73006E0814B1B78072B02D136
:10CBA000522387F8F73097F8F730522B40F0AD80DA
:10CBB000FEF764FB784B03221A7000237B6702E0C8
:10CBC0007B6F01337B67786FFBF7E4FB70A3D3E9DE
:10CBD0000023FBF7BBFE0346002BF1D1FEF77CF8E8
:10CBE000FEF72AF96E4B1B78013BDAB26C4B1A70D8
:10CBF000FFF7B8FA00233B6702E03B6F01333B6766
:10CC0000386FFBF7C7FB62A3D3E90023FBF79EFE57
:10CC10000346002BF1D1FEF731FB5F4B00221A7067
:10CC20000023FB6602E0FB6E0133FB66F86EFBF748
:10CC3000B1FB57A3D3E90023FBF788FE0346002B83
:10CC4000F1D1FEF749F8FEF7F7F8544B1B780133A2
:10CC5000DAB2524B1A70FFF785FA0023BB6602E086
:10CC6000BB6E0133BB66B86EFBF794FB48A3D3E9F8
:10CC70000023FBF76BFE0346002BF1D1FEF7FEFA13
:10CC8000454B01221A7000237B6602E07B6E013364
:10CC90007B66786EFBF77EFB3DA3D3E90023FBF7B1
:10CCA00055FE0346002BF1D1FEF716F8FEF7C4F847
:10CCB0003B4B1B780133DAB2394B1A7000233B66C9
:10CCC00002E03B6E01333B66386EFBF763FB30A33B
:10CCD000D3E90023FBF73AFE0346002BF1D1FEF720
:10CCE00037FB2D4B00221A700023FB6502E0FB6D21
:10CCF0000133FB65F86DFBF74DFB25A3D3E900235A
:10CD0000FBF724FE0346002BF1D197F8F7304C2BAC
:10CD100040F05F82FEF71CFB1F4B01221A700023BC
:10CD2000BB6502E0BB6D0133BB65B86DFBF732FB41
:10CD300017A3D3E90023FBF709FE0346002BF1D12B
:10CD4000FDF7CAFFFEF778F8154B1B780133DAB20E
:10CD5000134B1A70FFF706FA00237B6502E07B6D28
:10CD600001337B65786DFBF715FB09A3D3E900233D
:10CD7000FBF7ECFD0346002BF1D1FEF7E9FA064B79
:10CD800000221A7000233B650FE000BFAFF3008064
:10CD900000000000004CCD408A840120FD420120AB
:10CDA000FC4201203B6D01333B65386DFBF7F2FA25
:10CDB000BBA3D3E90023FBF7C9FD0346002BF1D148
:10CDC000FDF78AFFFEF738F8B74B1B780133DAB26C
:10CDD000B54B1A70FFF7C6F90023FB6402E0FB6C49
:10CDE0000133FB64F86CFBF7D5FAADA3D3E900235C
:10CDF000FBF7ACFD0346002BF1D1FEF7A9FAAB4BD4
:10CE000003221A700023BB6402E0BB6C0133BB64D5
:10CE1000B86CFBF7BFFAA2A3D3E90023FBF796FD9A
:10CE20000346002BF1D1FDF757FFFEF705F8A04BA5
:10CE30001B78013BDAB29E4B1A7000237B6402E040
:10CE40007B6C01337B64786CFBF7A4FA94A3D3E981
:10CE50000023FBF77BFD0346002BF1D1FEF70EFA12
:10CE6000924B00221A7000233B6402E03B6C0133BA
:10CE70003B64386CFBF78EFA89A3D3E90023FBF7F8
:10CE800065FD0346002BF1D1A3E1FDF725FFFDF77A
:10CE9000D3FF874B1B78013BDAB2854B1A70FFF743
:10CEA00061F90023FB6302E0FB6B0133FB63F86B6A
:10CEB000FBF770FA7AA3D3E90023FBF747FD03469B
:10CEC000002BF1D1784B1B78042B03D1522387F828
:10CED000F73006E0744B1B78052B02D14C2387F802
:10CEE000F73097F8F730522B40F0AD80FEF7C6F9D7
:10CEF0006E4B00221A700023BB6302E0BB6B013350
:10CF0000BB63B86BFBF746FA65A3D3E90023FBF7D5
:10CF10001DFD0346002BF1D1FDF7DEFEFDF78CFF72
:10CF2000614B1B780133DAB25F4B1A70FFF71AF9C5
:10CF300000237B6302E07B6B01337B63786BFBF741
:10CF400029FA57A3D3E90023FBF700FD0346002B82
:10CF5000F1D1FEF793F9554B01221A7000233B6380
:10CF600002E03B6B01333B63386BFBF713FA4CA3D6
:10CF7000D3E90023FBF7EAFC0346002BF1D1FDF7D0
:10CF8000ABFEFDF759FF4A4B1B780133DAB2484B31
:10CF90001A70FFF7E7F80023FB6202E0FB6A013337
:10CFA000FB62F86AFBF7F6F93DA3D3E90023FBF730
:10CFB000CDFC0346002BF1D1FEF760F93B4B02227A
:10CFC0001A700023BB6202E0BB6A0133BB62B86A1D
:10CFD000FBF7E0F932A3D3E90023FBF7B7FC0346E4
:10CFE000002BF1D1FDF778FEFDF726FF2E4B1B78C5
:10CFF000013BDAB22C4B1A7000237B6202E07B6AA1
:10D0000001337B62786AFBF7C5F925A3D3E90023D6
:10D01000FBF79CFC0346002BF1D1FEF799F9234B5B
:10D0200001221A7000233B6202E03B6A01333B623B
:10D03000386AFBF7AFF91AA3D3E90023FBF786FCA4
:10D040000346002BF1D197F8F7304C2B40F0C3800A
:10D05000FEF77EF9154B02221A700023FB6102E0F5
:10D06000FB690133FB61F869FBF794F90CA3D3E981
:10D070000023FBF76BFC0346002BF1D1FDF72CFEE0
:10D08000FDF7DAFE084B1B78013BDAB2064B1A704B
:10D09000FFF768F80023BB610FE000BFAFF300802B
:10D0A00000000000004CCD40FD4201208A84012098
:10D0B000FC420120BB690133BB61B869FBF76AF927
:10D0C00049A3D3E90023FBF741FC0346002BF1D130
:10D0D000FEF73EF9464B01221A7000237B6102E005
:10D0E0007B6901337B617869FBF754F93EA3D3E98F
:10D0F0000023FBF72BFC0346002BF1D1FDF7ECFDE1
:10D10000FDF79AFE3B4B1B780133DAB2394B1A70AC
:10D11000FFF728F800233B6102E03B6901333B61E4
:10D120003869FBF737F930A3D3E90023FBF70EFC8E
:10D130000346002BF1D1FEF70BF92D4B00221A709C
:10D140000023FB6002E0FB680133FB60F868FBF73B
:10D1500021F925A3D3E90023FBF7F8FB0346002BB5
:10D16000F1D1FDF7B9FDFDF767FE234B1B780133C5
:10D17000DAB2214B1A700023BB6002E0BB680133B6
:10D18000BB60B868FBF706F917A3D3E90023FBF7E8
:10D19000DDFB0346002BF1D1FEF770F8144B0122A2
:10D1A0001A7000237B6002E07B6801337B60786843
:10D1B000FBF7F0F80CA3D3E90023FBF7C7FB03460A
:10D1C000002BF1D107E000BF06E000BF04E000BF84
:10D1D00002E000BF00E000BFFEF754FE00BFF837DA
:10D1E000BD4680BDAFF3008000000000004CCD4084
:10D1F0008A840120FC420120FD4201200000000041
:10D2000098B500AFAA4B00225A72AA4B1B78032B89
:10D2100000F2648301A252F823F000BF2DD200086F
:10D22000C9D3000885D5000841D70008A24B1B7858
:10D230001846A24B1B781946A14A03010B4412F869
:10D240001330C3F30103DBB2002B27D19A4B1B78B9
:10D250001A469A4B1B7801339A4912010A44134427
:10D260001A78954B1B781C46944B1B7818469549A9
:10D2700023010B4403441B789A420FD28F4B1B7837
:10D280000E2B0BD8FDF790FE8A4B00221A708B4BA9
:10D290001B780133DAB2894B1A7094E0864B1B7805
:10D2A0001846864B1B781946854A03010B4412F831
:10D2B0001330C3F38113DBB2002B27D17E4B1B78D5
:10D2C000013B7E4A127811467E4A1B0113440B44EF
:10D2D0001A78794B1B781C46784B1B78184679498D
:10D2E00023010B4403441B789A420FD2724B1B78E4
:10D2F000002B0BD0FEF7B4FC6E4B03221A706E4B62
:10D300001B78013BDAB26C4B1A705CE06A4B1B78FD
:10D3100018466A4B1B781946694A03010B4412F8F8
:10D320001330C3F38103DBB2002B27D1624B1B7890
:10D330000133624A12781146624A1B0113440B44BE
:10D340001A785D4B1B781C465C4B1B7818465D4970
:10D3500023010B4403441B789A420FD2564B1B788F
:10D360000E2B0BD8FEF738FC524B01221A70524B91
:10D370001B780133DAB2504B1A7024E0FDF75CFDE4
:10D380009FED490BFDF728FC494B93F90230012B27
:10D3900001D1FCF7B7FEFEF73DFB9FED430BFDF718
:10D3A0001BFCFEF7B1FB9FED400BFDF715FCFDF7F5
:10D3B0003BFC404B02221A70404B1B78013BDAB217
:10D3C0003E4B1A708BE28AE23B4B1B7818463B4B74
:10D3D0001B7819463A4A03010B4412F81330C3F381
:10D3E0008103DBB2002B27D1334B1B780133334A47
:10D3F00012781146334A1B0113440B441A782E4B02
:10D400001B781C462D4B1B7818462E4923010B44D4
:10D4100003441B789A420FD2274B1B780E2B0BD854
:10D42000FDF7C2FD234B01221A70234B1B780133F9
:10D43000DAB2214B1A70A4E01F4B1B7818461F4B21
:10D440001B7819461E4A03010B4412F81330C3F32C
:10D450000103DBB2002B37D1174B1B781A46174B51
:10D460001B780133174912010A4413441A78124BEE
:10D470001B781C46114B1B781846124923010B449C
:10D4800003441B789A421FD20C4B1B780E2B1BD8DF
:10D49000FEF7E6FB074B00221A70084B1B7801339E
:10D4A000DAB2064B1A706CE0333333333333D33F85
:10D4B000680000208A840120FC420120FD420120F6
:10D4C000AC8F0120548A0120974B1B781846974B4C
:10D4D0001B781946964A03010B4412F81330C3F324
:10D4E0000113DBB2002B27D18F4B1B781A468F4BD1
:10D4F0001B78013B8F4912010A4413441A788A4B66
:10D500001B781C46894B1B7818468A4923010B441B
:10D5100003441B789A420FD2844B1B78002B0BD00C
:10D52000FEF75AFB844B02221A70804B1B78013B9A
:10D53000DAB27E4B1A7024E0FDF77EFC9FED780B8B
:10D54000FDF74AFB7D4B93F90230012B01D1FCF72B
:10D55000D9FDFEF75FFA9FED720BFDF73DFBFEF77D
:10D56000D3FA9FED6F0BFDF737FBFDF75DFB724BB9
:10D5700003221A706C4B1B78013BDAB26A4B1A70AB
:10D58000ADE1ACE1684B1B781846684B1B78194637
:10D59000674A03010B4412F81330C3F30113DBB2E3
:10D5A000002B27D1604B1B781A46604B1B78013B40
:10D5B000604912010A4413441A785B4B1B781C46DD
:10D5C0005A4B1B7818465B4923010B4403441B78D4
:10D5D0009A420FD2554B1B78002B0BD0FDF7E4FC81
:10D5E000554B02221A70514B1B78013BDAB24F4B5C
:10D5F0001A7094E04C4B1B7818464C4B1B7819461C
:10D600004B4A03010B4412F81330C3F38103DBB21E
:10D61000002B27D1444B1B780133444A1278114622
:10D62000444A1B0113440B441A783F4B1B781C4699
:10D630003E4B1B7818463F4923010B4403441B789B
:10D640009A420FD2384B1B780E2B0BD8FEF708FBF3
:10D65000394B01221A70344B1B780133DAB2324B4A
:10D660001A705CE0304B1B781846304B1B7819461B
:10D670002F4A03010B4412F81330C3F38113DBB2BA
:10D68000002B27D1284B1B78013B284A12781146E2
:10D69000284A1B0113440B441A78234B1B781C4661
:10D6A000224B1B781846234923010B4403441B7863
:10D6B0009A420FD21C4B1B78002B0BD0FEF78CFA32
:10D6C0001D4B03221A70184B1B78013BDAB2164B24
:10D6D0001A7024E0FDF7B0FB9FED110BFDF77CFA0B
:10D6E000164B93F90230012B01D1FCF70BFDFEF72D
:10D6F00091F99FED0B0BFDF76FFAFEF705FA9FED21
:10D70000080BFDF769FAFDF78FFA0B4B00221A7030
:10D71000064B1B780133DAB2044B1A70DFE0DEE00F
:10D72000333333333333D33FFC420120FD420120F6
:10D73000AC8F0120548A01208A84012068000020D7
:10D740006B4B1B7818466B4B1B7819466A4A0301D2
:10D750000B4412F81330C3F38113DBB2002B27D133
:10D76000634B1B78013B634A12781146634A1B01E5
:10D7700013440B441A785E4B1B781C465D4B1B7898
:10D7800018465E4923010B4403441B789A420FD28A
:10D79000574B1B78002B0BD0FDF706FC584B032290
:10D7A0001A70534B1B78013BDAB2514B1A7094E05C
:10D7B0004F4B1B7818464F4B1B7819464E4A0301B6
:10D7C0000B4412F81330C3F30113DBB2002B27D143
:10D7D000474B1B781A46474B1B78013B47491201C0
:10D7E0000A4413441A78424B1B781C46414B1B7861
:10D7F0001846424923010B4403441B789A420FD236
:10D800003C4B1B78002B0BD0FEF72AFA3C4B022234
:10D810001A70384B1B78013BDAB2364B1A705CE059
:10D82000334B1B781846334B1B781946324A030199
:10D830000B4412F81330C3F30103DBB2002B27D1E2
:10D840002B4B1B781A462B4B1B7801332B491201AB
:10D850000A4413441A78264B1B781C46254B1B7828
:10D860001846264923010B4403441B789A420FD2E1
:10D87000204B1B780E2B0BD8FEF7AEF9204B002265
:10D880001A701C4B1B780133DAB21A4B1A7024E061
:10D89000FDF7D2FA9FED140BFDF79EF9194B93F9A2
:10D8A0000230012B01D1FCF72DFCFEF7B3F89FED00
:10D8B0000E0BFDF791F9FEF727F99FED0B0BFDF726
:10D8C0008BF9FDF7B1F90E4B01221A70084B1B784A
:10D8D0000133DAB2064B1A7001E000E000BF00BF6E
:10D8E00098BD00BFAFF30080333333333333D33FBE
:10D8F000FC420120FD420120AC8F0120548A01200E
:10D900008A8401206800002080B500AFFCF74EF942
:10D91000334B00221A70324B1A78324B1A70324B4A
:10D9200000221A70FEF71EFC2E4B1B7818462C4B5B
:10D930001B781A462D4903011A4411F812300120B0
:10D9400060F3051301F81230FEF79CFAFDF76CF94D
