:020000040800F2
:1000000000000220A1040108E9010108EF01010834
:10001000F5010108FB0101080102010800000000D0
:1000200000000000000000000000000007020108BE
:100030001502010800000000230201083102010836
:10004000F1040108F1040108F1040108F1040108B8
:100050003D020108F1040108F1040108F10401085E
:10006000F1040108F1040108F1040108F104010898
:10007000F1040108F1040108F1040108F104010888
:10008000F1040108F104010849020108F104010822
:10009000F1040108F1040108F1040108F104010868
:1000A000F104010865020108F1040108F1040108E6
:1000B000790201088D020108A1020108F10401087A
:1000C000F1040108F1040108F1040108F104010838
:1000D000F1040108F1040108F1040108F104010828
:1000E000F1040108F1040108F1040108F104010818
:1000F000B5020108C9020108DD020108F104010886
:10010000F1040108F1040108F1020108F1040108F9
:10011000F1040108F1040108F1040108F1040108E7
:1001200005030108F104010819030108F10401089D
:10013000F10401080000000000000000F1040108C3
:10014000F1040108F1040108F1040108F1040108B7
:10015000F1040108F1040108F1040108F1040108A7
:10016000F1040108F1040108F1040108F104010897
:10017000F1040108F1040108000000000000000083
:08018000F1040108F10401087B
:1080000010B5054C237833B9044B13B10448AFF3D2
:1080100000800123237010BD6002002000000000DA
:108020003881010808B5034B1BB103490348AFF37E
:10803000008008BD000000006402002038810108B3
:10804000034613F8012B002AFBD1181A0138704798
:1080500001F0FF01102A2BDB10F0070F08D010F8F9
:10806000013B013A8B422DD010F0070F42B3F6D1FD
:10807000F0B441EA012141EA014122F007047FF016
:1080800000070023F0E80256083C85EA010586EA6D
:10809000010685FA47F5A3FA87F586FA47F6A5FAA9
:1080A00087F68EB9EED1F0BC01F0FF0102F00702B5
:1080B00032B110F8013B013A83EA010313B1F8D160
:1080C0000020704701387047002D06BF3546033841
:1080D000073815F0010F07D1013015F4807F02BF7A
:1080E000013015F4C03F0130F0BC0138704700BFCB
:1080F00081F0004102E000BF83F0004330B54FEA59
:1081000041044FEA430594EA050F08BF90EA020FC5
:108110001FBF54EA000C55EA020C7FEA645C7FEA58
:10812000655C00F0E2804FEA5454D4EB5555B8BF7B
:108130006D420CDD2C4480EA020281EA030382EAEC
:10814000000083EA010180EA020281EA0303362D7E
:1081500088BF30BD11F0004F4FEA01314FF4801C51
:108160004CEA113102D0404261EB410113F0004F63
:108170004FEA03334CEA133302D0524263EB43031A
:1081800094EA050F00F0A780A4F10104D5F1200EB8
:108190000DDB02FA0EFC22FA05F2801841F1000113
:1081A00003FA0EF2801843FA05F359410EE0A5F1E7
:1081B00020050EF1200E012A03FA0EFC28BF4CF018
:1081C000020C43FA05F3C01851EBE37101F00045CE
:1081D00007D54FF0000EDCF1000C7EEB00006EEBDB
:1081E0000101B1F5801F1BD3B1F5001F0CD3490865
:1081F0005FEA30004FEA3C0C04F101044FEA4452BC
:1082000012F5800F80F09A80BCF1004F08BF5FEA42
:10821000500C50F1000041EB045141EA050130BD22
:108220005FEA4C0C404141EB010111F4801FA4F1C5
:108230000104E9D191F0000F04BF01460020B1FA1A
:1082400081F308BF2033A3F10B03B3F120020CDA52
:108250000C3208DD02F1140CC2F10C0201FA0CF030
:1082600021FA02F10CE002F11402D8BFC2F1200C95
:1082700001FA02F120FA0CFCDCBF41EA0C0190404B
:10828000E41AA2BF01EB0451294330BD6FEA040494
:108290001F3C1CDA0C340EDC04F11404C4F120027F
:1082A00020FA04F001FA02F340EA030021FA04F391
:1082B00045EA030130BDC4F10C04C4F1200220FAE8
:1082C00002F001FA04F340EA0300294630BD21FA26
:1082D00004F0294630BD94F0000F83F4801306BFEC
:1082E00081F480110134013D4EE77FEA645C18BFE0
:1082F0007FEA655C29D094EA050F08BF90EA020F77
:1083000005D054EA000C04BF1946104630BD91EA6E
:10831000030F1EBF0021002030BD5FEA545C05D171
:108320004000494128BF41F0004130BD14F58004B0
:108330003CBF01F5801130BD01F0004545F0FE4124
:1083400041F470014FF0000030BD7FEA645C1ABF59
:10835000194610467FEA655C1CBF0B46024650EA90
:10836000013406BF52EA033591EA030F41F40021BC
:1083700030BD00BF90F0000F04BF0021704730B542
:108380004FF4806404F132044FF000054FF0000117
:1083900050E700BF90F0000F04BF0021704730B5D8
:1083A0004FF4806404F1320410F0004548BF4042AD
:1083B0004FF000013EE700BF42004FEAE2014FEA02
:1083C00031014FEA02701FBF12F07F4393F07F4FDD
:1083D00081F06051704732F07F4208BF704793F0E0
:1083E0007F4F04BF41F40021704730B54FF46074F3
:1083F00001F0004521F000411CE700BF50EA0102F6
:1084000008BF704730B54FF000050AE050EA01029E
:1084100008BF704730B511F0004502D5404261EB0E
:1084200041014FF4806404F132045FEA915C3FF44F
:10843000D8AE4FF003025FEADC0C18BF03325FEAEC
:10844000DC0C18BF033202EBDC02C2F1200300FA9D
:1084500003FC20FA02F001FA03FE40EA0E0021FAC2
:1084600002F11444BDE600BF70B54FF0FF0C4CF4B0
:10847000E06C1CEA11541DBF1CEA135594EA0C0F62
:1084800095EA0C0F00F0DEF82C4481EA030621EA9D
:108490004C5123EA4C5350EA013518BF52EA0335D8
:1084A00041F4801143F4801338D0A0FB02CE4FF08A
:1084B0000005E1FB02E506F00042E0FB03E54FF0BA
:1084C0000006E1FB03569CF0000F18BF4EF0010EB2
:1084D000A4F1FF04B6F5007F64F5407404D25FEAAE
:1084E0004E0E6D4146EB060642EAC62141EA555161
:1084F0004FEAC52040EA5E504FEACE2EB4F1FD0CA3
:1085000088BFBCF5E06F1ED8BEF1004F08BF5FEA20
:10851000500E50F1000041EB045170BD06F00046D2
:1085200046EA010140EA020081EA0301B4EB5C047F
:10853000C2BFD4EB0C0541EA045170BD41F4801177
:108540004FF0000E013C00F3AB8014F1360FDEBF9C
:10855000002001F0004170BDC4F10004203C35DA78
:108560000C341BDC04F11404C4F1200500FA05F3FB
:1085700020FA04F001FA05F240EA020001F000429C
:1085800021F0004110EBD37021FA04F642EB060112
:108590005EEA430E08BF20EAD37070BDC4F10C043C
:1085A000C4F1200500FA04F320FA05F001FA04F200
:1085B00040EA020001F0004110EBD37041F10001EC
:1085C0005EEA430E08BF20EAD37070BDC4F12005F7
:1085D00000FA05F24EEA020E20FA04F301FA05F25F
:1085E00043EA020321FA04F001F0004121FA04F207
:1085F00020EA020000EBD3705EEA430E08BF20EAD7
:10860000D37070BD94F0000F0FD101F00046400010
:1086100041EB010111F4801F08BF013CF7D041EA92
:10862000060195F0000F18BF704703F00046520096
:1086300043EB030313F4801F08BF013DF7D043EA67
:108640000603704794EA0C0F0CEA135518BF95EA1D
:108650000C0F0CD050EA410618BF52EA4306D1D1A4
:1086600081EA030101F000414FF0000070BD50EAC3
:10867000410606BF1046194652EA430619D094EA4D
:108680000C0F02D150EA013613D195EA0C0F05D137
:1086900052EA03361CBF104619460AD181EA03018B
:1086A00001F0004141F0FE4141F470014FF0000043
:1086B00070BD41F0FE4141F4780170BD70B54FF0DE
:1086C000FF0C4CF4E06C1CEA11541DBF1CEA13555E
:1086D00094EA0C0F95EA0C0F00F0A7F8A4EB050440
:1086E00081EA030E52EA03354FEA013100F0888037
:1086F0004FEA03334FF0805545EA131343EA126300
:108700004FEA022245EA111545EA10654FEA0026B4
:108710000EF000419D4208BF964244F1FD0404F56D
:10872000407402D25B084FEA3202B61A65EB0305C9
:108730005B084FEA32024FF480104FF4002CB6EB86
:10874000020E75EB030E22BFB61A754640EA0C0006
:108750005B084FEA3202B6EB020E75EB030E22BF46
:10876000B61A754640EA5C005B084FEA3202B6EB87
:10877000020E75EB030E22BFB61A754640EA9C0046
:108780005B084FEA3202B6EB020E75EB030E22BF16
:10879000B61A754640EADC0055EA060E18D04FEAD4
:1087A000051545EA16754FEA06164FEAC30343EA74
:1087B00052734FEAC2025FEA1C1CC0D111F4801F41
:1087C0000BD141EA00014FF000004FF0004CB6E73A
:1087D00011F4801F04BF01430020B4F1FD0C88BFD9
:1087E000BCF5E06F3FF6AFAEB5EB030C04BFB6EBE4
:1087F000020C5FEA500C50F1000041EB045170BDD7
:108800000EF0004E4EEA113114EB5C04C2BFD4EB03
:108810000C0541EA045170BD41F480114FF0000E87
:10882000013C90E645EA060E8DE60CEA135594EA03
:108830000C0F08BF95EA0C0F3FF43BAF94EA0C0F06
:108840000AD150EA01347FF434AF95EA0C0F7FF47B
:1088500025AF104619462CE795EA0C0F06D152EACF
:1088600003353FF4FDAE1046194622E750EA4106B3
:1088700018BF52EA43067FF4C5AE50EA41047FF4C4
:108880000DAF52EA43057FF4EBAE12E74FF0FF3C29
:1088900006E000BF4FF0010C02E000BF4FF0010CFA
:1088A0004DF804CD4FEA410C7FEA6C5C4FEA430C73
:1088B00018BF7FEA6C5C1BD001B050EA410C0CBFC2
:1088C00052EA430C91EA030F02BF90EA020F002024
:1088D000704710F1000F91EA030F58BF994208BF8B
:1088E00090422CBFD8176FEAE37040F00100704748
:1088F0004FEA410C7FEA6C5C02D150EA013C07D19F
:108900004FEA430C7FEA6C5CD6D152EA033CD3D0E9
:108910005DF8040B704700BF8446104662468C46E3
:108920001946634600E000BF01B5FFF7B7FF002816
:1089300048BF10F1000F01BD4DF808EDFFF7F4FF3F
:108940000CBF012000205DF808FB00BF4DF808EDCA
:10895000FFF7EAFF34BF012000205DF808FB00BFED
:108960004DF808EDFFF7E0FF94BF012000205DF80F
:1089700008FB00BF4DF808EDFFF7CEFF94BF0120C4
:1089800000205DF808FB00BF4DF808EDFFF7C4FFBD
:1089900034BF012000205DF808FB00BF4FEA410C06
:1089A0007FEA6C5C02D150EA013C0AD14FEA430CE9
:1089B0007FEA6C5C02D152EA033C02D14FF0000026
:1089C00070474FF0010070474FEA410212F5001264
:1089D00015D211D56FF47873B3EB625212D94FEA06
:1089E000C12343F0004343EA505311F0004F23FAF0
:1089F00002F018BF404270474FF00000704750EA45
:108A0000013005D111F0004008BF6FF00040704701
:108A10004FF00000704700BF4FEA4102B2F1E0435F
:108A200024BFB3F5001CDCF1FE5C0DD901F0004C55
:108A30004FEAC0024CEA5070B2F1004F40EB8300A5
:108A400008BF20F00100704711F0804F21D113F1D1
:108A50003872BCBF01F00040704741F480114FEA0A
:108A60005252C2F11802C2F1200C10FA0CF320FA93
:108A700002F018BF40F001004FEAC1234FEAD323B0
:108A800003FA0CFC40EA0C0023FA02F34FEA43031A
:108A9000CCE77FEA625307D150EA01331EBF4FF0A3
:108AA000FE4040F44000704701F0004040F0FE40BE
:108AB00040F40000704700BF53B94AB9002908BF0D
:108AC00000281CBF4FF0FF314FF0FF3000F072B9AB
:108AD000ADF1080C6DE904CE00F006F8DDF804E015
:108AE000DDE9022304B070472DE9F047089E0446F3
:108AF0008846002B4BD18A42154667D9B2FA82F2DA
:108B00004AB1C2F1200701FA02F320FA07F79540B3
:108B100047EA030894404FEA154E230CB8FBFEF7D2
:108B20001FFA85FC0EFB178843EA084307FB0CF18C
:108B3000994209D9EB1807F1FF3080F01B81994267
:108B400040F21881023F2B445B1AA4B2B3FBFEF043
:108B50000EFB103344EA034400FB0CFCA44509D986
:108B60002C1900F1FF3380F00781A44540F2048105
:108B700002382C4440EA0740A4EB0C0400271EB145
:108B8000D4400023C6E900433946BDE8F0878B4254
:108B900009D9002E00F0EB800027C6E90001384615
:108BA0003946BDE8F087B3FA83F7002F47D18B42EF
:108BB00002D3824200F2FA80841A61EB030301209F
:108BC0009846002EE0D0C6E90048DDE702B9FFDE96
:108BD000B2FA82F2002A40F08F80491B4FEA154E0C
:108BE0001FFA85F80127B1FBFEFC230C0EFB1C11BC
:108BF00043EA014308FB0CF1994207D9EB180CF149
:108C0000FF3002D2994200F2CD808446591AA3B2B5
:108C1000B1FBFEF00EFB101443EA044408FB00F81D
:108C2000A04507D92C1900F1FF3302D2A04500F26C
:108C3000B6801846A4EB080440EA0C409FE7C7F151
:108C4000200CBB4022FA0CFE4EEA030E01FA07F498
:108C500020FA0CF521FA0CF34FEA1E482543B3FB2A
:108C6000F8F92C0C08FB19331FFA8EFA44EA034377
:108C700009FB0AF49C4202FA07F200FA07F10BD949
:108C80001EEB030309F1FF3080F087809C4240F225
:108C90008480A9F1020973441B1BADB2B3FBF8F049
:108CA00008FB103345EA034400FB0AFAA24508D941
:108CB0001EEB040400F1FF336BD2A24569D90238E0
:108CC000744440EA0940A0FB0289A4EB0A044C4525
:108CD000C2464B4654D351D0002E69D0B1EB0A05A1
:108CE00064EB030404FA0CFCFD40FC404CEA05056F
:108CF000C6E90054002747E7C2F1200320FA03F732
:108D0000954001FA02F021FA03F34FEA154E384379
:108D1000010CB3FBFEF71FFA85F80EFB173341EA8F
:108D2000034107FB08F38B4204FA02F407D96918E0
:108D300007F1FF3C2FD28B422DD9023F2944CB1A99
:108D400081B2B3FBFEF00EFB103341EA034100FB9E
:108D500008F38B4207D9691800F1FF3C17D28B4208
:108D600015D902382944C91A40EA07473BE7374674
:108D7000304609E70746E7E61846FBE64145ABD231
:108D8000B8EB020A69EB0E0201381346A4E760460D
:108D9000E9E7184695E76746D1E781467CE7023860
:108DA0002C4447E7ACF1020C2B442FE7384608E788
:108DB0003746E9E6704700BF90B589B000AF87ED50
:108DC000050AC7ED040A87ED031AC7ED021A87EDFD
:108DD000012AC7ED002A4FF00003FB614FF00003AA
:108DE000BB614B4B1B78002B07D14A4B4FF0000265
:108DF0001A60494B4FF000021A60454B01221A706D
:108E0000D7ED057A9FED457A37EE877AD7ED047A6C
:108E100077EE677AC7ED077A97ED077AD7ED037A91
:108E200027EE277A3B4BD3ED007A77EE277A394B42
:108E3000C3ED007A384BD3ED007A97ED077A77EEE1
:108E4000676A97ED037AC6EE877AC7ED067A324AEB
:108E5000FB69136097ED027AD7ED077A27EE277A40
:108E60002C4BD3ED006AD7ED017A66EEA77A37EE88
:108E7000277AD7ED006AD7ED067A66EEA77A77EE05
:108E8000277A17EE900AFFF797FA03460C4644EC50
:108E9000103B0CF047FD54EC103B18462146FFF701
:108EA00093FD03461AB21E4B1A8097ED027AD7ED56
:108EB000077A27EE277A174BD3ED006AD7ED017AB0
:108EC00066EEA77A37EE277AD7ED006AD7ED067AF5
:108ED00066EEA77A77EE277A17EE900AFFF76CFA1C
:108EE00003460C4644EC103B0CF01CFD54EC103BCC
:108EF00018462146FFF768FD03461BB29BB25B4252
:108F00009BB21AB2074B1A8000BF2437BD4690BDF2
:108F10007C02002080020020840200200000204209
:108F20008E830120A083012090B589B000AF87ED2A
:108F3000050AC7ED040A87ED031AC7ED021A87ED8B
:108F4000012AC7ED002A4FF00003FB614FF0000338
:108F5000BB61514B1B78002B07D1504B4FF00002E7
:108F60001A604F4B4FF000021A604B4B01221A70EF
:108F700097ED057AD7ED047A77EE677A17EE900AC7
:108F8000FFF71AFA4FF03332464BFFF76DFA0346FC
:108F90000C4618462146FFF73FFD0346FB6197ED5F
:108FA000077AD7ED037A27EE277A3C4BD3ED007A88
:108FB00077EE277A394BC3ED007A394BD3ED007A3F
:108FC00097ED077A77EE676A97ED037AC6EE877AB0
:108FD000C7ED067A324AFB69136097ED027AD7ED46
:108FE000077A27EE277A2D4BD3ED006AD7ED017A69
:108FF00066EEA77A37EE277AD7ED006AD7ED067AC4
:1090000066EEA77A77EE277A17EE900AFFF7D4F983
:1090100003460C4644EC103B0CF084FC54EC103B33
:1090200018462146FFF7D0FC03461BB29BB25B42B9
:109030009BB21AB21C4B1A8097ED027AD7ED077AD1
:1090400027EE277A154BD3ED006AD7ED017A66EE4D
:10905000A77A37EE277AD7ED006AD7ED067A66EE63
:10906000A77A77EE277A17EE900AFFF7A5F903465D
:109070000C4644EC103B0CF055FC54EC103B1846ED
:109080002146FFF7A1FC03461AB2084B1A8000BF25
:109090002437BD4690BD00BF7C020020880200201E
:1090A0008C0200203333F33F8A830120AC830120FC
:1090B00090B589B000AF87ED050AC7ED040A87EDCA
:1090C000031AC7ED021A87ED012AC7ED002A4FF0F7
:1090D0000003FB614FF00003BB61514B1B78002B79
:1090E00007D1504B4FF000021A604F4B4FF0000277
:1090F0001A604B4B01221A7097ED057AD7ED047A6E
:1091000077EE677A17EE900AFFF756F94FF0333291
:10911000464BFFF7A9F903460C4618462146FFF7D0
:109120007BFC0346FB6197ED077AD7ED037A27EEC8
:10913000277A3C4BD3ED007A77EE277A394BC3ED93
:10914000007A394BD3ED007A97ED077A77EE676AAC
:1091500097ED037AC6EE877AC7ED067A324AFB6945
:10916000136097ED027AD7ED077A27EE277A2D4B19
:10917000D3ED006AD7ED017A66EEA77A37EE277A4B
:10918000D7ED006AD7ED067A66EEA77A77EE277AF2
:1091900017EE900AFFF710F903460C4644EC103B1B
:1091A0000CF0C0FB54EC103B18462146FFF70CFCBA
:1091B00003461AB21E4B1A8097ED027AD7ED077A52
:1091C00027EE277A174BD3ED006AD7ED017A66EECA
:1091D000A77A37EE277AD7ED006AD7ED067A66EEE2
:1091E000A77A77EE277A17EE900AFFF7E5F803469D
:1091F0000C4644EC103B0CF095FB54EC103B18462D
:109200002146FFF7E1FB03461BB29BB25B429BB2D8
:109210001AB2084B1A8000BF2437BD4690BD00BF6C
:109220007C02002090020020940200203333F33FA0
:109230007C8301209483012090B589B000AF87ED35
:10924000050AC7ED040A87ED031AC7ED021A87ED78
:10925000012AC7ED002A4FF00003FB614FF0000325
:10926000BB61474B1B78002B07D1464B4FF00002E8
:109270001A60454B4FF000021A60414B01221A70F0
:1092800097ED057AD7ED047A77EE677AC7ED077A1E
:1092900097ED077AD7ED037A27EE277A394BD3ED8E
:1092A000007A77EE277A374BC3ED007A364BD3ED51
:1092B000007A97ED077A77EE676A97ED037AC6EE44
:1092C000877AC7ED067A304AFB69136097ED027A18
:1092D000D7ED077A27EE277A2A4BD3ED006AD7ED30
:1092E000017A66EEA77A37EE277AD7ED006AD7EDD6
:1092F000067A66EEA77A77EE277A17EE900AFFF7DE
:109300005BF803460C4644EC103B0CF00BFB54ECB2
:10931000103B18462146FFF757FB03461AB21B4B7A
:109320001A8097ED027AD7ED077A27EE277A154B48
:10933000D3ED006AD7ED017A66EEA77A37EE277A89
:10934000D7ED006AD7ED067A66EEA77A77EE277A30
:1093500017EE900AFFF730F803460C4644EC103B3A
:109360000CF0E0FA54EC103B18462146FFF72CFBBA
:1093700003461AB2064B1A8000BF2437BD4690BD83
:109380007C020020980200209C0200209083012093
:109390008883012090B589B000AF87ED050AC7ED3D
:1093A000040A87ED031AC7ED021A87ED012AC7EDFB
:1093B000002A4FF00003FB614FF00003BB61324B0A
:1093C0001B78002B07D1314B4FF000021A60304B55
:1093D0004FF000021A602C4B01221A7097ED057AAB
:1093E000D7ED047A77EE677AC7ED077A97ED077ABB
:1093F000D7ED037A27EE277A244BD3ED007A77EE68
:10940000277A224BC3ED007A214BD3ED007A97EDFA
:10941000077A77EE676A97ED037AC6EE877AC7ED2B
:10942000067A1B4AFB69136097ED027AD7ED077A3B
:1094300027EE277A154BD3ED006AD7ED017A66EE59
:10944000A77A37EE277AD7ED006AD7ED067A66EE6F
:10945000A77A77EE277A17EE900AFEF7ADFF03465C
:109460000C4644EC103B0CF05DFA54EC103B1846F3
:109470002146FFF7A9FA03461AB2064B1A8000BF2D
:109480002437BD4690BD00BF7C020020A002002012
:10949000A40200208083012090B589B000AF87ED41
:1094A000050AC7ED040A87ED031AC7ED021A87ED16
:1094B000012AC7ED002A4FF00003FB614FF00003C3
:1094C000BB61324B1B78002B07D1314B4FF00002B0
:1094D0001A60304B4FF000021A602C4B01221A70B8
:1094E00097ED057AD7ED047A77EE677AC7ED077ABC
:1094F00097ED077AD7ED037A27EE277A244BD3ED41
:10950000007A77EE277A224BC3ED007A214BD3ED18
:10951000007A97ED077A77EE676A97ED037AC6EEE1
:10952000877AC7ED067A1B4AFB69136097ED027ACA
:10953000D7ED077A27EE277A154BD3ED006AD7EDE2
:10954000017A66EEA77A37EE277AD7ED006AD7ED73
:10955000067A66EEA77A77EE277A17EE900AFEF77C
:109560002BFF03460C4644EC103B0CF0DBF954ECAB
:10957000103B18462146FFF727FA03461AB2064B5E
:109580001A8000BF2437BD4690BD00BF7C0200207A
:10959000A8020020AC020020A283012090B587B071
:1095A00000AF87ED030AC7ED020A87ED011AC7ED88
:1095B000001A4FF000037B614FF000033B614A4B00
:1095C0001B78002B07D1494B4FF000021A60484B23
:1095D0004FF000021A60444B01221A70454B93ED84
:1095E000007A454BD3ED007A77EE677AC7ED057ABE
:1095F00097ED057AD7ED037A27EE277A3B4BD3ED2B
:10960000007A77EE277A394BC3ED007A384BD3EDE9
:10961000007A97ED057A77EE676A97ED037AC6EEE2
:10962000877AC7ED047A324A7B69136097ED027A34
:10963000D7ED057A27EE277A2C4BD3ED006AD7EDCC
:10964000017A66EEA77A37EE277AD7ED006AD7ED72
:10965000047A66EEA77A77EE277A17EE900AFEF77D
:10966000ABFE03460C4644EC103B0CF05BF954ECAB
:10967000103B18462146FFF7A7F903461AB21F4BC5
:109680001A8097ED027AD7ED057A27EE277A174BE5
:10969000D3ED006AD7ED017A66EEA77A37EE277A26
:1096A000D7ED006AD7ED047A66EEA77A77EE277ACF
:1096B00017EE900AFEF780FE03460C4644EC103B82
:1096C0000CF030F954EC103B18462146FFF77CF9BA
:1096D00003461BB29BB25B429BB21AB2084B1A8084
:1096E00000BF1C37BD4690BD7C020020B0020020A8
:1096F000B40200209C830120A88301208C830120D8
:109700007E83012080B400AF054B064A5A60044BAB
:10971000054A5A6000BFBD465DF8047B704700BF34
:10972000003C024023016745AB89EFCD80B400AF18
:10973000054B1B69044A43F00043136100BFBD465B
:109740005DF8047B704700BF003C024080B400AF6E
:1097500000BF054BDB6803F48033002BF9D100BF59
:10976000BD465DF8047B7047003C024080B500AF09
:10977000FFF7C8FFFFF7EAFF0B4B1B690A4A43F0EC
:1097800002031361084B1B69074A43F0400313614E
:10979000054B1B69044A43F480331361FFF7D6FF7E
:1097A000FFF7C4FF00BF80BD003C024080B582B01F
:1097B00000AF786087ED000AFFF7A4FFFFF7C6FF50
:1097C0000E4B1B690D4A43F4007313610B4B1B696D
:1097D0000A4A43F0010313617B683A681A60FFF795
:1097E000B5FF064B1B69054A23F001031361FFF720
:1097F0009DFF00BF0837BD4680BD00BF003C024052
:1098000080B584B000AFF860B9607A60FB687A68B0
:109810001946B8680CF0FAF800BF1037BD4680BD95
:1098200080B584B000AF0346FB71FB7963F07F0322
:10983000DBB2FB73002204210D4808F0A3FE07F100
:109840000F01642301220B4809F07CFB07F10E0194
:1098500064230122074809F0A9FC012204210448DD
:1098600008F090FEBB7B18461037BD4680BD00BF98
:10987000000C02402C85012080B584B000AF034667
:109880000A46FB711346BB71FB7903F07F03DBB221
:10989000FB73002204210C4808F074FE07F10F014D
:1098A00064230122094809F04DFBB91D64230122FC
:1098B000064809F047FB01220421034808F062FE34
:1098C00000BF1037BD4680BD000C02402C85012032
:1098D00080B582B000AF0020FFF7A2FF0346BB7146
:1098E000BB79E02B19D10123FB7101210620FFF781
:1098F000C3FF10210320FFF7BFFF20217F20FFF7C8
:10990000BBFF17210120FFF7B7FF06211420FFF747
:10991000B3FF00217F20FFF7AFFFFB791846083720
:10992000BD4680BD98B500AF3320FFF779FF0346F1
:109930001B021CB23420FFF773FF03461BB2234304
:109940001AB2114B1A803520FFF76AFF03461B023B
:109950001CB23620FFF764FF03461BB223431AB242
:109960000A4B1A803720FFF75BFF03461B021CB22D
:109970003820FFF755FF03461BB223431AB2044BAE
:109980001A8000BF98BD00BFB6830120B4830120B8
:10999000AE83012098B500AF2D20FFF741FF0346AD
:1099A0001B021CB22E20FFF73BFF03461BB22343D2
:1099B0001AB2114B1A802F20FFF732FF03461B0209
:1099C0001CB23020FFF72CFF03461BB223431AB210
:1099D0000A4B1A803120FFF723FF03461B021CB2FB
:1099E0003220FFF71DFF03461BB223431AB2044B7C
:1099F0001A8000BF98BD00BFB2830120B883012048
:109A0000B083012080B582B000AF7860391D4FF679
:109A1000FF73012203480BF025FB7B6818460837CB
:109A2000BD4680BDD885012080B400AF2D4B0022FB
:109A30001A802C4BB3F900202B4B1A802A4BB3F918
:109A400000202A4B1A80294BB3F90020284B1A809A
:109A5000274BB3F90020274B1A80264BB3F900207F
:109A6000254B1A80244BB3F90020244B1A80234B3A
:109A7000B3F90020224B1A80214BB3F90020214B6F
:109A80001A80214B00221A801F4BB3F900201F4B74
:109A90001A801E4BB3F900201D4B1A801C4BB3F9E2
:109AA00000201C4B1A801B4BB3F900201A4B1A8064
:109AB000194BB3F90020194B1A80184BB3F9002049
:109AC000174B1A80164BB3F90020164B1A80154B12
:109AD000B3F90020144B1A8000BFBD465DF8047B2B
:109AE000704700BFA28301207E8301209283012062
:109AF000988301207C8301208A830120A083012098
:109B000088830120FC910120808301208C83012027
:109B1000968301209A83012094830120AC83012045
:109B20008E830120908301209C84012098B500AF92
:109B3000194B93F90430002B03F00103B8BF5B42CB
:109B40005BB2012B25D0154BD3E900014FF0000289
:109B5000134BFEF7D3FA03460C46104AC2E9003411
:109B60000E4BD3E900014FF000020E4BFEF7E4FE6E
:109B70000346002B00D10CE00B4BD3E900014FF062
:109B80000002074BFEF7BAFA03460C46064AC2E942
:109B9000003400BF98BD00BF74000020E8420120DF
:109BA0000000F03F00408F40E0420120B0B400AF21
:109BB000354B00221A605EE0344B00221A6051E0FF
:109BC000314B1968314B1A68314C0B01981814F855
:109BD0001030022565F3871304F810302A4B1C68F7
:109BE0002A4B18682A4D0B01134415F81330C3F3A0
:109BF0008113DDB2264923011A1811F8123065F3DA
:109C0000051301F81230204B1968204B1A68204DBB
:109C10002301034415F81330C3F30113DDB21C4CC8
:109C20000B01981814F8103065F3830304F8103012
:109C3000154B1C68154B1B68154809010A4410F8A0
:109C40001220C2F38102D0B2114922011A4411F844
:109C5000123060F3010301F812300C4B1B68013322
:109C60000A4A1360094B1B680F2BA9DD064B1B68C2
:109C70000133054A1360044B1B680F2B9CDD00BFAA
:109C8000BD46B0BC704700BF188301201C83012073
:109C9000BC8F012080B400AF4B4B0F221A605DE0F7
:109CA0004A4B00221A6050E0484B1A68464B1B682A
:109CB00047491201134411F81330C3F30103DAB218
:109CC000444B1B681146444AD154404B1A683E4BE2
:109CD0001B683F491201134411F81330C3F3810389
:109CE000DAB23C4B1B68013311463B4AD154374B27
:109CF0001A68354B1B6836491201134411F81330AA
:109D0000C3F30113DAB2334B1B6802331146324AF4
:109D1000D1542E4B1A682C4B1B682D491201134449
:109D200011F81330C3F38113DAB22A4B1B680333E3
:109D30001146294AD154274B1B680433254A136026
:109D4000224B1B680133214A1360204B1B680F2BE9
:109D5000AADD1D4B1B68013B1B4A13601A4B1B6895
:109D6000002B9DDA184B0F221A6023E0174B0022BC
:109D70001A6016E0154B1968134B1A68154B1B68CF
:109D80001648090101440A441178134AD154114B71
:109D90001B6801330F4A13600C4B1B6801330B4ADD
:109DA00013600A4B1B680F2BE4DD074B1B68013B5C
:109DB000054A1360044B1B68002BD7DA00BFBD4671
:109DC0005DF8047B704700BF2083012024830120BD
:109DD000BC8F01202883012018430120648A0120C0
:109DE00080B500AF3F4B00221A6041E03E4B00229D
:109DF0001A6031E03D4B1B683D4AD35C19463D4833
:109E00000CF074FA394B1B68013303F03F03002B4D
:109E10000ED0364B1B680133032B09DD334B1B6817
:109E2000013303F00303002B02D133480CF05EFA38
:109E30002E4B1B68013303F03F03002B02D12F4848
:109E40000CF0C8FA294B1B680133284A1360264BD3
:109E50001B680133244A1360234B1B683F2BC9DD69
:109E600026480CF0B7FA1F4B1B6801331D4A1360DC
:109E70001C4B1B680F2BB9DD20480CF0ABFA1F48B8
:109E80000CF0A8FA174B00221A6024E0164B0022AF
:109E90001A6011E0154B1B68154AD35C1946184827
:109EA0000CF024FA114B1B680133104A13600E4B5F
:109EB0001B6801330C4A13600B4B1B680F2BE9DD49
:109EC0000E480CF087FA0D480CF084FA054B1B681D
:109ED0000133044A1360034B1B680F2BD6DD00BF10
:109EE00080BD00BF2C8301203083012034830120FA
:109EF000184301205081010854810108588101084C
:109F00005C81010880B588B000AF07F007FF00232F
:109F1000BB6001233B610223BB6101237B613A1DCE
:109F200007F108031146184608F058F80346FB7776
:109F300007F016FFFB7F002B05D17B68B3F1FF3FD5
:109F400001D1012300E0002303F00103DBB2184636
:109F50002037BD4680BD000080B500AF054A064BE6
:109F6000104619464FF480431A460BF04FFD014B43
:109F7000184680BD184301200040000890B585B008
:109F800000AFFFF7BFFF034683F00103DBB2002BF6
:109F900001D000232FE01A4B7B6007F0BFFE4FF487
:109FA00080533B600023BB6017E0BB689B00154AF1
:109FB0009918BB689B007A6813441B684FF0000433
:109FC0001A462346022007F0A1FD0346FB73FB7BE4
:109FD000002B07D1BB680133BB60BA683B689A426B
:109FE000E3D300E000BF07F0BBFEFB7B002B0CBF00
:109FF00001230023DBB218461437BD4690BD00BFD5
:10A00000184301200040000880B500AF002104483B
:10A0100009F038FD002102480AF005FE00BF80BDAE
:10A02000C883012080B500AF0021044809F0AEFDCF
:10A03000002102480AF04CFE00BF80BDC883012009
:10A0400080B500AF03220A490A4806F06BFC0346BC
:10A05000002B01D005F03CFD02220749074806F01D
:10A0600061FC0346002B01D005F032FD00BF80BD2E
:10A07000004301208C850120084301204C840120ED
:10A0800080B500AF084806F03FFD0346002B01D025
:10A0900005F01EFD054806F037FD0346002B01D0F4
:10A0A00005F016FD00BF80BD8C8501204C84012089
:10A0B00080B500AF3C21044809F060FF3C21034813
:10A0C00009F05CFF00BF80BDE88401200C84012002
:10A0D00080B500AF0C21094809F028FE0346002B8B
:10A0E00001D005F0F5FC0421054809F01FFE0346E8
:10A0F000002B01D005F0ECFC00BF80BDBC9101201D
:10A10000A484012080B500AF0C21094809F04CFE61
:10A110000346002B01D005F0DBFC0421054809F0C3
:10A1200043FE0346002B01D005F0D2FC00BF80BDEA
:10A13000BC910120A484012080B500AFFFF764FF2B
:10A14000FFF77EFFFFF7C4FBFFF7C2FF00BF80BD34
:10A15000B0B500AFFFF7E6FBFFF71CFC564B1B88C2
:10A160001BB21846FEF716F9544BD3E900341A46D1
:10A170002346FDF7C1FF03460C461846214648A377
:10A18000D3E90023FEF79AFA03460C461846214607
:10A1900045A3D3E90023FEF767F903460C461846AA
:10A1A00021464FF00002464BFEF788FA03460C4664
:10A1B000444AC2E90034444BD3E90001414BD3E99E
:10A1C00000341A462346FDF799FF03460C4618460D
:10A1D000214637A3D3E90023FEF746F903460C4690
:10A1E000184621464FF000024FF08043FEF766FA12
:10A1F00003460C4618462146344BD3E900341A4630
:10A200002346FDF77BFF03460C46304AC2E9003483
:10A210002E4BD3E900452E4BD3E9000122A3D3E90D
:10A220000023FEF721F902460B46104619464FF06F
:10A230000002234BFEF742FA02460B46204629460F
:10A24000FDF75AFF03460C46204AC2E900341D4B75
:10A25000D3E900341C4AC2E900341C4BD3E90001A5
:10A260004FF00002164BFEF7FFF803460C46184667
:10A2700021460DA3D3E90023FEF720FA03460C463E
:10A28000144AC2E900340F4BD3E9003444EC173BC5
:10A29000B0EE470AF0EE670AB0BD00BFAFF3008032
:10A2A0006666666666663040182D4454FB21094098
:10A2B000FCA9F1D24D62503FAE830120D84201206B
:10A2C000008066403883012040830120C84201207D
:10A2D00018000020C0420120B0B590B000AF87ED5B
:10A2E0000A0B87ED081B87ED062B87ED043B87EDF6
:10A2F000024B87ED005B4FF000034FF00004C7E90D
:10A300000E344FF000034FF00004C7E90C34714BDA
:10A310009B7903F00103DBB2002B0FD06E4BD3ED22
:10A32000007AF5EE407AF1EE10FA15D16B4BD3EDD1
:10A33000007AF5EE407AF1EE10FA0DD1684A4FF04E
:10A3400000034FF00004C2E90034664A4FF00003F6
:10A350004FF00004C2E900345E4A937943F00103F0
:10A360009371D7E90823D7E90A01FDF7C5FE034633
:10A370000C46C7E90E34D7E90623D7E90E01FEF7EC
:10A3800073F803460C4618462146554BD3E9003472
:10A390001A462346FDF7B2FE03460C46504AC2E970
:10A3A0000034504BD3E900341A462346D7E90E0156
:10A3B000FDF7A2FE03460C4618462146D7E90623C0
:10A3C000FEF77CF903460C46C7E90C34454AD7E949
:10A3D0000E34C2E90034D7E90E23D7E90401FEF7B1
:10A3E00043F803460C4625461C463D4BD3E9000185
:10A3F000D7E90223FEF738F802460B4620462946E5
:10A40000FDF77CFE03460C4625461C46D7E90C2387
:10A41000D7E90001FEF728F802460B4620462946F8
:10A42000FDF76CFE03460C4644EC173BB0EE470AC2
:10A43000F0EE670A0BF076FA54EC103B1846214612
:10A44000FEF7C2FA03461BB29BB25B429BB21AB242
:10A45000254B1A80D7E90E23D7E90401FEF704F84B
:10A4600003460C4625461C461D4BD3E90001D7E99F
:10A470000223FDF7F9FF02460B4620462946FDF769
:10A480003DFE03460C4625461C46D7E90C23D7E97A
:10A490000001FDF7E9FF02460B4620462946FDF77D
:10A4A0002DFE03460C4644EC173BB0EE470AF0EE97
:10A4B000670A0BF037FA54EC103B18462146FEF7BA
:10A4C00083FA03461AB2094B1A8000BF4037BD46D3
:10A4D000B0BD00BF74000020B8420120BC42012082
:10A4E000488301205083012092830120968301201C
:10A4F000F0B589B000AF6B461E464FF47A7006F097
:10A500006BF84FF4FA63FB81B7F90E000346013B89
:10A51000BB60034619464FF000024FF000034FF0B6
:10A520000004940144EA91648B01034619464FF0FC
:10A5300000024FF000034FF00004940144EA9164DC
:10A540008B010346DB0007330733DB08DB00ADEB91
:10A55000030D6B460733DB08DB007B600023FB83C6
:10A5600023E0204B1B881BB2FD8B1846FDF712FF22
:10A5700003460C467968EA000A44C2E90034FB8BC2
:10A580007A68DB001344D3E900341A462346D7E93E
:10A590000401FDF7B3FD03460C46C7E9043402206D
:10A5A00006F01AF8FB8B0133FB83FA8BB7F90E30F8
:10A5B0009A42D6DBB7F90E301846FDF7EBFE03469C
:10A5C0000C461A462346D7E90401FEF777F80346FE
:10A5D0000C46054AC2E90034B54600BF2437BD46E3
:10A5E000F0BD00BFAE830120D842012080B500AF8E
:10A5F0005A4B93F90030072B00F2AC8001A252F8BD
:10A6000023F000BF25A600084BA6000871A600088D
:10A6100097A60008BDA60008E3A6000809A7000841
:10A620002FA7000800224FF400714D4807F0AAFF41
:10A6300000224FF480714A4807F0A4FF00224FF433
:10A640000071484807F09EFF85E001224FF4007139
:10A65000434807F097FF00224FF48071404807F00D
:10A6600091FF00224FF400713E4807F08BFF72E02B
:10A6700000224FF400713A4807F084FF01224FF4A2
:10A680008071374807F07EFF00224FF40071354893
:10A6900007F078FF5FE001224FF40071304807F0C7
:10A6A00071FF01224FF480712D4807F06BFF0022EB
:10A6B0004FF400712B4807F065FF4CE000224FF487
:10A6C0000071274807F05EFF00224FF48071244894
:10A6D00007F058FF01224FF40071224807F052FFA3
:10A6E00039E001224FF400711D4807F04BFF0022B2
:10A6F0004FF480711A4807F045FF01224FF40071B2
:10A70000184807F03FFF26E000224FF4007114487C
:10A7100007F038FF01224FF48071114807F032FF33
:10A7200001224FF400710F4807F02CFF13E00122C3
:10A730004FF400710A4807F025FF01224FF48071A1
:10A74000074807F01FFF01224FF40071054807F08A
:10A7500019FF00E000BF00BF80BD00BF74000020F3
:10A76000000802400004024080B582B000AF0346FA
:10A770000A46FB801346BB80B7F90630002B05DD87
:10A78000012204211A4807F0FDFE0CE0B7F906305B
:10A79000002B08DA00220421154807F0F3FEFB889D
:10A7A0005B429BB2FB80B7F90430002B05DD002231
:10A7B00001210F4807F0E6FE0CE0B7F90430002B4A
:10A7C00008DA012201210A4807F0DCFEBB885B425F
:10A7D0009BB2BB80074B1B68B7F906201A64064B77
:10A7E0001B68B7F904209A6300BF0837BD4680BDD7
:10A7F00000000240BC910120A484012080B400AF7D
:10A80000804B1B881AB2804B1A807E4B5B881AB231
:10A810007E4B1A807E4B1B881AB27E4B1A807C4B73
:10A820005B881AB27C4B1A807C4BB3F900301A4615
:10A83000754BB3F90030D31A002BB8BF5B421AB284
:10A84000774B1A80774BB3F900301A466F4BB3F948
:10A850000030D31A002BB8BF5B421AB2724B1A8079
:10A86000724BB3F900301A466A4BB3F90030D31A71
:10A87000002BB8BF5B421AB26D4B1A806D4BB3F917
:10A8800000301A46644BB3F90030D31A002BB8BF1E
:10A890005B421AB2684B1A805B4BB3F900205F4BE6
:10A8A0001A805A4BB3F900205E4B1A80594BB3F90A
:10A8B00000205E4B1A80584BB3F900205D4B1A8084
:10A8C000504B9B8807EE903AF8EE677A5B4BC3EDEE
:10A8D000007A5B4BB3F900309AB2514BB3F90030B8
:10A8E0009BB213449BB21AB2554B1A80554BB3F925
:10A8F00000309AB24C4BB3F900309BB213449BB278
:10A900001AB2504B1A80504BB3F900309AB2484BF0
:10A91000B3F900309BB213449BB21AB24A4B1A806F
:10A920004A4BB3F900309AB2434BB3F900309BB2B3
:10A9300013449BB21AB2454B1A80454B1B68013336
:10A94000434A1360424B1B680A2B56D13C4BB3F968
:10A95000003007EE903AF8EEE76A3D4B1B6807EED1
:10A96000903AB8EEE77AC6EE877A3A4BC3ED007AB2
:10A97000344BB3F9003007EE903AF8EEE76A344B07
:10A980001B6807EE903AB8EEE77AC6EE877A324B4C
:10A99000C3ED007A2C4BB3F9003007EE903AF8EE95
:10A9A000E76A2B4B1B6807EE903AB8EEE77AC6EEE3
:10A9B000877A2A4BC3ED007A244BB3F9003007EEB7
:10A9C000903AF8EEE76A224B1B6807EE903AB8EE31
:10A9D000E77AC6EE877A224BC3ED007A184B002245
:10A9E0001A80184B00221A80174B00221A80174B2E
:10A9F00000221A80164B00221A6000BFBD465DF887
:10AA0000047B70470043012094840120280000202B
:10AA1000084301200E430120FE910120988401206B
:10AA20009684012012430120144301201043012089
:10AA300016430120C0830120E48401206492012098
:10AA40009E840120D4850120848501202885012051
:10AA50005883012060920120B88F0120C483012017
:10AA6000A084012080B487B000AF87ED010AC7ED54
:10AA7000000A0F4B7B614FF08E433B61D7ED056AB7
:10AA8000D7ED047A86EEA77AD7ED017A67EE276ACA
:10AA900097ED007AC6EE877AC7ED037AFB6807EE7A
:10AAA000903AB0EE670A1C37BD465DF8047B7047EC
:10AAB000026F814280B400AF064B47F22F525A62B8
:10AAC000054B47F22F525A6200BFBD465DF8047B2A
:10AAD000704700BF000400400008004080B483B00D
:10AAE00000AF0346FB80B7F90630002B02D10023EC
:10AAF000FB8030E0B7F90630012B2CD11A4B5A6895
:10AB0000194B1B681344184A5360184B5A68174B6B
:10AB10001B681344154A5360134B5A68134B5B6808
:10AB2000134407EE903AB8EEE77AF0EE006AC7EE0B
:10AB3000267AFDEEE77A17EE902A0D4B5A600A4B03
:10AB40001A680A4B1B681A440A4B1B681344094ACB
:10AB500013600123FB80B7F9063018460C37BD4659
:10AB60005DF8047B704700BF500000205C000020AF
:10AB700068000020F842012090B585B000AF87ED55
:10AB8000000B0F4BD3E90034C7E9023400BFD7E90B
:10AB90000023D7E90201FDF7B1FA03460C46184637
:10ABA0002146074BD3E900341A462346FDF7ECFE55
:10ABB0000346002BEBD100BF1437BD4690BD00BF4C
:10ABC000F04201200000000080B500AF224B0022BF
:10ABD0001A70FEF729FF214B00225A60204B0022F9
:10ABE0005A60204B00225A601F4B0122DA7005E0A8
:10ABF0001D4B04225A711C4B01225A70174B5A6884
:10AC0000174B5B681344002B0FDB144B5A68144B33
:10AC10005B6813441846FDF7BDFB0DA3D3E9002381
:10AC2000FDF794FE0346002BE2D10F4B00225A7031
:10AC30000E4B0F4A1A60094B00225A60084B002243
:10AC40005A60084B00225A6000BF80BDAFF30080FD
:10AC5000787FED637488EE407C0200205000002075
:10AC60005C0000206800002074000020B842012031
:10AC7000000096430000000080B500AF4A4B002260
:10AC80001A70FEF7D1FE494B03225A71484B00223D
:10AC90005A60484B00225A60474B00225A60434B8F
:10ACA0000122DA704DE0414B02225A70404B5A6843
:10ACB000404B5B6813441846FDF76CFB36A3D3E9A1
:10ACC0000023FDF761FE0346002B37D03B4BD3ED4D
:10ACD000007A9FED3B7AF4EEC77AF1EE10FA0DDDC3
:10ACE000384BD3ED007A9FED387AF4EEC77AF1EE67
:10ACF00010FA03DD2D4B00225A7122E0314BD3EDC7
:10AD0000007A9FED317AF4EEC77AF1EE10FA03DDA6
:10AD1000264B01225A7114E0284BD3ED007A9FEDA7
:10AD2000287AF4EEC77AF1EE10FA03DD1F4B022207
:10AD30005A7106E01D4B04225A7102E01B4B04229B
:10AD40005A711B4B5A681B4B5B681344002B0FDB7B
:10AD5000174B5A68174B5B6813441846FDF71AFBEC
:10AD60000FA3D3E90023FDF7F1FD0346002B9AD191
:10AD70000E4B00225A70154B154A1A600C4B0022DC
:10AD80005A600C4B00225A600B4B00225A6000BFE5
:10AD900080BD00BFAFF30080E1EB98F21CB9D84052
:10ADA000B13A23A73340E6407C0200207400002023
:10ADB000500000205C00002068000020B88F0120B7
:10ADC0000000C842C483012000000C43B8420120A7
:10ADD000000096430000000080B500AF4C4B0322FA
:10ADE0005A7155E04A4B03225A704A4B59684A4BF4
:10ADF0005B681A4649480BF079FA464B5A68464B4D
:10AE00005B6813441846FDF7C5FA3DA3D3E9002358
:10AE1000FDF79CFD0346002B37D0414BD3ED007A64
:10AE20009FED407AF4EEC77AF1EE10FA0DDD3E4B5D
:10AE3000D3ED007A9FED3D7AF4EEC77AF1EE10FA89
:10AE400003DD334B00225A7122E0374BD3ED007AF9
:10AE50009FED367AF4EEC77AF1EE10FA03DD2C4B53
:10AE600001225A7114E02E4BD3ED007A9FED2D7A1A
:10AE7000F4EEC77AF1EE10FA03DD254B02225A7187
:10AE800006E0234B04225A7102E0214B04225A713E
:10AE9000204B5A68204B5B6813441846FDF77AFA3A
:10AEA00019A3D3E90023FDF751FD0346002B12D06F
:10AEB0001F4B93ED007A1F4BD3ED007A37EE277AC4
:10AEC000F0EE006AC7EE267A9FED1B7AF4EEC77AA1
:10AED000F1EE10FA86D40E4B00225A700C4B05226C
:10AEE0005A71164B4FF000021A60094B0022DA70BB
:10AEF000134B00221A70FEF797FD00BF80BD00BF04
:10AF0000414E8489EFAADD40B13A23A73340E640A1
:10AF100074000020500000205C000020EC8101083B
:10AF2000B88F01200000C842C483012000000C43F8
:10AF300060920120A08401200080ED44B8420120ED
:10AF40007C02002000000000B0B500AF7EE0544B52
:10AF50005A68544B5B6813441846FDF71BFA0446C5
:10AF60000D46514BD3ED007A77EEA77A17EE900A93
:10AF7000FDF722FA46A3D3E90023FDF775FA02464E
:10AF80000B4620462946FDF7E1FC0346002B22D163
:10AF9000454BD3ED007A77EEA77A17EE900AFDF7CE
:10AFA0000BFA3DA3D3E90023FDF7A6F803460C46B0
:10AFB00025461C463A4B5A683A4B5B681344184680
:10AFC000FDF7E8F902460B4620462946FDF7BEFC90
:10AFD0000346002B37D0354BD3ED007A9FED347A02
:10AFE000F4EEC77AF1EE10FA0DDD324BD3ED007AB4
:10AFF0009FED317AF4EEC77AF1EE10FA03DD2F4BB4
:10B0000000225A711EE02B4BD3ED007A9FED2A7A75
:10B01000F4EEC77AF1EE10FA03DD284B01225A71E3
:10B0200014E0224BD3ED007A9FED217AF4EEC77A3B
:10B03000F1EE10FA03DD214B02225A7106E01F4B9C
:10B0400004225A7102E01D4B04225A71144B5A68B3
:10B05000144B5B68134407EE903AB8EEE77A124B54
:10B06000D3ED007A77EEA77AB4EEE77AF1EE10FA34
:10B070003FF56DAF0A4B00225A600A4B00225A601E
:10B080000F4B00225A6000BFB0BD00BFAFF300807D
:10B09000CDCCCCCCCCCCDC3F424E8489EFAADD4079
:10B0A000500000205C00002000000020B88F01202C
:10B0B0000000C842C483012000000C43740000203B
:10B0C00068000020000000002DE9B0432DED028B48
:10B0D00084B000AF034687ED000BFB73FEF7F8FF6B
:10B0E00097F90F30002B37DA27E0474B93ED008BB1
:10B0F000464B1B681846FDF75FF904460D46434B67
:10B100005B681846FDF758F9804689463F4B9B68B7
:10B110001846FDF751F902460B4643EC152B49EC56
:10B12000148B45EC134B9FED362BB0EE481AF0EE26
:10B13000681A97ED000BFFF7CFF897F90F30184614
:10B14000FDF728F9324BD3E900341A462346FDF7C0
:10B15000FDFB0346002BC8D197F90F30002B37DDDC
:10B1600027E0294B93ED008B284B1B681846FDF711
:10B1700023F904460D46254B5B681846FDF71CF97C
:10B1800080468946214B9B681846FDF715F9024613
:10B190000B4643EC152B49EC148B45EC134B9FED00
:10B1A000182BB0EE481AF0EE681A97ED000BFFF777
:10B1B00093F897F90F301846FDF7ECF8144BD3E9E4
:10B1C00000341A462346FDF7DFFB0346002BC8D1A7
:10B1D000104B0022DA70104A4FF000034FF00004C9
:10B1E000C2E900340A4A4FF000034FF00004C2E9FC
:10B1F000003400BF1037BD46BDEC028BBDE8B08304
:10B20000FCA9F1D24D62503FD04201204400002001
:10B21000C042012074000020C842012080B582B0E5
:10B2200000AF0023FB7145E0284B4FF000021A608D
:10B23000274B00221A70FEF7F7FB264B00225A60BC
:10B24000254B00225A60254B00225A60244B0122D4
:10B25000DA7005E0224B03225A71224B224A1A600F
:10B260001C4B5A681C4B5B68D31A07EE903AB8EE39
:10B27000E77A1E4BD3ED007A77EEA77AB4EEE77A41
:10B28000F1EE10FAE6D9164B0022DA70154B4FF0AA
:10B2900000021A600D4B4FF000021A600D4B0022A5
:10B2A0005A600D4B00225A600C4B00225A60FB7909
:10B2B0000133FB71FB79002BB6D0054B00221A70CD
:10B2C000FEF7B2FB00BF0837BD4680BDB842012083
:10B2D0007C020020500000205C000020680000205C
:10B2E00074000020BC4201200000A0C00400002027
:10B2F00080B582B000AF0023FB7145E0284B4FF0D2
:10B3000000021A60274B00221A70FEF78DFB264BB5
:10B3100000225A60254B00225A60254B00225A60B9
:10B32000244B0122DA7005E0224B03225A71224B92
:10B33000224A1A601D4B5A681B4B5B68D31A07EEF2
:10B34000903AB8EEE77A1E4BD3ED007A77EEA77A03
:10B35000B4EEE77AF1EE10FAE6D9164B0022DA7075
:10B36000154B4FF000021A600D4B4FF000021A60AF
:10B370000D4B00225A600D4B00225A600C4B0022EC
:10B380005A60FB790133FB71FB79002BB6D0054B7A
:10B3900000221A70FEF748FB00BF0837BD4680BD8B
:10B3A000B84201207C020020500000205C000020F8
:10B3B0006800002074000020BC4201200000A04072
:10B3C000040000200000000098B500AF504B06229A
:10B3D0005A7102E04E4B06225A704E4B5A684E4B41
:10B3E0005B6813441846FCF7D5FF3FA3D3E900235D
:10B3F000FDF7ACFA0346002BECD1454B00225A7006
:10B4000021E0464B464A1A60464B474A1A60454B74
:10B410001B681846FCF7D0FF35A3D3E90023FDF7DE
:10B4200023F803460C461846214633A3D3E90023EC
:10B43000FDF744F903460C4618462146FDF7ECFAA1
:10B4400002463A4B1A60334B5A68334B5B681344DD
:10B450001846FCF79FFF24A3D3E90023FDF78AFADF
:10B460000346002B0FD02B4B5A682B4B5B681344C1
:10B470001846FCF78FFF22A3D3E90023FDF766FAF5
:10B480000346002BBDD102E0214B07225A70214B0D
:10B490005A68214B5B6813441846FCF77BFF1AA3DC
:10B4A000D3E90023FDF752FA0346002BECD1184BE9
:10B4B00000225A70164B04225A71164B00225A6011
:10B4C000154B00225A601A4B00225A60154B4FF060
:10B4D00000021A60154B4FF000021A600F4B154A1C
:10B4E0001A6000BF98BD00BF39484F2382F0B740B3
:10B4F000CDCCCCCCCCCC4B409A99999999195F4042
:10B500000D08A05F82F5EF408AF80452C979F14036
:10B5100074000020500000205C000020B842012090
:10B5200000003443A4830120CDCC784384830120E0
:10B53000680000200000964398B500AF504B0622EB
:10B540005A7102E04E4B04225A704E4B5A684E4BD1
:10B550005B6813441846FCF71DFF3FA3D3E90023A3
:10B56000FDF7F4F90346002BECD1454B00225A704D
:10B5700021E0464B464A1A60464B474A1A60454B03
:10B580001B681846FCF718FF35A3D3E90023FCF726
:10B590006BFF03460C461846214633A3D3E900232C
:10B5A000FDF78CF803460C4618462146FDF734FAA1
:10B5B00002463A4B1A60334B5A68334B5B6813446C
:10B5C0001846FCF7E7FE24A3D3E90023FDF7D2F9E0
:10B5D0000346002B0FD02B4B5A682B4B5B68134450
:10B5E0001846FCF7D7FE22A3D3E90023FDF7AEF9F6
:10B5F0000346002BBDD102E0214B05225A70214B9E
:10B600005A68214B5B6813441846FCF7C3FE1AA323
:10B61000D3E90023FDF79AF90346002BECD1184B30
:10B6200000225A70164B04225A71164B00225A609F
:10B63000154B00225A601A4B00225A60174B4FF0EC
:10B6400000021A60134B4FF000021A600F4B154AAC
:10B650001A6000BF98BD00BF39484F2382F0B74041
:10B66000CDCCCCCCCCCC4B409A99999999195F40D0
:10B670000D08A05F82F5EF408AF80452C979F140C5
:10B6800074000020500000205C000020B84201201F
:10B690000000344384830120CDCC7843A48301206F
:10B6A000680000200000964380B500AF70E0544B66
:10B6B0005A68544B5B6813441846FCF76BFE4AA368
:10B6C000D3E90023FDF742F90346002B05D04E4B8A
:10B6D00004225A714D4B4E4A1A60494B5A68494BE5
:10B6E0005B6813441846FCF755FE3FA3D3E90023DB
:10B6F000FDF740F90346002B22D0414B5A68414BDD
:10B700005B6813441846FCF745FE39A3D3E90023D0
:10B71000FDF71CF90346002B12D03B4B06225A7151
:10B720003A4B3B4A1A603B4B3B4A1A60394BD3EDCC
:10B73000007A9FED3A7A67EE877A394BC3ED007A4B
:10B740002F4B5A682F4B5B6813441846FCF722FEB8
:10B7500027A3D3E90023FDF70DF90346002B00D101
:10B7600016E0274B5A68274B5B6813441846FCF7D2
:10B7700011FE21A3D3E90023FDF7E8F80346002BCF
:10B7800000D105E0204B04225A71204B204A1A6058
:10B790001B4B5A681B4B5B6813441846FCF7FAFDB9
:10B7A00015A3D3E90023FDF7D1F80346002B7FF45E
:10B7B0007EAF154B04225A71114B00225A60114B77
:10B7C00000225A60174B00225A60124B4FF00002C1
:10B7D0001A60134B4FF000021A600C4B124A1A60A9
:10B7E00000BF80BDAFF3008092BC1C47F97DDB40F9
:10B7F000D6FF77B2F21AEB40102F03ABF76CF44090
:10B80000500000205C00002074000020B84201209D
:10B8100000003443A48301200000B4430000000072
:10B82000848301206800002000009643000000008F
:10B8300080B500AF70E0544B5A68544B5B681344BA
:10B840001846FCF7A7FD4AA3D3E90023FDF77EF8CD
:10B850000346002B05D04E4B04225A714D4B4E4AE5
:10B860001A60494B5A68494B5B6813441846FCF709
:10B8700091FD3FA3D3E90023FDF77CF80346002B9D
:10B8800022D0414B5A68414B5B6813441846FCF781
:10B8900081FD39A3D3E90023FDF758F80346002BB7
:10B8A00012D03B4B06225A713A4B3B4A1A603B4B33
:10B8B0003B4A1A60394BD3ED007A9FED3A7A67EE36
:10B8C000877A394BC3ED007A2F4B5A682F4B5B6850
:10B8D00013441846FCF75EFD27A3D3E90023FDF7C8
:10B8E00049F80346002B00D116E0274B5A68274B36
:10B8F0005B6813441846FCF74DFD21A3D3E90023F0
:10B90000FDF724F80346002B00D105E0204B04226C
:10B910005A71204B204A1A601B4B5A681B4B5B68BC
:10B9200013441846FCF736FD15A3D3E90023FDF7B1
:10B930000DF80346002B7FF47EAF154B04225A719D
:10B94000114B00225A60114B00225A60174B002203
:10B950005A60154B4FF000021A60104B4FF0000276
:10B960001A600C4B124A1A6000BF80BDAFF3008012
:10B9700092BC1C47F97DDB40D6FF77B2F21AEB4050
:10B98000102F03ABF76CF440500000205C00002047
:10B9900074000020B8420120000034438483012059
:10B9A0000000B44300000000A483012068000020D0
:10B9B0000000964380B582B000AF0023FB7154E0D5
:10B9C000304B4FF000021A602F4B00221A70FEF726
:10B9D0002BF82E4B00225A602D4B00225A602D4B23
:10B9E00000225A602C4B0122DA7005E02A4B032218
:10B9F0005A712A4B2A4A1A60244B5B6807EE903A28
:10BA0000B8EEE77A274BD3ED007A77EEA77AB4EE5B
:10BA1000E77AF1EE10FAE9D91D4B5B6807EE903A30
:10BA2000B8EEE77A1F4BD3ED007AF1EE677A77EE46
:10BA3000A77AB4EEE77AF1EE10FAD7DA164B0022C5
:10BA4000DA70104B4FF000021A60144B4FF00002F6
:10BA50001A600E4B00225A600D4B00225A600D4BAB
:10BA600000225A60FB790133FB71FB79002BA7D0D0
:10BA7000054B00221A70FDF7D7FF00BF0837BD46FF
:10BA800080BD00BFB84201207C0200205000002091
:10BA90005C0000206800002074000020BC420120EF
:10BAA0000000C0C00400002080B582B000AF2A4B67
:10BAB00000221A70FDF7B8FF284B00225A60284B6D
:10BAC00000225A60274B00225A60274B0122DA706D
:10BAD00005E0264B264A1A60234B04225A711F4B5D
:10BAE0005A681F4B5B6813441846FCF753FC18A3B5
:10BAF000D3E90023FCF748FF0346002BE9D11B4B99
:10BB00004FF000021A60184B05225A71164B0022A2
:10BB1000DA70124B00225A60114B00225A60114B0E
:10BB200000225A600C4B00221A70FDF77DFF0023A3
:10BB30007B6002E07B6801337B607B680D4A934247
:10BB4000F8DD00BF0837BD4680BD00BFAFF3008001
:10BB5000EFEB7F105482D5C07C0200205000002003
:10BB60005C0000206800002074000020B842012022
:10BB70000000B4C2BFD4010080B500AF1E4B5B7A99
:10BB8000032B2DD801A252F823F000BF9DBB000863
:10BB9000BBBB0008C1BB0008C7BB0008FFF71CF90E
:10BBA0009FED110BFEF7E8FFFFF738FB9FED0E0B43
:10BBB000FEF7E2FFFFF760F812E0FFF705FC0FE089
:10BBC000FFF772FD0CE0FFF707F99FED090B6FF02F
:10BBD0005900FFF779FAFDF77BFEFFF74DF800BF3C
:10BBE00000BF80BDAFF30080333333333333D33FF3
:10BBF00000000000000014C07400002000000000DD
:10BC000080B500AF1E4B5B7A032B2CD801A252F8F3
:10BC100023F000BF25BC000843BC000849BC000855
:10BC20004FBC0008FFF7D8F89FED110BFEF7A4FFFB
:10BC3000FFF75EFB9FED0E0BFEF79EFFFFF71CF874
:10BC400011E0FFF779FC0EE0FFF7F2FD0BE0FFF7E4
:10BC5000C3F89FED090B5A20FFF736FAFDF738FEBF
:10BC6000FFF70AF800BF00BF80BD00BFAFF3008040
:10BC7000333333333333D33F00000000000014402C
:10BC80007400002080B500AF4FF480515B4806F08F
:10BC900061FC0346012B40F0A38059480AF09AFB4F
:10BCA000FEF730FA574807F08CFE574807F089FE38
:10BCB000FEF7B8F9FEF7E4F94FF4C87004F08CFC15
:10BCC000524B93F90430DBB20133DBB25AB24F4B23
:10BCD0001A714E4B93F90430052B40F081804B4B89
:10BCE00003221A717CE04A4B5B6A1A46494B1A6080
:10BCF000484B1B68194648480AF0F8FA454B1B6840
:10BD000049F22E5293421EDD404B93F90030DBB2D4
:10BD10000133DBB25AB23D4B1A703C4B93F9003001
:10BD2000072B02DD394B00221A70FEF75FFCFEF78D
:10BD3000C1FE364B93F90020344B9A704FF4FA70E1
:10BD400004F04AFC4CE0334B1B6845F22F529342FF
:10BD50001EDC2E4B93F90030DBB2013BDBB25AB252
:10BD60002A4B1A70294B93F90030002B02DA274B2B
:10BD700007221A70FEF73AFCFEF79CFE234B93F95C
:10BD80000020224B9A704FF4FA7004F025FC27E053
:10BD90004FF48051194806F0DDFB0346012B1FD1FB
:10BDA0001E480AF017FB4FF4FA7004F015FCFEF77A
:10BDB000C3F9174B47F22F525A62194B47F22F52D1
:10BDC0005A62114807F0D9FD0E4807F0D6FD0F4B17
:10BDD00093F90430DBB20133DBB25AB20B4B1A7168
:10BDE0000A4B93F90430002B03F00103B8BF5B4208
:10BDF0005BB2012B3FF477AF00BF80BD000402406F
:10BE0000F8810108908B0120C88301207400002074
:10BE100000040040500000200482010858810108FD
:10BE20000008004080B485B000AF0023FB60002311
:10BE3000BB6000237B6000233B600023FB6013E0BA
:10BE40000023BB600AE0934AFB681B011A44BB68ED
:10BE50001344FF221A70BB680133BB60BB680F2B11
:10BE6000F1DDFB680133FB60FB680F2BE8DD062387
:10BE7000FB6013E00923BB600AE0864AFB681B01F4
:10BE80001A44BB68134400221A70BB680133BB60BC
:10BE9000BB680A2BF1DDFB680133FB60FB68072BF5
:10BEA000E8DD00237B600023FB60E2E00023BB6051
:10BEB000D8E0784AFB681B011A44BB6813441B781E
:10BEC0001A463B68934240F0CA807349FB681A01E6
:10BED000BB68134411F81330C3F30103DBB2012B29
:10BEE00025D0BB6801336B49FA6812010A44134438
:10BEF0001A786849FB681B011944BB680B441B781E
:10BF00009A4214D9BB680E2B11DC624AFB681B01F4
:10BF10001A44BB6813441A78BB6801330132D0B2AB
:10BF20005C49FA6812010A44134402461A705A49DD
:10BF3000FB681A01BB68134411F81330C3F3810383
:10BF4000DBB2012B25D0FB680133524A1B011A4496
:10BF5000BB6813441A784F49FB681B011944BB683E
:10BF60000B441B789A4214D9FB680E2B11DC494A0A
:10BF7000FB681B011A44BB6813441A78FB68013341
:10BF80000132D1B2434A1B011A44BB6813440A462A
:10BF90001A704149FB681A01BB68134411F8133049
:10BFA000C3F30113DBB2012B25D0BB68013B394938
:10BFB000FA6812010A4413441A783649FB681B01D7
:10BFC0001944BB680B441B789A4214D9BB68002BF8
:10BFD00011DD304AFB681B011A44BB6813441A7810
:10BFE000BB68013B0132D0B22A49FA6812010A4407
:10BFF000134402461A702849FB681A01BB681344AF
:10C0000011F81330C3F38113DBB2012B25D0FB6889
:10C01000013B204A1B011A44BB6813441A781D498E
:10C02000FB681B011944BB680B441B789A4214D966
:10C03000FB68002B11DD174AFB681B011A44BB6823
:10C0400013441A78FB68013B0132D1B2114A1B013B
:10C050001A44BB6813440A461A7001237B60BB680C
:10C060000133BB60BB680F2B7FF723AFFB68013345
:10C07000FB60FB680F2B7FF719AF3B6801333B6018
:10C080007B68002B7FF40DAF00BF1437BD465DF811
:10C09000047B7047648A0120BC8F012080B500AF0B
:10C0A0004FF47A7004F098FAFEF7E6FDFEF74CFFC5
:10C0B000FEF74AFFFEF790FEFEF724F80A4807F065
:10C0C00080FC0A4807F07DFC094B1B6819460948AB
:10C0D0000AF00CF9084B1B68194608480AF006F9E3
:10C0E00007480AF077F9EFE7908B0120C883012019
:10C0F000FC4201200C820108F84201203082010834
:10C100005881010890B482B000AF8B4B93ED007A58
:10C110008A4BD3ED007A37EE277AF0EE006AC7EE4D
:10C12000267AB3EE0E7AF4EEC77AF1EE10FACCBFAF
:10C1300001230023DAB2824B1B7807F108010B447C
:10C1400003F8042C7F4BD3ED007A9FED7F7AF4EE59
:10C15000C77AF1EE10FACCBF01230023D9B2784B95
:10C160001B7801335A4203F0030302F0030258BF65
:10C1700053420A4607F108010B4403F8042C704BA4
:10C180001B7802335A4203F0030302F0030258BF44
:10C19000534207F108021344002203F8042C6B4BAE
:10C1A000D3ED007A9FED6A7AF4EEC77AF1EE10FAD9
:10C1B000CCBF01230023D9B2614B1B7803335A4211
:10C1C00003F0030302F0030258BF53420A4607F18B
:10C1D00008010B4403F8042C39795E4B1B781C468C
:10C1E0005D4B1B781A460B4603F00303D8B25B493C
:10C1F00023011A4411F8123060F3010301F81230E0
:10C200007979544B1B781C46534B1B781A460B46C6
:10C2100003F00303D8B2514923011A4411F8123034
:10C2200060F3830301F81230B9794A4B1B781C463E
:10C23000494B1B781A460B4603F00303D8B2474913
:10C2400023011A4411F8123060F3051301F812307B
:10C25000F979404B1B781C463F4B1B781A460B461E
:10C2600003F00303D8B23D4923011A4411F81230F8
:10C2700060F3871301F81230374B1B780E2B12D85E
:10C280003979344B1B781A46334B1B78013301F054
:10C290000301C8B2314912011A4411F8123060F397
:10C2A000051301F812302B4B1B780E2B11D879791E
:10C2B000284B1B780133284A127801F00301C8B2D9
:10C2C00026491B011A4411F8123060F3871301F854
:10C2D0001230214B1B78002B12D0B9791D4B1B78E3
:10C2E0001A461D4B1B78013B01F00301C8B21B49E4
:10C2F00012011A4411F8123060F3010301F81230F0
:10C30000144B1B78002B11D0F979124B1B78013B91
:10C31000114A127801F00301C8B210491B011A44F6
:10C3200011F8123060F3830301F8123000BF0837B0
:10C33000BD4690BC704700BF60920120A0840120E0
:10C340009A840120B88F01200000C842C4830120D4
:10C3500000000C430C4301200D430120BC8F012041
:10C3600080B5BEB000AFFFF7CDFEFFF75BFDCC4B55
:10C370001B78032B00F2F78601A252F823F000BFCE
:10C3800091C3000845C70008EFCA00082BCE00087B
:10C39000FEF772FCFEF720FDC24B1B780133DAB2C8
:10C3A000C04B1A70FFF7AEFE0023C7F8F03004E070
:10C3B000D7F8F0300133C7F8F030D7F8F000FBF7CA
:10C3C000E9FFB5A3D3E90023FCF7C0FA0346002B2D
:10C3D000EED1B54B1B78062B03D1522387F8F730EB
:10C3E00006E0B14B1B78072B02D14C2387F8F730BE
:10C3F00097F8F730522B40F0C980FEF70FFFA84B9B
:10C4000001221A700023C7F8EC3004E0D7F8EC30B2
:10C410000133C7F8EC30D7F8EC00FBF7BBFF9EA365
:10C42000D3E90023FCF792FA0346002BEED1FEF786
:10C4300023FCFEF7D1FC9C4B1B780133DAB29A4BFC
:10C440001A70FFF75FFE0023C7F8E83004E0D7F862
:10C45000E8300133C7F8E830D7F8E800FBF79AFF77
:10C460008DA3D3E90023FCF771FA0346002BEED12C
:10C47000FEF7D4FE8A4B02221A700023C7F8E4307C
:10C4800004E0D7F8E4300133C7F8E430D7F8E4002B
:10C49000FBF780FF80A3D3E90023FCF757FA03469C
:10C4A000002BEED1FEF7E8FBFEF796FC7D4B1B78E8
:10C4B000013BDAB27B4B1A70FFF724FE0023C7F86A
:10C4C000E03004E0D7F8E0300133C7F8E030D7F8C7
:10C4D000E000FBF75FFF70A3D3E90023FCF736FA17
:10C4E0000346002BEED1FEF799FE6D4B03221A7026
:10C4F0000023C7F8DC3004E0D7F8DC300133C7F89C
:10C50000DC30D7F8DC00FBF745FF63A3D3E9002359
:10C51000FCF71CFA0346002BEED1FEF7ADFBFEF74D
:10C520005BFC604B1B78013BDAB25E4B1A70002358
:10C53000C7F8D83004E0D7F8D8300133C7F8D8307E
:10C54000D7F8D800FBF726FF53A3D3E90023FCF765
:10C55000FDF90346002BEED1FEF7CAFE504B022236
:10C560001A700023C7F8D43004E0D7F8D430013370
:10C57000C7F8D430D7F8D400FBF70CFF46A3D3E9B3
:10C580000023FCF7E3F90346002BEED197F8F730D0
:10C590004C2B40F0EA85FEF7ABFE414B03221A70AC
:10C5A0000023C7F8D03004E0D7F8D0300133C7F803
:10C5B000D030D7F8D000FBF7EDFE37A3D3E9002346
:10C5C000FCF7C4F90346002BEED1FEF755FBFEF74E
:10C5D00003FC354B1B78013BDAB2334B1A70FFF783
:10C5E00091FD0023C7F8CC3004E0D7F8CC300133FC
:10C5F000C7F8CC30D7F8CC00FBF7CCFE26A3D3E9A4
:10C600000023FCF7A3F90346002BEED1FEF770FEE2
:10C61000234B02221A700023C7F8C83004E0D7F871
:10C62000C8300133C7F8C830D7F8C800FBF7B2FEEE
:10C6300019A3D3E90023FCF789F90346002BEED1B7
:10C64000FEF71AFBFEF7C8FB164B1B78013BDAB26C
:10C65000144B1A70FFF756FD0023C7F8C43004E0EE
:10C66000D7F8C4300133C7F8C430D7F8C400FBF79B
:10C6700091FE09A3D3E90023FCF768F90346002BD8
:10C68000EED1FEF735FE064B01221A700023C7F8E3
:10C69000C03010E0AFF3008000000000004CCD403F
:10C6A0009A8401200D4301200C430120D7F8C030AB
:10C6B0000133C7F8C030D7F8C000FBF76BFED6A334
:10C6C000D3E90023FCF742F90346002BEED1FEF735
:10C6D000D3FAFEF781FBD24B1B780133DAB2D04B91
:10C6E0001A700023C7F8BC3004E0D7F8BC3001331F
:10C6F000C7F8BC30D7F8BC00FBF74CFEC6A3D3E9A3
:10C700000023FCF723F90346002BEED1FEF786FD4C
:10C71000C44B00221A700023C7F8B83004E0D7F8E1
:10C72000B8300133C7F8B830D7F8B800FBF732FE9D
:10C73000B9A3D3E90023FCF709F90346002BEED196
:10C7400000F013BDFEF798FAFEF746FBB44B1B78DA
:10C750000133DAB2B24B1A70FFF7D4FC0023C7F8EA
:10C76000B43004E0D7F8B4300133C7F8B430D7F8A8
:10C77000B400FBF70FFEA8A3D3E90023FCF7E6F80B
:10C780000346002BEED1A84B1B78092B03D14C2379
:10C7900087F8F73006E0A44B1B780A2B02D152230E
:10C7A00087F8F73097F8F730522B40F0C980FEF742
:10C7B00035FD9C4B02221A700023C7F8B03004E00C
:10C7C000D7F8B0300133C7F8B030D7F8B000FBF776
:10C7D000E1FD91A3D3E90023FCF7B8F80346002B51
:10C7E000EED1FEF749FAFEF7F7FA8F4B1B78013BC3
:10C7F000DAB28D4B1A70FFF785FC0023C7F8AC3016
:10C8000004E0D7F8AC300133C7F8AC30D7F8AC004F
:10C81000FBF7C0FD80A3D3E90023FCF797F803469C
:10C82000002BEED1FEF7FAFC7E4B03221A70002398
:10C83000C7F8A83004E0D7F8A8300133C7F8A8300B
:10C84000D7F8A800FBF7A6FD73A3D3E90023FCF7F4
:10C850007DF80346002BEED1FEF70EFAFEF7BCFA88
:10C860006F4B1B78013BDAB26D4B1A70FFF74AFC35
:10C870000023C7F8A43004E0D7F8A4300133C7F888
:10C88000A430D7F8A400FBF785FD63A3D3E9002308
:10C89000FCF75CF80346002BEED1FEF7BFFC614BC2
:10C8A00000221A700023C7F8A03004E0D7F8A030A7
:10C8B0000133C7F8A030D7F8A000FBF76BFD56A3F3
:10C8C000D3E90023FCF742F80346002BEED1FEF734
:10C8D000D3F9FEF781FA544B1B780133DAB2524B8D
:10C8E0001A700023C7F89C3004E0D7F89C3001335D
:10C8F000C7F89C30D7F89C00FBF74CFD46A3D3E962
:10C900000023FCF723F80346002BEED1FEF7F0FCE2
:10C91000444B03221A700023C7F8983004E0D7F87C
:10C9200098300133C7F89830D7F89800FBF732FDFC
:10C9300039A3D3E90023FCF709F80346002BEED115
:10C9400097F8F7304C2B40F01284FEF7D1FC354BB2
:10C9500000221A700023C7F8943004E0D7F894300E
:10C960000133C7F89430D7F89400FBF713FD2AA3DE
:10C97000D3E90023FBF7EAFF0346002BEED1FEF7D5
:10C980007BF9FEF729FA284B1B780133DAB2264BE4
:10C990001A70FFF7B7FB0023C7F8903004E0D7F810
:10C9A00090300133C7F89030D7F89000FBF7F2FCD5
:10C9B00019A3D3E90023FBF7C9FF0346002BEED1EF
:10C9C000FEF796FC174B03221A700023C7F88C3031
:10C9D00004E0D7F88C300133C7F88C30D7F88C00DE
:10C9E000FBF7D8FC0CA3D3E90023FBF7AFFF03460A
:10C9F000002BEED1FEF740F9FEF7EEF9084B1B785D
:10CA0000013BDAB2064B1A70FFF77CFB0023C7F834
:10CA1000883010E0AFF3008000000000004CCD40F3
:10CA20000C4301209A8401200D430120D7F888305F
:10CA30000133C7F88830D7F88800FBF7ABFCBCA3FC
:10CA4000D3E90023FBF782FF0346002BEED1FEF76C
:10CA50004FFCB94B02221A700023C7F8843004E05F
:10CA6000D7F884300133C7F88430D7F88400FBF757
:10CA700091FCAFA3D3E90023FBF768FF0346002B2B
:10CA8000EED1FEF7F9F8FEF7A7F9AC4B1B78013BA6
:10CA9000DAB2AA4B1A700023C7F8803004E0D7F846
:10CAA00080300133C7F88030D7F88000FBF772FC84
:10CAB0009FA3D3E90023FBF749FF0346002BEED1E8
:10CAC000FEF7ACFB9C4B03221A700023FB6702E0CD
:10CAD000FB6F0133FB67F86FFBF75CFC94A3D3E9B2
:10CAE0000023FBF733FF0346002BF1D13FE3FEF7B2
:10CAF000C3F8FEF771F9914B1B78013BDAB28F4B0B
:10CB00001A70FFF7FFFA0023BB6702E0BB6F013327
:10CB1000BB67B86FFBF73EFC85A3D3E90023FBF7A7
:10CB200015FF0346002BF1D1854B1B78062B03D153
:10CB30004C2387F8F73006E0814B1B78072B02D196
:10CB4000522387F8F73097F8F730522B40F0AD803A
:10CB5000FEF764FB784B03221A7000237B6702E028
:10CB60007B6F01337B67786FFBF714FC70A3D3E90D
:10CB70000023FBF7EBFE0346002BF1D1FEF77CF818
:10CB8000FEF72AF96E4B1B78013BDAB26C4B1A7038
:10CB9000FFF7B8FA00233B6702E03B6F01333B67C6
:10CBA000386FFBF7F7FB62A3D3E90023FBF7CEFE58
:10CBB0000346002BF1D1FEF731FB5F4B00221A70C8
:10CBC0000023FB6602E0FB6E0133FB66F86EFBF7A9
:10CBD000E1FB57A3D3E90023FBF7B8FE0346002B84
:10CBE000F1D1FEF749F8FEF7F7F8544B1B78013303
:10CBF000DAB2524B1A70FFF785FA0023BB6602E0E7
:10CC0000BB6E0133BB66B86EFBF7C4FB48A3D3E928
:10CC10000023FBF79BFE0346002BF1D1FEF7FEFA43
:10CC2000454B01221A7000237B6602E07B6E0133C4
:10CC30007B66786EFBF7AEFB3DA3D3E90023FBF7E1
:10CC400085FE0346002BF1D1FEF716F8FEF7C4F877
:10CC50003B4B1B780133DAB2394B1A7000233B6629
:10CC600002E03B6E01333B66386EFBF793FB30A36B
:10CC7000D3E90023FBF76AFE0346002BF1D1FEF750
:10CC800037FB2D4B00221A700023FB6502E0FB6D81
:10CC90000133FB65F86DFBF77DFB25A3D3E900238A
:10CCA000FBF754FE0346002BF1D197F8F7304C2BDD
:10CCB00040F05F82FEF71CFB1F4B01221A7000231D
:10CCC000BB6502E0BB6D0133BB65B86DFBF762FB72
:10CCD00017A3D3E90023FBF739FE0346002BF1D15C
:10CCE000FDF7CAFFFEF778F8154B1B780133DAB26F
:10CCF000134B1A70FFF706FA00237B6502E07B6D89
:10CD000001337B65786DFBF745FB09A3D3E900236D
:10CD1000FBF71CFE0346002BF1D1FEF7E9FA064BA8
:10CD200000221A7000233B650FE000BFAFF30080C4
:10CD300000000000004CCD409A8401200D430120EA
:10CD40000C4301203B6D01333B65386DFBF722FB43
:10CD5000BBA3D3E90023FBF7F9FD0346002BF1D178
:10CD6000FDF78AFFFEF738F8B74B1B780133DAB2CC
:10CD7000B54B1A70FFF7C6F90023FB6402E0FB6CA9
:10CD80000133FB64F86CFBF705FBADA3D3E900238B
:10CD9000FBF7DCFD0346002BF1D1FEF7A9FAAB4B04
:10CDA00003221A700023BB6402E0BB6C0133BB6436
:10CDB000B86CFBF7EFFAA2A3D3E90023FBF7C6FD9B
:10CDC0000346002BF1D1FDF757FFFEF705F8A04B06
:10CDD0001B78013BDAB29E4B1A7000237B6402E0A1
:10CDE0007B6C01337B64786CFBF7D4FA94A3D3E9B2
:10CDF0000023FBF7ABFD0346002BF1D1FEF70EFA43
:10CE0000924B00221A7000233B6402E03B6C01331A
:10CE10003B64386CFBF7BEFA89A3D3E90023FBF728
:10CE200095FD0346002BF1D1A3E1FDF725FFFDF7AA
:10CE3000D3FF874B1B78013BDAB2854B1A70FFF7A3
:10CE400061F90023FB6302E0FB6B0133FB63F86BCA
:10CE5000FBF7A0FA7AA3D3E90023FBF777FD03469B
:10CE6000002BF1D1784B1B78092B03D1522387F883
:10CE7000F73006E0744B1B780A2B02D14C2387F85D
:10CE8000F73097F8F730522B40F0AD80FEF7C6F937
:10CE90006E4B00221A700023BB6302E0BB6B0133B0
:10CEA000BB63B86BFBF776FA65A3D3E90023FBF706
:10CEB0004DFD0346002BF1D1FDF7DEFEFDF78CFFA3
:10CEC000614B1B780133DAB25F4B1A70FFF71AF926
:10CED00000237B6302E07B6B01337B63786BFBF7A2
:10CEE00059FA57A3D3E90023FBF730FD0346002B83
:10CEF000F1D1FEF793F9554B01221A7000233B63E1
:10CF000002E03B6B01333B63386BFBF743FA4CA306
:10CF1000D3E90023FBF71AFD0346002BF1D1FDF7FF
:10CF2000ABFEFDF759FF4A4B1B780133DAB2484B91
:10CF30001A70FFF7E7F80023FB6202E0FB6A013397
:10CF4000FB62F86AFBF726FA3DA3D3E90023FBF75F
:10CF5000FDFC0346002BF1D1FEF760F93B4B0222AA
:10CF60001A700023BB6202E0BB6A0133BB62B86A7D
:10CF7000FBF710FA32A3D3E90023FBF7E7FC0346E3
:10CF8000002BF1D1FDF778FEFDF726FF2E4B1B7825
:10CF9000013BDAB22C4B1A7000237B6202E07B6A01
:10CFA00001337B62786AFBF7F5F925A3D3E9002307
:10CFB000FBF7CCFC0346002BF1D1FEF799F9234B8C
:10CFC00001221A7000233B6202E03B6A01333B629C
:10CFD000386AFBF7DFF91AA3D3E90023FBF7B6FCA5
:10CFE0000346002BF1D197F8F7304C2B40F0C3806B
:10CFF000FEF77EF9154B02221A700023FB6102E056
:10D00000FB690133FB61F869FBF7C4F90CA3D3E9B1
:10D010000023FBF79BFC0346002BF1D1FDF72CFE10
:10D02000FDF7DAFE084B1B78013BDAB2064B1A70AB
:10D03000FFF768F80023BB610FE000BFAFF300808B
:10D0400000000000004CCD400D4301209A840120D7
:10D050000C430120BB690133BB61B869FBF79AF946
:10D0600049A3D3E90023FBF771FC0346002BF1D160
:10D07000FEF73EF9464B01221A7000237B6102E065
:10D080007B6901337B617869FBF784F93EA3D3E9BF
:10D090000023FBF75BFC0346002BF1D1FDF7ECFD11
:10D0A000FDF79AFE3B4B1B780133DAB2394B1A700D
:10D0B000FFF728F800233B6102E03B6901333B6145
:10D0C0003869FBF767F930A3D3E90023FBF73EFC8F
:10D0D0000346002BF1D1FEF70BF92D4B00221A70FD
:10D0E0000023FB6002E0FB680133FB60F868FBF79C
:10D0F00051F925A3D3E90023FBF728FC0346002BB5
:10D10000F1D1FDF7B9FDFDF767FE234B1B78013325
:10D11000DAB2214B1A700023BB6002E0BB68013316
:10D12000BB60B868FBF736F917A3D3E90023FBF718
:10D130000DFC0346002BF1D1FEF770F8144B0122D1
:10D140001A7000237B6002E07B6801337B607868A3
:10D15000FBF720F90CA3D3E90023FBF7F7FB034609
:10D16000002BF1D107E000BF06E000BF04E000BFE4
:10D1700002E000BF00E000BFFEF754FE00BFF8373A
:10D18000BD4680BDAFF3008000000000004CCD40E4
:10D190009A8401200C4301200D430120000000006F
:10D1A00098B500AFAA4B00225A72AA4B1B78032BEA
:10D1B00000F2648301A252F823F000BFCDD1000831
:10D1C00069D3000825D50008E1D60008A24B1B78DA
:10D1D0001846A24B1B781946A14A03010B4412F8CA
:10D1E0001330C3F30103DBB2002B27D19A4B1B781A
:10D1F0001A469A4B1B7801339A4912010A44134488
:10D200001A78954B1B781C46944B1B781846954909
:10D2100023010B4403441B789A420FD28F4B1B7897
:10D220000E2B0BD8FDF790FE8A4B00221A708B4B09
:10D230001B780133DAB2894B1A7094E0864B1B7865
:10D240001846864B1B781946854A03010B4412F891
:10D250001330C3F38113DBB2002B27D17E4B1B7835
:10D26000013B7E4A127811467E4A1B0113440B444F
:10D270001A78794B1B781C46784B1B7818467949ED
:10D2800023010B4403441B789A420FD2724B1B7844
:10D29000002B0BD0FEF7B4FC6E4B03221A706E4BC2
:10D2A0001B78013BDAB26C4B1A705CE06A4B1B785E
:10D2B00018466A4B1B781946694A03010B4412F859
:10D2C0001330C3F38103DBB2002B27D1624B1B78F1
:10D2D0000133624A12781146624A1B0113440B441F
:10D2E0001A785D4B1B781C465C4B1B7818465D49D1
:10D2F00023010B4403441B789A420FD2564B1B78F0
:10D300000E2B0BD8FEF738FC524B01221A70524BF1
:10D310001B780133DAB2504B1A7024E0FDF75CFD44
:10D320009FED490BFDF728FC494B93F90230012B87
:10D3300001D1FCF7E7FEFEF73DFB9FED430BFDF748
:10D340001BFCFEF7B1FB9FED400BFDF715FCFDF755
:10D350003BFC404B02221A70404B1B78013BDAB277
:10D360003E4B1A708BE28AE23B4B1B7818463B4BD4
:10D370001B7819463A4A03010B4412F81330C3F3E1
:10D380008103DBB2002B27D1334B1B780133334AA7
:10D3900012781146334A1B0113440B441A782E4B62
:10D3A0001B781C462D4B1B7818462E4923010B4435
:10D3B00003441B789A420FD2274B1B780E2B0BD8B5
:10D3C000FDF7C2FD234B01221A70234B1B7801335A
:10D3D000DAB2214B1A70A4E01F4B1B7818461F4B82
:10D3E0001B7819461E4A03010B4412F81330C3F38D
:10D3F0000103DBB2002B37D1174B1B781A46174BB2
:10D400001B780133174912010A4413441A78124B4E
:10D410001B781C46114B1B781846124923010B44FC
:10D4200003441B789A421FD20C4B1B780E2B1BD83F
:10D43000FEF7E6FB074B00221A70084B1B780133FE
:10D44000DAB2064B1A706CE0333333333333D33FE5
:10D45000740000209A8401200C4301200D43012018
:10D46000BC8F0120648A0120974B1B781846974B8C
:10D470001B781946964A03010B4412F81330C3F384
:10D480000113DBB2002B27D18F4B1B781A468F4B31
:10D490001B78013B8F4912010A4413441A788A4BC6
:10D4A0001B781C46894B1B7818468A4923010B447C
:10D4B00003441B789A420FD2844B1B78002B0BD06D
:10D4C000FEF75AFB844B02221A70804B1B78013BFB
:10D4D000DAB27E4B1A7024E0FDF77EFC9FED780BEC
:10D4E000FDF74AFB7D4B93F90230012B01D1FCF78C
:10D4F00009FEFEF75FFA9FED720BFDF73DFBFEF7AD
:10D50000D3FA9FED6F0BFDF737FBFDF75DFB724B19
:10D5100003221A706C4B1B78013BDAB26A4B1A700B
:10D52000ADE1ACE1684B1B781846684B1B78194697
:10D53000674A03010B4412F81330C3F30113DBB243
:10D54000002B27D1604B1B781A46604B1B78013BA0
:10D55000604912010A4413441A785B4B1B781C463D
:10D560005A4B1B7818465B4923010B4403441B7834
:10D570009A420FD2554B1B78002B0BD0FDF7E4FCE1
:10D58000554B02221A70514B1B78013BDAB24F4BBC
:10D590001A7094E04C4B1B7818464C4B1B7819467C
:10D5A0004B4A03010B4412F81330C3F38103DBB27F
:10D5B000002B27D1444B1B780133444A1278114683
:10D5C000444A1B0113440B441A783F4B1B781C46FA
:10D5D0003E4B1B7818463F4923010B4403441B78FC
:10D5E0009A420FD2384B1B780E2B0BD8FEF708FB54
:10D5F000394B01221A70344B1B780133DAB2324BAB
:10D600001A705CE0304B1B781846304B1B7819467B
:10D610002F4A03010B4412F81330C3F38113DBB21A
:10D62000002B27D1284B1B78013B284A1278114642
:10D63000284A1B0113440B441A78234B1B781C46C1
:10D64000224B1B781846234923010B4403441B78C3
:10D650009A420FD21C4B1B78002B0BD0FEF78CFA92
:10D660001D4B03221A70184B1B78013BDAB2164B84
:10D670001A7024E0FDF7B0FB9FED110BFDF77CFA6B
:10D68000164B93F90230012B01D1FCF73BFDFEF75D
:10D6900091F99FED0B0BFDF76FFAFEF705FA9FED81
:10D6A000080BFDF769FAFDF78FFA0B4B00221A7091
:10D6B000064B1B780133DAB2044B1A70DFE0DEE070
:10D6C000333333333333D33F0C4301200D43012035
:10D6D000BC8F0120648A01209A84012074000020FC
:10D6E0006B4B1B7818466B4B1B7819466A4A030133
:10D6F0000B4412F81330C3F38113DBB2002B27D194
:10D70000634B1B78013B634A12781146634A1B0145
:10D7100013440B441A785E4B1B781C465D4B1B78F8
:10D7200018465E4923010B4403441B789A420FD2EA
:10D73000574B1B78002B0BD0FDF706FC584B0322F0
:10D740001A70534B1B78013BDAB2514B1A7094E0BC
:10D750004F4B1B7818464F4B1B7819464E4A030116
:10D760000B4412F81330C3F30113DBB2002B27D1A3
:10D77000474B1B781A46474B1B78013B4749120120
:10D780000A4413441A78424B1B781C46414B1B78C1
:10D790001846424923010B4403441B789A420FD296
:10D7A0003C4B1B78002B0BD0FEF72AFA3C4B022295
:10D7B0001A70384B1B78013BDAB2364B1A705CE0BA
:10D7C000334B1B781846334B1B781946324A0301FA
:10D7D0000B4412F81330C3F30103DBB2002B27D143
:10D7E0002B4B1B781A462B4B1B7801332B4912010C
:10D7F0000A4413441A78264B1B781C46254B1B7889
:10D800001846264923010B4403441B789A420FD241
:10D81000204B1B780E2B0BD8FEF7AEF9204B0022C5
:10D820001A701C4B1B780133DAB21A4B1A7024E0C1
:10D83000FDF7D2FA9FED140BFDF79EF9194B93F902
:10D840000230012B01D1FCF75DFCFEF7B3F89FED30
:10D850000E0BFDF791F9FEF727F99FED0B0BFDF786
:10D860008BF9FDF7B1F90E4B01221A70084B1B78AA
:10D870000133DAB2064B1A7001E000E000BF00BFCE
:10D8800098BD00BFAFF30080333333333333D33F1E
:10D890000C4301200D430120BC8F0120648A01202C
:10D8A0009A8401207400002080B582B000AFFCF79C
:10D8B0007DF9284B00221A70264B1A78264B1A70D5
:10D8C000264B00221A70FEF71DFC234B1B781846CE
:10D8D000204B1B781A46224903011A4411F81230D2
:10D8E000012060F3051301F81230FEF79BFAFDF7F3
:10D8F0006BF9194B00221A70164B1B780133DAB200
:10D90000144B1A7000237B600BE0FEF7FBFBFEF765
:10D9100089FAFFF745FC7B6801337B607B68022B4B
:10D9200010D00D4B1B78052BEFD90B4B1B78072B19
:10D93000EBD8084B1B78082BE7D9064B1B780A2B32
:10D94000E3D800E000BF074B07221A70FCF74EFE39
